{
  "_format": "hh-sol-artifact-1",
  "contractName": "CertificateNFT",
  "sourceName": "contracts/modules/CertificateNFT.sol",
  "abi": [
    {
      "inputs": [
        {
          "internalType": "address",
          "name": "_rolesManager",
          "type": "address"
        }
      ],
      "stateMutability": "nonpayable",
      "type": "constructor"
    },
    {
      "inputs": [],
      "name": "AccessControlBadConfirmation",
      "type": "error"
    },
    {
      "inputs": [
        {
          "internalType": "address",
          "name": "account",
          "type": "address"
        },
        {
          "internalType": "bytes32",
          "name": "neededRole",
          "type": "bytes32"
        }
      ],
      "name": "AccessControlUnauthorizedAccount",
      "type": "error"
    },
    {
      "inputs": [],
      "name": "AuditorOversight__AppealWindowClosed",
      "type": "error"
    },
    {
      "inputs": [],
      "name": "AuditorOversight__CaseNotPending",
      "type": "error"
    },
    {
      "inputs": [],
      "name": "AuditorOversight__NotAuthorizedEnterpriseOwner",
      "type": "error"
    },
    {
      "inputs": [],
      "name": "CertificateNFT__CertificateDoesNotExist",
      "type": "error"
    },
    {
      "inputs": [],
      "name": "CertificateNFT__EnterpriseAlreadyCertified",
      "type": "error"
    },
    {
      "inputs": [],
      "name": "CertificationAuthority__CertificationNotExpiredYet",
      "type": "error"
    },
    {
      "inputs": [],
      "name": "CertificationAuthority__EnterpriseAlreadyCertified",
      "type": "error"
    },
    {
      "inputs": [],
      "name": "CertificationAuthority__EnterpriseNotCertifiedYet",
      "type": "error"
    },
    {
      "inputs": [
        {
          "internalType": "address",
          "name": "sender",
          "type": "address"
        },
        {
          "internalType": "uint256",
          "name": "tokenId",
          "type": "uint256"
        },
        {
          "internalType": "address",
          "name": "owner",
          "type": "address"
        }
      ],
      "name": "ERC721IncorrectOwner",
      "type": "error"
    },
    {
      "inputs": [
        {
          "internalType": "address",
          "name": "operator",
          "type": "address"
        },
        {
          "internalType": "uint256",
          "name": "tokenId",
          "type": "uint256"
        }
      ],
      "name": "ERC721InsufficientApproval",
      "type": "error"
    },
    {
      "inputs": [
        {
          "internalType": "address",
          "name": "approver",
          "type": "address"
        }
      ],
      "name": "ERC721InvalidApprover",
      "type": "error"
    },
    {
      "inputs": [
        {
          "internalType": "address",
          "name": "operator",
          "type": "address"
        }
      ],
      "name": "ERC721InvalidOperator",
      "type": "error"
    },
    {
      "inputs": [
        {
          "internalType": "address",
          "name": "owner",
          "type": "address"
        }
      ],
      "name": "ERC721InvalidOwner",
      "type": "error"
    },
    {
      "inputs": [
        {
          "internalType": "address",
          "name": "receiver",
          "type": "address"
        }
      ],
      "name": "ERC721InvalidReceiver",
      "type": "error"
    },
    {
      "inputs": [
        {
          "internalType": "address",
          "name": "sender",
          "type": "address"
        }
      ],
      "name": "ERC721InvalidSender",
      "type": "error"
    },
    {
      "inputs": [
        {
          "internalType": "uint256",
          "name": "tokenId",
          "type": "uint256"
        }
      ],
      "name": "ERC721NonexistentToken",
      "type": "error"
    },
    {
      "inputs": [],
      "name": "EnterpriseRegistry__EnterpriseAlreadyExists",
      "type": "error"
    },
    {
      "inputs": [],
      "name": "EnterpriseRegistry__EnterpriseDoesNotExist",
      "type": "error"
    },
    {
      "inputs": [],
      "name": "EnterpriseRegistry__InvalidStart",
      "type": "error"
    },
    {
      "inputs": [],
      "name": "InspectionManager__InspectionPeriodExpired",
      "type": "error"
    },
    {
      "inputs": [],
      "name": "InspectionManager__InspectorAlreadyAssigned",
      "type": "error"
    },
    {
      "inputs": [],
      "name": "InspectionManager__InvalidReportIndex",
      "type": "error"
    },
    {
      "inputs": [],
      "name": "InspectionManager__NoReportsAssociatedWithEnterprise",
      "type": "error"
    },
    {
      "inputs": [],
      "name": "InspectionManager__NotAssignedToEnterprise",
      "type": "error"
    },
    {
      "inputs": [],
      "name": "InspectionManager__ReportAlreadyFlagged",
      "type": "error"
    },
    {
      "inputs": [],
      "name": "InvalidAddress",
      "type": "error"
    },
    {
      "inputs": [
        {
          "internalType": "address",
          "name": "owner",
          "type": "address"
        }
      ],
      "name": "OwnableInvalidOwner",
      "type": "error"
    },
    {
      "inputs": [
        {
          "internalType": "address",
          "name": "account",
          "type": "address"
        }
      ],
      "name": "OwnableUnauthorizedAccount",
      "type": "error"
    },
    {
      "inputs": [],
      "name": "RolesManager__AlreadyHasRole",
      "type": "error"
    },
    {
      "inputs": [],
      "name": "RolesManager__ArrayLengthMismatch",
      "type": "error"
    },
    {
      "inputs": [],
      "name": "RolesManager__EmptyArray",
      "type": "error"
    },
    {
      "inputs": [],
      "name": "RolesManager__InvalidDuration",
      "type": "error"
    },
    {
      "inputs": [],
      "name": "RolesManager__NotAuthorizedAuditor",
      "type": "error"
    },
    {
      "inputs": [],
      "name": "RolesManager__NotAuthorizedCertificateFactory",
      "type": "error"
    },
    {
      "inputs": [],
      "name": "RolesManager__NotAuthorizedCertifier",
      "type": "error"
    },
    {
      "inputs": [],
      "name": "RolesManager__NotAuthorizedEnterprise",
      "type": "error"
    },
    {
      "inputs": [],
      "name": "RolesManager__NotAuthorizedInspector",
      "type": "error"
    },
    {
      "inputs": [],
      "name": "RolesManager__NotAuthorizedPublicUser",
      "type": "error"
    },
    {
      "inputs": [],
      "name": "RolesManager__RoleDoesNotExist",
      "type": "error"
    },
    {
      "inputs": [],
      "name": "RolesManager__UnauthorizedToPerformAction",
      "type": "error"
    },
    {
      "anonymous": false,
      "inputs": [
        {
          "indexed": true,
          "internalType": "address",
          "name": "owner",
          "type": "address"
        },
        {
          "indexed": true,
          "internalType": "address",
          "name": "approved",
          "type": "address"
        },
        {
          "indexed": true,
          "internalType": "uint256",
          "name": "tokenId",
          "type": "uint256"
        }
      ],
      "name": "Approval",
      "type": "event"
    },
    {
      "anonymous": false,
      "inputs": [
        {
          "indexed": true,
          "internalType": "address",
          "name": "owner",
          "type": "address"
        },
        {
          "indexed": true,
          "internalType": "address",
          "name": "operator",
          "type": "address"
        },
        {
          "indexed": false,
          "internalType": "bool",
          "name": "approved",
          "type": "bool"
        }
      ],
      "name": "ApprovalForAll",
      "type": "event"
    },
    {
      "anonymous": false,
      "inputs": [
        {
          "indexed": false,
          "internalType": "uint256",
          "name": "_fromTokenId",
          "type": "uint256"
        },
        {
          "indexed": false,
          "internalType": "uint256",
          "name": "_toTokenId",
          "type": "uint256"
        }
      ],
      "name": "BatchMetadataUpdate",
      "type": "event"
    },
    {
      "anonymous": false,
      "inputs": [
        {
          "indexed": false,
          "internalType": "bytes32[]",
          "name": "roles",
          "type": "bytes32[]"
        },
        {
          "indexed": true,
          "internalType": "address[]",
          "name": "accounts",
          "type": "address[]"
        }
      ],
      "name": "BulkRolesGranted",
      "type": "event"
    },
    {
      "anonymous": false,
      "inputs": [
        {
          "indexed": false,
          "internalType": "uint256",
          "name": "certificateId",
          "type": "uint256"
        },
        {
          "indexed": true,
          "internalType": "address",
          "name": "enterprise",
          "type": "address"
        },
        {
          "indexed": true,
          "internalType": "address",
          "name": "certifier",
          "type": "address"
        },
        {
          "indexed": false,
          "internalType": "uint256",
          "name": "mintedAt",
          "type": "uint256"
        }
      ],
      "name": "CertificateMinted",
      "type": "event"
    },
    {
      "anonymous": false,
      "inputs": [
        {
          "indexed": false,
          "internalType": "uint256",
          "name": "certificateId",
          "type": "uint256"
        },
        {
          "indexed": true,
          "internalType": "address",
          "name": "revoker",
          "type": "address"
        },
        {
          "indexed": false,
          "internalType": "uint256",
          "name": "timestamp",
          "type": "uint256"
        }
      ],
      "name": "CertificateRevoked",
      "type": "event"
    },
    {
      "anonymous": false,
      "inputs": [
        {
          "indexed": false,
          "internalType": "uint256",
          "name": "_tokenId",
          "type": "uint256"
        }
      ],
      "name": "MetadataUpdate",
      "type": "event"
    },
    {
      "anonymous": false,
      "inputs": [
        {
          "indexed": true,
          "internalType": "address",
          "name": "previousOwner",
          "type": "address"
        },
        {
          "indexed": true,
          "internalType": "address",
          "name": "newOwner",
          "type": "address"
        }
      ],
      "name": "OwnershipTransferred",
      "type": "event"
    },
    {
      "anonymous": false,
      "inputs": [
        {
          "indexed": true,
          "internalType": "address",
          "name": "user",
          "type": "address"
        }
      ],
      "name": "PublicRoleExpired",
      "type": "event"
    },
    {
      "anonymous": false,
      "inputs": [
        {
          "indexed": true,
          "internalType": "address",
          "name": "user",
          "type": "address"
        },
        {
          "indexed": false,
          "internalType": "uint256",
          "name": "duration",
          "type": "uint256"
        }
      ],
      "name": "PublicRoleGranted",
      "type": "event"
    },
    {
      "anonymous": false,
      "inputs": [
        {
          "indexed": true,
          "internalType": "bytes32",
          "name": "role",
          "type": "bytes32"
        },
        {
          "indexed": true,
          "internalType": "bytes32",
          "name": "previousAdminRole",
          "type": "bytes32"
        },
        {
          "indexed": true,
          "internalType": "bytes32",
          "name": "newAdminRole",
          "type": "bytes32"
        }
      ],
      "name": "RoleAdminChanged",
      "type": "event"
    },
    {
      "anonymous": false,
      "inputs": [
        {
          "indexed": true,
          "internalType": "bytes32",
          "name": "role",
          "type": "bytes32"
        },
        {
          "indexed": true,
          "internalType": "address",
          "name": "account",
          "type": "address"
        },
        {
          "indexed": true,
          "internalType": "address",
          "name": "sender",
          "type": "address"
        }
      ],
      "name": "RoleGranted",
      "type": "event"
    },
    {
      "anonymous": false,
      "inputs": [
        {
          "indexed": true,
          "internalType": "bytes32",
          "name": "role",
          "type": "bytes32"
        },
        {
          "indexed": true,
          "internalType": "address",
          "name": "account",
          "type": "address"
        }
      ],
      "name": "RoleGranted",
      "type": "event"
    },
    {
      "anonymous": false,
      "inputs": [
        {
          "indexed": true,
          "internalType": "bytes32",
          "name": "role",
          "type": "bytes32"
        },
        {
          "indexed": true,
          "internalType": "address",
          "name": "account",
          "type": "address"
        },
        {
          "indexed": true,
          "internalType": "address",
          "name": "sender",
          "type": "address"
        }
      ],
      "name": "RoleRevoked",
      "type": "event"
    },
    {
      "anonymous": false,
      "inputs": [
        {
          "indexed": true,
          "internalType": "bytes32",
          "name": "role",
          "type": "bytes32"
        },
        {
          "indexed": true,
          "internalType": "address",
          "name": "account",
          "type": "address"
        }
      ],
      "name": "RoleRevoked",
      "type": "event"
    },
    {
      "anonymous": false,
      "inputs": [
        {
          "indexed": true,
          "internalType": "bytes32",
          "name": "role",
          "type": "bytes32"
        },
        {
          "indexed": false,
          "internalType": "address",
          "name": "from",
          "type": "address"
        },
        {
          "indexed": false,
          "internalType": "address",
          "name": "to",
          "type": "address"
        }
      ],
      "name": "RoleTransferred",
      "type": "event"
    },
    {
      "anonymous": false,
      "inputs": [
        {
          "indexed": true,
          "internalType": "address",
          "name": "from",
          "type": "address"
        },
        {
          "indexed": true,
          "internalType": "address",
          "name": "to",
          "type": "address"
        },
        {
          "indexed": true,
          "internalType": "uint256",
          "name": "tokenId",
          "type": "uint256"
        }
      ],
      "name": "Transfer",
      "type": "event"
    },
    {
      "inputs": [],
      "name": "AUDITOR_ROLE",
      "outputs": [
        {
          "internalType": "bytes32",
          "name": "",
          "type": "bytes32"
        }
      ],
      "stateMutability": "view",
      "type": "function"
    },
    {
      "inputs": [],
      "name": "CERTIFICATE_FACTORY_ROLE",
      "outputs": [
        {
          "internalType": "bytes32",
          "name": "",
          "type": "bytes32"
        }
      ],
      "stateMutability": "view",
      "type": "function"
    },
    {
      "inputs": [],
      "name": "CERTIFIER_ROLE",
      "outputs": [
        {
          "internalType": "bytes32",
          "name": "",
          "type": "bytes32"
        }
      ],
      "stateMutability": "view",
      "type": "function"
    },
    {
      "inputs": [],
      "name": "DEFAULT_ADMIN_ROLE",
      "outputs": [
        {
          "internalType": "bytes32",
          "name": "",
          "type": "bytes32"
        }
      ],
      "stateMutability": "view",
      "type": "function"
    },
    {
      "inputs": [],
      "name": "DEFAULT_PUBLIC_ROLE_DURATION",
      "outputs": [
        {
          "internalType": "uint256",
          "name": "",
          "type": "uint256"
        }
      ],
      "stateMutability": "view",
      "type": "function"
    },
    {
      "inputs": [],
      "name": "ENTERPRISE_ROLE",
      "outputs": [
        {
          "internalType": "bytes32",
          "name": "",
          "type": "bytes32"
        }
      ],
      "stateMutability": "view",
      "type": "function"
    },
    {
      "inputs": [],
      "name": "INSPECTOR_ROLE",
      "outputs": [
        {
          "internalType": "bytes32",
          "name": "",
          "type": "bytes32"
        }
      ],
      "stateMutability": "view",
      "type": "function"
    },
    {
      "inputs": [],
      "name": "PUBLIC_ROLE",
      "outputs": [
        {
          "internalType": "bytes32",
          "name": "",
          "type": "bytes32"
        }
      ],
      "stateMutability": "view",
      "type": "function"
    },
    {
      "inputs": [
        {
          "internalType": "address",
          "name": "to",
          "type": "address"
        },
        {
          "internalType": "uint256",
          "name": "tokenId",
          "type": "uint256"
        }
      ],
      "name": "approve",
      "outputs": [],
      "stateMutability": "nonpayable",
      "type": "function"
    },
    {
      "inputs": [
        {
          "internalType": "address",
          "name": "owner",
          "type": "address"
        }
      ],
      "name": "balanceOf",
      "outputs": [
        {
          "internalType": "uint256",
          "name": "",
          "type": "uint256"
        }
      ],
      "stateMutability": "view",
      "type": "function"
    },
    {
      "inputs": [
        {
          "internalType": "bytes32[]",
          "name": "roles",
          "type": "bytes32[]"
        },
        {
          "internalType": "address[]",
          "name": "accounts",
          "type": "address[]"
        }
      ],
      "name": "bulkGrantRoles",
      "outputs": [],
      "stateMutability": "nonpayable",
      "type": "function"
    },
    {
      "inputs": [
        {
          "internalType": "address",
          "name": "account",
          "type": "address"
        }
      ],
      "name": "checkExpiryRoles",
      "outputs": [],
      "stateMutability": "nonpayable",
      "type": "function"
    },
    {
      "inputs": [
        {
          "internalType": "uint256",
          "name": "durationInHours",
          "type": "uint256"
        }
      ],
      "name": "claimTemporaryPublicRole",
      "outputs": [],
      "stateMutability": "nonpayable",
      "type": "function"
    },
    {
      "inputs": [
        {
          "internalType": "address",
          "name": "",
          "type": "address"
        }
      ],
      "name": "enterpriseCertificate",
      "outputs": [
        {
          "internalType": "uint256",
          "name": "",
          "type": "uint256"
        }
      ],
      "stateMutability": "view",
      "type": "function"
    },
    {
      "inputs": [
        {
          "internalType": "address",
          "name": "account",
          "type": "address"
        }
      ],
      "name": "getActiveRoles",
      "outputs": [
        {
          "internalType": "bool",
          "name": "isAdmin",
          "type": "bool"
        },
        {
          "internalType": "bool",
          "name": "isCertifier",
          "type": "bool"
        },
        {
          "internalType": "bool",
          "name": "isInspector",
          "type": "bool"
        },
        {
          "internalType": "bool",
          "name": "isAuditor",
          "type": "bool"
        },
        {
          "internalType": "bool",
          "name": "isEnterprise",
          "type": "bool"
        },
        {
          "internalType": "bool",
          "name": "isCertificateFactory",
          "type": "bool"
        },
        {
          "internalType": "bool",
          "name": "isPublic",
          "type": "bool"
        }
      ],
      "stateMutability": "view",
      "type": "function"
    },
    {
      "inputs": [
        {
          "internalType": "uint256",
          "name": "tokenId",
          "type": "uint256"
        }
      ],
      "name": "getApproved",
      "outputs": [
        {
          "internalType": "address",
          "name": "",
          "type": "address"
        }
      ],
      "stateMutability": "view",
      "type": "function"
    },
    {
      "inputs": [
        {
          "internalType": "address",
          "name": "enterprise",
          "type": "address"
        }
      ],
      "name": "getCertificateId",
      "outputs": [
        {
          "internalType": "uint256",
          "name": "",
          "type": "uint256"
        }
      ],
      "stateMutability": "view",
      "type": "function"
    },
    {
      "inputs": [],
      "name": "getMaxPublicRoleDuration",
      "outputs": [
        {
          "internalType": "uint256",
          "name": "",
          "type": "uint256"
        }
      ],
      "stateMutability": "pure",
      "type": "function"
    },
    {
      "inputs": [
        {
          "internalType": "bytes32",
          "name": "role",
          "type": "bytes32"
        }
      ],
      "name": "getRoleAdmin",
      "outputs": [
        {
          "internalType": "bytes32",
          "name": "",
          "type": "bytes32"
        }
      ],
      "stateMutability": "view",
      "type": "function"
    },
    {
      "inputs": [
        {
          "internalType": "address",
          "name": "account",
          "type": "address"
        }
      ],
      "name": "grantAuditor",
      "outputs": [],
      "stateMutability": "nonpayable",
      "type": "function"
    },
    {
      "inputs": [
        {
          "internalType": "address",
          "name": "account",
          "type": "address"
        }
      ],
      "name": "grantCertificateFactory",
      "outputs": [],
      "stateMutability": "nonpayable",
      "type": "function"
    },
    {
      "inputs": [
        {
          "internalType": "address",
          "name": "account",
          "type": "address"
        }
      ],
      "name": "grantCertifier",
      "outputs": [],
      "stateMutability": "nonpayable",
      "type": "function"
    },
    {
      "inputs": [
        {
          "internalType": "address",
          "name": "account",
          "type": "address"
        }
      ],
      "name": "grantEnterprise",
      "outputs": [],
      "stateMutability": "nonpayable",
      "type": "function"
    },
    {
      "inputs": [
        {
          "internalType": "address",
          "name": "account",
          "type": "address"
        }
      ],
      "name": "grantInspector",
      "outputs": [],
      "stateMutability": "nonpayable",
      "type": "function"
    },
    {
      "inputs": [
        {
          "internalType": "address",
          "name": "account",
          "type": "address"
        }
      ],
      "name": "grantPublicRole",
      "outputs": [],
      "stateMutability": "nonpayable",
      "type": "function"
    },
    {
      "inputs": [
        {
          "internalType": "bytes32",
          "name": "role",
          "type": "bytes32"
        },
        {
          "internalType": "address",
          "name": "account",
          "type": "address"
        }
      ],
      "name": "grantRole",
      "outputs": [],
      "stateMutability": "nonpayable",
      "type": "function"
    },
    {
      "inputs": [
        {
          "internalType": "address",
          "name": "account",
          "type": "address"
        }
      ],
      "name": "hasAdminRole",
      "outputs": [
        {
          "internalType": "bool",
          "name": "",
          "type": "bool"
        }
      ],
      "stateMutability": "view",
      "type": "function"
    },
    {
      "inputs": [
        {
          "internalType": "address",
          "name": "account",
          "type": "address"
        }
      ],
      "name": "hasAuditorRole",
      "outputs": [
        {
          "internalType": "bool",
          "name": "",
          "type": "bool"
        }
      ],
      "stateMutability": "view",
      "type": "function"
    },
    {
      "inputs": [
        {
          "internalType": "address",
          "name": "account",
          "type": "address"
        }
      ],
      "name": "hasCertificateFactoryRole",
      "outputs": [
        {
          "internalType": "bool",
          "name": "",
          "type": "bool"
        }
      ],
      "stateMutability": "view",
      "type": "function"
    },
    {
      "inputs": [
        {
          "internalType": "address",
          "name": "account",
          "type": "address"
        }
      ],
      "name": "hasCertifierRole",
      "outputs": [
        {
          "internalType": "bool",
          "name": "",
          "type": "bool"
        }
      ],
      "stateMutability": "view",
      "type": "function"
    },
    {
      "inputs": [
        {
          "internalType": "address",
          "name": "account",
          "type": "address"
        }
      ],
      "name": "hasEnterpriseRole",
      "outputs": [
        {
          "internalType": "bool",
          "name": "",
          "type": "bool"
        }
      ],
      "stateMutability": "view",
      "type": "function"
    },
    {
      "inputs": [
        {
          "internalType": "address",
          "name": "account",
          "type": "address"
        }
      ],
      "name": "hasInspectorRole",
      "outputs": [
        {
          "internalType": "bool",
          "name": "",
          "type": "bool"
        }
      ],
      "stateMutability": "view",
      "type": "function"
    },
    {
      "inputs": [
        {
          "internalType": "address",
          "name": "account",
          "type": "address"
        }
      ],
      "name": "hasPublicRole",
      "outputs": [
        {
          "internalType": "bool",
          "name": "",
          "type": "bool"
        }
      ],
      "stateMutability": "view",
      "type": "function"
    },
    {
      "inputs": [
        {
          "internalType": "bytes32",
          "name": "role",
          "type": "bytes32"
        },
        {
          "internalType": "address",
          "name": "account",
          "type": "address"
        }
      ],
      "name": "hasRole",
      "outputs": [
        {
          "internalType": "bool",
          "name": "",
          "type": "bool"
        }
      ],
      "stateMutability": "view",
      "type": "function"
    },
    {
      "inputs": [
        {
          "internalType": "address",
          "name": "owner",
          "type": "address"
        },
        {
          "internalType": "address",
          "name": "operator",
          "type": "address"
        }
      ],
      "name": "isApprovedForAll",
      "outputs": [
        {
          "internalType": "bool",
          "name": "",
          "type": "bool"
        }
      ],
      "stateMutability": "view",
      "type": "function"
    },
    {
      "inputs": [
        {
          "internalType": "uint256",
          "name": "certId",
          "type": "uint256"
        }
      ],
      "name": "isCertificateValid",
      "outputs": [
        {
          "internalType": "bool",
          "name": "",
          "type": "bool"
        }
      ],
      "stateMutability": "view",
      "type": "function"
    },
    {
      "inputs": [
        {
          "internalType": "address",
          "name": "enterprise",
          "type": "address"
        },
        {
          "internalType": "string",
          "name": "metadataURI",
          "type": "string"
        }
      ],
      "name": "mintCertificate",
      "outputs": [
        {
          "internalType": "uint256",
          "name": "",
          "type": "uint256"
        }
      ],
      "stateMutability": "nonpayable",
      "type": "function"
    },
    {
      "inputs": [],
      "name": "name",
      "outputs": [
        {
          "internalType": "string",
          "name": "",
          "type": "string"
        }
      ],
      "stateMutability": "view",
      "type": "function"
    },
    {
      "inputs": [],
      "name": "nextCertificateId",
      "outputs": [
        {
          "internalType": "uint256",
          "name": "",
          "type": "uint256"
        }
      ],
      "stateMutability": "view",
      "type": "function"
    },
    {
      "inputs": [],
      "name": "owner",
      "outputs": [
        {
          "internalType": "address",
          "name": "",
          "type": "address"
        }
      ],
      "stateMutability": "view",
      "type": "function"
    },
    {
      "inputs": [
        {
          "internalType": "uint256",
          "name": "tokenId",
          "type": "uint256"
        }
      ],
      "name": "ownerOf",
      "outputs": [
        {
          "internalType": "address",
          "name": "",
          "type": "address"
        }
      ],
      "stateMutability": "view",
      "type": "function"
    },
    {
      "inputs": [
        {
          "internalType": "address",
          "name": "",
          "type": "address"
        }
      ],
      "name": "publicRoleExpiry",
      "outputs": [
        {
          "internalType": "uint256",
          "name": "",
          "type": "uint256"
        }
      ],
      "stateMutability": "view",
      "type": "function"
    },
    {
      "inputs": [],
      "name": "renounceOwnership",
      "outputs": [],
      "stateMutability": "nonpayable",
      "type": "function"
    },
    {
      "inputs": [
        {
          "internalType": "bytes32",
          "name": "role",
          "type": "bytes32"
        },
        {
          "internalType": "address",
          "name": "callerConfirmation",
          "type": "address"
        }
      ],
      "name": "renounceRole",
      "outputs": [],
      "stateMutability": "nonpayable",
      "type": "function"
    },
    {
      "inputs": [
        {
          "internalType": "address",
          "name": "account",
          "type": "address"
        }
      ],
      "name": "revokeAuditorRole",
      "outputs": [],
      "stateMutability": "nonpayable",
      "type": "function"
    },
    {
      "inputs": [
        {
          "internalType": "uint256",
          "name": "certId",
          "type": "uint256"
        }
      ],
      "name": "revokeCertificate",
      "outputs": [],
      "stateMutability": "nonpayable",
      "type": "function"
    },
    {
      "inputs": [
        {
          "internalType": "address",
          "name": "account",
          "type": "address"
        }
      ],
      "name": "revokeCertificateFactoryRole",
      "outputs": [],
      "stateMutability": "nonpayable",
      "type": "function"
    },
    {
      "inputs": [
        {
          "internalType": "address",
          "name": "account",
          "type": "address"
        }
      ],
      "name": "revokeCertifierRole",
      "outputs": [],
      "stateMutability": "nonpayable",
      "type": "function"
    },
    {
      "inputs": [
        {
          "internalType": "address",
          "name": "account",
          "type": "address"
        }
      ],
      "name": "revokeEnterpriseRole",
      "outputs": [],
      "stateMutability": "nonpayable",
      "type": "function"
    },
    {
      "inputs": [
        {
          "internalType": "address",
          "name": "account",
          "type": "address"
        }
      ],
      "name": "revokeInspectorRole",
      "outputs": [],
      "stateMutability": "nonpayable",
      "type": "function"
    },
    {
      "inputs": [
        {
          "internalType": "address",
          "name": "account",
          "type": "address"
        }
      ],
      "name": "revokePublicRole",
      "outputs": [],
      "stateMutability": "nonpayable",
      "type": "function"
    },
    {
      "inputs": [
        {
          "internalType": "bytes32",
          "name": "role",
          "type": "bytes32"
        },
        {
          "internalType": "address",
          "name": "account",
          "type": "address"
        }
      ],
      "name": "revokeRole",
      "outputs": [],
      "stateMutability": "nonpayable",
      "type": "function"
    },
    {
      "inputs": [],
      "name": "rolesManager",
      "outputs": [
        {
          "internalType": "contract RolesManager",
          "name": "",
          "type": "address"
        }
      ],
      "stateMutability": "view",
      "type": "function"
    },
    {
      "inputs": [
        {
          "internalType": "address",
          "name": "from",
          "type": "address"
        },
        {
          "internalType": "address",
          "name": "to",
          "type": "address"
        },
        {
          "internalType": "uint256",
          "name": "tokenId",
          "type": "uint256"
        }
      ],
      "name": "safeTransferFrom",
      "outputs": [],
      "stateMutability": "nonpayable",
      "type": "function"
    },
    {
      "inputs": [
        {
          "internalType": "address",
          "name": "from",
          "type": "address"
        },
        {
          "internalType": "address",
          "name": "to",
          "type": "address"
        },
        {
          "internalType": "uint256",
          "name": "tokenId",
          "type": "uint256"
        },
        {
          "internalType": "bytes",
          "name": "data",
          "type": "bytes"
        }
      ],
      "name": "safeTransferFrom",
      "outputs": [],
      "stateMutability": "nonpayable",
      "type": "function"
    },
    {
      "inputs": [
        {
          "internalType": "address",
          "name": "operator",
          "type": "address"
        },
        {
          "internalType": "bool",
          "name": "approved",
          "type": "bool"
        }
      ],
      "name": "setApprovalForAll",
      "outputs": [],
      "stateMutability": "nonpayable",
      "type": "function"
    },
    {
      "inputs": [
        {
          "internalType": "bytes4",
          "name": "interfaceId",
          "type": "bytes4"
        }
      ],
      "name": "supportsInterface",
      "outputs": [
        {
          "internalType": "bool",
          "name": "",
          "type": "bool"
        }
      ],
      "stateMutability": "view",
      "type": "function"
    },
    {
      "inputs": [],
      "name": "symbol",
      "outputs": [
        {
          "internalType": "string",
          "name": "",
          "type": "string"
        }
      ],
      "stateMutability": "view",
      "type": "function"
    },
    {
      "inputs": [
        {
          "internalType": "uint256",
          "name": "tokenId",
          "type": "uint256"
        }
      ],
      "name": "tokenURI",
      "outputs": [
        {
          "internalType": "string",
          "name": "",
          "type": "string"
        }
      ],
      "stateMutability": "view",
      "type": "function"
    },
    {
      "inputs": [
        {
          "internalType": "address",
          "name": "from",
          "type": "address"
        },
        {
          "internalType": "address",
          "name": "to",
          "type": "address"
        },
        {
          "internalType": "uint256",
          "name": "tokenId",
          "type": "uint256"
        }
      ],
      "name": "transferFrom",
      "outputs": [],
      "stateMutability": "nonpayable",
      "type": "function"
    },
    {
      "inputs": [
        {
          "internalType": "address",
          "name": "newOwner",
          "type": "address"
        }
      ],
      "name": "transferOwnership",
      "outputs": [],
      "stateMutability": "nonpayable",
      "type": "function"
    },
    {
      "inputs": [
        {
          "internalType": "bytes32",
          "name": "role",
          "type": "bytes32"
        },
        {
          "internalType": "address",
          "name": "from",
          "type": "address"
        },
        {
          "internalType": "address",
          "name": "to",
          "type": "address"
        }
      ],
      "name": "transferRole",
      "outputs": [],
      "stateMutability": "nonpayable",
      "type": "function"
    },
    {
      "inputs": [
        {
          "internalType": "uint256",
          "name": "",
          "type": "uint256"
        }
      ],
      "name": "validCertificates",
      "outputs": [
        {
          "internalType": "bool",
          "name": "",
          "type": "bool"
        }
      ],
      "stateMutability": "view",
      "type": "function"
    }
  ],
  "bytecode": "0x60806040523480156200001157600080fd5b506040516200301138038062003011833981016040819052620000349162000256565b604080518082018252601681527f456e74657270726973652043657274696669636174650000000000000000000060208083019190915282518084019093526009835268111251d24b50d1549560ba1b9083015233916200009760008462000144565b620000c37fc41a06b26ced3a23b7bf835a0918ade784f4055ded86d18305f528f47a7260523362000144565b6002620000d183826200032c565b506003620000e082826200032c565b5050506001600160a01b0381166200011257604051631e4fbdf760e01b81526000600482015260240160405180910390fd5b6200011d8162000155565b50600a80546001600160a01b0319166001600160a01b0392909216919091179055620003f8565b620001508282620001a7565b505050565b600980546001600160a01b038381166001600160a01b0319831681179093556040519116919082907f8be0079c531659141344cd1fd0a4f28419497f9722a3daafe3b4186f6b6457e090600090a35050565b6000828152602081815260408083206001600160a01b038516845290915281205460ff166200024c576000838152602081815260408083206001600160a01b03861684529091529020805460ff19166001179055620002033390565b6001600160a01b0316826001600160a01b0316847f2f8788117e7eff1d82e926ec794901d17c78024a50270940304540a733656f0d60405160405180910390a450600162000250565b5060005b92915050565b6000602082840312156200026957600080fd5b81516001600160a01b03811681146200028157600080fd5b9392505050565b634e487b7160e01b600052604160045260246000fd5b600181811c90821680620002b357607f821691505b602082108103620002d457634e487b7160e01b600052602260045260246000fd5b50919050565b601f8211156200015057600081815260208120601f850160051c81016020861015620003035750805b601f850160051c820191505b8181101562000324578281556001016200030f565b505050505050565b81516001600160401b0381111562000348576200034862000288565b62000360816200035984546200029e565b84620002da565b602080601f8311600181146200039857600084156200037f5750858301515b600019600386901b1c1916600185901b17855562000324565b600085815260208120601f198616915b82811015620003c957888601518255948401946001909101908401620003a8565b5085821015620003e85787850151600019600388901b60f8161c191681555b5050505050600190811b01905550565b612c0980620004086000396000f3fe608060405234801561001057600080fd5b50600436106103c55760003560e01c80637baeba25116101ff578063b0614db31161011a578063c87b56dd116100ad578063e985e9c51161007c578063e985e9c5146108bd578063f2fde38b146108d0578063f53f5e1e146108e3578063fc810286146108f657600080fd5b8063c87b56dd1461086f578063d547741f14610882578063e3a3c52214610895578063e55b4f93146108aa57600080fd5b8063b9bc982f116100e9578063b9bc982f1461081e578063bd7ca7ba14610826578063c395fcb314610839578063c4cdfe1e1461084c57600080fd5b8063b0614db314610790578063b5617ef7146107e4578063b88d4fde14610804578063b8ad415e1461081757600080fd5b8063a0bdb00311610192578063a3574c5b11610161578063a3574c5b14610734578063a5ce413a14610747578063aa52617c1461076a578063abaa536f1461077d57600080fd5b8063a0bdb003146106fd578063a1f3416314610706578063a217fddf14610719578063a22cb4651461072157600080fd5b80638da5cb5b116101ce5780638da5cb5b146106b157806391d14854146106c2578063938600e2146106d557806395d89b41146106f557600080fd5b80637baeba25146106655780637bff0975146106785780637e5effa41461068b5780638850845f1461069e57600080fd5b80633e251518116102ef5780636352211e1161028257806370a082311161025157806370a0823114610622578063715018a6146106355780637780e9c11461063d578063784fee0e1461065057600080fd5b80636352211e146105d057806368dd17a5146105e357806369d0b517146105f85780636e1d616e1461060d57600080fd5b806357c03371116102be57806357c03371146105845780635cb87d261461059757806360376528146105aa57806361462f0e146105bd57600080fd5b80633e2515181461053857806342842e0e1461054b578063456f19fc1461055e57806352f84b721461057157600080fd5b80631e223b2a11610367578063261191b711610336578063261191b7146104ea5780632f2ff15d146104fd57806336568abe146105105780633ca7c02a1461052357600080fd5b80631e223b2a1461048e57806323b872dd146104a1578063248a9ca3146104b457806325d5e87e146104d757600080fd5b806306fdde03116103a357806306fdde031461041a5780630712249f1461042f578063081812fc14610450578063095ea7b31461047b57600080fd5b806301ffc9a7146103ca5780630443cd2a146103f257806306f5497e14610407575b600080fd5b6103dd6103d83660046123fa565b610909565b60405190151581526020015b60405180910390f35b610405610400366004612433565b610929565b005b61040561041536600461244e565b6109ab565b610422610a61565b6040516103e991906124b7565b61044261043d366004612556565b610af3565b6040519081526020016103e9565b61046361045e36600461244e565b610c10565b6040516001600160a01b0390911681526020016103e9565b6104056104893660046125b8565b610c39565b61040561049c366004612433565b610c48565b6104056104af3660046125e2565b610cca565b6104426104c236600461244e565b60009081526020819052604090206001015490565b6104056104e5366004612433565b610d5a565b6104056104f8366004612433565b610df1565b61040561050b36600461261e565b610e73565b61040561051e36600461261e565b610e98565b610442600080516020612b1483398151915281565b610405610546366004612433565b610ed0565b6104056105593660046125e2565b610f52565b61040561056c366004612433565b610f6d565b6103dd61057f366004612433565b610fef565b610405610592366004612433565b611009565b6104056105a536600461264a565b6110a7565b6104056105b8366004612433565b61113a565b6104056105cb3660046126d2565b6111bc565b6104636105de36600461244e565b6112cf565b610442600080516020612ad483398151915281565b610442600080516020612b3483398151915281565b610442600080516020612b7483398151915281565b610442610630366004612433565b6112da565b610405611322565b61040561064b36600461244e565b611336565b610442600080516020612b5483398151915281565b610442610673366004612433565b611404565b6103dd610686366004612433565b611450565b610405610699366004612433565b61146a565b6103dd6106ac366004612433565b6114ec565b6009546001600160a01b0316610463565b6103dd6106d036600461261e565b611502565b6104426106e3366004612433565b600c6020526000908152604090205481565b61042261152b565b610442600b5481565b6103dd610714366004612433565b61153a565b610442600081565b61040561072f36600461273e565b611554565b600a54610463906001600160a01b031681565b6103dd61075536600461244e565b6000908152600d602052604090205460ff1690565b610405610778366004612433565b61155f565b6103dd61078b366004612433565b6115e1565b6107a361079e366004612433565b6115fb565b60408051971515885295151560208801529315159486019490945290151560608501521515608084015290151560a0830152151560c082015260e0016103e9565b6104426107f2366004612433565b60016020526000908152604090205481565b61040561081236600461277a565b6116b4565b6018610442565b610442607881565b610405610834366004612433565b6116cb565b6103dd610847366004612433565b611716565b6103dd61085a36600461244e565b600d6020526000908152604090205460ff1681565b61042261087d36600461244e565b611722565b61040561089036600461261e565b611833565b610442600080516020612b9483398151915281565b6104056108b8366004612433565b611858565b6103dd6108cb3660046127f6565b6118da565b6104056108de366004612433565b611908565b6103dd6108f1366004612433565b611943565b610405610904366004612433565b611986565b600061091482611a08565b80610923575061092382611a3d565b92915050565b806001600160a01b0381166109515760405163e6c4247b60e01b815260040160405180910390fd5b600061095c81611a62565b610974600080516020612b1483398151915284611833565b6040516001600160a01b03841690600080516020612b1483398151915290600080516020612bb483398151915290600090a3505050565b600080516020612b348339815191526109c381611a62565b60006109ce81611a62565b6000838152600d602052604081205460ff1615159003610a0157604051631a573bc760e31b815260040160405180910390fd5b6000838152600d602052604090819020805460ff191690555133907f1adbf4393900ce3a2332405b86649270c35d1316887336d83190dcbae6a423b990610a549086904290918252602082015260400190565b60405180910390a2505050565b606060028054610a7090612820565b80601f0160208091040260200160405190810160405280929190818152602001828054610a9c90612820565b8015610ae95780601f10610abe57610100808354040283529160200191610ae9565b820191906000526020600020905b815481529060010190602001808311610acc57829003601f168201915b5050505050905090565b6000826001600160a01b038116610b1d5760405163e6c4247b60e01b815260040160405180910390fd5b600080516020612b34833981519152610b3581611a62565b6001600160a01b0385166000908152600c602052604090205415610b6c576040516317b40a5d60e31b815260040160405180910390fd5b6000600b60008154610b7d9061286a565b91829055509050610b8e8682611a6c565b610b988186611ad1565b6001600160a01b0386166000818152600c60209081526040808320859055848352600d825291829020805460ff19166001179055815184815242918101919091523392917f4d11bba94ed08338c093ab404c84f6c0615c1b51439f9b666edd217b326ce9b6910160405180910390a395945050505050565b6000610c1b82611b21565b506000828152600660205260409020546001600160a01b0316610923565b610c44828233611b5a565b5050565b806001600160a01b038116610c705760405163e6c4247b60e01b815260040160405180910390fd5b6000610c7b81611a62565b610c93600080516020612ad483398151915284610e73565b6040516001600160a01b03841690600080516020612ad483398151915290600080516020612af483398151915290600090a3505050565b6001600160a01b038216610cf957604051633250574960e11b8152600060048201526024015b60405180910390fd5b6000610d06838333611b67565b9050836001600160a01b0316816001600160a01b031614610d54576040516364283d7b60e01b81526001600160a01b0380861660048301526024820184905282166044820152606401610cf0565b50505050565b610d6381611c60565b610d80576040516366783c9d60e11b815260040160405180910390fd5b6001600160a01b038116600090815260016020526040902054421115610dee57610db8600080516020612b1483398151915282611c7a565b506040516001600160a01b038216907fa6f32bcbc7de829d50e1c9cbc1c5b4dafb4c7a0b8329757aee62a9b394d71c3b90600090a25b50565b806001600160a01b038116610e195760405163e6c4247b60e01b815260040160405180910390fd5b6000610e2481611a62565b610e3c600080516020612b5483398151915284611833565b6040516001600160a01b03841690600080516020612b5483398151915290600080516020612bb483398151915290600090a3505050565b600082815260208190526040902060010154610e8e81611a62565b610d548383611ced565b6001600160a01b0381163314610ec15760405163334bd91960e11b815260040160405180910390fd5b610ecb8282611c7a565b505050565b806001600160a01b038116610ef85760405163e6c4247b60e01b815260040160405180910390fd5b6000610f0381611a62565b610f1b600080516020612b7483398151915284611833565b6040516001600160a01b03841690600080516020612b7483398151915290600080516020612bb483398151915290600090a3505050565b610ecb838383604051806020016040528060008152506116b4565b806001600160a01b038116610f955760405163e6c4247b60e01b815260040160405180910390fd5b6000610fa081611a62565b610fb8600080516020612b9483398151915284610e73565b6040516001600160a01b03841690600080516020612b9483398151915290600080516020612af483398151915290600090a3505050565b6000610923600080516020612b5483398151915283611502565b806001600160a01b0381166110315760405163e6c4247b60e01b815260040160405180910390fd5b600061103c81611a62565b611054600080516020612b1483398151915284610e73565b61105f607842612883565b336000908152600160205260408082209290925590516001600160a01b03851691600080516020612b1483398151915291600080516020612af48339815191529190a3505050565b60006110b281611a62565b6110bc8484611502565b6110d9576040516366783c9d60e11b815260040160405180910390fd5b6110e38484611c7a565b506110ee8483611ced565b50604080516001600160a01b0380861682528416602082015285917f274dd4127a55dcb6f6c12ed38fec5007d965d2afffa8b0bc75c3dc8f3f6b2224910160405180910390a250505050565b806001600160a01b0381166111625760405163e6c4247b60e01b815260040160405180910390fd5b600061116d81611a62565b611185600080516020612b3483398151915284610e73565b6040516001600160a01b03841690600080516020612b3483398151915290600080516020612af483398151915290600090a3505050565b60006111c781611a62565b8315806111d2575081155b156111f057604051637d6eaf9360e01b815260040160405180910390fd5b838214611210576040516390a2f79360e01b815260040160405180910390fd5b60005b848110156112765761126386868381811061123057611230612896565b9050602002013585858481811061124957611249612896565b905060200201602081019061125e9190612433565b611ced565b508061126e8161286a565b915050611213565b5082826040516112879291906128ac565b60405180910390207ff4d52c90739c68c4e82d39cfbeee6b6613784bf9b28d2cdb3a02203799cf060686866040516112c09291906128ec565b60405180910390a25050505050565b600061092382611b21565b60006001600160a01b038216611306576040516322718ad960e21b815260006004820152602401610cf0565b506001600160a01b031660009081526005602052604090205490565b61132a611d77565b6113346000611da4565b565b61133f33611943565b1561135d5760405163510a583360e01b815260040160405180910390fd5b601881111561137f57604051630729422160e41b815260040160405180910390fd5b600061138d82610e10612925565b90506113a7600080516020612b1483398151915233611ced565b506113b28142612883565b33600081815260016020526040908190209290925590517fc526cdae63c288ea4504281fe29b0ae3352c8a9ccae61eba8c21cd25a949e0f1906113f89085815260200190565b60405180910390a25050565b6000816001600160a01b03811661142e5760405163e6c4247b60e01b815260040160405180910390fd5b6001600160a01b0383166000908152600c602052604090205491505b50919050565b6000610923600080516020612b3483398151915283611502565b806001600160a01b0381166114925760405163e6c4247b60e01b815260040160405180910390fd5b600061149d81611a62565b6114b5600080516020612ad483398151915284611833565b6040516001600160a01b03841690600080516020612ad483398151915290600080516020612bb483398151915290600090a3505050565b6000610923600080516020612b94833981519152835b6000918252602082815260408084206001600160a01b0393909316845291905290205460ff1690565b606060038054610a7090612820565b6000610923600080516020612ad483398151915283611502565b610c44338383611df6565b806001600160a01b0381166115875760405163e6c4247b60e01b815260040160405180910390fd5b600061159281611a62565b6115aa600080516020612b5483398151915284610e73565b6040516001600160a01b03841690600080516020612b5483398151915290600080516020612af483398151915290600090a3505050565b6000610923600080516020612b7483398151915283611502565b600080808080808061160d8189611502565b611625600080516020612b348339815191528a611502565b61163d600080516020612b948339815191528b611502565b611655600080516020612b748339815191528c611502565b61166d600080516020612ad48339815191528d611502565b611685600080516020612b548339815191528e611502565b61169d600080516020612b148339815191528f611502565b959e949d50929b5090995097509550909350915050565b6116bf848484610cca565b610d5484848484611e95565b806001600160a01b0381166116f35760405163e6c4247b60e01b815260040160405180910390fd5b60006116fe81611a62565b610ecb600080516020612b9483398151915284611833565b60006109238183611502565b606061172d82611b21565b506000828152600860205260408120805461174790612820565b80601f016020809104026020016040519081016040528092919081815260200182805461177390612820565b80156117c05780601f10611795576101008083540402835291602001916117c0565b820191906000526020600020905b8154815290600101906020018083116117a357829003601f168201915b5050505050905060006117de60408051602081019091526000815290565b905080516000036117f0575092915050565b81511561182257808260405160200161180a92919061293c565b60405160208183030381529060405292505050919050565b61182b84611fbe565b949350505050565b60008281526020819052604090206001015461184e81611a62565b610d548383611c7a565b806001600160a01b0381166118805760405163e6c4247b60e01b815260040160405180910390fd5b600061188b81611a62565b6118a3600080516020612b7483398151915284610e73565b6040516001600160a01b03841690600080516020612b7483398151915290600080516020612af483398151915290600090a3505050565b6001600160a01b03918216600090815260076020908152604080832093909416825291909152205460ff1690565b611910611d77565b6001600160a01b03811661193a57604051631e4fbdf760e01b815260006004820152602401610cf0565b610dee81611da4565b600061194e82611c60565b801561197157506001600160a01b03821660009081526001602052604090205442105b1561197e57506001919050565b506000919050565b806001600160a01b0381166119ae5760405163e6c4247b60e01b815260040160405180910390fd5b60006119b981611a62565b6119d1600080516020612b3483398151915284611833565b6040516001600160a01b03841690600080516020612b3483398151915290600080516020612bb483398151915290600090a3505050565b60006001600160e01b03198216637965db0b60e01b148061092357506301ffc9a760e01b6001600160e01b0319831614610923565b60006001600160e01b03198216632483248360e11b1480610923575061092382612033565b610dee8133612073565b6001600160a01b038216611a9657604051633250574960e11b815260006004820152602401610cf0565b6000611aa483836000611b67565b90506001600160a01b03811615610ecb576040516339e3563760e11b815260006004820152602401610cf0565b6000828152600860205260409020611ae982826129b9565b506040518281527ff8e1a15aba9398e019f0b49df1a4fde98ee17ae345cb5f6b5e2c27f5033e8ce79060200160405180910390a15050565b6000818152600460205260408120546001600160a01b03168061092357604051637e27328960e01b815260048101849052602401610cf0565b610ecb83838360016120ac565b6000828152600460205260408120546001600160a01b0390811690831615611b9457611b948184866121b2565b6001600160a01b03811615611bd257611bb16000856000806120ac565b6001600160a01b038116600090815260056020526040902080546000190190555b6001600160a01b03851615611c01576001600160a01b0385166000908152600560205260409020805460010190555b60008481526004602052604080822080546001600160a01b0319166001600160a01b0389811691821790925591518793918516917fddf252ad1be2c89b69c2b068fc378daa952ba7f163c4a11628f55a4df523b3ef91a4949350505050565b6000610923600080516020612b1483398151915283611502565b6000611c868383611502565b15611ce5576000838152602081815260408083206001600160a01b0386168085529252808320805460ff1916905551339286917ff6391f5c32d9c69d2a47ea670b442974b53935d1edc7fd64eb21e047a839171b9190a4506001610923565b506000610923565b6000611cf98383611502565b611ce5576000838152602081815260408083206001600160a01b03861684529091529020805460ff19166001179055611d2f3390565b6001600160a01b0316826001600160a01b0316847f2f8788117e7eff1d82e926ec794901d17c78024a50270940304540a733656f0d60405160405180910390a4506001610923565b6009546001600160a01b031633146113345760405163118cdaa760e01b8152336004820152602401610cf0565b600980546001600160a01b038381166001600160a01b0319831681179093556040519116919082907f8be0079c531659141344cd1fd0a4f28419497f9722a3daafe3b4186f6b6457e090600090a35050565b6001600160a01b038216611e2857604051630b61174360e31b81526001600160a01b0383166004820152602401610cf0565b6001600160a01b03838116600081815260076020908152604080832094871680845294825291829020805460ff191686151590811790915591519182527f17307eab39ab6107e8899845ad3d59bd9653f200f220920489ca2b5937696c31910160405180910390a3505050565b6001600160a01b0383163b15610d5457604051630a85bd0160e11b81526001600160a01b0384169063150b7a0290611ed7903390889087908790600401612a79565b6020604051808303816000875af1925050508015611f12575060408051601f3d908101601f19168201909252611f0f91810190612ab6565b60015b611f7b573d808015611f40576040519150601f19603f3d011682016040523d82523d6000602084013e611f45565b606091505b508051600003611f7357604051633250574960e11b81526001600160a01b0385166004820152602401610cf0565b805181602001fd5b6001600160e01b03198116630a85bd0160e11b14611fb757604051633250574960e11b81526001600160a01b0385166004820152602401610cf0565b5050505050565b6060611fc982611b21565b506000611fe160408051602081019091526000815290565b90506000815111612001576040518060200160405280600081525061202c565b8061200b84612216565b60405160200161201c92919061293c565b6040516020818303038152906040525b9392505050565b60006001600160e01b031982166380ac58cd60e01b148061206457506001600160e01b03198216635b5e139f60e01b145b80610923575061092382611a08565b61207d8282611502565b610c445760405163e2517d3f60e01b81526001600160a01b038216600482015260248101839052604401610cf0565b80806120c057506001600160a01b03821615155b156121825760006120d084611b21565b90506001600160a01b038316158015906120fc5750826001600160a01b0316816001600160a01b031614155b801561210f575061210d81846118da565b155b156121385760405163a9fbf51f60e01b81526001600160a01b0384166004820152602401610cf0565b81156121805783856001600160a01b0316826001600160a01b03167f8c5be1e5ebec7d5bd14f71427d1e84f3dd0314c0f7b2291e5b200ac8c7c3b92560405160405180910390a45b505b5050600090815260066020526040902080546001600160a01b0319166001600160a01b0392909216919091179055565b6121bd8383836122a9565b610ecb576001600160a01b0383166121eb57604051637e27328960e01b815260048101829052602401610cf0565b60405163177e802f60e01b81526001600160a01b038316600482015260248101829052604401610cf0565b606060006122238361230c565b600101905060008167ffffffffffffffff811115612243576122436124ca565b6040519080825280601f01601f19166020018201604052801561226d576020820181803683370190505b5090508181016020015b600019016f181899199a1a9b1b9c1cb0b131b232b360811b600a86061a8153600a850494508461227757509392505050565b60006001600160a01b0383161580159061182b5750826001600160a01b0316846001600160a01b031614806122e357506122e384846118da565b8061182b5750506000908152600660205260409020546001600160a01b03908116911614919050565b60008072184f03e93ff9f4daa797ed6e38ed64bf6a1f0160401b831061234b5772184f03e93ff9f4daa797ed6e38ed64bf6a1f0160401b830492506040015b6d04ee2d6d415b85acef81000000008310612377576d04ee2d6d415b85acef8100000000830492506020015b662386f26fc10000831061239557662386f26fc10000830492506010015b6305f5e10083106123ad576305f5e100830492506008015b61271083106123c157612710830492506004015b606483106123d3576064830492506002015b600a83106109235760010192915050565b6001600160e01b031981168114610dee57600080fd5b60006020828403121561240c57600080fd5b813561202c816123e4565b80356001600160a01b038116811461242e57600080fd5b919050565b60006020828403121561244557600080fd5b61202c82612417565b60006020828403121561246057600080fd5b5035919050565b60005b8381101561248257818101518382015260200161246a565b50506000910152565b600081518084526124a3816020860160208601612467565b601f01601f19169290920160200192915050565b60208152600061202c602083018461248b565b634e487b7160e01b600052604160045260246000fd5b600067ffffffffffffffff808411156124fb576124fb6124ca565b604051601f8501601f19908116603f01168101908282118183101715612523576125236124ca565b8160405280935085815286868601111561253c57600080fd5b858560208301376000602087830101525050509392505050565b6000806040838503121561256957600080fd5b61257283612417565b9150602083013567ffffffffffffffff81111561258e57600080fd5b8301601f8101851361259f57600080fd5b6125ae858235602084016124e0565b9150509250929050565b600080604083850312156125cb57600080fd5b6125d483612417565b946020939093013593505050565b6000806000606084860312156125f757600080fd5b61260084612417565b925061260e60208501612417565b9150604084013590509250925092565b6000806040838503121561263157600080fd5b8235915061264160208401612417565b90509250929050565b60008060006060848603121561265f57600080fd5b8335925061266f60208501612417565b915061267d60408501612417565b90509250925092565b60008083601f84011261269857600080fd5b50813567ffffffffffffffff8111156126b057600080fd5b6020830191508360208260051b85010111156126cb57600080fd5b9250929050565b600080600080604085870312156126e857600080fd5b843567ffffffffffffffff8082111561270057600080fd5b61270c88838901612686565b9096509450602087013591508082111561272557600080fd5b5061273287828801612686565b95989497509550505050565b6000806040838503121561275157600080fd5b61275a83612417565b91506020830135801515811461276f57600080fd5b809150509250929050565b6000806000806080858703121561279057600080fd5b61279985612417565b93506127a760208601612417565b925060408501359150606085013567ffffffffffffffff8111156127ca57600080fd5b8501601f810187136127db57600080fd5b6127ea878235602084016124e0565b91505092959194509250565b6000806040838503121561280957600080fd5b61281283612417565b915061264160208401612417565b600181811c9082168061283457607f821691505b60208210810361144a57634e487b7160e01b600052602260045260246000fd5b634e487b7160e01b600052601160045260246000fd5b60006001820161287c5761287c612854565b5060010190565b8082018082111561092357610923612854565b634e487b7160e01b600052603260045260246000fd5b60008184825b858110156128e1576001600160a01b036128cb83612417565b16835260209283019291909101906001016128b2565b509095945050505050565b6020808252810182905260006001600160fb1b0383111561290c57600080fd5b8260051b80856040850137919091016040019392505050565b808202811582820484141761092357610923612854565b6000835161294e818460208801612467565b835190830190612962818360208801612467565b01949350505050565b601f821115610ecb57600081815260208120601f850160051c810160208610156129925750805b601f850160051c820191505b818110156129b15782815560010161299e565b505050505050565b815167ffffffffffffffff8111156129d3576129d36124ca565b6129e7816129e18454612820565b8461296b565b602080601f831160018114612a1c5760008415612a045750858301515b600019600386901b1c1916600185901b1785556129b1565b600085815260208120601f198616915b82811015612a4b57888601518255948401946001909101908401612a2c565b5085821015612a695787850151600019600388901b60f8161c191681555b5050505050600190811b01905550565b6001600160a01b0385811682528416602082015260408101839052608060608201819052600090612aac9083018461248b565b9695505050505050565b600060208284031215612ac857600080fd5b815161202c816123e456fe920994fc3bfe282f3f20cdccf1b7c5e46c63d963e822d98efff90abd41c12e212ae6a113c0ed5b78a53413ffbb7679881f11145ccfba4fb92e863dfcd5a1d2f3ee244ef9da0b2f89a74b208ea9fe1a639ebdf634027d9e1f092b58c39954fa37c41a06b26ced3a23b7bf835a0918ade784f4055ded86d18305f528f47a726052aa0ec51d0bf03ce5511c9ffc9de2b423d73d1faacd808abf2ac89ccea8a3ecf259a1c48e5837ad7a7f3dcedcbe129bf3249ec4fbf651fd4f5e2600ead39fe2f506fa31d7a92d9fa9a8898ac41d86ee9b13863605a361c85ae5d6010d5de4f280155aaafb6329a2098580462df33ec4b7441b19729b9601c5fc17ae1cf99a8a52a264697066735822122098c5384e64653556038b93efd92de07d9dfdb1699c62b7ea490b6f8fb5b0e66f64736f6c63430008140033",
  "linkReferences": {},
  "deployedLinkReferences": {}
}