{
  "_format": "hh-sol-artifact-1",
  "contractName": "CertificateNFT",
  "sourceName": "contracts/modules/CertificateNFT.sol",
  "abi": [
    {
      "inputs": [
        {
          "internalType": "address",
          "name": "_rolesManager",
          "type": "address"
        }
      ],
      "stateMutability": "nonpayable",
      "type": "constructor"
    },
    {
      "inputs": [],
      "name": "AccessControlBadConfirmation",
      "type": "error"
    },
    {
      "inputs": [
        {
          "internalType": "address",
          "name": "account",
          "type": "address"
        },
        {
          "internalType": "bytes32",
          "name": "neededRole",
          "type": "bytes32"
        }
      ],
      "name": "AccessControlUnauthorizedAccount",
      "type": "error"
    },
    {
      "inputs": [],
      "name": "AuditorOversight__AppealWindowClosed",
      "type": "error"
    },
    {
      "inputs": [],
      "name": "AuditorOversight__CaseNotPending",
      "type": "error"
    },
    {
      "inputs": [],
      "name": "AuditorOversight__NotAuthorizedEnterpriseOwner",
      "type": "error"
    },
    {
      "inputs": [],
      "name": "CertificateNFT__CertificateDoesNotExist",
      "type": "error"
    },
    {
      "inputs": [],
      "name": "CertificateNFT__EnterpriseAlreadyCertified",
      "type": "error"
    },
    {
      "inputs": [],
      "name": "CertificationAuthority__CertificationNotExpiredYet",
      "type": "error"
    },
    {
      "inputs": [],
      "name": "CertificationAuthority__EnterpriseAlreadyCertified",
      "type": "error"
    },
    {
      "inputs": [],
      "name": "CertificationAuthority__EnterpriseNotCertifiedYet",
      "type": "error"
    },
    {
      "inputs": [
        {
          "internalType": "address",
          "name": "sender",
          "type": "address"
        },
        {
          "internalType": "uint256",
          "name": "tokenId",
          "type": "uint256"
        },
        {
          "internalType": "address",
          "name": "owner",
          "type": "address"
        }
      ],
      "name": "ERC721IncorrectOwner",
      "type": "error"
    },
    {
      "inputs": [
        {
          "internalType": "address",
          "name": "operator",
          "type": "address"
        },
        {
          "internalType": "uint256",
          "name": "tokenId",
          "type": "uint256"
        }
      ],
      "name": "ERC721InsufficientApproval",
      "type": "error"
    },
    {
      "inputs": [
        {
          "internalType": "address",
          "name": "approver",
          "type": "address"
        }
      ],
      "name": "ERC721InvalidApprover",
      "type": "error"
    },
    {
      "inputs": [
        {
          "internalType": "address",
          "name": "operator",
          "type": "address"
        }
      ],
      "name": "ERC721InvalidOperator",
      "type": "error"
    },
    {
      "inputs": [
        {
          "internalType": "address",
          "name": "owner",
          "type": "address"
        }
      ],
      "name": "ERC721InvalidOwner",
      "type": "error"
    },
    {
      "inputs": [
        {
          "internalType": "address",
          "name": "receiver",
          "type": "address"
        }
      ],
      "name": "ERC721InvalidReceiver",
      "type": "error"
    },
    {
      "inputs": [
        {
          "internalType": "address",
          "name": "sender",
          "type": "address"
        }
      ],
      "name": "ERC721InvalidSender",
      "type": "error"
    },
    {
      "inputs": [
        {
          "internalType": "uint256",
          "name": "tokenId",
          "type": "uint256"
        }
      ],
      "name": "ERC721NonexistentToken",
      "type": "error"
    },
    {
      "inputs": [],
      "name": "EnterpriseRegistry__EnterpriseAlreadyExists",
      "type": "error"
    },
    {
      "inputs": [],
      "name": "EnterpriseRegistry__EnterpriseDoesNotExist",
      "type": "error"
    },
    {
      "inputs": [],
      "name": "EnterpriseRegistry__InvalidStart",
      "type": "error"
    },
    {
      "inputs": [],
      "name": "InspectionManager__InspectionPeriodExpired",
      "type": "error"
    },
    {
      "inputs": [],
      "name": "InspectionManager__InspectorAlreadyAssigned",
      "type": "error"
    },
    {
      "inputs": [],
      "name": "InspectionManager__InvalidReportIndex",
      "type": "error"
    },
    {
      "inputs": [],
      "name": "InspectionManager__NoReportsAssociatedWithEnterprise",
      "type": "error"
    },
    {
      "inputs": [],
      "name": "InspectionManager__NotAssignedToEnterprise",
      "type": "error"
    },
    {
      "inputs": [],
      "name": "InspectionManager__ReportAlreadyFlagged",
      "type": "error"
    },
    {
      "inputs": [],
      "name": "InvalidAddress",
      "type": "error"
    },
    {
      "inputs": [
        {
          "internalType": "address",
          "name": "owner",
          "type": "address"
        }
      ],
      "name": "OwnableInvalidOwner",
      "type": "error"
    },
    {
      "inputs": [
        {
          "internalType": "address",
          "name": "account",
          "type": "address"
        }
      ],
      "name": "OwnableUnauthorizedAccount",
      "type": "error"
    },
    {
      "inputs": [],
      "name": "RolesManager__AlreadyHasRole",
      "type": "error"
    },
    {
      "inputs": [],
      "name": "RolesManager__ArrayLengthMismatch",
      "type": "error"
    },
    {
      "inputs": [],
      "name": "RolesManager__EmptyArray",
      "type": "error"
    },
    {
      "inputs": [],
      "name": "RolesManager__InvalidDuration",
      "type": "error"
    },
    {
      "inputs": [],
      "name": "RolesManager__NotAuthorizedAuditor",
      "type": "error"
    },
    {
      "inputs": [],
      "name": "RolesManager__NotAuthorizedCertificateFactory",
      "type": "error"
    },
    {
      "inputs": [],
      "name": "RolesManager__NotAuthorizedCertifier",
      "type": "error"
    },
    {
      "inputs": [],
      "name": "RolesManager__NotAuthorizedEnterprise",
      "type": "error"
    },
    {
      "inputs": [],
      "name": "RolesManager__NotAuthorizedInspector",
      "type": "error"
    },
    {
      "inputs": [],
      "name": "RolesManager__NotAuthorizedPublicUser",
      "type": "error"
    },
    {
      "inputs": [],
      "name": "RolesManager__RoleDoesNotExist",
      "type": "error"
    },
    {
      "inputs": [],
      "name": "RolesManager__UnauthorizedToPerformAction",
      "type": "error"
    },
    {
      "anonymous": false,
      "inputs": [
        {
          "indexed": true,
          "internalType": "address",
          "name": "owner",
          "type": "address"
        },
        {
          "indexed": true,
          "internalType": "address",
          "name": "approved",
          "type": "address"
        },
        {
          "indexed": true,
          "internalType": "uint256",
          "name": "tokenId",
          "type": "uint256"
        }
      ],
      "name": "Approval",
      "type": "event"
    },
    {
      "anonymous": false,
      "inputs": [
        {
          "indexed": true,
          "internalType": "address",
          "name": "owner",
          "type": "address"
        },
        {
          "indexed": true,
          "internalType": "address",
          "name": "operator",
          "type": "address"
        },
        {
          "indexed": false,
          "internalType": "bool",
          "name": "approved",
          "type": "bool"
        }
      ],
      "name": "ApprovalForAll",
      "type": "event"
    },
    {
      "anonymous": false,
      "inputs": [
        {
          "indexed": false,
          "internalType": "uint256",
          "name": "_fromTokenId",
          "type": "uint256"
        },
        {
          "indexed": false,
          "internalType": "uint256",
          "name": "_toTokenId",
          "type": "uint256"
        }
      ],
      "name": "BatchMetadataUpdate",
      "type": "event"
    },
    {
      "anonymous": false,
      "inputs": [
        {
          "indexed": false,
          "internalType": "bytes32[]",
          "name": "roles",
          "type": "bytes32[]"
        },
        {
          "indexed": true,
          "internalType": "address[]",
          "name": "accounts",
          "type": "address[]"
        }
      ],
      "name": "BulkRolesGranted",
      "type": "event"
    },
    {
      "anonymous": false,
      "inputs": [
        {
          "indexed": false,
          "internalType": "uint256",
          "name": "certificateId",
          "type": "uint256"
        },
        {
          "indexed": true,
          "internalType": "address",
          "name": "enterprise",
          "type": "address"
        },
        {
          "indexed": true,
          "internalType": "address",
          "name": "certifier",
          "type": "address"
        },
        {
          "indexed": false,
          "internalType": "uint256",
          "name": "mintedAt",
          "type": "uint256"
        }
      ],
      "name": "CertificateMinted",
      "type": "event"
    },
    {
      "anonymous": false,
      "inputs": [
        {
          "indexed": false,
          "internalType": "uint256",
          "name": "certificateId",
          "type": "uint256"
        },
        {
          "indexed": true,
          "internalType": "address",
          "name": "revoker",
          "type": "address"
        },
        {
          "indexed": false,
          "internalType": "uint256",
          "name": "timestamp",
          "type": "uint256"
        }
      ],
      "name": "CertificateRevoked",
      "type": "event"
    },
    {
      "anonymous": false,
      "inputs": [
        {
          "indexed": false,
          "internalType": "uint256",
          "name": "_tokenId",
          "type": "uint256"
        }
      ],
      "name": "MetadataUpdate",
      "type": "event"
    },
    {
      "anonymous": false,
      "inputs": [
        {
          "indexed": true,
          "internalType": "address",
          "name": "previousOwner",
          "type": "address"
        },
        {
          "indexed": true,
          "internalType": "address",
          "name": "newOwner",
          "type": "address"
        }
      ],
      "name": "OwnershipTransferred",
      "type": "event"
    },
    {
      "anonymous": false,
      "inputs": [
        {
          "indexed": true,
          "internalType": "address",
          "name": "user",
          "type": "address"
        }
      ],
      "name": "PublicRoleExpired",
      "type": "event"
    },
    {
      "anonymous": false,
      "inputs": [
        {
          "indexed": true,
          "internalType": "address",
          "name": "user",
          "type": "address"
        },
        {
          "indexed": false,
          "internalType": "uint256",
          "name": "duration",
          "type": "uint256"
        }
      ],
      "name": "PublicRoleGranted",
      "type": "event"
    },
    {
      "anonymous": false,
      "inputs": [
        {
          "indexed": true,
          "internalType": "bytes32",
          "name": "role",
          "type": "bytes32"
        },
        {
          "indexed": true,
          "internalType": "bytes32",
          "name": "previousAdminRole",
          "type": "bytes32"
        },
        {
          "indexed": true,
          "internalType": "bytes32",
          "name": "newAdminRole",
          "type": "bytes32"
        }
      ],
      "name": "RoleAdminChanged",
      "type": "event"
    },
    {
      "anonymous": false,
      "inputs": [
        {
          "indexed": true,
          "internalType": "bytes32",
          "name": "role",
          "type": "bytes32"
        },
        {
          "indexed": true,
          "internalType": "address",
          "name": "account",
          "type": "address"
        },
        {
          "indexed": true,
          "internalType": "address",
          "name": "sender",
          "type": "address"
        }
      ],
      "name": "RoleGranted",
      "type": "event"
    },
    {
      "anonymous": false,
      "inputs": [
        {
          "indexed": true,
          "internalType": "bytes32",
          "name": "role",
          "type": "bytes32"
        },
        {
          "indexed": true,
          "internalType": "address",
          "name": "account",
          "type": "address"
        }
      ],
      "name": "RoleGranted",
      "type": "event"
    },
    {
      "anonymous": false,
      "inputs": [
        {
          "indexed": true,
          "internalType": "bytes32",
          "name": "role",
          "type": "bytes32"
        },
        {
          "indexed": true,
          "internalType": "address",
          "name": "account",
          "type": "address"
        },
        {
          "indexed": true,
          "internalType": "address",
          "name": "sender",
          "type": "address"
        }
      ],
      "name": "RoleRevoked",
      "type": "event"
    },
    {
      "anonymous": false,
      "inputs": [
        {
          "indexed": true,
          "internalType": "bytes32",
          "name": "role",
          "type": "bytes32"
        },
        {
          "indexed": true,
          "internalType": "address",
          "name": "account",
          "type": "address"
        }
      ],
      "name": "RoleRevoked",
      "type": "event"
    },
    {
      "anonymous": false,
      "inputs": [
        {
          "indexed": true,
          "internalType": "bytes32",
          "name": "role",
          "type": "bytes32"
        },
        {
          "indexed": false,
          "internalType": "address",
          "name": "from",
          "type": "address"
        },
        {
          "indexed": false,
          "internalType": "address",
          "name": "to",
          "type": "address"
        }
      ],
      "name": "RoleTransferred",
      "type": "event"
    },
    {
      "anonymous": false,
      "inputs": [
        {
          "indexed": true,
          "internalType": "address",
          "name": "from",
          "type": "address"
        },
        {
          "indexed": true,
          "internalType": "address",
          "name": "to",
          "type": "address"
        },
        {
          "indexed": true,
          "internalType": "uint256",
          "name": "tokenId",
          "type": "uint256"
        }
      ],
      "name": "Transfer",
      "type": "event"
    },
    {
      "inputs": [],
      "name": "AUDITOR_ROLE",
      "outputs": [
        {
          "internalType": "bytes32",
          "name": "",
          "type": "bytes32"
        }
      ],
      "stateMutability": "view",
      "type": "function"
    },
    {
      "inputs": [],
      "name": "CERTIFICATE_FACTORY_ROLE",
      "outputs": [
        {
          "internalType": "bytes32",
          "name": "",
          "type": "bytes32"
        }
      ],
      "stateMutability": "view",
      "type": "function"
    },
    {
      "inputs": [],
      "name": "CERTIFIER_ROLE",
      "outputs": [
        {
          "internalType": "bytes32",
          "name": "",
          "type": "bytes32"
        }
      ],
      "stateMutability": "view",
      "type": "function"
    },
    {
      "inputs": [],
      "name": "DEFAULT_ADMIN_ROLE",
      "outputs": [
        {
          "internalType": "bytes32",
          "name": "",
          "type": "bytes32"
        }
      ],
      "stateMutability": "view",
      "type": "function"
    },
    {
      "inputs": [],
      "name": "ENTERPRISE_ROLE",
      "outputs": [
        {
          "internalType": "bytes32",
          "name": "",
          "type": "bytes32"
        }
      ],
      "stateMutability": "view",
      "type": "function"
    },
    {
      "inputs": [],
      "name": "INSPECTOR_ROLE",
      "outputs": [
        {
          "internalType": "bytes32",
          "name": "",
          "type": "bytes32"
        }
      ],
      "stateMutability": "view",
      "type": "function"
    },
    {
      "inputs": [],
      "name": "PUBLIC_ROLE",
      "outputs": [
        {
          "internalType": "bytes32",
          "name": "",
          "type": "bytes32"
        }
      ],
      "stateMutability": "view",
      "type": "function"
    },
    {
      "inputs": [
        {
          "internalType": "address",
          "name": "to",
          "type": "address"
        },
        {
          "internalType": "uint256",
          "name": "tokenId",
          "type": "uint256"
        }
      ],
      "name": "approve",
      "outputs": [],
      "stateMutability": "nonpayable",
      "type": "function"
    },
    {
      "inputs": [
        {
          "internalType": "address",
          "name": "owner",
          "type": "address"
        }
      ],
      "name": "balanceOf",
      "outputs": [
        {
          "internalType": "uint256",
          "name": "",
          "type": "uint256"
        }
      ],
      "stateMutability": "view",
      "type": "function"
    },
    {
      "inputs": [
        {
          "internalType": "bytes32[]",
          "name": "roles",
          "type": "bytes32[]"
        },
        {
          "internalType": "address[]",
          "name": "accounts",
          "type": "address[]"
        }
      ],
      "name": "bulkGrantRoles",
      "outputs": [],
      "stateMutability": "nonpayable",
      "type": "function"
    },
    {
      "inputs": [
        {
          "internalType": "address",
          "name": "account",
          "type": "address"
        }
      ],
      "name": "checkExpiryRoles",
      "outputs": [],
      "stateMutability": "nonpayable",
      "type": "function"
    },
    {
      "inputs": [
        {
          "internalType": "uint256",
          "name": "durationInHours",
          "type": "uint256"
        }
      ],
      "name": "claimTemporaryPublicRole",
      "outputs": [],
      "stateMutability": "nonpayable",
      "type": "function"
    },
    {
      "inputs": [
        {
          "internalType": "address",
          "name": "",
          "type": "address"
        }
      ],
      "name": "enterpriseCertificate",
      "outputs": [
        {
          "internalType": "uint256",
          "name": "",
          "type": "uint256"
        }
      ],
      "stateMutability": "view",
      "type": "function"
    },
    {
      "inputs": [
        {
          "internalType": "address",
          "name": "account",
          "type": "address"
        }
      ],
      "name": "getActiveRoles",
      "outputs": [
        {
          "internalType": "bool",
          "name": "isAdmin",
          "type": "bool"
        },
        {
          "internalType": "bool",
          "name": "isCertifier",
          "type": "bool"
        },
        {
          "internalType": "bool",
          "name": "isInspector",
          "type": "bool"
        },
        {
          "internalType": "bool",
          "name": "isAuditor",
          "type": "bool"
        },
        {
          "internalType": "bool",
          "name": "isEnterprise",
          "type": "bool"
        },
        {
          "internalType": "bool",
          "name": "isCertificateFactory",
          "type": "bool"
        },
        {
          "internalType": "bool",
          "name": "isPublic",
          "type": "bool"
        }
      ],
      "stateMutability": "view",
      "type": "function"
    },
    {
      "inputs": [
        {
          "internalType": "uint256",
          "name": "tokenId",
          "type": "uint256"
        }
      ],
      "name": "getApproved",
      "outputs": [
        {
          "internalType": "address",
          "name": "",
          "type": "address"
        }
      ],
      "stateMutability": "view",
      "type": "function"
    },
    {
      "inputs": [
        {
          "internalType": "address",
          "name": "enterprise",
          "type": "address"
        }
      ],
      "name": "getCertificateId",
      "outputs": [
        {
          "internalType": "uint256",
          "name": "",
          "type": "uint256"
        }
      ],
      "stateMutability": "view",
      "type": "function"
    },
    {
      "inputs": [],
      "name": "getMaxPublicRoleDuration",
      "outputs": [
        {
          "internalType": "uint256",
          "name": "",
          "type": "uint256"
        }
      ],
      "stateMutability": "pure",
      "type": "function"
    },
    {
      "inputs": [
        {
          "internalType": "bytes32",
          "name": "role",
          "type": "bytes32"
        }
      ],
      "name": "getRoleAdmin",
      "outputs": [
        {
          "internalType": "bytes32",
          "name": "",
          "type": "bytes32"
        }
      ],
      "stateMutability": "view",
      "type": "function"
    },
    {
      "inputs": [
        {
          "internalType": "address",
          "name": "account",
          "type": "address"
        }
      ],
      "name": "grantAuditor",
      "outputs": [],
      "stateMutability": "nonpayable",
      "type": "function"
    },
    {
      "inputs": [
        {
          "internalType": "address",
          "name": "account",
          "type": "address"
        }
      ],
      "name": "grantCertificateFactory",
      "outputs": [],
      "stateMutability": "nonpayable",
      "type": "function"
    },
    {
      "inputs": [
        {
          "internalType": "address",
          "name": "account",
          "type": "address"
        }
      ],
      "name": "grantCertifier",
      "outputs": [],
      "stateMutability": "nonpayable",
      "type": "function"
    },
    {
      "inputs": [
        {
          "internalType": "address",
          "name": "account",
          "type": "address"
        }
      ],
      "name": "grantEnterprise",
      "outputs": [],
      "stateMutability": "nonpayable",
      "type": "function"
    },
    {
      "inputs": [
        {
          "internalType": "address",
          "name": "account",
          "type": "address"
        }
      ],
      "name": "grantInspector",
      "outputs": [],
      "stateMutability": "nonpayable",
      "type": "function"
    },
    {
      "inputs": [
        {
          "internalType": "address",
          "name": "account",
          "type": "address"
        }
      ],
      "name": "grantPublicRole",
      "outputs": [],
      "stateMutability": "nonpayable",
      "type": "function"
    },
    {
      "inputs": [
        {
          "internalType": "bytes32",
          "name": "role",
          "type": "bytes32"
        },
        {
          "internalType": "address",
          "name": "account",
          "type": "address"
        }
      ],
      "name": "grantRole",
      "outputs": [],
      "stateMutability": "nonpayable",
      "type": "function"
    },
    {
      "inputs": [
        {
          "internalType": "address",
          "name": "account",
          "type": "address"
        }
      ],
      "name": "hasAdminRole",
      "outputs": [
        {
          "internalType": "bool",
          "name": "",
          "type": "bool"
        }
      ],
      "stateMutability": "view",
      "type": "function"
    },
    {
      "inputs": [
        {
          "internalType": "address",
          "name": "account",
          "type": "address"
        }
      ],
      "name": "hasAuditorRole",
      "outputs": [
        {
          "internalType": "bool",
          "name": "",
          "type": "bool"
        }
      ],
      "stateMutability": "view",
      "type": "function"
    },
    {
      "inputs": [
        {
          "internalType": "address",
          "name": "account",
          "type": "address"
        }
      ],
      "name": "hasCertificateFactoryRole",
      "outputs": [
        {
          "internalType": "bool",
          "name": "",
          "type": "bool"
        }
      ],
      "stateMutability": "view",
      "type": "function"
    },
    {
      "inputs": [
        {
          "internalType": "address",
          "name": "account",
          "type": "address"
        }
      ],
      "name": "hasCertifierRole",
      "outputs": [
        {
          "internalType": "bool",
          "name": "",
          "type": "bool"
        }
      ],
      "stateMutability": "view",
      "type": "function"
    },
    {
      "inputs": [
        {
          "internalType": "address",
          "name": "account",
          "type": "address"
        }
      ],
      "name": "hasEnterpriseRole",
      "outputs": [
        {
          "internalType": "bool",
          "name": "",
          "type": "bool"
        }
      ],
      "stateMutability": "view",
      "type": "function"
    },
    {
      "inputs": [
        {
          "internalType": "address",
          "name": "account",
          "type": "address"
        }
      ],
      "name": "hasInspectorRole",
      "outputs": [
        {
          "internalType": "bool",
          "name": "",
          "type": "bool"
        }
      ],
      "stateMutability": "view",
      "type": "function"
    },
    {
      "inputs": [
        {
          "internalType": "address",
          "name": "account",
          "type": "address"
        }
      ],
      "name": "hasPublicRole",
      "outputs": [
        {
          "internalType": "bool",
          "name": "",
          "type": "bool"
        }
      ],
      "stateMutability": "view",
      "type": "function"
    },
    {
      "inputs": [
        {
          "internalType": "bytes32",
          "name": "role",
          "type": "bytes32"
        },
        {
          "internalType": "address",
          "name": "account",
          "type": "address"
        }
      ],
      "name": "hasRole",
      "outputs": [
        {
          "internalType": "bool",
          "name": "",
          "type": "bool"
        }
      ],
      "stateMutability": "view",
      "type": "function"
    },
    {
      "inputs": [
        {
          "internalType": "address",
          "name": "owner",
          "type": "address"
        },
        {
          "internalType": "address",
          "name": "operator",
          "type": "address"
        }
      ],
      "name": "isApprovedForAll",
      "outputs": [
        {
          "internalType": "bool",
          "name": "",
          "type": "bool"
        }
      ],
      "stateMutability": "view",
      "type": "function"
    },
    {
      "inputs": [
        {
          "internalType": "uint256",
          "name": "certId",
          "type": "uint256"
        }
      ],
      "name": "isCertificateValid",
      "outputs": [
        {
          "internalType": "bool",
          "name": "",
          "type": "bool"
        }
      ],
      "stateMutability": "view",
      "type": "function"
    },
    {
      "inputs": [
        {
          "internalType": "address",
          "name": "enterprise",
          "type": "address"
        },
        {
          "internalType": "string",
          "name": "metadataURI",
          "type": "string"
        }
      ],
      "name": "mintCertificate",
      "outputs": [
        {
          "internalType": "uint256",
          "name": "",
          "type": "uint256"
        }
      ],
      "stateMutability": "nonpayable",
      "type": "function"
    },
    {
      "inputs": [],
      "name": "name",
      "outputs": [
        {
          "internalType": "string",
          "name": "",
          "type": "string"
        }
      ],
      "stateMutability": "view",
      "type": "function"
    },
    {
      "inputs": [],
      "name": "nextCertificateId",
      "outputs": [
        {
          "internalType": "uint256",
          "name": "",
          "type": "uint256"
        }
      ],
      "stateMutability": "view",
      "type": "function"
    },
    {
      "inputs": [],
      "name": "owner",
      "outputs": [
        {
          "internalType": "address",
          "name": "",
          "type": "address"
        }
      ],
      "stateMutability": "view",
      "type": "function"
    },
    {
      "inputs": [
        {
          "internalType": "uint256",
          "name": "tokenId",
          "type": "uint256"
        }
      ],
      "name": "ownerOf",
      "outputs": [
        {
          "internalType": "address",
          "name": "",
          "type": "address"
        }
      ],
      "stateMutability": "view",
      "type": "function"
    },
    {
      "inputs": [
        {
          "internalType": "address",
          "name": "",
          "type": "address"
        }
      ],
      "name": "publicRoleExpiry",
      "outputs": [
        {
          "internalType": "uint256",
          "name": "",
          "type": "uint256"
        }
      ],
      "stateMutability": "view",
      "type": "function"
    },
    {
      "inputs": [],
      "name": "renounceOwnership",
      "outputs": [],
      "stateMutability": "nonpayable",
      "type": "function"
    },
    {
      "inputs": [
        {
          "internalType": "bytes32",
          "name": "role",
          "type": "bytes32"
        },
        {
          "internalType": "address",
          "name": "callerConfirmation",
          "type": "address"
        }
      ],
      "name": "renounceRole",
      "outputs": [],
      "stateMutability": "nonpayable",
      "type": "function"
    },
    {
      "inputs": [
        {
          "internalType": "address",
          "name": "account",
          "type": "address"
        }
      ],
      "name": "revokeAuditorRole",
      "outputs": [],
      "stateMutability": "nonpayable",
      "type": "function"
    },
    {
      "inputs": [
        {
          "internalType": "uint256",
          "name": "certId",
          "type": "uint256"
        }
      ],
      "name": "revokeCertificate",
      "outputs": [],
      "stateMutability": "nonpayable",
      "type": "function"
    },
    {
      "inputs": [
        {
          "internalType": "address",
          "name": "account",
          "type": "address"
        }
      ],
      "name": "revokeCertificateFactoryRole",
      "outputs": [],
      "stateMutability": "nonpayable",
      "type": "function"
    },
    {
      "inputs": [
        {
          "internalType": "address",
          "name": "account",
          "type": "address"
        }
      ],
      "name": "revokeCertifierRole",
      "outputs": [],
      "stateMutability": "nonpayable",
      "type": "function"
    },
    {
      "inputs": [
        {
          "internalType": "address",
          "name": "account",
          "type": "address"
        }
      ],
      "name": "revokeEnterpriseRole",
      "outputs": [],
      "stateMutability": "nonpayable",
      "type": "function"
    },
    {
      "inputs": [
        {
          "internalType": "address",
          "name": "account",
          "type": "address"
        }
      ],
      "name": "revokeInspectorRole",
      "outputs": [],
      "stateMutability": "nonpayable",
      "type": "function"
    },
    {
      "inputs": [
        {
          "internalType": "address",
          "name": "account",
          "type": "address"
        }
      ],
      "name": "revokePublicRole",
      "outputs": [],
      "stateMutability": "nonpayable",
      "type": "function"
    },
    {
      "inputs": [
        {
          "internalType": "bytes32",
          "name": "role",
          "type": "bytes32"
        },
        {
          "internalType": "address",
          "name": "account",
          "type": "address"
        }
      ],
      "name": "revokeRole",
      "outputs": [],
      "stateMutability": "nonpayable",
      "type": "function"
    },
    {
      "inputs": [],
      "name": "rolesManager",
      "outputs": [
        {
          "internalType": "contract RolesManager",
          "name": "",
          "type": "address"
        }
      ],
      "stateMutability": "view",
      "type": "function"
    },
    {
      "inputs": [
        {
          "internalType": "address",
          "name": "from",
          "type": "address"
        },
        {
          "internalType": "address",
          "name": "to",
          "type": "address"
        },
        {
          "internalType": "uint256",
          "name": "tokenId",
          "type": "uint256"
        }
      ],
      "name": "safeTransferFrom",
      "outputs": [],
      "stateMutability": "nonpayable",
      "type": "function"
    },
    {
      "inputs": [
        {
          "internalType": "address",
          "name": "from",
          "type": "address"
        },
        {
          "internalType": "address",
          "name": "to",
          "type": "address"
        },
        {
          "internalType": "uint256",
          "name": "tokenId",
          "type": "uint256"
        },
        {
          "internalType": "bytes",
          "name": "data",
          "type": "bytes"
        }
      ],
      "name": "safeTransferFrom",
      "outputs": [],
      "stateMutability": "nonpayable",
      "type": "function"
    },
    {
      "inputs": [
        {
          "internalType": "address",
          "name": "operator",
          "type": "address"
        },
        {
          "internalType": "bool",
          "name": "approved",
          "type": "bool"
        }
      ],
      "name": "setApprovalForAll",
      "outputs": [],
      "stateMutability": "nonpayable",
      "type": "function"
    },
    {
      "inputs": [
        {
          "internalType": "bytes4",
          "name": "interfaceId",
          "type": "bytes4"
        }
      ],
      "name": "supportsInterface",
      "outputs": [
        {
          "internalType": "bool",
          "name": "",
          "type": "bool"
        }
      ],
      "stateMutability": "view",
      "type": "function"
    },
    {
      "inputs": [],
      "name": "symbol",
      "outputs": [
        {
          "internalType": "string",
          "name": "",
          "type": "string"
        }
      ],
      "stateMutability": "view",
      "type": "function"
    },
    {
      "inputs": [
        {
          "internalType": "uint256",
          "name": "tokenId",
          "type": "uint256"
        }
      ],
      "name": "tokenURI",
      "outputs": [
        {
          "internalType": "string",
          "name": "",
          "type": "string"
        }
      ],
      "stateMutability": "view",
      "type": "function"
    },
    {
      "inputs": [
        {
          "internalType": "address",
          "name": "from",
          "type": "address"
        },
        {
          "internalType": "address",
          "name": "to",
          "type": "address"
        },
        {
          "internalType": "uint256",
          "name": "tokenId",
          "type": "uint256"
        }
      ],
      "name": "transferFrom",
      "outputs": [],
      "stateMutability": "nonpayable",
      "type": "function"
    },
    {
      "inputs": [
        {
          "internalType": "address",
          "name": "newOwner",
          "type": "address"
        }
      ],
      "name": "transferOwnership",
      "outputs": [],
      "stateMutability": "nonpayable",
      "type": "function"
    },
    {
      "inputs": [
        {
          "internalType": "bytes32",
          "name": "role",
          "type": "bytes32"
        },
        {
          "internalType": "address",
          "name": "from",
          "type": "address"
        },
        {
          "internalType": "address",
          "name": "to",
          "type": "address"
        }
      ],
      "name": "transferRole",
      "outputs": [],
      "stateMutability": "nonpayable",
      "type": "function"
    },
    {
      "inputs": [
        {
          "internalType": "uint256",
          "name": "",
          "type": "uint256"
        }
      ],
      "name": "validCertificates",
      "outputs": [
        {
          "internalType": "bool",
          "name": "",
          "type": "bool"
        }
      ],
      "stateMutability": "view",
      "type": "function"
    }
  ],
  "bytecode": "0x60806040523480156200001157600080fd5b5060405162002fa938038062002fa9833981016040819052620000349162000256565b604080518082018252601681527f456e74657270726973652043657274696669636174650000000000000000000060208083019190915282518084019093526009835268111251d24b50d1549560ba1b9083015233916200009760008462000144565b620000c37fc41a06b26ced3a23b7bf835a0918ade784f4055ded86d18305f528f47a7260523362000144565b6002620000d183826200032c565b506003620000e082826200032c565b5050506001600160a01b0381166200011257604051631e4fbdf760e01b81526000600482015260240160405180910390fd5b6200011d8162000155565b50600a80546001600160a01b0319166001600160a01b0392909216919091179055620003f8565b620001508282620001a7565b505050565b600980546001600160a01b038381166001600160a01b0319831681179093556040519116919082907f8be0079c531659141344cd1fd0a4f28419497f9722a3daafe3b4186f6b6457e090600090a35050565b6000828152602081815260408083206001600160a01b038516845290915281205460ff166200024c576000838152602081815260408083206001600160a01b03861684529091529020805460ff19166001179055620002033390565b6001600160a01b0316826001600160a01b0316847f2f8788117e7eff1d82e926ec794901d17c78024a50270940304540a733656f0d60405160405180910390a450600162000250565b5060005b92915050565b6000602082840312156200026957600080fd5b81516001600160a01b03811681146200028157600080fd5b9392505050565b634e487b7160e01b600052604160045260246000fd5b600181811c90821680620002b357607f821691505b602082108103620002d457634e487b7160e01b600052602260045260246000fd5b50919050565b601f8211156200015057600081815260208120601f850160051c81016020861015620003035750805b601f850160051c820191505b8181101562000324578281556001016200030f565b505050505050565b81516001600160401b0381111562000348576200034862000288565b62000360816200035984546200029e565b84620002da565b602080601f8311600181146200039857600084156200037f5750858301515b600019600386901b1c1916600185901b17855562000324565b600085815260208120601f198616915b82811015620003c957888601518255948401946001909101908401620003a8565b5085821015620003e85787850151600019600388901b60f8161c191681555b5050505050600190811b01905550565b612ba180620004086000396000f3fe608060405234801561001057600080fd5b50600436106103ba5760003560e01c80637baeba25116101f4578063abaa536f1161011a578063c87b56dd116100ad578063e985e9c51161007c578063e985e9c5146108aa578063f2fde38b146108bd578063f53f5e1e146108d0578063fc810286146108e357600080fd5b8063c87b56dd1461085c578063d547741f1461086f578063e3a3c52214610882578063e55b4f931461089757600080fd5b8063b8ad415e116100e9578063b8ad415e1461080c578063bd7ca7ba14610813578063c395fcb314610826578063c4cdfe1e1461083957600080fd5b8063abaa536f14610772578063b0614db314610785578063b5617ef7146107d9578063b88d4fde146107f957600080fd5b806395d89b4111610192578063a22cb46511610161578063a22cb46514610716578063a3574c5b14610729578063a5ce413a1461073c578063aa52617c1461075f57600080fd5b806395d89b41146106ea578063a0bdb003146106f2578063a1f34163146106fb578063a217fddf1461070e57600080fd5b80638850845f116101ce5780638850845f146106935780638da5cb5b146106a657806391d14854146106b7578063938600e2146106ca57600080fd5b80637baeba251461065a5780637bff09751461066d5780637e5effa41461068057600080fd5b80633e251518116102e45780636352211e1161027757806370a082311161024657806370a0823114610617578063715018a61461062a5780637780e9c114610632578063784fee0e1461064557600080fd5b80636352211e146105c557806368dd17a5146105d857806369d0b517146105ed5780636e1d616e1461060257600080fd5b806357c03371116102b357806357c03371146105795780635cb87d261461058c578063603765281461059f57806361462f0e146105b257600080fd5b80633e2515181461052d57806342842e0e14610540578063456f19fc1461055357806352f84b721461056657600080fd5b80631e223b2a1161035c578063261191b71161032b578063261191b7146104df5780632f2ff15d146104f257806336568abe146105055780633ca7c02a1461051857600080fd5b80631e223b2a1461048357806323b872dd14610496578063248a9ca3146104a957806325d5e87e146104cc57600080fd5b806306fdde031161039857806306fdde031461040f5780630712249f14610424578063081812fc14610445578063095ea7b31461047057600080fd5b806301ffc9a7146103bf5780630443cd2a146103e757806306f5497e146103fc575b600080fd5b6103d26103cd366004612392565b6108f6565b60405190151581526020015b60405180910390f35b6103fa6103f53660046123cb565b610916565b005b6103fa61040a3660046123e6565b610998565b610417610a4e565b6040516103de919061244f565b6104376104323660046124ee565b610ae0565b6040519081526020016103de565b6104586104533660046123e6565b610bfd565b6040516001600160a01b0390911681526020016103de565b6103fa61047e366004612550565b610c26565b6103fa6104913660046123cb565b610c35565b6103fa6104a436600461257a565b610cb7565b6104376104b73660046123e6565b60009081526020819052604090206001015490565b6103fa6104da3660046123cb565b610d47565b6103fa6104ed3660046123cb565b610dc9565b6103fa6105003660046125b6565b610e4b565b6103fa6105133660046125b6565b610e70565b610437600080516020612aac83398151915281565b6103fa61053b3660046123cb565b610ea8565b6103fa61054e36600461257a565b610f2a565b6103fa6105613660046123cb565b610f45565b6103d26105743660046123cb565b610fc7565b6103fa6105873660046123cb565b610fe1565b6103fa61059a3660046125e2565b611063565b6103fa6105ad3660046123cb565b6110f6565b6103fa6105c036600461266a565b611178565b6104586105d33660046123e6565b61128b565b610437600080516020612a6c83398151915281565b610437600080516020612acc83398151915281565b610437600080516020612b0c83398151915281565b6104376106253660046123cb565b611296565b6103fa6112de565b6103fa6106403660046123e6565b6112f2565b610437600080516020612aec83398151915281565b6104376106683660046123cb565b6113df565b6103d261067b3660046123cb565b61142b565b6103fa61068e3660046123cb565b611445565b6103d26106a13660046123cb565b6114c7565b6009546001600160a01b0316610458565b6103d26106c53660046125b6565b6114dd565b6104376106d83660046123cb565b600c6020526000908152604090205481565b610417611506565b610437600b5481565b6103d26107093660046123cb565b611515565b610437600081565b6103fa6107243660046126d6565b61152f565b600a54610458906001600160a01b031681565b6103d261074a3660046123e6565b6000908152600d602052604090205460ff1690565b6103fa61076d3660046123cb565b61153a565b6103d26107803660046123cb565b6115bc565b6107986107933660046123cb565b6115d6565b60408051971515885295151560208801529315159486019490945290151560608501521515608084015290151560a0830152151560c082015260e0016103de565b6104376107e73660046123cb565b60016020526000908152604090205481565b6103fa610807366004612712565b61168f565b6018610437565b6103fa6108213660046123cb565b6116a6565b6103d26108343660046123cb565b6116f1565b6103d26108473660046123e6565b600d6020526000908152604090205460ff1681565b61041761086a3660046123e6565b6116fd565b6103fa61087d3660046125b6565b61180e565b610437600080516020612b2c83398151915281565b6103fa6108a53660046123cb565b611833565b6103d26108b836600461278e565b6118b5565b6103fa6108cb3660046123cb565b6118e3565b6103d26108de3660046123cb565b61191e565b6103fa6108f13660046123cb565b611938565b6000610901826119ba565b806109105750610910826119ef565b92915050565b806001600160a01b03811661093e5760405163e6c4247b60e01b815260040160405180910390fd5b600061094981611a14565b610961600080516020612aac8339815191528461180e565b6040516001600160a01b03841690600080516020612aac83398151915290600080516020612b4c83398151915290600090a3505050565b600080516020612acc8339815191526109b081611a14565b60006109bb81611a14565b6000838152600d602052604081205460ff16151590036109ee57604051631a573bc760e31b815260040160405180910390fd5b6000838152600d602052604090819020805460ff191690555133907f1adbf4393900ce3a2332405b86649270c35d1316887336d83190dcbae6a423b990610a419086904290918252602082015260400190565b60405180910390a2505050565b606060028054610a5d906127b8565b80601f0160208091040260200160405190810160405280929190818152602001828054610a89906127b8565b8015610ad65780601f10610aab57610100808354040283529160200191610ad6565b820191906000526020600020905b815481529060010190602001808311610ab957829003601f168201915b5050505050905090565b6000826001600160a01b038116610b0a5760405163e6c4247b60e01b815260040160405180910390fd5b600080516020612acc833981519152610b2281611a14565b6001600160a01b0385166000908152600c602052604090205415610b59576040516317b40a5d60e31b815260040160405180910390fd5b6000600b60008154610b6a90612802565b91829055509050610b7b8682611a1e565b610b858186611a83565b6001600160a01b0386166000818152600c60209081526040808320859055848352600d825291829020805460ff19166001179055815184815242918101919091523392917f4d11bba94ed08338c093ab404c84f6c0615c1b51439f9b666edd217b326ce9b6910160405180910390a395945050505050565b6000610c0882611ad3565b506000828152600660205260409020546001600160a01b0316610910565b610c31828233611b0c565b5050565b806001600160a01b038116610c5d5760405163e6c4247b60e01b815260040160405180910390fd5b6000610c6881611a14565b610c80600080516020612a6c83398151915284610e4b565b6040516001600160a01b03841690600080516020612a6c83398151915290600080516020612a8c83398151915290600090a3505050565b6001600160a01b038216610ce657604051633250574960e11b8152600060048201526024015b60405180910390fd5b6000610cf3838333611b19565b9050836001600160a01b0316816001600160a01b031614610d41576040516364283d7b60e01b81526001600160a01b0380861660048301526024820184905282166044820152606401610cdd565b50505050565b610d508161191e565b8015610d7357506001600160a01b03811660009081526001602052604090205442115b15610dc657610d90600080516020612aac83398151915282611c12565b506040516001600160a01b038216907fa6f32bcbc7de829d50e1c9cbc1c5b4dafb4c7a0b8329757aee62a9b394d71c3b90600090a25b50565b806001600160a01b038116610df15760405163e6c4247b60e01b815260040160405180910390fd5b6000610dfc81611a14565b610e14600080516020612aec8339815191528461180e565b6040516001600160a01b03841690600080516020612aec83398151915290600080516020612b4c83398151915290600090a3505050565b600082815260208190526040902060010154610e6681611a14565b610d418383611c85565b6001600160a01b0381163314610e995760405163334bd91960e11b815260040160405180910390fd5b610ea38282611c12565b505050565b806001600160a01b038116610ed05760405163e6c4247b60e01b815260040160405180910390fd5b6000610edb81611a14565b610ef3600080516020612b0c8339815191528461180e565b6040516001600160a01b03841690600080516020612b0c83398151915290600080516020612b4c83398151915290600090a3505050565b610ea38383836040518060200160405280600081525061168f565b806001600160a01b038116610f6d5760405163e6c4247b60e01b815260040160405180910390fd5b6000610f7881611a14565b610f90600080516020612b2c83398151915284610e4b565b6040516001600160a01b03841690600080516020612b2c83398151915290600080516020612a8c83398151915290600090a3505050565b6000610910600080516020612aec833981519152836114dd565b806001600160a01b0381166110095760405163e6c4247b60e01b815260040160405180910390fd5b600061101481611a14565b61102c600080516020612aac83398151915284610e4b565b6040516001600160a01b03841690600080516020612aac83398151915290600080516020612a8c83398151915290600090a3505050565b600061106e81611a14565b61107884846114dd565b611095576040516366783c9d60e11b815260040160405180910390fd5b61109f8484611c12565b506110aa8483611c85565b50604080516001600160a01b0380861682528416602082015285917f274dd4127a55dcb6f6c12ed38fec5007d965d2afffa8b0bc75c3dc8f3f6b2224910160405180910390a250505050565b806001600160a01b03811661111e5760405163e6c4247b60e01b815260040160405180910390fd5b600061112981611a14565b611141600080516020612acc83398151915284610e4b565b6040516001600160a01b03841690600080516020612acc83398151915290600080516020612a8c83398151915290600090a3505050565b600061118381611a14565b83158061118e575081155b156111ac57604051637d6eaf9360e01b815260040160405180910390fd5b8382146111cc576040516390a2f79360e01b815260040160405180910390fd5b60005b848110156112325761121f8686838181106111ec576111ec61281b565b905060200201358585848181106112055761120561281b565b905060200201602081019061121a91906123cb565b611c85565b508061122a81612802565b9150506111cf565b508282604051611243929190612831565b60405180910390207ff4d52c90739c68c4e82d39cfbeee6b6613784bf9b28d2cdb3a02203799cf0606868660405161127c929190612871565b60405180910390a25050505050565b600061091082611ad3565b60006001600160a01b0382166112c2576040516322718ad960e21b815260006004820152602401610cdd565b506001600160a01b031660009081526005602052604090205490565b6112e6611d0f565b6112f06000611d3c565b565b6112fb3361191e565b156113195760405163510a583360e01b815260040160405180910390fd5b801561133857604051630729422160e41b815260040160405180910390fd5b601881111561135a57604051630729422160e41b815260040160405180910390fd5b600061136882610e106128aa565b9050611382600080516020612aac83398151915233611c85565b5061138d81426128c1565b33600081815260016020526040908190209290925590517fc526cdae63c288ea4504281fe29b0ae3352c8a9ccae61eba8c21cd25a949e0f1906113d39085815260200190565b60405180910390a25050565b6000816001600160a01b0381166114095760405163e6c4247b60e01b815260040160405180910390fd5b6001600160a01b0383166000908152600c602052604090205491505b50919050565b6000610910600080516020612acc833981519152836114dd565b806001600160a01b03811661146d5760405163e6c4247b60e01b815260040160405180910390fd5b600061147881611a14565b611490600080516020612a6c8339815191528461180e565b6040516001600160a01b03841690600080516020612a6c83398151915290600080516020612b4c83398151915290600090a3505050565b6000610910600080516020612b2c833981519152835b6000918252602082815260408084206001600160a01b0393909316845291905290205460ff1690565b606060038054610a5d906127b8565b6000610910600080516020612a6c833981519152836114dd565b610c31338383611d8e565b806001600160a01b0381166115625760405163e6c4247b60e01b815260040160405180910390fd5b600061156d81611a14565b611585600080516020612aec83398151915284610e4b565b6040516001600160a01b03841690600080516020612aec83398151915290600080516020612a8c83398151915290600090a3505050565b6000610910600080516020612b0c833981519152836114dd565b60008080808080806115e881896114dd565b611600600080516020612acc8339815191528a6114dd565b611618600080516020612b2c8339815191528b6114dd565b611630600080516020612b0c8339815191528c6114dd565b611648600080516020612a6c8339815191528d6114dd565b611660600080516020612aec8339815191528e6114dd565b611678600080516020612aac8339815191528f6114dd565b959e949d50929b5090995097509550909350915050565b61169a848484610cb7565b610d4184848484611e2d565b806001600160a01b0381166116ce5760405163e6c4247b60e01b815260040160405180910390fd5b60006116d981611a14565b610ea3600080516020612b2c8339815191528461180e565b600061091081836114dd565b606061170882611ad3565b5060008281526008602052604081208054611722906127b8565b80601f016020809104026020016040519081016040528092919081815260200182805461174e906127b8565b801561179b5780601f106117705761010080835404028352916020019161179b565b820191906000526020600020905b81548152906001019060200180831161177e57829003601f168201915b5050505050905060006117b960408051602081019091526000815290565b905080516000036117cb575092915050565b8151156117fd5780826040516020016117e59291906128d4565b60405160208183030381529060405292505050919050565b61180684611f56565b949350505050565b60008281526020819052604090206001015461182981611a14565b610d418383611c12565b806001600160a01b03811661185b5760405163e6c4247b60e01b815260040160405180910390fd5b600061186681611a14565b61187e600080516020612b0c83398151915284610e4b565b6040516001600160a01b03841690600080516020612b0c83398151915290600080516020612a8c83398151915290600090a3505050565b6001600160a01b03918216600090815260076020908152604080832093909416825291909152205460ff1690565b6118eb611d0f565b6001600160a01b03811661191557604051631e4fbdf760e01b815260006004820152602401610cdd565b610dc681611d3c565b6000610910600080516020612aac833981519152836114dd565b806001600160a01b0381166119605760405163e6c4247b60e01b815260040160405180910390fd5b600061196b81611a14565b611983600080516020612acc8339815191528461180e565b6040516001600160a01b03841690600080516020612acc83398151915290600080516020612b4c83398151915290600090a3505050565b60006001600160e01b03198216637965db0b60e01b148061091057506301ffc9a760e01b6001600160e01b0319831614610910565b60006001600160e01b03198216632483248360e11b1480610910575061091082611fcb565b610dc6813361200b565b6001600160a01b038216611a4857604051633250574960e11b815260006004820152602401610cdd565b6000611a5683836000611b19565b90506001600160a01b03811615610ea3576040516339e3563760e11b815260006004820152602401610cdd565b6000828152600860205260409020611a9b8282612951565b506040518281527ff8e1a15aba9398e019f0b49df1a4fde98ee17ae345cb5f6b5e2c27f5033e8ce79060200160405180910390a15050565b6000818152600460205260408120546001600160a01b03168061091057604051637e27328960e01b815260048101849052602401610cdd565b610ea38383836001612044565b6000828152600460205260408120546001600160a01b0390811690831615611b4657611b4681848661214a565b6001600160a01b03811615611b8457611b63600085600080612044565b6001600160a01b038116600090815260056020526040902080546000190190555b6001600160a01b03851615611bb3576001600160a01b0385166000908152600560205260409020805460010190555b60008481526004602052604080822080546001600160a01b0319166001600160a01b0389811691821790925591518793918516917fddf252ad1be2c89b69c2b068fc378daa952ba7f163c4a11628f55a4df523b3ef91a4949350505050565b6000611c1e83836114dd565b15611c7d576000838152602081815260408083206001600160a01b0386168085529252808320805460ff1916905551339286917ff6391f5c32d9c69d2a47ea670b442974b53935d1edc7fd64eb21e047a839171b9190a4506001610910565b506000610910565b6000611c9183836114dd565b611c7d576000838152602081815260408083206001600160a01b03861684529091529020805460ff19166001179055611cc73390565b6001600160a01b0316826001600160a01b0316847f2f8788117e7eff1d82e926ec794901d17c78024a50270940304540a733656f0d60405160405180910390a4506001610910565b6009546001600160a01b031633146112f05760405163118cdaa760e01b8152336004820152602401610cdd565b600980546001600160a01b038381166001600160a01b0319831681179093556040519116919082907f8be0079c531659141344cd1fd0a4f28419497f9722a3daafe3b4186f6b6457e090600090a35050565b6001600160a01b038216611dc057604051630b61174360e31b81526001600160a01b0383166004820152602401610cdd565b6001600160a01b03838116600081815260076020908152604080832094871680845294825291829020805460ff191686151590811790915591519182527f17307eab39ab6107e8899845ad3d59bd9653f200f220920489ca2b5937696c31910160405180910390a3505050565b6001600160a01b0383163b15610d4157604051630a85bd0160e11b81526001600160a01b0384169063150b7a0290611e6f903390889087908790600401612a11565b6020604051808303816000875af1925050508015611eaa575060408051601f3d908101601f19168201909252611ea791810190612a4e565b60015b611f13573d808015611ed8576040519150601f19603f3d011682016040523d82523d6000602084013e611edd565b606091505b508051600003611f0b57604051633250574960e11b81526001600160a01b0385166004820152602401610cdd565b805181602001fd5b6001600160e01b03198116630a85bd0160e11b14611f4f57604051633250574960e11b81526001600160a01b0385166004820152602401610cdd565b5050505050565b6060611f6182611ad3565b506000611f7960408051602081019091526000815290565b90506000815111611f995760405180602001604052806000815250611fc4565b80611fa3846121ae565b604051602001611fb49291906128d4565b6040516020818303038152906040525b9392505050565b60006001600160e01b031982166380ac58cd60e01b1480611ffc57506001600160e01b03198216635b5e139f60e01b145b806109105750610910826119ba565b61201582826114dd565b610c315760405163e2517d3f60e01b81526001600160a01b038216600482015260248101839052604401610cdd565b808061205857506001600160a01b03821615155b1561211a57600061206884611ad3565b90506001600160a01b038316158015906120945750826001600160a01b0316816001600160a01b031614155b80156120a757506120a581846118b5565b155b156120d05760405163a9fbf51f60e01b81526001600160a01b0384166004820152602401610cdd565b81156121185783856001600160a01b0316826001600160a01b03167f8c5be1e5ebec7d5bd14f71427d1e84f3dd0314c0f7b2291e5b200ac8c7c3b92560405160405180910390a45b505b5050600090815260066020526040902080546001600160a01b0319166001600160a01b0392909216919091179055565b612155838383612241565b610ea3576001600160a01b03831661218357604051637e27328960e01b815260048101829052602401610cdd565b60405163177e802f60e01b81526001600160a01b038316600482015260248101829052604401610cdd565b606060006121bb836122a4565b600101905060008167ffffffffffffffff8111156121db576121db612462565b6040519080825280601f01601f191660200182016040528015612205576020820181803683370190505b5090508181016020015b600019016f181899199a1a9b1b9c1cb0b131b232b360811b600a86061a8153600a850494508461220f57509392505050565b60006001600160a01b038316158015906118065750826001600160a01b0316846001600160a01b0316148061227b575061227b84846118b5565b806118065750506000908152600660205260409020546001600160a01b03908116911614919050565b60008072184f03e93ff9f4daa797ed6e38ed64bf6a1f0160401b83106122e35772184f03e93ff9f4daa797ed6e38ed64bf6a1f0160401b830492506040015b6d04ee2d6d415b85acef8100000000831061230f576d04ee2d6d415b85acef8100000000830492506020015b662386f26fc10000831061232d57662386f26fc10000830492506010015b6305f5e1008310612345576305f5e100830492506008015b612710831061235957612710830492506004015b6064831061236b576064830492506002015b600a83106109105760010192915050565b6001600160e01b031981168114610dc657600080fd5b6000602082840312156123a457600080fd5b8135611fc48161237c565b80356001600160a01b03811681146123c657600080fd5b919050565b6000602082840312156123dd57600080fd5b611fc4826123af565b6000602082840312156123f857600080fd5b5035919050565b60005b8381101561241a578181015183820152602001612402565b50506000910152565b6000815180845261243b8160208601602086016123ff565b601f01601f19169290920160200192915050565b602081526000611fc46020830184612423565b634e487b7160e01b600052604160045260246000fd5b600067ffffffffffffffff8084111561249357612493612462565b604051601f8501601f19908116603f011681019082821181831017156124bb576124bb612462565b816040528093508581528686860111156124d457600080fd5b858560208301376000602087830101525050509392505050565b6000806040838503121561250157600080fd5b61250a836123af565b9150602083013567ffffffffffffffff81111561252657600080fd5b8301601f8101851361253757600080fd5b61254685823560208401612478565b9150509250929050565b6000806040838503121561256357600080fd5b61256c836123af565b946020939093013593505050565b60008060006060848603121561258f57600080fd5b612598846123af565b92506125a6602085016123af565b9150604084013590509250925092565b600080604083850312156125c957600080fd5b823591506125d9602084016123af565b90509250929050565b6000806000606084860312156125f757600080fd5b83359250612607602085016123af565b9150612615604085016123af565b90509250925092565b60008083601f84011261263057600080fd5b50813567ffffffffffffffff81111561264857600080fd5b6020830191508360208260051b850101111561266357600080fd5b9250929050565b6000806000806040858703121561268057600080fd5b843567ffffffffffffffff8082111561269857600080fd5b6126a48883890161261e565b909650945060208701359150808211156126bd57600080fd5b506126ca8782880161261e565b95989497509550505050565b600080604083850312156126e957600080fd5b6126f2836123af565b91506020830135801515811461270757600080fd5b809150509250929050565b6000806000806080858703121561272857600080fd5b612731856123af565b935061273f602086016123af565b925060408501359150606085013567ffffffffffffffff81111561276257600080fd5b8501601f8101871361277357600080fd5b61278287823560208401612478565b91505092959194509250565b600080604083850312156127a157600080fd5b6127aa836123af565b91506125d9602084016123af565b600181811c908216806127cc57607f821691505b60208210810361142557634e487b7160e01b600052602260045260246000fd5b634e487b7160e01b600052601160045260246000fd5b600060018201612814576128146127ec565b5060010190565b634e487b7160e01b600052603260045260246000fd5b60008184825b85811015612866576001600160a01b03612850836123af565b1683526020928301929190910190600101612837565b509095945050505050565b6020808252810182905260006001600160fb1b0383111561289157600080fd5b8260051b80856040850137919091016040019392505050565b8082028115828204841417610910576109106127ec565b80820180821115610910576109106127ec565b600083516128e68184602088016123ff565b8351908301906128fa8183602088016123ff565b01949350505050565b601f821115610ea357600081815260208120601f850160051c8101602086101561292a5750805b601f850160051c820191505b8181101561294957828155600101612936565b505050505050565b815167ffffffffffffffff81111561296b5761296b612462565b61297f8161297984546127b8565b84612903565b602080601f8311600181146129b4576000841561299c5750858301515b600019600386901b1c1916600185901b178555612949565b600085815260208120601f198616915b828110156129e3578886015182559484019460019091019084016129c4565b5085821015612a015787850151600019600388901b60f8161c191681555b5050505050600190811b01905550565b6001600160a01b0385811682528416602082015260408101839052608060608201819052600090612a4490830184612423565b9695505050505050565b600060208284031215612a6057600080fd5b8151611fc48161237c56fe920994fc3bfe282f3f20cdccf1b7c5e46c63d963e822d98efff90abd41c12e212ae6a113c0ed5b78a53413ffbb7679881f11145ccfba4fb92e863dfcd5a1d2f3ee244ef9da0b2f89a74b208ea9fe1a639ebdf634027d9e1f092b58c39954fa37c41a06b26ced3a23b7bf835a0918ade784f4055ded86d18305f528f47a726052aa0ec51d0bf03ce5511c9ffc9de2b423d73d1faacd808abf2ac89ccea8a3ecf259a1c48e5837ad7a7f3dcedcbe129bf3249ec4fbf651fd4f5e2600ead39fe2f506fa31d7a92d9fa9a8898ac41d86ee9b13863605a361c85ae5d6010d5de4f280155aaafb6329a2098580462df33ec4b7441b19729b9601c5fc17ae1cf99a8a52a264697066735822122063d8cc23e55933c4b3b8d96d40766d957efb5e7dfdab06fcdd31fe88050a0ffb64736f6c63430008140033",
  "linkReferences": {},
  "deployedLinkReferences": {}
}