{
  "address": "0xCf7Ed3AccA5a467e9e704C703E8D87F634fB0Fc9",
  "abi": [
    {
      "inputs": [
        {
          "internalType": "address",
          "name": "_rolesManager",
          "type": "address"
        },
        {
          "internalType": "address",
          "name": "_certAuthority",
          "type": "address"
        }
      ],
      "stateMutability": "nonpayable",
      "type": "constructor"
    },
    {
      "inputs": [],
      "name": "AccessControlBadConfirmation",
      "type": "error"
    },
    {
      "inputs": [
        {
          "internalType": "address",
          "name": "account",
          "type": "address"
        },
        {
          "internalType": "bytes32",
          "name": "neededRole",
          "type": "bytes32"
        }
      ],
      "name": "AccessControlUnauthorizedAccount",
      "type": "error"
    },
    {
      "inputs": [],
      "name": "AuditorOversight__AppealWindowClosed",
      "type": "error"
    },
    {
      "inputs": [],
      "name": "AuditorOversight__CaseNotPending",
      "type": "error"
    },
    {
      "inputs": [],
      "name": "AuditorOversight__NotAuthorizedEnterpriseOwner",
      "type": "error"
    },
    {
      "inputs": [],
      "name": "CertificateNFT__CertificateDoesNotExist",
      "type": "error"
    },
    {
      "inputs": [],
      "name": "CertificateNFT__EnterpriseAlreadyCertified",
      "type": "error"
    },
    {
      "inputs": [],
      "name": "CertificationAuthority__CertificationNotExpiredYet",
      "type": "error"
    },
    {
      "inputs": [],
      "name": "CertificationAuthority__EnterpriseAlreadyCertified",
      "type": "error"
    },
    {
      "inputs": [],
      "name": "CertificationAuthority__EnterpriseNotCertifiedYet",
      "type": "error"
    },
    {
      "inputs": [],
      "name": "EnterpriseRegistry__EnterpriseAlreadyExists",
      "type": "error"
    },
    {
      "inputs": [],
      "name": "EnterpriseRegistry__EnterpriseDoesNotExist",
      "type": "error"
    },
    {
      "inputs": [],
      "name": "EnterpriseRegistry__InvalidStart",
      "type": "error"
    },
    {
      "inputs": [],
      "name": "InspectionManager__InspectionPeriodExpired",
      "type": "error"
    },
    {
      "inputs": [],
      "name": "InspectionManager__InspectorAlreadyAssigned",
      "type": "error"
    },
    {
      "inputs": [],
      "name": "InspectionManager__InvalidReportIndex",
      "type": "error"
    },
    {
      "inputs": [],
      "name": "InspectionManager__NoReportsAssociatedWithEnterprise",
      "type": "error"
    },
    {
      "inputs": [],
      "name": "InspectionManager__NotAssignedToEnterprise",
      "type": "error"
    },
    {
      "inputs": [],
      "name": "InspectionManager__ReportAlreadyFlagged",
      "type": "error"
    },
    {
      "inputs": [],
      "name": "InvalidAddress",
      "type": "error"
    },
    {
      "inputs": [],
      "name": "RolesManager__AlreadyHasRole",
      "type": "error"
    },
    {
      "inputs": [],
      "name": "RolesManager__ArrayLengthMismatch",
      "type": "error"
    },
    {
      "inputs": [],
      "name": "RolesManager__EmptyArray",
      "type": "error"
    },
    {
      "inputs": [],
      "name": "RolesManager__InvalidDuration",
      "type": "error"
    },
    {
      "inputs": [],
      "name": "RolesManager__NotAuthorizedAuditor",
      "type": "error"
    },
    {
      "inputs": [],
      "name": "RolesManager__NotAuthorizedCertificateFactory",
      "type": "error"
    },
    {
      "inputs": [],
      "name": "RolesManager__NotAuthorizedCertifier",
      "type": "error"
    },
    {
      "inputs": [],
      "name": "RolesManager__NotAuthorizedEnterprise",
      "type": "error"
    },
    {
      "inputs": [],
      "name": "RolesManager__NotAuthorizedInspector",
      "type": "error"
    },
    {
      "inputs": [],
      "name": "RolesManager__NotAuthorizedPublicUser",
      "type": "error"
    },
    {
      "inputs": [],
      "name": "RolesManager__RoleDoesNotExist",
      "type": "error"
    },
    {
      "inputs": [],
      "name": "RolesManager__UnauthorizedToPerformAction",
      "type": "error"
    },
    {
      "anonymous": false,
      "inputs": [
        {
          "indexed": false,
          "internalType": "bytes32[]",
          "name": "roles",
          "type": "bytes32[]"
        },
        {
          "indexed": true,
          "internalType": "address[]",
          "name": "accounts",
          "type": "address[]"
        }
      ],
      "name": "BulkRolesGranted",
      "type": "event"
    },
    {
      "anonymous": false,
      "inputs": [
        {
          "indexed": true,
          "internalType": "address",
          "name": "enterprise",
          "type": "address"
        },
        {
          "indexed": true,
          "internalType": "uint256",
          "name": "reportIndex",
          "type": "uint256"
        },
        {
          "indexed": false,
          "internalType": "address",
          "name": "flaggedBy",
          "type": "address"
        },
        {
          "indexed": false,
          "internalType": "string",
          "name": "reason",
          "type": "string"
        },
        {
          "indexed": false,
          "internalType": "uint256",
          "name": "timestamp",
          "type": "uint256"
        }
      ],
      "name": "InspectionReportFlagged",
      "type": "event"
    },
    {
      "anonymous": false,
      "inputs": [
        {
          "indexed": true,
          "internalType": "address",
          "name": "inspector",
          "type": "address"
        },
        {
          "indexed": true,
          "internalType": "address",
          "name": "enterprise",
          "type": "address"
        },
        {
          "indexed": false,
          "internalType": "bool",
          "name": "passed",
          "type": "bool"
        },
        {
          "indexed": false,
          "internalType": "string",
          "name": "remarks",
          "type": "string"
        },
        {
          "indexed": false,
          "internalType": "string",
          "name": "evidenceURI",
          "type": "string"
        },
        {
          "indexed": false,
          "internalType": "uint256",
          "name": "ReportedAt",
          "type": "uint256"
        }
      ],
      "name": "InspectionReportSubmitted",
      "type": "event"
    },
    {
      "anonymous": false,
      "inputs": [
        {
          "indexed": true,
          "internalType": "address",
          "name": "enterprise",
          "type": "address"
        },
        {
          "indexed": true,
          "internalType": "address",
          "name": "inspector",
          "type": "address"
        },
        {
          "indexed": false,
          "internalType": "uint256",
          "name": "validityPeriod",
          "type": "uint256"
        }
      ],
      "name": "InspectorAssigned",
      "type": "event"
    },
    {
      "anonymous": false,
      "inputs": [
        {
          "indexed": true,
          "internalType": "address",
          "name": "user",
          "type": "address"
        }
      ],
      "name": "PublicRoleExpired",
      "type": "event"
    },
    {
      "anonymous": false,
      "inputs": [
        {
          "indexed": true,
          "internalType": "address",
          "name": "user",
          "type": "address"
        },
        {
          "indexed": false,
          "internalType": "uint256",
          "name": "duration",
          "type": "uint256"
        }
      ],
      "name": "PublicRoleGranted",
      "type": "event"
    },
    {
      "anonymous": false,
      "inputs": [
        {
          "indexed": true,
          "internalType": "bytes32",
          "name": "role",
          "type": "bytes32"
        },
        {
          "indexed": true,
          "internalType": "bytes32",
          "name": "previousAdminRole",
          "type": "bytes32"
        },
        {
          "indexed": true,
          "internalType": "bytes32",
          "name": "newAdminRole",
          "type": "bytes32"
        }
      ],
      "name": "RoleAdminChanged",
      "type": "event"
    },
    {
      "anonymous": false,
      "inputs": [
        {
          "indexed": true,
          "internalType": "bytes32",
          "name": "role",
          "type": "bytes32"
        },
        {
          "indexed": true,
          "internalType": "address",
          "name": "account",
          "type": "address"
        },
        {
          "indexed": true,
          "internalType": "address",
          "name": "sender",
          "type": "address"
        }
      ],
      "name": "RoleGranted",
      "type": "event"
    },
    {
      "anonymous": false,
      "inputs": [
        {
          "indexed": true,
          "internalType": "bytes32",
          "name": "role",
          "type": "bytes32"
        },
        {
          "indexed": true,
          "internalType": "address",
          "name": "account",
          "type": "address"
        }
      ],
      "name": "RoleGranted",
      "type": "event"
    },
    {
      "anonymous": false,
      "inputs": [
        {
          "indexed": true,
          "internalType": "bytes32",
          "name": "role",
          "type": "bytes32"
        },
        {
          "indexed": true,
          "internalType": "address",
          "name": "account",
          "type": "address"
        },
        {
          "indexed": true,
          "internalType": "address",
          "name": "sender",
          "type": "address"
        }
      ],
      "name": "RoleRevoked",
      "type": "event"
    },
    {
      "anonymous": false,
      "inputs": [
        {
          "indexed": true,
          "internalType": "bytes32",
          "name": "role",
          "type": "bytes32"
        },
        {
          "indexed": true,
          "internalType": "address",
          "name": "account",
          "type": "address"
        }
      ],
      "name": "RoleRevoked",
      "type": "event"
    },
    {
      "anonymous": false,
      "inputs": [
        {
          "indexed": true,
          "internalType": "bytes32",
          "name": "role",
          "type": "bytes32"
        },
        {
          "indexed": false,
          "internalType": "address",
          "name": "from",
          "type": "address"
        },
        {
          "indexed": false,
          "internalType": "address",
          "name": "to",
          "type": "address"
        }
      ],
      "name": "RoleTransferred",
      "type": "event"
    },
    {
      "inputs": [],
      "name": "AUDITOR_ROLE",
      "outputs": [
        {
          "internalType": "bytes32",
          "name": "",
          "type": "bytes32"
        }
      ],
      "stateMutability": "view",
      "type": "function"
    },
    {
      "inputs": [],
      "name": "CERTIFICATE_FACTORY_ROLE",
      "outputs": [
        {
          "internalType": "bytes32",
          "name": "",
          "type": "bytes32"
        }
      ],
      "stateMutability": "view",
      "type": "function"
    },
    {
      "inputs": [],
      "name": "CERTIFIER_ROLE",
      "outputs": [
        {
          "internalType": "bytes32",
          "name": "",
          "type": "bytes32"
        }
      ],
      "stateMutability": "view",
      "type": "function"
    },
    {
      "inputs": [],
      "name": "DEFAULT_ADMIN_ROLE",
      "outputs": [
        {
          "internalType": "bytes32",
          "name": "",
          "type": "bytes32"
        }
      ],
      "stateMutability": "view",
      "type": "function"
    },
    {
      "inputs": [],
      "name": "DEFAULT_PUBLIC_ROLE_DURATION",
      "outputs": [
        {
          "internalType": "uint256",
          "name": "",
          "type": "uint256"
        }
      ],
      "stateMutability": "view",
      "type": "function"
    },
    {
      "inputs": [],
      "name": "ENTERPRISE_ROLE",
      "outputs": [
        {
          "internalType": "bytes32",
          "name": "",
          "type": "bytes32"
        }
      ],
      "stateMutability": "view",
      "type": "function"
    },
    {
      "inputs": [],
      "name": "INSPECTOR_ROLE",
      "outputs": [
        {
          "internalType": "bytes32",
          "name": "",
          "type": "bytes32"
        }
      ],
      "stateMutability": "view",
      "type": "function"
    },
    {
      "inputs": [],
      "name": "PUBLIC_ROLE",
      "outputs": [
        {
          "internalType": "bytes32",
          "name": "",
          "type": "bytes32"
        }
      ],
      "stateMutability": "view",
      "type": "function"
    },
    {
      "inputs": [
        {
          "internalType": "address",
          "name": "enterprise",
          "type": "address"
        },
        {
          "internalType": "address",
          "name": "inspector",
          "type": "address"
        },
        {
          "internalType": "uint256",
          "name": "validityPeriod",
          "type": "uint256"
        }
      ],
      "name": "assignInspector",
      "outputs": [],
      "stateMutability": "nonpayable",
      "type": "function"
    },
    {
      "inputs": [
        {
          "internalType": "bytes32[]",
          "name": "roles",
          "type": "bytes32[]"
        },
        {
          "internalType": "address[]",
          "name": "accounts",
          "type": "address[]"
        }
      ],
      "name": "bulkGrantRoles",
      "outputs": [],
      "stateMutability": "nonpayable",
      "type": "function"
    },
    {
      "inputs": [],
      "name": "certAuthority",
      "outputs": [
        {
          "internalType": "contract CertificationAuthority",
          "name": "",
          "type": "address"
        }
      ],
      "stateMutability": "view",
      "type": "function"
    },
    {
      "inputs": [
        {
          "internalType": "address",
          "name": "account",
          "type": "address"
        }
      ],
      "name": "checkExpiryRoles",
      "outputs": [],
      "stateMutability": "nonpayable",
      "type": "function"
    },
    {
      "inputs": [
        {
          "internalType": "uint256",
          "name": "durationInHours",
          "type": "uint256"
        }
      ],
      "name": "claimTemporaryPublicRole",
      "outputs": [],
      "stateMutability": "nonpayable",
      "type": "function"
    },
    {
      "inputs": [
        {
          "internalType": "address",
          "name": "enterprise",
          "type": "address"
        },
        {
          "internalType": "uint256",
          "name": "reportIndex",
          "type": "uint256"
        },
        {
          "internalType": "string",
          "name": "reason",
          "type": "string"
        }
      ],
      "name": "flagInspection",
      "outputs": [],
      "stateMutability": "nonpayable",
      "type": "function"
    },
    {
      "inputs": [
        {
          "internalType": "address",
          "name": "account",
          "type": "address"
        }
      ],
      "name": "getActiveRoles",
      "outputs": [
        {
          "internalType": "bool",
          "name": "isAdmin",
          "type": "bool"
        },
        {
          "internalType": "bool",
          "name": "isCertifier",
          "type": "bool"
        },
        {
          "internalType": "bool",
          "name": "isInspector",
          "type": "bool"
        },
        {
          "internalType": "bool",
          "name": "isAuditor",
          "type": "bool"
        },
        {
          "internalType": "bool",
          "name": "isEnterprise",
          "type": "bool"
        },
        {
          "internalType": "bool",
          "name": "isCertificateFactory",
          "type": "bool"
        },
        {
          "internalType": "bool",
          "name": "isPublic",
          "type": "bool"
        }
      ],
      "stateMutability": "view",
      "type": "function"
    },
    {
      "inputs": [
        {
          "internalType": "address",
          "name": "enterprise",
          "type": "address"
        }
      ],
      "name": "getEnterpriseFlaggedReports",
      "outputs": [
        {
          "components": [
            {
              "internalType": "address",
              "name": "enterprise",
              "type": "address"
            },
            {
              "internalType": "uint256",
              "name": "reportIndex",
              "type": "uint256"
            },
            {
              "components": [
                {
                  "internalType": "address",
                  "name": "inspector",
                  "type": "address"
                },
                {
                  "internalType": "address",
                  "name": "enterprise",
                  "type": "address"
                },
                {
                  "internalType": "string",
                  "name": "remarks",
                  "type": "string"
                },
                {
                  "internalType": "string",
                  "name": "evidenceURI",
                  "type": "string"
                },
                {
                  "internalType": "uint256",
                  "name": "inspectedAt",
                  "type": "uint256"
                },
                {
                  "internalType": "bool",
                  "name": "passed",
                  "type": "bool"
                },
                {
                  "internalType": "bool",
                  "name": "flagged",
                  "type": "bool"
                }
              ],
              "internalType": "struct DataTypes.InspectionReport",
              "name": "report",
              "type": "tuple"
            },
            {
              "internalType": "address",
              "name": "flaggedBy",
              "type": "address"
            },
            {
              "internalType": "string",
              "name": "reason",
              "type": "string"
            },
            {
              "internalType": "uint256",
              "name": "flaggedAt",
              "type": "uint256"
            }
          ],
          "internalType": "struct DataTypes.FlaggedInspection[]",
          "name": "",
          "type": "tuple[]"
        }
      ],
      "stateMutability": "view",
      "type": "function"
    },
    {
      "inputs": [
        {
          "internalType": "address",
          "name": "enterprise",
          "type": "address"
        }
      ],
      "name": "getEnterpriseInspectionReports",
      "outputs": [
        {
          "components": [
            {
              "internalType": "address",
              "name": "inspector",
              "type": "address"
            },
            {
              "internalType": "address",
              "name": "enterprise",
              "type": "address"
            },
            {
              "internalType": "string",
              "name": "remarks",
              "type": "string"
            },
            {
              "internalType": "string",
              "name": "evidenceURI",
              "type": "string"
            },
            {
              "internalType": "uint256",
              "name": "inspectedAt",
              "type": "uint256"
            },
            {
              "internalType": "bool",
              "name": "passed",
              "type": "bool"
            },
            {
              "internalType": "bool",
              "name": "flagged",
              "type": "bool"
            }
          ],
          "internalType": "struct DataTypes.InspectionReport[]",
          "name": "",
          "type": "tuple[]"
        }
      ],
      "stateMutability": "view",
      "type": "function"
    },
    {
      "inputs": [
        {
          "internalType": "address",
          "name": "enterprise",
          "type": "address"
        }
      ],
      "name": "getEnterpriseInspectors",
      "outputs": [
        {
          "internalType": "address[]",
          "name": "",
          "type": "address[]"
        },
        {
          "internalType": "uint256[]",
          "name": "validityPeriods",
          "type": "uint256[]"
        }
      ],
      "stateMutability": "view",
      "type": "function"
    },
    {
      "inputs": [
        {
          "internalType": "uint256",
          "name": "limit",
          "type": "uint256"
        },
        {
          "internalType": "uint256",
          "name": "offset",
          "type": "uint256"
        }
      ],
      "name": "getFlaggedInspections",
      "outputs": [
        {
          "components": [
            {
              "internalType": "address",
              "name": "enterprise",
              "type": "address"
            },
            {
              "internalType": "uint256",
              "name": "reportIndex",
              "type": "uint256"
            },
            {
              "components": [
                {
                  "internalType": "address",
                  "name": "inspector",
                  "type": "address"
                },
                {
                  "internalType": "address",
                  "name": "enterprise",
                  "type": "address"
                },
                {
                  "internalType": "string",
                  "name": "remarks",
                  "type": "string"
                },
                {
                  "internalType": "string",
                  "name": "evidenceURI",
                  "type": "string"
                },
                {
                  "internalType": "uint256",
                  "name": "inspectedAt",
                  "type": "uint256"
                },
                {
                  "internalType": "bool",
                  "name": "passed",
                  "type": "bool"
                },
                {
                  "internalType": "bool",
                  "name": "flagged",
                  "type": "bool"
                }
              ],
              "internalType": "struct DataTypes.InspectionReport",
              "name": "report",
              "type": "tuple"
            },
            {
              "internalType": "address",
              "name": "flaggedBy",
              "type": "address"
            },
            {
              "internalType": "string",
              "name": "reason",
              "type": "string"
            },
            {
              "internalType": "uint256",
              "name": "flaggedAt",
              "type": "uint256"
            }
          ],
          "internalType": "struct DataTypes.FlaggedInspection[]",
          "name": "",
          "type": "tuple[]"
        }
      ],
      "stateMutability": "view",
      "type": "function"
    },
    {
      "inputs": [
        {
          "internalType": "address",
          "name": "inspector",
          "type": "address"
        }
      ],
      "name": "getInspectorReports",
      "outputs": [
        {
          "components": [
            {
              "internalType": "address",
              "name": "inspector",
              "type": "address"
            },
            {
              "internalType": "address",
              "name": "enterprise",
              "type": "address"
            },
            {
              "internalType": "string",
              "name": "remarks",
              "type": "string"
            },
            {
              "internalType": "string",
              "name": "evidenceURI",
              "type": "string"
            },
            {
              "internalType": "uint256",
              "name": "inspectedAt",
              "type": "uint256"
            },
            {
              "internalType": "bool",
              "name": "passed",
              "type": "bool"
            },
            {
              "internalType": "bool",
              "name": "flagged",
              "type": "bool"
            }
          ],
          "internalType": "struct DataTypes.InspectionReport[]",
          "name": "",
          "type": "tuple[]"
        }
      ],
      "stateMutability": "view",
      "type": "function"
    },
    {
      "inputs": [],
      "name": "getMaxPublicRoleDuration",
      "outputs": [
        {
          "internalType": "uint256",
          "name": "",
          "type": "uint256"
        }
      ],
      "stateMutability": "pure",
      "type": "function"
    },
    {
      "inputs": [
        {
          "internalType": "bytes32",
          "name": "role",
          "type": "bytes32"
        }
      ],
      "name": "getRoleAdmin",
      "outputs": [
        {
          "internalType": "bytes32",
          "name": "",
          "type": "bytes32"
        }
      ],
      "stateMutability": "view",
      "type": "function"
    },
    {
      "inputs": [
        {
          "internalType": "address",
          "name": "account",
          "type": "address"
        }
      ],
      "name": "grantAuditor",
      "outputs": [],
      "stateMutability": "nonpayable",
      "type": "function"
    },
    {
      "inputs": [
        {
          "internalType": "address",
          "name": "account",
          "type": "address"
        }
      ],
      "name": "grantCertificateFactory",
      "outputs": [],
      "stateMutability": "nonpayable",
      "type": "function"
    },
    {
      "inputs": [
        {
          "internalType": "address",
          "name": "account",
          "type": "address"
        }
      ],
      "name": "grantCertifier",
      "outputs": [],
      "stateMutability": "nonpayable",
      "type": "function"
    },
    {
      "inputs": [
        {
          "internalType": "address",
          "name": "account",
          "type": "address"
        }
      ],
      "name": "grantEnterprise",
      "outputs": [],
      "stateMutability": "nonpayable",
      "type": "function"
    },
    {
      "inputs": [
        {
          "internalType": "address",
          "name": "account",
          "type": "address"
        }
      ],
      "name": "grantInspector",
      "outputs": [],
      "stateMutability": "nonpayable",
      "type": "function"
    },
    {
      "inputs": [
        {
          "internalType": "address",
          "name": "account",
          "type": "address"
        }
      ],
      "name": "grantPublicRole",
      "outputs": [],
      "stateMutability": "nonpayable",
      "type": "function"
    },
    {
      "inputs": [
        {
          "internalType": "bytes32",
          "name": "role",
          "type": "bytes32"
        },
        {
          "internalType": "address",
          "name": "account",
          "type": "address"
        }
      ],
      "name": "grantRole",
      "outputs": [],
      "stateMutability": "nonpayable",
      "type": "function"
    },
    {
      "inputs": [
        {
          "internalType": "address",
          "name": "account",
          "type": "address"
        }
      ],
      "name": "hasAdminRole",
      "outputs": [
        {
          "internalType": "bool",
          "name": "",
          "type": "bool"
        }
      ],
      "stateMutability": "view",
      "type": "function"
    },
    {
      "inputs": [
        {
          "internalType": "address",
          "name": "account",
          "type": "address"
        }
      ],
      "name": "hasAuditorRole",
      "outputs": [
        {
          "internalType": "bool",
          "name": "",
          "type": "bool"
        }
      ],
      "stateMutability": "view",
      "type": "function"
    },
    {
      "inputs": [
        {
          "internalType": "address",
          "name": "account",
          "type": "address"
        }
      ],
      "name": "hasCertificateFactoryRole",
      "outputs": [
        {
          "internalType": "bool",
          "name": "",
          "type": "bool"
        }
      ],
      "stateMutability": "view",
      "type": "function"
    },
    {
      "inputs": [
        {
          "internalType": "address",
          "name": "account",
          "type": "address"
        }
      ],
      "name": "hasCertifierRole",
      "outputs": [
        {
          "internalType": "bool",
          "name": "",
          "type": "bool"
        }
      ],
      "stateMutability": "view",
      "type": "function"
    },
    {
      "inputs": [
        {
          "internalType": "address",
          "name": "account",
          "type": "address"
        }
      ],
      "name": "hasEnterpriseRole",
      "outputs": [
        {
          "internalType": "bool",
          "name": "",
          "type": "bool"
        }
      ],
      "stateMutability": "view",
      "type": "function"
    },
    {
      "inputs": [
        {
          "internalType": "address",
          "name": "account",
          "type": "address"
        }
      ],
      "name": "hasInspectorRole",
      "outputs": [
        {
          "internalType": "bool",
          "name": "",
          "type": "bool"
        }
      ],
      "stateMutability": "view",
      "type": "function"
    },
    {
      "inputs": [
        {
          "internalType": "address",
          "name": "account",
          "type": "address"
        }
      ],
      "name": "hasPublicRole",
      "outputs": [
        {
          "internalType": "bool",
          "name": "",
          "type": "bool"
        }
      ],
      "stateMutability": "view",
      "type": "function"
    },
    {
      "inputs": [
        {
          "internalType": "bytes32",
          "name": "role",
          "type": "bytes32"
        },
        {
          "internalType": "address",
          "name": "account",
          "type": "address"
        }
      ],
      "name": "hasRole",
      "outputs": [
        {
          "internalType": "bool",
          "name": "",
          "type": "bool"
        }
      ],
      "stateMutability": "view",
      "type": "function"
    },
    {
      "inputs": [
        {
          "internalType": "address",
          "name": "",
          "type": "address"
        }
      ],
      "name": "publicRoleExpiry",
      "outputs": [
        {
          "internalType": "uint256",
          "name": "",
          "type": "uint256"
        }
      ],
      "stateMutability": "view",
      "type": "function"
    },
    {
      "inputs": [
        {
          "internalType": "bytes32",
          "name": "role",
          "type": "bytes32"
        },
        {
          "internalType": "address",
          "name": "callerConfirmation",
          "type": "address"
        }
      ],
      "name": "renounceRole",
      "outputs": [],
      "stateMutability": "nonpayable",
      "type": "function"
    },
    {
      "inputs": [
        {
          "internalType": "address",
          "name": "account",
          "type": "address"
        }
      ],
      "name": "revokeAuditorRole",
      "outputs": [],
      "stateMutability": "nonpayable",
      "type": "function"
    },
    {
      "inputs": [
        {
          "internalType": "address",
          "name": "account",
          "type": "address"
        }
      ],
      "name": "revokeCertificateFactoryRole",
      "outputs": [],
      "stateMutability": "nonpayable",
      "type": "function"
    },
    {
      "inputs": [
        {
          "internalType": "address",
          "name": "account",
          "type": "address"
        }
      ],
      "name": "revokeCertifierRole",
      "outputs": [],
      "stateMutability": "nonpayable",
      "type": "function"
    },
    {
      "inputs": [
        {
          "internalType": "address",
          "name": "account",
          "type": "address"
        }
      ],
      "name": "revokeEnterpriseRole",
      "outputs": [],
      "stateMutability": "nonpayable",
      "type": "function"
    },
    {
      "inputs": [
        {
          "internalType": "address",
          "name": "account",
          "type": "address"
        }
      ],
      "name": "revokeInspectorRole",
      "outputs": [],
      "stateMutability": "nonpayable",
      "type": "function"
    },
    {
      "inputs": [
        {
          "internalType": "address",
          "name": "account",
          "type": "address"
        }
      ],
      "name": "revokePublicRole",
      "outputs": [],
      "stateMutability": "nonpayable",
      "type": "function"
    },
    {
      "inputs": [
        {
          "internalType": "bytes32",
          "name": "role",
          "type": "bytes32"
        },
        {
          "internalType": "address",
          "name": "account",
          "type": "address"
        }
      ],
      "name": "revokeRole",
      "outputs": [],
      "stateMutability": "nonpayable",
      "type": "function"
    },
    {
      "inputs": [],
      "name": "rolesManager",
      "outputs": [
        {
          "internalType": "contract RolesManager",
          "name": "",
          "type": "address"
        }
      ],
      "stateMutability": "view",
      "type": "function"
    },
    {
      "inputs": [
        {
          "internalType": "address",
          "name": "_enterprise",
          "type": "address"
        },
        {
          "internalType": "bool",
          "name": "_passed",
          "type": "bool"
        },
        {
          "internalType": "string",
          "name": "_remarks",
          "type": "string"
        },
        {
          "internalType": "string",
          "name": "_evidenceURI",
          "type": "string"
        }
      ],
      "name": "submitInspectionReport",
      "outputs": [],
      "stateMutability": "nonpayable",
      "type": "function"
    },
    {
      "inputs": [
        {
          "internalType": "bytes4",
          "name": "interfaceId",
          "type": "bytes4"
        }
      ],
      "name": "supportsInterface",
      "outputs": [
        {
          "internalType": "bool",
          "name": "",
          "type": "bool"
        }
      ],
      "stateMutability": "view",
      "type": "function"
    },
    {
      "inputs": [
        {
          "internalType": "bytes32",
          "name": "role",
          "type": "bytes32"
        },
        {
          "internalType": "address",
          "name": "from",
          "type": "address"
        },
        {
          "internalType": "address",
          "name": "to",
          "type": "address"
        }
      ],
      "name": "transferRole",
      "outputs": [],
      "stateMutability": "nonpayable",
      "type": "function"
    }
  ],
  "transactionHash": "0xc448fb1410db1adc0c31f1bb1abfbebbda7b595a240b516078ad667f295bda8a",
  "args": [
    "0xe7f1725E7734CE288F8367e1Bb143E90bb3F0512",
    "0x5FbDB2315678afecb367f032d93F642f64180aa3"
  ],
  "numDeployments": 1,
  "solcInputHash": "9a79105cccbca1c8fcdf00bf17d246a3",
  "bytecode": "0x60c06040523480156200001157600080fd5b506040516200398838038062003988833981016040819052620000349162000162565b6200004160003362000085565b6200006d7fc41a06b26ced3a23b7bf835a0918ade784f4055ded86d18305f528f47a7260523362000085565b6001600160a01b039182166080521660a0526200019a565b62000091828262000096565b505050565b6000828152602081815260408083206001600160a01b038516845290915281205460ff166200013b576000838152602081815260408083206001600160a01b03861684529091529020805460ff19166001179055620000f23390565b6001600160a01b0316826001600160a01b0316847f2f8788117e7eff1d82e926ec794901d17c78024a50270940304540a733656f0d60405160405180910390a45060016200013f565b5060005b92915050565b80516001600160a01b03811681146200015d57600080fd5b919050565b600080604083850312156200017657600080fd5b620001818362000145565b9150620001916020840162000145565b90509250929050565b60805160a0516137ba620001ce60003960008181610561015281816122d001526123d1015260006105db01526137ba6000f3fe608060405234801561001057600080fd5b50600436106102d65760003560e01c80637bff097511610182578063b1ba3883116100e9578063c395fcb3116100a2578063e3a3c5221161007c578063e3a3c52214610718578063e55b4f931461072d578063f53f5e1e14610740578063fc8102861461075357600080fd5b8063c395fcb3146106df578063cc5ed5ea146106f2578063d547741f1461070557600080fd5b8063b1ba388314610677578063b1ea540e1461068a578063b5617ef71461069d578063b8ad415e146106bd578063b9bc982f146106c4578063bd7ca7ba146106cc57600080fd5b8063a1f341631161013b578063a1f34163146105bb578063a217fddf146105ce578063a3574c5b146105d6578063aa52617c146105fd578063abaa536f14610610578063b0614db31461062357600080fd5b80637bff0975146105105780637e5effa4146105235780638850845f1461053657806391d148541461054957806399eb08d61461055c5780639a98163b1461059b57600080fd5b8063456f19fc1161024157806361462f0e116101fa57806369d0b517116101d457806369d0b517146104be5780636e1d616e146104d35780637780e9c1146104e8578063784fee0e146104fb57600080fd5b806361462f0e1461048357806368b688c11461049657806368dd17a5146104a957600080fd5b8063456f19fc146104045780634e4ddb921461041757806352f84b721461043757806357c033711461044a5780635cb87d261461045d578063603765281461047057600080fd5b8063261191b711610293578063261191b7146103905780632f2ff15d146103a357806336568abe146103b65780633ca7c02a146103c95780633e251518146103de5780634308ac98146103f157600080fd5b806301ffc9a7146102db5780630443cd2a1461030357806308d0aef7146103185780631e223b2a14610339578063248a9ca31461034c57806325d5e87e1461037d575b600080fd5b6102ee6102e9366004612ddb565b610766565b60405190151581526020015b60405180910390f35b610316610311366004612e28565b61079d565b005b61032b610326366004612e28565b61081f565b6040516102fa929190612e43565b610316610347366004612e28565b61097b565b61036f61035a366004612ec7565b60009081526020819052604090206001015490565b6040519081526020016102fa565b61031661038b366004612e28565b6109fd565b61031661039e366004612e28565b610a94565b6103166103b1366004612ee0565b610b16565b6103166103c4366004612ee0565b610b41565b61036f6000805160206136c583398151915281565b6103166103ec366004612e28565b610b79565b6103166103ff366004612f55565b610bfb565b610316610412366004612e28565b6110eb565b61042a610425366004612faf565b61116d565b6040516102fa9190613094565b6102ee610445366004612e28565b6114b3565b610316610458366004612e28565b6114cd565b61031661046b366004613157565b61156b565b61031661047e366004612e28565b6115fe565b6103166104913660046131d8565b611680565b61042a6104a4366004612e28565b611793565b61036f60008051602061368583398151915281565b61036f6000805160206136e583398151915281565b61036f60008051602061372583398151915281565b6103166104f6366004612ec7565b611b24565b61036f60008051602061370583398151915281565b6102ee61051e366004612e28565b611bf2565b610316610531366004612e28565b611c0c565b6102ee610544366004612e28565b611c8e565b6102ee610557366004612ee0565b611ca4565b6105837f000000000000000000000000000000000000000000000000000000000000000081565b6040516001600160a01b0390911681526020016102fa565b6105ae6105a9366004612e28565b611ccd565b6040516102fa9190613238565b6102ee6105c9366004612e28565b611eed565b61036f600081565b6105837f000000000000000000000000000000000000000000000000000000000000000081565b61031661060b366004612e28565b611f07565b6102ee61061e366004612e28565b611f89565b610636610631366004612e28565b611fa3565b60408051971515885295151560208801529315159486019490945290151560608501521515608084015290151560a0830152151560c082015260e0016102fa565b6103166106853660046132a8565b61205c565b61031661069836600461333b565b61238c565b61036f6106ab366004612e28565b60016020526000908152604090205481565b601861036f565b61036f607881565b6103166106da366004612e28565b61254d565b6102ee6106ed366004612e28565b612598565b6105ae610700366004612e28565b6125a4565b610316610713366004612ee0565b6129e4565b61036f60008051602061374583398151915281565b61031661073b366004612e28565b612a09565b6102ee61074e366004612e28565b612a8b565b610316610761366004612e28565b612ace565b60006001600160e01b03198216637965db0b60e01b148061079757506301ffc9a760e01b6001600160e01b03198316145b92915050565b806001600160a01b0381166107c55760405163e6c4247b60e01b815260040160405180910390fd5b60006107d081612b50565b6107e86000805160206136c5833981519152846129e4565b6040516001600160a01b038416906000805160206136c58339815191529060008051602061376583398151915290600090a3505050565b6001600160a01b038116600090815260026020908152604080832080548251818502810185019093528083526060948594909392919083018282801561088e57602002820191906000526020600020905b81546001600160a01b03168152600190910190602001808311610870575b505050505090506000815167ffffffffffffffff8111156108b1576108b1613377565b6040519080825280602002602001820160405280156108da578160200160208202803683370190505b50905060005b8251811015610970576001600160a01b038616600090815260056020526040812084519091908590849081106109185761091861338d565b60200260200101516001600160a01b03166001600160a01b03168152602001908152602001600020548282815181106109535761095361338d565b602090810291909101015280610968816133b9565b9150506108e0565b509094909350915050565b806001600160a01b0381166109a35760405163e6c4247b60e01b815260040160405180910390fd5b60006109ae81612b50565b6109c660008051602061368583398151915284610b16565b6040516001600160a01b03841690600080516020613685833981519152906000805160206136a583398151915290600090a3505050565b610a0681612b5a565b610a23576040516366783c9d60e11b815260040160405180910390fd5b6001600160a01b038116600090815260016020526040902054421115610a9157610a5b6000805160206136c583398151915282612b74565b506040516001600160a01b038216907fa6f32bcbc7de829d50e1c9cbc1c5b4dafb4c7a0b8329757aee62a9b394d71c3b90600090a25b50565b806001600160a01b038116610abc5760405163e6c4247b60e01b815260040160405180910390fd5b6000610ac781612b50565b610adf600080516020613705833981519152846129e4565b6040516001600160a01b038416906000805160206137058339815191529060008051602061376583398151915290600090a3505050565b600082815260208190526040902060010154610b3181612b50565b610b3b8383612be7565b50505050565b6001600160a01b0381163314610b6a5760405163334bd91960e11b815260040160405180910390fd5b610b748282612b74565b505050565b806001600160a01b038116610ba15760405163e6c4247b60e01b815260040160405180910390fd5b6000610bac81612b50565b610bc4600080516020613725833981519152846129e4565b6040516001600160a01b038416906000805160206137258339815191529060008051602061376583398151915290600090a3505050565b600080516020613725833981519152610c1381612b50565b6001600160a01b038516600090815260046020526040902054841115610c4c576040516315c25ffd60e01b815260040160405180910390fd5b6001600160a01b0385166000908152600460205260409020805485908110610c7657610c7661338d565b906000526020600020906006020160050160019054906101000a900460ff1615610cb35760405163c2d1c49160e01b815260040160405180910390fd5b6001600160a01b038516600090815260046020526040902080546001919086908110610ce157610ce161338d565b906000526020600020906006020160050160016101000a81548160ff02191690831515021790555060006040518060c00160405280876001600160a01b0316815260200186815260200160046000896001600160a01b03166001600160a01b031681526020019081526020016000208781548110610d6157610d6161338d565b60009182526020918290206040805160e081018252600690930290910180546001600160a01b0390811684526001820154169383019390935260028301805492939291840191610db0906133d2565b80601f0160208091040260200160405190810160405280929190818152602001828054610ddc906133d2565b8015610e295780601f10610dfe57610100808354040283529160200191610e29565b820191906000526020600020905b815481529060010190602001808311610e0c57829003601f168201915b50505050508152602001600382018054610e42906133d2565b80601f0160208091040260200160405190810160405280929190818152602001828054610e6e906133d2565b8015610ebb5780601f10610e9057610100808354040283529160200191610ebb565b820191906000526020600020905b815481529060010190602001808311610e9e57829003601f168201915b5050509183525050600482015460208083019190915260059092015460ff808216151560408085019190915261010090920416151560609092019190915291835233838201528151601f880182900482028101820183528781529290910191908790879081908401838280828437600092018290525093855250504260209384015250600854815260068252604090819020835181546001600160a01b03199081166001600160a01b0392831617835585850151600184015585840151805160028501805484169185169190911781559581015160038501805490931693169290921790559182015193945084939092906004840190610fbb908261345a565b5060608201516003820190610fd0908261345a565b50608082810151600483015560a08301516005909201805460c09094015161ffff1990941692151561ff001916929092176101009315159390930292909217905560608301516008830180546001600160a01b0319166001600160a01b039092169190911790558201516009820190611049908261345a565b5060a09190910151600a909101556001600160a01b0386166000908152600760209081526040822060088054825460018101845592855292842090910191909155805491611096836133b9565b919050555084866001600160a01b03167f7b1f7b3dacb5afdc95a1242e036c2e87a67f32d97cb111111215f3305223b666338787426040516110db9493929190613543565b60405180910390a3505050505050565b806001600160a01b0381166111135760405163e6c4247b60e01b815260040160405180910390fd5b600061111e81612b50565b61113660008051602061374583398151915284610b16565b6040516001600160a01b03841690600080516020613745833981519152906000805160206136a583398151915290600090a3505050565b606060008260085461117f9190613579565b841161118b5783611199565b826008546111999190613579565b905060008167ffffffffffffffff8111156111b6576111b6613377565b6040519080825280602002602001820160405280156111ef57816020015b6111dc612d45565b8152602001906001900390816111d45790505b50905060005b828110156114aa576006600061120b838861358c565b81526020808201929092526040908101600020815160c08101835281546001600160a01b039081168252600183015482860152835160e08101855260028401805483168252600385015490921695810195909552600483018054929593948681019493908401919061127c906133d2565b80601f01602080910402602001604051908101604052809291908181526020018280546112a8906133d2565b80156112f55780601f106112ca576101008083540402835291602001916112f5565b820191906000526020600020905b8154815290600101906020018083116112d857829003601f168201915b5050505050815260200160038201805461130e906133d2565b80601f016020809104026020016040519081016040528092919081815260200182805461133a906133d2565b80156113875780601f1061135c57610100808354040283529160200191611387565b820191906000526020600020905b81548152906001019060200180831161136a57829003601f168201915b5050509183525050600482015460208083019190915260059092015460ff808216151560408085019190915261010090920416151560609092019190915291835260088401546001600160a01b03169083015260098301805492909101916113ee906133d2565b80601f016020809104026020016040519081016040528092919081815260200182805461141a906133d2565b80156114675780601f1061143c57610100808354040283529160200191611467565b820191906000526020600020905b81548152906001019060200180831161144a57829003601f168201915b50505050508152602001600a8201548152505082828151811061148c5761148c61338d565b602002602001018190525080806114a2906133b9565b9150506111f5565b50949350505050565b600061079760008051602061370583398151915283611ca4565b806001600160a01b0381166114f55760405163e6c4247b60e01b815260040160405180910390fd5b600061150081612b50565b6115186000805160206136c583398151915284610b16565b61152360784261358c565b336000908152600160205260408082209290925590516001600160a01b038516916000805160206136c5833981519152916000805160206136a58339815191529190a3505050565b600061157681612b50565b6115808484611ca4565b61159d576040516366783c9d60e11b815260040160405180910390fd5b6115a78484612b74565b506115b28483612be7565b50604080516001600160a01b0380861682528416602082015285917f274dd4127a55dcb6f6c12ed38fec5007d965d2afffa8b0bc75c3dc8f3f6b2224910160405180910390a250505050565b806001600160a01b0381166116265760405163e6c4247b60e01b815260040160405180910390fd5b600061163181612b50565b6116496000805160206136e583398151915284610b16565b6040516001600160a01b038416906000805160206136e5833981519152906000805160206136a583398151915290600090a3505050565b600061168b81612b50565b831580611696575081155b156116b457604051637d6eaf9360e01b815260040160405180910390fd5b8382146116d4576040516390a2f79360e01b815260040160405180910390fd5b60005b8481101561173a576117278686838181106116f4576116f461338d565b9050602002013585858481811061170d5761170d61338d565b90506020020160208101906117229190612e28565b612be7565b5080611732816133b9565b9150506116d7565b50828260405161174b92919061359f565b60405180910390207ff4d52c90739c68c4e82d39cfbeee6b6613784bf9b28d2cdb3a02203799cf060686866040516117849291906135d4565b60405180910390a25050505050565b6001600160a01b03811660009081526007602090815260408083208054825181850281018501909352808352606094938301828280156117f257602002820191906000526020600020905b8154815260200190600101908083116117de575b505050505090506000815167ffffffffffffffff81111561181557611815613377565b60405190808252806020026020018201604052801561184e57816020015b61183b612d45565b8152602001906001900390816118335790505b50905060005b8251811015611b1c57600660008483815181106118735761187361338d565b6020908102919091018101518252818101929092526040908101600020815160c08101835281546001600160a01b039081168252600183015482860152835160e0810185526002840180548316825260038501549092169581019590955260048301805492959394868101949390840191906118ee906133d2565b80601f016020809104026020016040519081016040528092919081815260200182805461191a906133d2565b80156119675780601f1061193c57610100808354040283529160200191611967565b820191906000526020600020905b81548152906001019060200180831161194a57829003601f168201915b50505050508152602001600382018054611980906133d2565b80601f01602080910402602001604051908101604052809291908181526020018280546119ac906133d2565b80156119f95780601f106119ce576101008083540402835291602001916119f9565b820191906000526020600020905b8154815290600101906020018083116119dc57829003601f168201915b5050509183525050600482015460208083019190915260059092015460ff808216151560408085019190915261010090920416151560609092019190915291835260088401546001600160a01b0316908301526009830180549290910191611a60906133d2565b80601f0160208091040260200160405190810160405280929190818152602001828054611a8c906133d2565b8015611ad95780601f10611aae57610100808354040283529160200191611ad9565b820191906000526020600020905b815481529060010190602001808311611abc57829003601f168201915b50505050508152602001600a82015481525050828281518110611afe57611afe61338d565b60200260200101819052508080611b14906133b9565b915050611854565b509392505050565b611b2d33612a8b565b15611b4b5760405163510a583360e01b815260040160405180910390fd5b6018811115611b6d57604051630729422160e41b815260040160405180910390fd5b6000611b7b82610e1061360d565b9050611b956000805160206136c583398151915233612be7565b50611ba0814261358c565b33600081815260016020526040908190209290925590517fc526cdae63c288ea4504281fe29b0ae3352c8a9ccae61eba8c21cd25a949e0f190611be69085815260200190565b60405180910390a25050565b60006107976000805160206136e583398151915283611ca4565b806001600160a01b038116611c345760405163e6c4247b60e01b815260040160405180910390fd5b6000611c3f81612b50565b611c57600080516020613685833981519152846129e4565b6040516001600160a01b038416906000805160206136858339815191529060008051602061376583398151915290600090a3505050565b6000610797600080516020613745833981519152835b6000918252602082815260408084206001600160a01b0393909316845291905290205460ff1690565b6001600160a01b03811660009081526004602052604081205460609103611d075760405163fc32598360e01b815260040160405180910390fd5b6001600160a01b038216600090815260046020908152604080832080548251818502810185019093528083529193909284015b82821015611ee25760008481526020908190206040805160e0810182526006860290920180546001600160a01b0390811684526001820154169383019390935260028301805492939291840191611d90906133d2565b80601f0160208091040260200160405190810160405280929190818152602001828054611dbc906133d2565b8015611e095780601f10611dde57610100808354040283529160200191611e09565b820191906000526020600020905b815481529060010190602001808311611dec57829003601f168201915b50505050508152602001600382018054611e22906133d2565b80601f0160208091040260200160405190810160405280929190818152602001828054611e4e906133d2565b8015611e9b5780601f10611e7057610100808354040283529160200191611e9b565b820191906000526020600020905b815481529060010190602001808311611e7e57829003601f168201915b5050509183525050600482015460208083019190915260059092015460ff808216151560408401526101009091041615156060909101529082526001929092019101611d3a565b505050509050919050565b600061079760008051602061368583398151915283611ca4565b806001600160a01b038116611f2f5760405163e6c4247b60e01b815260040160405180910390fd5b6000611f3a81612b50565b611f5260008051602061370583398151915284610b16565b6040516001600160a01b03841690600080516020613705833981519152906000805160206136a583398151915290600090a3505050565b600061079760008051602061372583398151915283611ca4565b6000808080808080611fb58189611ca4565b611fcd6000805160206136e58339815191528a611ca4565b611fe56000805160206137458339815191528b611ca4565b611ffd6000805160206137258339815191528c611ca4565b6120156000805160206136858339815191528d611ca4565b61202d6000805160206137058339815191528e611ca4565b6120456000805160206136c58339815191528f611ca4565b959e949d50929b5090995097509550909350915050565b8561206633611c8e565b6120835760405163e9aab75160e01b815260040160405180910390fd5b61208d8133612c71565b6120aa57604051633dec104f60e01b815260040160405180910390fd5b6001600160a01b03811660009081526005602090815260408083203384529091529020544211156120ee576040516317a7851f60e11b815260040160405180910390fd5b6001600160a01b0387166000908152600560209081526040808320338452909152902054421115612132576040516317a7851f60e11b815260040160405180910390fd5b60006040518060e00160405280336001600160a01b03168152602001896001600160a01b0316815260200187878080601f016020809104026020016040519081016040528093929190818152602001838380828437600092019190915250505090825250604080516020601f88018190048102820181019092528681529181019190879087908190840183828082843760009201829052509385525050426020808501919091528b151560408086019190915260609094018390526001600160a01b038d811684526004825284842080546001808201835591865294839020875160069096020180546001600160a01b031990811696841696909617815592870151908301805490951691161790925550908201519192508291600282019061225b908261345a565b5060608201516003820190612270908261345a565b506080820151600482015560a08201516005909101805460c09093015115156101000261ff00199215159290921661ffff19909316929092171790558661232d5760405163b83cc3b360e01b81526001600160a01b0389811660048301527f0000000000000000000000000000000000000000000000000000000000000000169063b83cc3b390602401600060405180830381600087803b15801561231457600080fd5b505af1158015612328573d6000803e3d6000fd5b505050505b876001600160a01b0316336001600160a01b03167fd1b5f5f27a6c067d892d5201d9160332ad987f12ed191d83be7d4fb4dc87671689898989894260405161237a96959493929190613624565b60405180910390a35050505050505050565b61239533611bf2565b6123b2576040516336fe937160e11b815260040160405180910390fd5b60405163261e85cd60e01b81526001600160a01b0384811660048301527f0000000000000000000000000000000000000000000000000000000000000000169063261e85cd90602401602060405180830381865afa158015612418573d6000803e3d6000fd5b505050506040513d601f19601f8201168201806040525081019061243c9190613667565b612459576040516308a2227760e11b815260040160405180910390fd5b61246282611c8e565b61247f5760405163e9aab75160e01b815260040160405180910390fd5b6001600160a01b0380841660008181526002602090815260408083208054600181810183559185528385200180549689166001600160a01b0319978816811790915584526003835290832080549182018155835291200180549092161790556124e8814261358c565b6001600160a01b038481166000818152600560209081526040808320948816808452948252918290209490945551848152919290917f0eb676771c16d4fb5bc9e83f804be8ad19cd67426581c189e482796624a1ac9f910160405180910390a3505050565b806001600160a01b0381166125755760405163e6c4247b60e01b815260040160405180910390fd5b600061258081612b50565b610b74600080516020613745833981519152846129e4565b60006107978183611ca4565b6001600160a01b038116600090815260036020908152604080832080548251818502810185019093528083526060949383018282801561260d57602002820191906000526020600020905b81546001600160a01b031681526001909101906020018083116125ef575b50505050509050600080600090505b8251811015612686576004600084838151811061263b5761263b61338d565b60200260200101516001600160a01b03166001600160a01b031681526020019081526020016000208054905082612672919061358c565b91508061267e816133b9565b91505061261c565b5060008167ffffffffffffffff8111156126a2576126a2613377565b6040519080825280602002602001820160405280156126db57816020015b6126c8612d88565b8152602001906001900390816126c05790505b5090506000805b84518110156129d95760005b600460008784815181106127045761270461338d565b60200260200101516001600160a01b03166001600160a01b03168152602001908152602001600020805490508110156129c657876001600160a01b0316600460008885815181106127575761275761338d565b60200260200101516001600160a01b03166001600160a01b0316815260200190815260200160002082815481106127905761279061338d565b60009182526020909120600690910201546001600160a01b0316036129b457600460008784815181106127c5576127c561338d565b60200260200101516001600160a01b03166001600160a01b0316815260200190815260200160002081815481106127fe576127fe61338d565b60009182526020918290206040805160e081018252600690930290910180546001600160a01b039081168452600182015416938301939093526002830180549293929184019161284d906133d2565b80601f0160208091040260200160405190810160405280929190818152602001828054612879906133d2565b80156128c65780601f1061289b576101008083540402835291602001916128c6565b820191906000526020600020905b8154815290600101906020018083116128a957829003601f168201915b505050505081526020016003820180546128df906133d2565b80601f016020809104026020016040519081016040528092919081815260200182805461290b906133d2565b80156129585780601f1061292d57610100808354040283529160200191612958565b820191906000526020600020905b81548152906001019060200180831161293b57829003601f168201915b50505091835250506004820154602082015260059091015460ff808216151560408401526101009091041615156060909101528484612996816133b9565b9550815181106129a8576129a861338d565b60200260200101819052505b806129be816133b9565b9150506126ee565b50806129d1816133b9565b9150506126e2565b509095945050505050565b6000828152602081905260409020600101546129ff81612b50565b610b3b8383612b74565b806001600160a01b038116612a315760405163e6c4247b60e01b815260040160405180910390fd5b6000612a3c81612b50565b612a5460008051602061372583398151915284610b16565b6040516001600160a01b03841690600080516020613725833981519152906000805160206136a583398151915290600090a3505050565b6000612a9682612b5a565b8015612ab957506001600160a01b03821660009081526001602052604090205442105b15612ac657506001919050565b506000919050565b806001600160a01b038116612af65760405163e6c4247b60e01b815260040160405180910390fd5b6000612b0181612b50565b612b196000805160206136e5833981519152846129e4565b6040516001600160a01b038416906000805160206136e58339815191529060008051602061376583398151915290600090a3505050565b610a918133612d04565b60006107976000805160206136c583398151915283611ca4565b6000612b808383611ca4565b15612bdf576000838152602081815260408083206001600160a01b0386168085529252808320805460ff1916905551339286917ff6391f5c32d9c69d2a47ea670b442974b53935d1edc7fd64eb21e047a839171b9190a4506001610797565b506000610797565b6000612bf38383611ca4565b612bdf576000838152602081815260408083206001600160a01b03861684529091529020805460ff19166001179055612c293390565b6001600160a01b0316826001600160a01b0316847f2f8788117e7eff1d82e926ec794901d17c78024a50270940304540a733656f0d60405160405180910390a4506001610797565b6000805b6001600160a01b038416600090815260026020526040902054811015612cfa576001600160a01b03848116600090815260026020526040902080549185169183908110612cc457612cc461338d565b6000918252602090912001546001600160a01b031603612ce8576001915050610797565b80612cf2816133b9565b915050612c75565b5060009392505050565b612d0e8282611ca4565b612d415760405163e2517d3f60e01b81526001600160a01b03821660048201526024810183905260440160405180910390fd5b5050565b6040805160c08101825260008082526020820152908101612d64612d88565b815260200160006001600160a01b0316815260200160608152602001600081525090565b6040518060e0016040528060006001600160a01b0316815260200160006001600160a01b031681526020016060815260200160608152602001600081526020016000151581526020016000151581525090565b600060208284031215612ded57600080fd5b81356001600160e01b031981168114612e0557600080fd5b9392505050565b80356001600160a01b0381168114612e2357600080fd5b919050565b600060208284031215612e3a57600080fd5b612e0582612e0c565b604080825283519082018190526000906020906060840190828701845b82811015612e855781516001600160a01b031684529284019290840190600101612e60565b5050508381038285015284518082528583019183019060005b81811015612eba57835183529284019291840191600101612e9e565b5090979650505050505050565b600060208284031215612ed957600080fd5b5035919050565b60008060408385031215612ef357600080fd5b82359150612f0360208401612e0c565b90509250929050565b60008083601f840112612f1e57600080fd5b50813567ffffffffffffffff811115612f3657600080fd5b602083019150836020828501011115612f4e57600080fd5b9250929050565b60008060008060608587031215612f6b57600080fd5b612f7485612e0c565b935060208501359250604085013567ffffffffffffffff811115612f9757600080fd5b612fa387828801612f0c565b95989497509550505050565b60008060408385031215612fc257600080fd5b50508035926020909101359150565b6000815180845260005b81811015612ff757602081850181015186830182015201612fdb565b506000602082860101526020601f19601f83011685010191505092915050565b600060018060a01b0380835116845280602084015116602085015250604082015160e0604085015261304c60e0850182612fd1565b9050606083015184820360608601526130658282612fd1565b9150506080830151608085015260a0830151151560a085015260c0830151151560c08501528091505092915050565b60006020808301818452808551808352604092508286019150828160051b87010184880160005b8381101561314957888303603f19018552815180516001600160a01b03908116855288820151898601528782015160c089870181905291906130ff83880182613017565b9250506060818185015116818801525050608080830151868303828801526131278382612fd1565b60a09485015197909401969096525050948701949250908601906001016130bb565b509098975050505050505050565b60008060006060848603121561316c57600080fd5b8335925061317c60208501612e0c565b915061318a60408501612e0c565b90509250925092565b60008083601f8401126131a557600080fd5b50813567ffffffffffffffff8111156131bd57600080fd5b6020830191508360208260051b8501011115612f4e57600080fd5b600080600080604085870312156131ee57600080fd5b843567ffffffffffffffff8082111561320657600080fd5b61321288838901613193565b9096509450602087013591508082111561322b57600080fd5b50612fa387828801613193565b6000602080830181845280855180835260408601915060408160051b870101925083870160005b8281101561328d57603f1988860301845261327b858351613017565b9450928501929085019060010161325f565b5092979650505050505050565b8015158114610a9157600080fd5b600080600080600080608087890312156132c157600080fd5b6132ca87612e0c565b955060208701356132da8161329a565b9450604087013567ffffffffffffffff808211156132f757600080fd5b6133038a838b01612f0c565b9096509450606089013591508082111561331c57600080fd5b5061332989828a01612f0c565b979a9699509497509295939492505050565b60008060006060848603121561335057600080fd5b61335984612e0c565b925061336760208501612e0c565b9150604084013590509250925092565b634e487b7160e01b600052604160045260246000fd5b634e487b7160e01b600052603260045260246000fd5b634e487b7160e01b600052601160045260246000fd5b6000600182016133cb576133cb6133a3565b5060010190565b600181811c908216806133e657607f821691505b60208210810361340657634e487b7160e01b600052602260045260246000fd5b50919050565b601f821115610b7457600081815260208120601f850160051c810160208610156134335750805b601f850160051c820191505b818110156134525782815560010161343f565b505050505050565b815167ffffffffffffffff81111561347457613474613377565b6134888161348284546133d2565b8461340c565b602080601f8311600181146134bd57600084156134a55750858301515b600019600386901b1c1916600185901b178555613452565b600085815260208120601f198616915b828110156134ec578886015182559484019460019091019084016134cd565b508582101561350a5787850151600019600388901b60f8161c191681555b5050505050600190811b01905550565b81835281816020850137506000828201602090810191909152601f909101601f19169091010190565b6001600160a01b0385168152606060208201819052600090613568908301858761351a565b905082604083015295945050505050565b81810381811115610797576107976133a3565b80820180821115610797576107976133a3565b60008184825b858110156129d9576001600160a01b036135be83612e0c565b16835260209283019291909101906001016135a5565b6020808252810182905260006001600160fb1b038311156135f457600080fd5b8260051b80856040850137919091016040019392505050565b8082028115828204841417610797576107976133a3565b861515815260806020820152600061364060808301878961351a565b828103604084015261365381868861351a565b915050826060830152979650505050505050565b60006020828403121561367957600080fd5b8151612e058161329a56fe920994fc3bfe282f3f20cdccf1b7c5e46c63d963e822d98efff90abd41c12e212ae6a113c0ed5b78a53413ffbb7679881f11145ccfba4fb92e863dfcd5a1d2f3ee244ef9da0b2f89a74b208ea9fe1a639ebdf634027d9e1f092b58c39954fa37c41a06b26ced3a23b7bf835a0918ade784f4055ded86d18305f528f47a726052aa0ec51d0bf03ce5511c9ffc9de2b423d73d1faacd808abf2ac89ccea8a3ecf259a1c48e5837ad7a7f3dcedcbe129bf3249ec4fbf651fd4f5e2600ead39fe2f506fa31d7a92d9fa9a8898ac41d86ee9b13863605a361c85ae5d6010d5de4f280155aaafb6329a2098580462df33ec4b7441b19729b9601c5fc17ae1cf99a8a52a2646970667358221220b7d99f370008b64b76a7c3f18d6597055fa06cc2effeced409e3e3165fb30f3f64736f6c63430008140033",
  "devdoc": {
    "errors": {
      "AccessControlBadConfirmation()": [
        {
          "details": "The caller of a function is not the expected one. NOTE: Don't confuse with {AccessControlUnauthorizedAccount}."
        }
      ],
      "AccessControlUnauthorizedAccount(address,bytes32)": [
        {
          "details": "The `account` is missing a role."
        }
      ]
    },
    "events": {
      "RoleAdminChanged(bytes32,bytes32,bytes32)": {
        "details": "Emitted when `newAdminRole` is set as ``role``'s admin role, replacing `previousAdminRole` `DEFAULT_ADMIN_ROLE` is the starting admin for all roles, despite {RoleAdminChanged} not being emitted signaling this."
      },
      "RoleGranted(bytes32,address,address)": {
        "details": "Emitted when `account` is granted `role`. `sender` is the account that originated the contract call, an admin role bearer except when using {AccessControl-_setupRole}."
      },
      "RoleRevoked(bytes32,address,address)": {
        "details": "Emitted when `account` is revoked `role`. `sender` is the account that originated the contract call:   - if using `revokeRole`, it is the admin role bearer   - if using `renounceRole`, it is the role bearer (i.e. `account`)"
      }
    },
    "kind": "dev",
    "methods": {
      "bulkGrantRoles(bytes32[],address[])": {
        "details": "Bulk grant roles to accounts",
        "params": {
          "accounts": "The array of accounts to grant roles emits BulkRolesGranted event on successful grant",
          "roles": "The array of roles to grant"
        }
      },
      "claimTemporaryPublicRole(uint256)": {
        "details": "allows users to claim temporary `PUBLIC` role for `durationInHours` hours on their visit to platform",
        "params": {
          "durationInHours": "The duration in hours the user will have the `PUBLIC` role"
        }
      },
      "getRoleAdmin(bytes32)": {
        "details": "Returns the admin role that controls `role`. See {grantRole} and {revokeRole}. To change a role's admin, use {_setRoleAdmin}."
      },
      "grantCertifier(address)": {
        "details": "Functions to grant roles to!",
        "params": {
          "account": "The account to grant the role to"
        }
      },
      "grantRole(bytes32,address)": {
        "details": "Grants `role` to `account`. If `account` had not been already granted `role`, emits a {RoleGranted} event. Requirements: - the caller must have ``role``'s admin role. May emit a {RoleGranted} event."
      },
      "hasAdminRole(address)": {
        "details": "Functions to check if a certain account has the specified role",
        "params": {
          "account": "The account to check "
        }
      },
      "hasRole(bytes32,address)": {
        "details": "Returns `true` if `account` has been granted `role`."
      },
      "renounceRole(bytes32,address)": {
        "details": "Revokes `role` from the calling account. Roles are often managed via {grantRole} and {revokeRole}: this function's purpose is to provide a mechanism for accounts to lose their privileges if they are compromised (such as when a trusted device is misplaced). If the calling account had been revoked `role`, emits a {RoleRevoked} event. Requirements: - the caller must be `callerConfirmation`. May emit a {RoleRevoked} event."
      },
      "revokeCertifierRole(address)": {
        "details": "Functions to revoke roles",
        "params": {
          "account": "The account to revoke the role from"
        }
      },
      "revokeRole(bytes32,address)": {
        "details": "Revokes `role` from `account`. If `account` had been granted `role`, emits a {RoleRevoked} event. Requirements: - the caller must have ``role``'s admin role. May emit a {RoleRevoked} event."
      },
      "supportsInterface(bytes4)": {
        "details": "See {IERC165-supportsInterface}."
      },
      "transferRole(bytes32,address,address)": {
        "details": "Transfers a role from one account to another",
        "params": {
          "from": "The account to transfer the role from",
          "role": "The role to transfer",
          "to": "The account to transfer the role to"
        }
      }
    },
    "version": 1
  },
  "userdoc": {
    "kind": "user",
    "methods": {
      "bulkGrantRoles(bytes32[],address[])": {
        "notice": "---------- # Bulk Role Grant(Auto) ------- //"
      },
      "claimTemporaryPublicRole(uint256)": {
        "notice": "----------- #claim temporary public role -------------- //`durationInHours` must be less than 24 hoursEmits PublicRoleGranted event on successful claim "
      },
      "getEnterpriseInspectionReports(address)": {
        "notice": "Simple reports getter for testing////"
      },
      "grantCertifier(address)": {
        "notice": "---------# GRANTING ROLES ---------//Emits RoleGranted event on successful grant"
      },
      "hasAdminRole(address)": {
        "notice": "--------- # CHECKING ROLES --------- //"
      },
      "revokeCertifierRole(address)": {
        "notice": "------------- # REVOKING ROLES ------------- //Emits RoleRevoked event on successful revoke"
      },
      "transferRole(bytes32,address,address)": {
        "notice": "-------- # Safe Role Transfer ------- //Emits RoleTransferred event on successful transfer"
      }
    },
    "version": 1
  },
  "storageLayout": {
    "storage": [
      {
        "astId": 26,
        "contract": "contracts/modules/InspectionManager.sol:InspectionManager",
        "label": "_roles",
        "offset": 0,
        "slot": "0",
        "type": "t_mapping(t_bytes32,t_struct(RoleData)21_storage)"
      },
      {
        "astId": 4015,
        "contract": "contracts/modules/InspectionManager.sol:InspectionManager",
        "label": "publicRoleExpiry",
        "offset": 0,
        "slot": "1",
        "type": "t_mapping(t_address,t_uint256)"
      },
      {
        "astId": 5765,
        "contract": "contracts/modules/InspectionManager.sol:InspectionManager",
        "label": "_enterpriseInspectors",
        "offset": 0,
        "slot": "2",
        "type": "t_mapping(t_address,t_array(t_address)dyn_storage)"
      },
      {
        "astId": 5770,
        "contract": "contracts/modules/InspectionManager.sol:InspectionManager",
        "label": "_inspectorEnterprises",
        "offset": 0,
        "slot": "3",
        "type": "t_mapping(t_address,t_array(t_address)dyn_storage)"
      },
      {
        "astId": 5776,
        "contract": "contracts/modules/InspectionManager.sol:InspectionManager",
        "label": "_enterpriseReports",
        "offset": 0,
        "slot": "4",
        "type": "t_mapping(t_address,t_array(t_struct(InspectionReport)6515_storage)dyn_storage)"
      },
      {
        "astId": 5782,
        "contract": "contracts/modules/InspectionManager.sol:InspectionManager",
        "label": "_lastInspectionTimestamps",
        "offset": 0,
        "slot": "5",
        "type": "t_mapping(t_address,t_mapping(t_address,t_uint256))"
      },
      {
        "astId": 5787,
        "contract": "contracts/modules/InspectionManager.sol:InspectionManager",
        "label": "_flaggedInspections",
        "offset": 0,
        "slot": "6",
        "type": "t_mapping(t_uint256,t_struct(FlaggedInspection)6529_storage)"
      },
      {
        "astId": 5792,
        "contract": "contracts/modules/InspectionManager.sol:InspectionManager",
        "label": "_enterpriseFlaggedReports",
        "offset": 0,
        "slot": "7",
        "type": "t_mapping(t_address,t_array(t_uint256)dyn_storage)"
      },
      {
        "astId": 5794,
        "contract": "contracts/modules/InspectionManager.sol:InspectionManager",
        "label": "_flagCounter",
        "offset": 0,
        "slot": "8",
        "type": "t_uint256"
      }
    ],
    "types": {
      "t_address": {
        "encoding": "inplace",
        "label": "address",
        "numberOfBytes": "20"
      },
      "t_array(t_address)dyn_storage": {
        "base": "t_address",
        "encoding": "dynamic_array",
        "label": "address[]",
        "numberOfBytes": "32"
      },
      "t_array(t_struct(InspectionReport)6515_storage)dyn_storage": {
        "base": "t_struct(InspectionReport)6515_storage",
        "encoding": "dynamic_array",
        "label": "struct DataTypes.InspectionReport[]",
        "numberOfBytes": "32"
      },
      "t_array(t_uint256)dyn_storage": {
        "base": "t_uint256",
        "encoding": "dynamic_array",
        "label": "uint256[]",
        "numberOfBytes": "32"
      },
      "t_bool": {
        "encoding": "inplace",
        "label": "bool",
        "numberOfBytes": "1"
      },
      "t_bytes32": {
        "encoding": "inplace",
        "label": "bytes32",
        "numberOfBytes": "32"
      },
      "t_mapping(t_address,t_array(t_address)dyn_storage)": {
        "encoding": "mapping",
        "key": "t_address",
        "label": "mapping(address => address[])",
        "numberOfBytes": "32",
        "value": "t_array(t_address)dyn_storage"
      },
      "t_mapping(t_address,t_array(t_struct(InspectionReport)6515_storage)dyn_storage)": {
        "encoding": "mapping",
        "key": "t_address",
        "label": "mapping(address => struct DataTypes.InspectionReport[])",
        "numberOfBytes": "32",
        "value": "t_array(t_struct(InspectionReport)6515_storage)dyn_storage"
      },
      "t_mapping(t_address,t_array(t_uint256)dyn_storage)": {
        "encoding": "mapping",
        "key": "t_address",
        "label": "mapping(address => uint256[])",
        "numberOfBytes": "32",
        "value": "t_array(t_uint256)dyn_storage"
      },
      "t_mapping(t_address,t_bool)": {
        "encoding": "mapping",
        "key": "t_address",
        "label": "mapping(address => bool)",
        "numberOfBytes": "32",
        "value": "t_bool"
      },
      "t_mapping(t_address,t_mapping(t_address,t_uint256))": {
        "encoding": "mapping",
        "key": "t_address",
        "label": "mapping(address => mapping(address => uint256))",
        "numberOfBytes": "32",
        "value": "t_mapping(t_address,t_uint256)"
      },
      "t_mapping(t_address,t_uint256)": {
        "encoding": "mapping",
        "key": "t_address",
        "label": "mapping(address => uint256)",
        "numberOfBytes": "32",
        "value": "t_uint256"
      },
      "t_mapping(t_bytes32,t_struct(RoleData)21_storage)": {
        "encoding": "mapping",
        "key": "t_bytes32",
        "label": "mapping(bytes32 => struct AccessControl.RoleData)",
        "numberOfBytes": "32",
        "value": "t_struct(RoleData)21_storage"
      },
      "t_mapping(t_uint256,t_struct(FlaggedInspection)6529_storage)": {
        "encoding": "mapping",
        "key": "t_uint256",
        "label": "mapping(uint256 => struct DataTypes.FlaggedInspection)",
        "numberOfBytes": "32",
        "value": "t_struct(FlaggedInspection)6529_storage"
      },
      "t_string_storage": {
        "encoding": "bytes",
        "label": "string",
        "numberOfBytes": "32"
      },
      "t_struct(FlaggedInspection)6529_storage": {
        "encoding": "inplace",
        "label": "struct DataTypes.FlaggedInspection",
        "members": [
          {
            "astId": 6517,
            "contract": "contracts/modules/InspectionManager.sol:InspectionManager",
            "label": "enterprise",
            "offset": 0,
            "slot": "0",
            "type": "t_address"
          },
          {
            "astId": 6519,
            "contract": "contracts/modules/InspectionManager.sol:InspectionManager",
            "label": "reportIndex",
            "offset": 0,
            "slot": "1",
            "type": "t_uint256"
          },
          {
            "astId": 6522,
            "contract": "contracts/modules/InspectionManager.sol:InspectionManager",
            "label": "report",
            "offset": 0,
            "slot": "2",
            "type": "t_struct(InspectionReport)6515_storage"
          },
          {
            "astId": 6524,
            "contract": "contracts/modules/InspectionManager.sol:InspectionManager",
            "label": "flaggedBy",
            "offset": 0,
            "slot": "8",
            "type": "t_address"
          },
          {
            "astId": 6526,
            "contract": "contracts/modules/InspectionManager.sol:InspectionManager",
            "label": "reason",
            "offset": 0,
            "slot": "9",
            "type": "t_string_storage"
          },
          {
            "astId": 6528,
            "contract": "contracts/modules/InspectionManager.sol:InspectionManager",
            "label": "flaggedAt",
            "offset": 0,
            "slot": "10",
            "type": "t_uint256"
          }
        ],
        "numberOfBytes": "352"
      },
      "t_struct(InspectionReport)6515_storage": {
        "encoding": "inplace",
        "label": "struct DataTypes.InspectionReport",
        "members": [
          {
            "astId": 6502,
            "contract": "contracts/modules/InspectionManager.sol:InspectionManager",
            "label": "inspector",
            "offset": 0,
            "slot": "0",
            "type": "t_address"
          },
          {
            "astId": 6504,
            "contract": "contracts/modules/InspectionManager.sol:InspectionManager",
            "label": "enterprise",
            "offset": 0,
            "slot": "1",
            "type": "t_address"
          },
          {
            "astId": 6506,
            "contract": "contracts/modules/InspectionManager.sol:InspectionManager",
            "label": "remarks",
            "offset": 0,
            "slot": "2",
            "type": "t_string_storage"
          },
          {
            "astId": 6508,
            "contract": "contracts/modules/InspectionManager.sol:InspectionManager",
            "label": "evidenceURI",
            "offset": 0,
            "slot": "3",
            "type": "t_string_storage"
          },
          {
            "astId": 6510,
            "contract": "contracts/modules/InspectionManager.sol:InspectionManager",
            "label": "inspectedAt",
            "offset": 0,
            "slot": "4",
            "type": "t_uint256"
          },
          {
            "astId": 6512,
            "contract": "contracts/modules/InspectionManager.sol:InspectionManager",
            "label": "passed",
            "offset": 0,
            "slot": "5",
            "type": "t_bool"
          },
          {
            "astId": 6514,
            "contract": "contracts/modules/InspectionManager.sol:InspectionManager",
            "label": "flagged",
            "offset": 1,
            "slot": "5",
            "type": "t_bool"
          }
        ],
        "numberOfBytes": "192"
      },
      "t_struct(RoleData)21_storage": {
        "encoding": "inplace",
        "label": "struct AccessControl.RoleData",
        "members": [
          {
            "astId": 18,
            "contract": "contracts/modules/InspectionManager.sol:InspectionManager",
            "label": "hasRole",
            "offset": 0,
            "slot": "0",
            "type": "t_mapping(t_address,t_bool)"
          },
          {
            "astId": 20,
            "contract": "contracts/modules/InspectionManager.sol:InspectionManager",
            "label": "adminRole",
            "offset": 0,
            "slot": "1",
            "type": "t_bytes32"
          }
        ],
        "numberOfBytes": "64"
      },
      "t_uint256": {
        "encoding": "inplace",
        "label": "uint256",
        "numberOfBytes": "32"
      }
    }
  }
}