{
  "address": "0x34ac9Df22279cf18F3f9d7606878D283A0B75e8B",
  "abi": [
    {
      "inputs": [],
      "stateMutability": "nonpayable",
      "type": "constructor"
    },
    {
      "inputs": [],
      "name": "AccessControlBadConfirmation",
      "type": "error"
    },
    {
      "inputs": [
        {
          "internalType": "address",
          "name": "account",
          "type": "address"
        },
        {
          "internalType": "bytes32",
          "name": "neededRole",
          "type": "bytes32"
        }
      ],
      "name": "AccessControlUnauthorizedAccount",
      "type": "error"
    },
    {
      "inputs": [],
      "name": "CertificateNFT__CertificateDoesNotExist",
      "type": "error"
    },
    {
      "inputs": [],
      "name": "CertificateNFT__EnterpriseAlreadyCertified",
      "type": "error"
    },
    {
      "inputs": [],
      "name": "CertificationAuthority__CertificationNotExpiredYet",
      "type": "error"
    },
    {
      "inputs": [],
      "name": "CertificationAuthority__EnterpriseAlreadyCertified",
      "type": "error"
    },
    {
      "inputs": [],
      "name": "CertificationAuthority__EnterpriseNotCertifiedYet",
      "type": "error"
    },
    {
      "inputs": [
        {
          "internalType": "address",
          "name": "sender",
          "type": "address"
        },
        {
          "internalType": "uint256",
          "name": "tokenId",
          "type": "uint256"
        },
        {
          "internalType": "address",
          "name": "owner",
          "type": "address"
        }
      ],
      "name": "ERC721IncorrectOwner",
      "type": "error"
    },
    {
      "inputs": [
        {
          "internalType": "address",
          "name": "operator",
          "type": "address"
        },
        {
          "internalType": "uint256",
          "name": "tokenId",
          "type": "uint256"
        }
      ],
      "name": "ERC721InsufficientApproval",
      "type": "error"
    },
    {
      "inputs": [
        {
          "internalType": "address",
          "name": "approver",
          "type": "address"
        }
      ],
      "name": "ERC721InvalidApprover",
      "type": "error"
    },
    {
      "inputs": [
        {
          "internalType": "address",
          "name": "operator",
          "type": "address"
        }
      ],
      "name": "ERC721InvalidOperator",
      "type": "error"
    },
    {
      "inputs": [
        {
          "internalType": "address",
          "name": "owner",
          "type": "address"
        }
      ],
      "name": "ERC721InvalidOwner",
      "type": "error"
    },
    {
      "inputs": [
        {
          "internalType": "address",
          "name": "receiver",
          "type": "address"
        }
      ],
      "name": "ERC721InvalidReceiver",
      "type": "error"
    },
    {
      "inputs": [
        {
          "internalType": "address",
          "name": "sender",
          "type": "address"
        }
      ],
      "name": "ERC721InvalidSender",
      "type": "error"
    },
    {
      "inputs": [
        {
          "internalType": "uint256",
          "name": "tokenId",
          "type": "uint256"
        }
      ],
      "name": "ERC721NonexistentToken",
      "type": "error"
    },
    {
      "inputs": [],
      "name": "EnterpriseRegistry__EnterpriseAlreadyExists",
      "type": "error"
    },
    {
      "inputs": [],
      "name": "EnterpriseRegistry__EnterpriseDoesNotExist",
      "type": "error"
    },
    {
      "inputs": [],
      "name": "EnterpriseRegistry__InvalidStart",
      "type": "error"
    },
    {
      "inputs": [],
      "name": "InspectionManager__InspectionPeriodExpired",
      "type": "error"
    },
    {
      "inputs": [],
      "name": "InspectionManager__InspectorAlreadyAssigned",
      "type": "error"
    },
    {
      "inputs": [],
      "name": "InspectionManager__NoReportsAssociatedWithEnterprise",
      "type": "error"
    },
    {
      "inputs": [],
      "name": "InspectionManager__NotAssignedToEnterprise",
      "type": "error"
    },
    {
      "inputs": [],
      "name": "InvalidAddress",
      "type": "error"
    },
    {
      "inputs": [],
      "name": "RolesManager__AlreadyHasRole",
      "type": "error"
    },
    {
      "inputs": [],
      "name": "RolesManager__ArrayLengthMismatch",
      "type": "error"
    },
    {
      "inputs": [],
      "name": "RolesManager__EmptyArray",
      "type": "error"
    },
    {
      "inputs": [],
      "name": "RolesManager__InvalidDuration",
      "type": "error"
    },
    {
      "inputs": [],
      "name": "RolesManager__NotAuthorizedAuditor",
      "type": "error"
    },
    {
      "inputs": [],
      "name": "RolesManager__NotAuthorizedCertificateFactory",
      "type": "error"
    },
    {
      "inputs": [],
      "name": "RolesManager__NotAuthorizedCertifier",
      "type": "error"
    },
    {
      "inputs": [],
      "name": "RolesManager__NotAuthorizedEnterprise",
      "type": "error"
    },
    {
      "inputs": [],
      "name": "RolesManager__NotAuthorizedInspector",
      "type": "error"
    },
    {
      "inputs": [],
      "name": "RolesManager__NotAuthorizedPublicUser",
      "type": "error"
    },
    {
      "inputs": [],
      "name": "RolesManager__RoleDoesNotExist",
      "type": "error"
    },
    {
      "inputs": [],
      "name": "RolesManager__UnauthorizedToPerformAction",
      "type": "error"
    },
    {
      "anonymous": false,
      "inputs": [
        {
          "indexed": true,
          "internalType": "address",
          "name": "owner",
          "type": "address"
        },
        {
          "indexed": true,
          "internalType": "address",
          "name": "approved",
          "type": "address"
        },
        {
          "indexed": true,
          "internalType": "uint256",
          "name": "tokenId",
          "type": "uint256"
        }
      ],
      "name": "Approval",
      "type": "event"
    },
    {
      "anonymous": false,
      "inputs": [
        {
          "indexed": true,
          "internalType": "address",
          "name": "owner",
          "type": "address"
        },
        {
          "indexed": true,
          "internalType": "address",
          "name": "operator",
          "type": "address"
        },
        {
          "indexed": false,
          "internalType": "bool",
          "name": "approved",
          "type": "bool"
        }
      ],
      "name": "ApprovalForAll",
      "type": "event"
    },
    {
      "anonymous": false,
      "inputs": [
        {
          "indexed": false,
          "internalType": "uint256",
          "name": "_fromTokenId",
          "type": "uint256"
        },
        {
          "indexed": false,
          "internalType": "uint256",
          "name": "_toTokenId",
          "type": "uint256"
        }
      ],
      "name": "BatchMetadataUpdate",
      "type": "event"
    },
    {
      "anonymous": false,
      "inputs": [
        {
          "indexed": false,
          "internalType": "bytes32[]",
          "name": "roles",
          "type": "bytes32[]"
        },
        {
          "indexed": true,
          "internalType": "address[]",
          "name": "accounts",
          "type": "address[]"
        }
      ],
      "name": "BulkRolesGranted",
      "type": "event"
    },
    {
      "anonymous": false,
      "inputs": [
        {
          "indexed": true,
          "internalType": "address",
          "name": "enterprise",
          "type": "address"
        },
        {
          "indexed": false,
          "internalType": "string",
          "name": "industry",
          "type": "string"
        },
        {
          "indexed": false,
          "internalType": "string",
          "name": "metadataURI",
          "type": "string"
        },
        {
          "indexed": false,
          "internalType": "uint256",
          "name": "expiryDate",
          "type": "uint256"
        }
      ],
      "name": "CertificationGranted",
      "type": "event"
    },
    {
      "anonymous": false,
      "inputs": [
        {
          "indexed": true,
          "internalType": "address",
          "name": "enterprise",
          "type": "address"
        }
      ],
      "name": "CertificationRevoked",
      "type": "event"
    },
    {
      "anonymous": false,
      "inputs": [
        {
          "indexed": true,
          "internalType": "address",
          "name": "enterprise",
          "type": "address"
        },
        {
          "indexed": false,
          "internalType": "string",
          "name": "newMetadataURI",
          "type": "string"
        }
      ],
      "name": "CertificationUpdated",
      "type": "event"
    },
    {
      "anonymous": false,
      "inputs": [
        {
          "indexed": false,
          "internalType": "uint256",
          "name": "_tokenId",
          "type": "uint256"
        }
      ],
      "name": "MetadataUpdate",
      "type": "event"
    },
    {
      "anonymous": false,
      "inputs": [
        {
          "indexed": true,
          "internalType": "address",
          "name": "user",
          "type": "address"
        }
      ],
      "name": "PublicRoleExpired",
      "type": "event"
    },
    {
      "anonymous": false,
      "inputs": [
        {
          "indexed": true,
          "internalType": "address",
          "name": "user",
          "type": "address"
        },
        {
          "indexed": false,
          "internalType": "uint256",
          "name": "duration",
          "type": "uint256"
        }
      ],
      "name": "PublicRoleGranted",
      "type": "event"
    },
    {
      "anonymous": false,
      "inputs": [
        {
          "indexed": true,
          "internalType": "bytes32",
          "name": "role",
          "type": "bytes32"
        },
        {
          "indexed": true,
          "internalType": "bytes32",
          "name": "previousAdminRole",
          "type": "bytes32"
        },
        {
          "indexed": true,
          "internalType": "bytes32",
          "name": "newAdminRole",
          "type": "bytes32"
        }
      ],
      "name": "RoleAdminChanged",
      "type": "event"
    },
    {
      "anonymous": false,
      "inputs": [
        {
          "indexed": true,
          "internalType": "bytes32",
          "name": "role",
          "type": "bytes32"
        },
        {
          "indexed": true,
          "internalType": "address",
          "name": "account",
          "type": "address"
        },
        {
          "indexed": true,
          "internalType": "address",
          "name": "sender",
          "type": "address"
        }
      ],
      "name": "RoleGranted",
      "type": "event"
    },
    {
      "anonymous": false,
      "inputs": [
        {
          "indexed": true,
          "internalType": "bytes32",
          "name": "role",
          "type": "bytes32"
        },
        {
          "indexed": true,
          "internalType": "address",
          "name": "account",
          "type": "address"
        }
      ],
      "name": "RoleGranted",
      "type": "event"
    },
    {
      "anonymous": false,
      "inputs": [
        {
          "indexed": true,
          "internalType": "bytes32",
          "name": "role",
          "type": "bytes32"
        },
        {
          "indexed": true,
          "internalType": "address",
          "name": "account",
          "type": "address"
        },
        {
          "indexed": true,
          "internalType": "address",
          "name": "sender",
          "type": "address"
        }
      ],
      "name": "RoleRevoked",
      "type": "event"
    },
    {
      "anonymous": false,
      "inputs": [
        {
          "indexed": true,
          "internalType": "bytes32",
          "name": "role",
          "type": "bytes32"
        },
        {
          "indexed": true,
          "internalType": "address",
          "name": "account",
          "type": "address"
        }
      ],
      "name": "RoleRevoked",
      "type": "event"
    },
    {
      "anonymous": false,
      "inputs": [
        {
          "indexed": true,
          "internalType": "bytes32",
          "name": "role",
          "type": "bytes32"
        },
        {
          "indexed": false,
          "internalType": "address",
          "name": "from",
          "type": "address"
        },
        {
          "indexed": false,
          "internalType": "address",
          "name": "to",
          "type": "address"
        }
      ],
      "name": "RoleTransferred",
      "type": "event"
    },
    {
      "anonymous": false,
      "inputs": [
        {
          "indexed": true,
          "internalType": "address",
          "name": "from",
          "type": "address"
        },
        {
          "indexed": true,
          "internalType": "address",
          "name": "to",
          "type": "address"
        },
        {
          "indexed": true,
          "internalType": "uint256",
          "name": "tokenId",
          "type": "uint256"
        }
      ],
      "name": "Transfer",
      "type": "event"
    },
    {
      "inputs": [],
      "name": "AUDITOR_ROLE",
      "outputs": [
        {
          "internalType": "bytes32",
          "name": "",
          "type": "bytes32"
        }
      ],
      "stateMutability": "view",
      "type": "function"
    },
    {
      "inputs": [],
      "name": "CERTIFICATE_FACTORY_ROLE",
      "outputs": [
        {
          "internalType": "bytes32",
          "name": "",
          "type": "bytes32"
        }
      ],
      "stateMutability": "view",
      "type": "function"
    },
    {
      "inputs": [],
      "name": "CERTIFIER_ROLE",
      "outputs": [
        {
          "internalType": "bytes32",
          "name": "",
          "type": "bytes32"
        }
      ],
      "stateMutability": "view",
      "type": "function"
    },
    {
      "inputs": [],
      "name": "DEFAULT_ADMIN_ROLE",
      "outputs": [
        {
          "internalType": "bytes32",
          "name": "",
          "type": "bytes32"
        }
      ],
      "stateMutability": "view",
      "type": "function"
    },
    {
      "inputs": [],
      "name": "ENTERPRISE_ROLE",
      "outputs": [
        {
          "internalType": "bytes32",
          "name": "",
          "type": "bytes32"
        }
      ],
      "stateMutability": "view",
      "type": "function"
    },
    {
      "inputs": [],
      "name": "INSPECTOR_ROLE",
      "outputs": [
        {
          "internalType": "bytes32",
          "name": "",
          "type": "bytes32"
        }
      ],
      "stateMutability": "view",
      "type": "function"
    },
    {
      "inputs": [],
      "name": "PUBLIC_ROLE",
      "outputs": [
        {
          "internalType": "bytes32",
          "name": "",
          "type": "bytes32"
        }
      ],
      "stateMutability": "view",
      "type": "function"
    },
    {
      "inputs": [
        {
          "internalType": "address",
          "name": "to",
          "type": "address"
        },
        {
          "internalType": "uint256",
          "name": "tokenId",
          "type": "uint256"
        }
      ],
      "name": "approve",
      "outputs": [],
      "stateMutability": "nonpayable",
      "type": "function"
    },
    {
      "inputs": [
        {
          "internalType": "address",
          "name": "owner",
          "type": "address"
        }
      ],
      "name": "balanceOf",
      "outputs": [
        {
          "internalType": "uint256",
          "name": "",
          "type": "uint256"
        }
      ],
      "stateMutability": "view",
      "type": "function"
    },
    {
      "inputs": [
        {
          "internalType": "bytes32[]",
          "name": "roles",
          "type": "bytes32[]"
        },
        {
          "internalType": "address[]",
          "name": "accounts",
          "type": "address[]"
        }
      ],
      "name": "bulkGrantRoles",
      "outputs": [],
      "stateMutability": "nonpayable",
      "type": "function"
    },
    {
      "inputs": [
        {
          "internalType": "uint256",
          "name": "tokenId",
          "type": "uint256"
        }
      ],
      "name": "burn",
      "outputs": [],
      "stateMutability": "nonpayable",
      "type": "function"
    },
    {
      "inputs": [
        {
          "internalType": "address",
          "name": "",
          "type": "address"
        }
      ],
      "name": "certifications",
      "outputs": [
        {
          "internalType": "string",
          "name": "industry",
          "type": "string"
        },
        {
          "internalType": "string",
          "name": "metadataURI",
          "type": "string"
        },
        {
          "internalType": "uint256",
          "name": "certifiedAt",
          "type": "uint256"
        },
        {
          "internalType": "uint256",
          "name": "expiryDate",
          "type": "uint256"
        },
        {
          "internalType": "bool",
          "name": "isCertified",
          "type": "bool"
        },
        {
          "internalType": "uint256",
          "name": "tokenId",
          "type": "uint256"
        }
      ],
      "stateMutability": "view",
      "type": "function"
    },
    {
      "inputs": [
        {
          "internalType": "address",
          "name": "enterpriseAddress",
          "type": "address"
        },
        {
          "internalType": "string",
          "name": "_industry",
          "type": "string"
        },
        {
          "internalType": "string",
          "name": "_metadataURI",
          "type": "string"
        },
        {
          "internalType": "uint256",
          "name": "validityDurationSeconds",
          "type": "uint256"
        }
      ],
      "name": "certifyEnterprise",
      "outputs": [],
      "stateMutability": "nonpayable",
      "type": "function"
    },
    {
      "inputs": [
        {
          "internalType": "address",
          "name": "account",
          "type": "address"
        }
      ],
      "name": "checkExpiryRoles",
      "outputs": [],
      "stateMutability": "nonpayable",
      "type": "function"
    },
    {
      "inputs": [
        {
          "internalType": "uint256",
          "name": "durationInHours",
          "type": "uint256"
        }
      ],
      "name": "claimTemporaryPublicRole",
      "outputs": [],
      "stateMutability": "nonpayable",
      "type": "function"
    },
    {
      "inputs": [
        {
          "internalType": "address",
          "name": "account",
          "type": "address"
        }
      ],
      "name": "getActiveRoles",
      "outputs": [
        {
          "internalType": "bool",
          "name": "isAdmin",
          "type": "bool"
        },
        {
          "internalType": "bool",
          "name": "isCertifier",
          "type": "bool"
        },
        {
          "internalType": "bool",
          "name": "isInspector",
          "type": "bool"
        },
        {
          "internalType": "bool",
          "name": "isAuditor",
          "type": "bool"
        },
        {
          "internalType": "bool",
          "name": "isEnterprise",
          "type": "bool"
        },
        {
          "internalType": "bool",
          "name": "isCertificateFactory",
          "type": "bool"
        },
        {
          "internalType": "bool",
          "name": "isPublic",
          "type": "bool"
        }
      ],
      "stateMutability": "view",
      "type": "function"
    },
    {
      "inputs": [
        {
          "internalType": "uint256",
          "name": "tokenId",
          "type": "uint256"
        }
      ],
      "name": "getApproved",
      "outputs": [
        {
          "internalType": "address",
          "name": "",
          "type": "address"
        }
      ],
      "stateMutability": "view",
      "type": "function"
    },
    {
      "inputs": [
        {
          "internalType": "address",
          "name": "enterpriseAddress",
          "type": "address"
        }
      ],
      "name": "getCertification",
      "outputs": [
        {
          "components": [
            {
              "internalType": "string",
              "name": "industry",
              "type": "string"
            },
            {
              "internalType": "string",
              "name": "metadataURI",
              "type": "string"
            },
            {
              "internalType": "uint256",
              "name": "certifiedAt",
              "type": "uint256"
            },
            {
              "internalType": "uint256",
              "name": "expiryDate",
              "type": "uint256"
            },
            {
              "internalType": "bool",
              "name": "isCertified",
              "type": "bool"
            },
            {
              "internalType": "uint256",
              "name": "tokenId",
              "type": "uint256"
            }
          ],
          "internalType": "struct DataTypes.Certification",
          "name": "",
          "type": "tuple"
        }
      ],
      "stateMutability": "view",
      "type": "function"
    },
    {
      "inputs": [
        {
          "internalType": "uint256",
          "name": "tokenId",
          "type": "uint256"
        }
      ],
      "name": "getEnterpriseByTokenId",
      "outputs": [
        {
          "internalType": "address",
          "name": "",
          "type": "address"
        }
      ],
      "stateMutability": "view",
      "type": "function"
    },
    {
      "inputs": [],
      "name": "getMaxPublicRoleDuration",
      "outputs": [
        {
          "internalType": "uint256",
          "name": "",
          "type": "uint256"
        }
      ],
      "stateMutability": "pure",
      "type": "function"
    },
    {
      "inputs": [
        {
          "internalType": "bytes32",
          "name": "role",
          "type": "bytes32"
        }
      ],
      "name": "getRoleAdmin",
      "outputs": [
        {
          "internalType": "bytes32",
          "name": "",
          "type": "bytes32"
        }
      ],
      "stateMutability": "view",
      "type": "function"
    },
    {
      "inputs": [
        {
          "internalType": "address",
          "name": "account",
          "type": "address"
        }
      ],
      "name": "grantAuditor",
      "outputs": [],
      "stateMutability": "nonpayable",
      "type": "function"
    },
    {
      "inputs": [
        {
          "internalType": "address",
          "name": "account",
          "type": "address"
        }
      ],
      "name": "grantCertificateFactory",
      "outputs": [],
      "stateMutability": "nonpayable",
      "type": "function"
    },
    {
      "inputs": [
        {
          "internalType": "address",
          "name": "account",
          "type": "address"
        }
      ],
      "name": "grantCertifier",
      "outputs": [],
      "stateMutability": "nonpayable",
      "type": "function"
    },
    {
      "inputs": [
        {
          "internalType": "address",
          "name": "account",
          "type": "address"
        }
      ],
      "name": "grantEnterprise",
      "outputs": [],
      "stateMutability": "nonpayable",
      "type": "function"
    },
    {
      "inputs": [
        {
          "internalType": "address",
          "name": "account",
          "type": "address"
        }
      ],
      "name": "grantInspector",
      "outputs": [],
      "stateMutability": "nonpayable",
      "type": "function"
    },
    {
      "inputs": [
        {
          "internalType": "address",
          "name": "account",
          "type": "address"
        }
      ],
      "name": "grantPublicRole",
      "outputs": [],
      "stateMutability": "nonpayable",
      "type": "function"
    },
    {
      "inputs": [
        {
          "internalType": "bytes32",
          "name": "role",
          "type": "bytes32"
        },
        {
          "internalType": "address",
          "name": "account",
          "type": "address"
        }
      ],
      "name": "grantRole",
      "outputs": [],
      "stateMutability": "nonpayable",
      "type": "function"
    },
    {
      "inputs": [
        {
          "internalType": "address",
          "name": "account",
          "type": "address"
        }
      ],
      "name": "hasAdminRole",
      "outputs": [
        {
          "internalType": "bool",
          "name": "",
          "type": "bool"
        }
      ],
      "stateMutability": "view",
      "type": "function"
    },
    {
      "inputs": [
        {
          "internalType": "address",
          "name": "account",
          "type": "address"
        }
      ],
      "name": "hasAuditorRole",
      "outputs": [
        {
          "internalType": "bool",
          "name": "",
          "type": "bool"
        }
      ],
      "stateMutability": "view",
      "type": "function"
    },
    {
      "inputs": [
        {
          "internalType": "address",
          "name": "account",
          "type": "address"
        }
      ],
      "name": "hasCertificateFactoryRole",
      "outputs": [
        {
          "internalType": "bool",
          "name": "",
          "type": "bool"
        }
      ],
      "stateMutability": "view",
      "type": "function"
    },
    {
      "inputs": [
        {
          "internalType": "address",
          "name": "account",
          "type": "address"
        }
      ],
      "name": "hasCertifierRole",
      "outputs": [
        {
          "internalType": "bool",
          "name": "",
          "type": "bool"
        }
      ],
      "stateMutability": "view",
      "type": "function"
    },
    {
      "inputs": [
        {
          "internalType": "address",
          "name": "account",
          "type": "address"
        }
      ],
      "name": "hasEnterpriseRole",
      "outputs": [
        {
          "internalType": "bool",
          "name": "",
          "type": "bool"
        }
      ],
      "stateMutability": "view",
      "type": "function"
    },
    {
      "inputs": [
        {
          "internalType": "address",
          "name": "account",
          "type": "address"
        }
      ],
      "name": "hasInspectorRole",
      "outputs": [
        {
          "internalType": "bool",
          "name": "",
          "type": "bool"
        }
      ],
      "stateMutability": "view",
      "type": "function"
    },
    {
      "inputs": [
        {
          "internalType": "address",
          "name": "account",
          "type": "address"
        }
      ],
      "name": "hasPublicRole",
      "outputs": [
        {
          "internalType": "bool",
          "name": "",
          "type": "bool"
        }
      ],
      "stateMutability": "view",
      "type": "function"
    },
    {
      "inputs": [
        {
          "internalType": "bytes32",
          "name": "role",
          "type": "bytes32"
        },
        {
          "internalType": "address",
          "name": "account",
          "type": "address"
        }
      ],
      "name": "hasRole",
      "outputs": [
        {
          "internalType": "bool",
          "name": "",
          "type": "bool"
        }
      ],
      "stateMutability": "view",
      "type": "function"
    },
    {
      "inputs": [
        {
          "internalType": "address",
          "name": "owner",
          "type": "address"
        },
        {
          "internalType": "address",
          "name": "operator",
          "type": "address"
        }
      ],
      "name": "isApprovedForAll",
      "outputs": [
        {
          "internalType": "bool",
          "name": "",
          "type": "bool"
        }
      ],
      "stateMutability": "view",
      "type": "function"
    },
    {
      "inputs": [
        {
          "internalType": "uint256",
          "name": "tokenId",
          "type": "uint256"
        }
      ],
      "name": "isCertificateValid",
      "outputs": [
        {
          "internalType": "bool",
          "name": "",
          "type": "bool"
        }
      ],
      "stateMutability": "view",
      "type": "function"
    },
    {
      "inputs": [
        {
          "internalType": "address",
          "name": "enterpriseAddress",
          "type": "address"
        }
      ],
      "name": "isCertificationValid",
      "outputs": [
        {
          "internalType": "bool",
          "name": "",
          "type": "bool"
        }
      ],
      "stateMutability": "view",
      "type": "function"
    },
    {
      "inputs": [],
      "name": "name",
      "outputs": [
        {
          "internalType": "string",
          "name": "",
          "type": "string"
        }
      ],
      "stateMutability": "view",
      "type": "function"
    },
    {
      "inputs": [
        {
          "internalType": "uint256",
          "name": "tokenId",
          "type": "uint256"
        }
      ],
      "name": "ownerOf",
      "outputs": [
        {
          "internalType": "address",
          "name": "",
          "type": "address"
        }
      ],
      "stateMutability": "view",
      "type": "function"
    },
    {
      "inputs": [
        {
          "internalType": "address",
          "name": "",
          "type": "address"
        }
      ],
      "name": "publicRoleExpiry",
      "outputs": [
        {
          "internalType": "uint256",
          "name": "",
          "type": "uint256"
        }
      ],
      "stateMutability": "view",
      "type": "function"
    },
    {
      "inputs": [
        {
          "internalType": "bytes32",
          "name": "role",
          "type": "bytes32"
        },
        {
          "internalType": "address",
          "name": "callerConfirmation",
          "type": "address"
        }
      ],
      "name": "renounceRole",
      "outputs": [],
      "stateMutability": "nonpayable",
      "type": "function"
    },
    {
      "inputs": [
        {
          "internalType": "address",
          "name": "account",
          "type": "address"
        }
      ],
      "name": "revokeAuditorRole",
      "outputs": [],
      "stateMutability": "nonpayable",
      "type": "function"
    },
    {
      "inputs": [
        {
          "internalType": "address",
          "name": "account",
          "type": "address"
        }
      ],
      "name": "revokeCertificateFactoryRole",
      "outputs": [],
      "stateMutability": "nonpayable",
      "type": "function"
    },
    {
      "inputs": [
        {
          "internalType": "address",
          "name": "enterpriseAddress",
          "type": "address"
        }
      ],
      "name": "revokeCertification",
      "outputs": [],
      "stateMutability": "nonpayable",
      "type": "function"
    },
    {
      "inputs": [
        {
          "internalType": "address",
          "name": "account",
          "type": "address"
        }
      ],
      "name": "revokeCertifierRole",
      "outputs": [],
      "stateMutability": "nonpayable",
      "type": "function"
    },
    {
      "inputs": [
        {
          "internalType": "address",
          "name": "account",
          "type": "address"
        }
      ],
      "name": "revokeEnterpriseRole",
      "outputs": [],
      "stateMutability": "nonpayable",
      "type": "function"
    },
    {
      "inputs": [
        {
          "internalType": "address",
          "name": "enterpriseAddress",
          "type": "address"
        }
      ],
      "name": "revokeIfExpired",
      "outputs": [],
      "stateMutability": "nonpayable",
      "type": "function"
    },
    {
      "inputs": [
        {
          "internalType": "address",
          "name": "account",
          "type": "address"
        }
      ],
      "name": "revokeInspectorRole",
      "outputs": [],
      "stateMutability": "nonpayable",
      "type": "function"
    },
    {
      "inputs": [
        {
          "internalType": "address",
          "name": "account",
          "type": "address"
        }
      ],
      "name": "revokePublicRole",
      "outputs": [],
      "stateMutability": "nonpayable",
      "type": "function"
    },
    {
      "inputs": [
        {
          "internalType": "bytes32",
          "name": "role",
          "type": "bytes32"
        },
        {
          "internalType": "address",
          "name": "account",
          "type": "address"
        }
      ],
      "name": "revokeRole",
      "outputs": [],
      "stateMutability": "nonpayable",
      "type": "function"
    },
    {
      "inputs": [
        {
          "internalType": "address",
          "name": "from",
          "type": "address"
        },
        {
          "internalType": "address",
          "name": "to",
          "type": "address"
        },
        {
          "internalType": "uint256",
          "name": "tokenId",
          "type": "uint256"
        }
      ],
      "name": "safeTransferFrom",
      "outputs": [],
      "stateMutability": "nonpayable",
      "type": "function"
    },
    {
      "inputs": [
        {
          "internalType": "address",
          "name": "from",
          "type": "address"
        },
        {
          "internalType": "address",
          "name": "to",
          "type": "address"
        },
        {
          "internalType": "uint256",
          "name": "tokenId",
          "type": "uint256"
        },
        {
          "internalType": "bytes",
          "name": "data",
          "type": "bytes"
        }
      ],
      "name": "safeTransferFrom",
      "outputs": [],
      "stateMutability": "nonpayable",
      "type": "function"
    },
    {
      "inputs": [
        {
          "internalType": "address",
          "name": "operator",
          "type": "address"
        },
        {
          "internalType": "bool",
          "name": "approved",
          "type": "bool"
        }
      ],
      "name": "setApprovalForAll",
      "outputs": [],
      "stateMutability": "nonpayable",
      "type": "function"
    },
    {
      "inputs": [
        {
          "internalType": "bytes4",
          "name": "interfaceId",
          "type": "bytes4"
        }
      ],
      "name": "supportsInterface",
      "outputs": [
        {
          "internalType": "bool",
          "name": "",
          "type": "bool"
        }
      ],
      "stateMutability": "view",
      "type": "function"
    },
    {
      "inputs": [],
      "name": "symbol",
      "outputs": [
        {
          "internalType": "string",
          "name": "",
          "type": "string"
        }
      ],
      "stateMutability": "view",
      "type": "function"
    },
    {
      "inputs": [
        {
          "internalType": "uint256",
          "name": "tokenId",
          "type": "uint256"
        }
      ],
      "name": "tokenURI",
      "outputs": [
        {
          "internalType": "string",
          "name": "",
          "type": "string"
        }
      ],
      "stateMutability": "view",
      "type": "function"
    },
    {
      "inputs": [
        {
          "internalType": "address",
          "name": "from",
          "type": "address"
        },
        {
          "internalType": "address",
          "name": "to",
          "type": "address"
        },
        {
          "internalType": "uint256",
          "name": "tokenId",
          "type": "uint256"
        }
      ],
      "name": "transferFrom",
      "outputs": [],
      "stateMutability": "nonpayable",
      "type": "function"
    },
    {
      "inputs": [
        {
          "internalType": "bytes32",
          "name": "role",
          "type": "bytes32"
        },
        {
          "internalType": "address",
          "name": "from",
          "type": "address"
        },
        {
          "internalType": "address",
          "name": "to",
          "type": "address"
        }
      ],
      "name": "transferRole",
      "outputs": [],
      "stateMutability": "nonpayable",
      "type": "function"
    },
    {
      "inputs": [
        {
          "internalType": "address",
          "name": "enterpriseAddress",
          "type": "address"
        },
        {
          "internalType": "string",
          "name": "newMetadataURI",
          "type": "string"
        }
      ],
      "name": "updateCertificationMetadata",
      "outputs": [],
      "stateMutability": "nonpayable",
      "type": "function"
    }
  ],
  "transactionHash": "0x41bdf91fc5e51bf8807031e1d4807f3720106582f8b03b3817bc9cff558a762b",
  "args": [],
  "numDeployments": 1,
  "solcInputHash": "654b6f1015d7db0de73c4aea9a0f35b2",
  "bytecode": "0x60806040523480156200001157600080fd5b50604080518082018252601581527f456e746572707269736543657274696669636174650000000000000000000000602080830191909152825180840190935260058352641150d1549560da1b908301529062000070600033620000db565b6200008b6000805160206200375d83398151915233620000db565b60026200009983826200023f565b506003620000a882826200023f565b50620000ba91506000905033620000db565b620000d56000805160206200375d83398151915233620000db565b6200030b565b620000e78282620000ec565b505050565b6000828152602081815260408083206001600160a01b038516845290915281205460ff1662000191576000838152602081815260408083206001600160a01b03861684529091529020805460ff19166001179055620001483390565b6001600160a01b0316826001600160a01b0316847f2f8788117e7eff1d82e926ec794901d17c78024a50270940304540a733656f0d60405160405180910390a450600162000195565b5060005b92915050565b634e487b7160e01b600052604160045260246000fd5b600181811c90821680620001c657607f821691505b602082108103620001e757634e487b7160e01b600052602260045260246000fd5b50919050565b601f821115620000e757600081815260208120601f850160051c81016020861015620002165750805b601f850160051c820191505b81811015620002375782815560010162000222565b505050505050565b81516001600160401b038111156200025b576200025b6200019b565b62000273816200026c8454620001b1565b84620001ed565b602080601f831160018114620002ab5760008415620002925750858301515b600019600386901b1c1916600185901b17855562000237565b600085815260208120601f198616915b82811015620002dc57888601518255948401946001909101908401620002bb565b5085821015620002fb5787850151600019600388901b60f8161c191681555b5050505050600190811b01905550565b613442806200031b6000396000f3fe608060405234801561001057600080fd5b50600436106103af5760003560e01c80637780e9c1116101f4578063abaa536f1161011a578063c87b56dd116100ad578063e55b4f931161007c578063e55b4f93146108ab578063e985e9c5146108be578063f53f5e1e146108d1578063fc810286146108e457600080fd5b8063c87b56dd14610850578063c88cc6ac14610863578063d547741f14610883578063e3a3c5221461089657600080fd5b8063b88d4fde116100e9578063b88d4fde14610810578063b8ad415e14610823578063bd7ca7ba1461082a578063c395fcb31461083d57600080fd5b8063abaa536f14610776578063b0614db314610789578063b5617ef7146107dd578063b83cc3b3146107fd57600080fd5b806390f201be11610192578063a217fddf11610161578063a217fddf14610735578063a22cb4651461073d578063a5ce413a14610750578063aa52617c1461076357600080fd5b806390f201be146106f457806391d148541461070757806395d89b411461071a578063a1f341631461072257600080fd5b80637e5effa4116101ce5780637e5effa414610692578063808b0557146106a55780638850845f146106b857806389a912e0146106cb57600080fd5b80637780e9c114610657578063784fee0e1461066a5780637bff09751461067f57600080fd5b80633ca7c02a116102d95780635cb87d261161027757806368dd17a51161024657806368dd17a51461060557806369d0b5171461061a5780636e1d616e1461062f57806370a082311461064457600080fd5b80635cb87d26146105b957806360376528146105cc57806361462f0e146105df5780636352211e146105f257600080fd5b806342966c68116102b357806342966c681461056d578063456f19fc1461058057806352f84b721461059357806357c03371146105a657600080fd5b80633ca7c02a146105325780633e2515181461054757806342842e0e1461055a57600080fd5b8063236e092911610351578063261191b711610320578063261191b7146104e6578063261e85cd146104f95780632f2ff15d1461050c57806336568abe1461051f57600080fd5b8063236e09291461046a57806323b872dd1461048f578063248a9ca3146104a257806325d5e87e146104d357600080fd5b8063081812fc1161038d578063081812fc14610406578063095ea7b3146104315780630bcce45b146104445780631e223b2a1461045757600080fd5b806301ffc9a7146103b45780630443cd2a146103dc57806306fdde03146103f1575b600080fd5b6103c76103c2366004612990565b6108f7565b60405190151581526020015b60405180910390f35b6103ef6103ea3660046129c9565b610908565b005b6103f961098a565b6040516103d39190612a34565b610419610414366004612a47565b610a1c565b6040516001600160a01b0390911681526020016103d3565b6103ef61043f366004612a60565b610a45565b6103ef610452366004612b36565b610a54565b6103ef6104653660046129c9565b610c20565b61047d6104783660046129c9565b610ca2565b6040516103d396959493929190612bb2565b6103ef61049d366004612bfd565b610ded565b6104c56104b0366004612a47565b60009081526020819052604090206001015490565b6040519081526020016103d3565b6103ef6104e13660046129c9565b610e7d565b6103ef6104f43660046129c9565b610eff565b6103c76105073660046129c9565b610f81565b6103ef61051a366004612c39565b610fb8565b6103ef61052d366004612c39565b610fdd565b6104c560008051602061334d83398151915281565b6103ef6105553660046129c9565b611015565b6103ef610568366004612bfd565b611097565b6103ef61057b366004612a47565b6110b2565b6103ef61058e3660046129c9565b6110be565b6103c76105a13660046129c9565b611140565b6103ef6105b43660046129c9565b61115a565b6103ef6105c7366004612c65565b6111dc565b6103ef6105da3660046129c9565b61126f565b6103ef6105ed366004612ced565b6112f1565b610419610600366004612a47565b611404565b6104c560008051602061330d83398151915281565b6104c560008051602061336d83398151915281565b6104c56000805160206133ad83398151915281565b6104c56106523660046129c9565b61140f565b6103ef610665366004612a47565b611457565b6104c560008051602061338d83398151915281565b6103c761068d3660046129c9565b611544565b6103ef6106a03660046129c9565b61155e565b6103ef6106b33660046129c9565b6115e0565b6103c76106c63660046129c9565b6116bf565b6104196106d9366004612a47565b6000908152600a60205260409020546001600160a01b031690565b6103ef610702366004612d59565b6116d9565b6103c7610715366004612c39565b6117ff565b6103f9611828565b6103c76107303660046129c9565b611837565b6104c5600081565b6103ef61074b366004612ddc565b611851565b6103c761075e366004612a47565b61185c565b6103ef6107713660046129c9565b61187d565b6103c76107843660046129c9565b6118ff565b61079c6107973660046129c9565b611919565b60408051971515885295151560208801529315159486019490945290151560608501521515608084015290151560a0830152151560c082015260e0016103d3565b6104c56107eb3660046129c9565b60016020526000908152604090205481565b6103ef61080b3660046129c9565b6119d2565b6103ef61081e366004612e18565b611ada565b60186104c5565b6103ef6108383660046129c9565b611af1565b6103c761084b3660046129c9565b611b3c565b6103f961085e366004612a47565b611b48565b6108766108713660046129c9565b611b53565b6040516103d39190612e94565b6103ef610891366004612c39565b611d08565b6104c56000805160206133cd83398151915281565b6103ef6108b93660046129c9565b611d2d565b6103c76108cc366004612f04565b611daf565b6103c76108df3660046129c9565b611ddd565b6103ef6108f23660046129c9565b611df7565b600061090282611e79565b92915050565b806001600160a01b0381166109305760405163e6c4247b60e01b815260040160405180910390fd5b600061093b81611e9e565b61095360008051602061334d83398151915284611d08565b6040516001600160a01b0384169060008051602061334d833981519152906000805160206133ed83398151915290600090a3505050565b60606002805461099990612f2e565b80601f01602080910402602001604051908101604052809291908181526020018280546109c590612f2e565b8015610a125780601f106109e757610100808354040283529160200191610a12565b820191906000526020600020905b8154815290600101906020018083116109f557829003601f168201915b5050505050905090565b6000610a2782611ea8565b506000828152600660205260409020546001600160a01b0316610902565b610a50828233611ee1565b5050565b836001600160a01b038116610a7c5760405163e6c4247b60e01b815260040160405180910390fd5b60008051602061336d833981519152610a9481611e9e565b6001600160a01b03861660009081526009602052604090206004015460ff1615610ad1576040516369136c8160e01b815260040160405180910390fd5b600b805460009182610ae283612f7e565b919050559050610af28782611eee565b610afc8186611f08565b6040518060c001604052808781526020018681526020014281526020018542610b259190612f97565b8152600160208083019190915260409182018490526001600160a01b038a16600090815260099091522081518190610b5d9082612ff8565b5060208201516001820190610b729082612ff8565b50604082810151600283015560608301516003830155608083015160048301805460ff191691151591909117905560a0909201516005909101556000828152600a6020522080546001600160a01b0319166001600160a01b0389169081179091557f56a1f3fa57a4cc6a9be7aaa185ba31c140ea18678a1b45900756c2e5e1ba8dd28787610c008842612f97565b604051610c0f939291906130b8565b60405180910390a250505050505050565b806001600160a01b038116610c485760405163e6c4247b60e01b815260040160405180910390fd5b6000610c5381611e9e565b610c6b60008051602061330d83398151915284610fb8565b6040516001600160a01b0384169060008051602061330d8339815191529060008051602061332d83398151915290600090a3505050565b600960205260009081526040902080548190610cbd90612f2e565b80601f0160208091040260200160405190810160405280929190818152602001828054610ce990612f2e565b8015610d365780601f10610d0b57610100808354040283529160200191610d36565b820191906000526020600020905b815481529060010190602001808311610d1957829003601f168201915b505050505090806001018054610d4b90612f2e565b80601f0160208091040260200160405190810160405280929190818152602001828054610d7790612f2e565b8015610dc45780601f10610d9957610100808354040283529160200191610dc4565b820191906000526020600020905b815481529060010190602001808311610da757829003601f168201915b5050506002840154600385015460048601546005909601549495919490935060ff909116915086565b6001600160a01b038216610e1c57604051633250574960e11b8152600060048201526024015b60405180910390fd5b6000610e29838333611f58565b9050836001600160a01b0316816001600160a01b031614610e77576040516364283d7b60e01b81526001600160a01b0380861660048301526024820184905282166044820152606401610e13565b50505050565b610e8681611ddd565b8015610ea957506001600160a01b03811660009081526001602052604090205442115b15610efc57610ec660008051602061334d83398151915282611fdd565b506040516001600160a01b038216907fa6f32bcbc7de829d50e1c9cbc1c5b4dafb4c7a0b8329757aee62a9b394d71c3b90600090a25b50565b806001600160a01b038116610f275760405163e6c4247b60e01b815260040160405180910390fd5b6000610f3281611e9e565b610f4a60008051602061338d83398151915284611d08565b6040516001600160a01b0384169060008051602061338d833981519152906000805160206133ed83398151915290600090a3505050565b6001600160a01b0381166000908152600960205260408120600481015460ff168015610fb1575080600301544211155b9392505050565b600082815260208190526040902060010154610fd381611e9e565b610e778383612050565b6001600160a01b03811633146110065760405163334bd91960e11b815260040160405180910390fd5b6110108282611fdd565b505050565b806001600160a01b03811661103d5760405163e6c4247b60e01b815260040160405180910390fd5b600061104881611e9e565b6110606000805160206133ad83398151915284611d08565b6040516001600160a01b038416906000805160206133ad833981519152906000805160206133ed83398151915290600090a3505050565b61101083838360405180602001604052806000815250611ada565b610a5060008233611f58565b806001600160a01b0381166110e65760405163e6c4247b60e01b815260040160405180910390fd5b60006110f181611e9e565b6111096000805160206133cd83398151915284610fb8565b6040516001600160a01b038416906000805160206133cd8339815191529060008051602061332d83398151915290600090a3505050565b600061090260008051602061338d833981519152836117ff565b806001600160a01b0381166111825760405163e6c4247b60e01b815260040160405180910390fd5b600061118d81611e9e565b6111a560008051602061334d83398151915284610fb8565b6040516001600160a01b0384169060008051602061334d8339815191529060008051602061332d83398151915290600090a3505050565b60006111e781611e9e565b6111f184846117ff565b61120e576040516366783c9d60e11b815260040160405180910390fd5b6112188484611fdd565b506112238483612050565b50604080516001600160a01b0380861682528416602082015285917f274dd4127a55dcb6f6c12ed38fec5007d965d2afffa8b0bc75c3dc8f3f6b2224910160405180910390a250505050565b806001600160a01b0381166112975760405163e6c4247b60e01b815260040160405180910390fd5b60006112a281611e9e565b6112ba60008051602061336d83398151915284610fb8565b6040516001600160a01b0384169060008051602061336d8339815191529060008051602061332d83398151915290600090a3505050565b60006112fc81611e9e565b831580611307575081155b1561132557604051637d6eaf9360e01b815260040160405180910390fd5b838214611345576040516390a2f79360e01b815260040160405180910390fd5b60005b848110156113ab57611398868683818110611365576113656130ee565b9050602002013585858481811061137e5761137e6130ee565b905060200201602081019061139391906129c9565b612050565b50806113a381612f7e565b915050611348565b5082826040516113bc929190613104565b60405180910390207ff4d52c90739c68c4e82d39cfbeee6b6613784bf9b28d2cdb3a02203799cf060686866040516113f5929190613144565b60405180910390a25050505050565b600061090282611ea8565b60006001600160a01b03821661143b576040516322718ad960e21b815260006004820152602401610e13565b506001600160a01b031660009081526005602052604090205490565b61146033611ddd565b1561147e5760405163510a583360e01b815260040160405180910390fd5b801561149d57604051630729422160e41b815260040160405180910390fd5b60188111156114bf57604051630729422160e41b815260040160405180910390fd5b60006114cd82610e1061317d565b90506114e760008051602061334d83398151915233612050565b506114f28142612f97565b33600081815260016020526040908190209290925590517fc526cdae63c288ea4504281fe29b0ae3352c8a9ccae61eba8c21cd25a949e0f1906115389085815260200190565b60405180910390a25050565b600061090260008051602061336d833981519152836117ff565b806001600160a01b0381166115865760405163e6c4247b60e01b815260040160405180910390fd5b600061159181611e9e565b6115a960008051602061330d83398151915284611d08565b6040516001600160a01b0384169060008051602061330d833981519152906000805160206133ed83398151915290600090a3505050565b6001600160a01b0381166000908152600960205260409020600481015460ff1661161d576040516308a2227760e11b815260040160405180910390fd5b8060030154421015611642576040516360ad99d960e11b815260040160405180910390fd5b60058101541561167b5761165981600501546110b2565b60058101546000908152600a6020526040902080546001600160a01b03191690555b60048101805460ff191690556040516001600160a01b038316907fddbc5d6ff23c8e382806a60af54f0614adddcbcb9b76b279a95a318414d7635b90600090a25050565b60006109026000805160206133cd833981519152836117ff565b826001600160a01b0381166117015760405163e6c4247b60e01b815260040160405180910390fd5b60008051602061336d83398151915261171981611e9e565b6001600160a01b0385166000908152600960205260409020600481015460ff16611756576040516308a2227760e11b815260040160405180910390fd5b6005810154156117a4576117a4816005015486868080601f016020809104026020016040519081016040528093929190818152602001838380828437600092019190915250611f0892505050565b600181016117b3858783613194565b50856001600160a01b03167f4a9038a38263b38736ddc315c982f0f7ba9999b67c66a31efc9e1efb3677f4c286866040516117ef929190613254565b60405180910390a2505050505050565b6000918252602082815260408084206001600160a01b0393909316845291905290205460ff1690565b60606003805461099990612f2e565b600061090260008051602061330d833981519152836117ff565b610a503383836120da565b6000818152600a60205260408120546001600160a01b0316610fb181610f81565b806001600160a01b0381166118a55760405163e6c4247b60e01b815260040160405180910390fd5b60006118b081611e9e565b6118c860008051602061338d83398151915284610fb8565b6040516001600160a01b0384169060008051602061338d8339815191529060008051602061332d83398151915290600090a3505050565b60006109026000805160206133ad833981519152836117ff565b600080808080808061192b81896117ff565b61194360008051602061336d8339815191528a6117ff565b61195b6000805160206133cd8339815191528b6117ff565b6119736000805160206133ad8339815191528c6117ff565b61198b60008051602061330d8339815191528d6117ff565b6119a360008051602061338d8339815191528e6117ff565b6119bb60008051602061334d8339815191528f6117ff565b959e949d50929b5090995097509550909350915050565b806001600160a01b0381166119fa5760405163e6c4247b60e01b815260040160405180910390fd5b60008051602061336d833981519152611a1281611e9e565b6000611a1d81611e9e565b6001600160a01b0384166000908152600960205260409020600481015460ff16611a5a576040516308a2227760e11b815260040160405180910390fd5b600581015415611a9357611a7181600501546110b2565b60058101546000908152600a6020526040902080546001600160a01b03191690555b60048101805460ff191690556040516001600160a01b038616907fddbc5d6ff23c8e382806a60af54f0614adddcbcb9b76b279a95a318414d7635b90600090a25050505050565b611ae5848484610ded565b610e7784848484612179565b806001600160a01b038116611b195760405163e6c4247b60e01b815260040160405180910390fd5b6000611b2481611e9e565b6110106000805160206133cd83398151915284611d08565b600061090281836117ff565b6060610902826122a2565b611b8e6040518060c0016040528060608152602001606081526020016000815260200160008152602001600015158152602001600081525090565b6001600160a01b03821660009081526009602052604090819020815160c08101909252805482908290611bc090612f2e565b80601f0160208091040260200160405190810160405280929190818152602001828054611bec90612f2e565b8015611c395780601f10611c0e57610100808354040283529160200191611c39565b820191906000526020600020905b815481529060010190602001808311611c1c57829003601f168201915b50505050508152602001600182018054611c5290612f2e565b80601f0160208091040260200160405190810160405280929190818152602001828054611c7e90612f2e565b8015611ccb5780601f10611ca057610100808354040283529160200191611ccb565b820191906000526020600020905b815481529060010190602001808311611cae57829003601f168201915b50505091835250506002820154602082015260038201546040820152600482015460ff161515606082015260059091015460809091015292915050565b600082815260208190526040902060010154611d2381611e9e565b610e778383611fdd565b806001600160a01b038116611d555760405163e6c4247b60e01b815260040160405180910390fd5b6000611d6081611e9e565b611d786000805160206133ad83398151915284610fb8565b6040516001600160a01b038416906000805160206133ad8339815191529060008051602061332d83398151915290600090a3505050565b6001600160a01b03918216600090815260076020908152604080832093909416825291909152205460ff1690565b600061090260008051602061334d833981519152836117ff565b806001600160a01b038116611e1f5760405163e6c4247b60e01b815260040160405180910390fd5b6000611e2a81611e9e565b611e4260008051602061336d83398151915284611d08565b6040516001600160a01b0384169060008051602061336d833981519152906000805160206133ed83398151915290600090a3505050565b60006001600160e01b03198216632483248360e11b14806109025750610902826123ab565b610efc81336123eb565b6000818152600460205260408120546001600160a01b03168061090257604051637e27328960e01b815260048101849052602401610e13565b6110108383836001612424565b610a5082826040518060200160405280600081525061252a565b6000828152600860205260409020611f208282612ff8565b506040518281527ff8e1a15aba9398e019f0b49df1a4fde98ee17ae345cb5f6b5e2c27f5033e8ce79060200160405180910390a15050565b60006001600160a01b03821615611fca576001600160a01b03841615611fca5760405162461bcd60e51b815260206004820152602160248201527f43657274696669636174657320617265206e6f6e2d7472616e7366657261626c6044820152606560f81b6064820152608401610e13565b611fd5848484612541565b949350505050565b6000611fe983836117ff565b15612048576000838152602081815260408083206001600160a01b0386168085529252808320805460ff1916905551339286917ff6391f5c32d9c69d2a47ea670b442974b53935d1edc7fd64eb21e047a839171b9190a4506001610902565b506000610902565b600061205c83836117ff565b612048576000838152602081815260408083206001600160a01b03861684529091529020805460ff191660011790556120923390565b6001600160a01b0316826001600160a01b0316847f2f8788117e7eff1d82e926ec794901d17c78024a50270940304540a733656f0d60405160405180910390a4506001610902565b6001600160a01b03821661210c57604051630b61174360e31b81526001600160a01b0383166004820152602401610e13565b6001600160a01b03838116600081815260076020908152604080832094871680845294825291829020805460ff191686151590811790915591519182527f17307eab39ab6107e8899845ad3d59bd9653f200f220920489ca2b5937696c31910160405180910390a3505050565b6001600160a01b0383163b15610e7757604051630a85bd0160e11b81526001600160a01b0384169063150b7a02906121bb903390889087908790600401613283565b6020604051808303816000875af19250505080156121f6575060408051601f3d908101601f191682019092526121f3918101906132c0565b60015b61225f573d808015612224576040519150601f19603f3d011682016040523d82523d6000602084013e612229565b606091505b50805160000361225757604051633250574960e11b81526001600160a01b0385166004820152602401610e13565b805181602001fd5b6001600160e01b03198116630a85bd0160e11b1461229b57604051633250574960e11b81526001600160a01b0385166004820152602401610e13565b5050505050565b60606122ad82611ea8565b50600082815260086020526040812080546122c790612f2e565b80601f01602080910402602001604051908101604052809291908181526020018280546122f390612f2e565b80156123405780601f1061231557610100808354040283529160200191612340565b820191906000526020600020905b81548152906001019060200180831161232357829003601f168201915b50505050509050600061235e60408051602081019091526000815290565b90508051600003612370575092915050565b8151156123a257808260405160200161238a9291906132dd565b60405160208183030381529060405292505050919050565b611fd58461263a565b60006001600160e01b031982166380ac58cd60e01b14806123dc57506001600160e01b03198216635b5e139f60e01b145b806109025750610902826126ae565b6123f582826117ff565b610a505760405163e2517d3f60e01b81526001600160a01b038216600482015260248101839052604401610e13565b808061243857506001600160a01b03821615155b156124fa57600061244884611ea8565b90506001600160a01b038316158015906124745750826001600160a01b0316816001600160a01b031614155b801561248757506124858184611daf565b155b156124b05760405163a9fbf51f60e01b81526001600160a01b0384166004820152602401610e13565b81156124f85783856001600160a01b0316826001600160a01b03167f8c5be1e5ebec7d5bd14f71427d1e84f3dd0314c0f7b2291e5b200ac8c7c3b92560405160405180910390a45b505b5050600090815260066020526040902080546001600160a01b0319166001600160a01b0392909216919091179055565b61253483836126e3565b6110106000848484612179565b6000828152600460205260408120546001600160a01b039081169083161561256e5761256e818486612748565b6001600160a01b038116156125ac5761258b600085600080612424565b6001600160a01b038116600090815260056020526040902080546000190190555b6001600160a01b038516156125db576001600160a01b0385166000908152600560205260409020805460010190555b60008481526004602052604080822080546001600160a01b0319166001600160a01b0389811691821790925591518793918516917fddf252ad1be2c89b69c2b068fc378daa952ba7f163c4a11628f55a4df523b3ef91a4949350505050565b606061264582611ea8565b50600061265d60408051602081019091526000815290565b9050600081511161267d5760405180602001604052806000815250610fb1565b80612687846127ac565b6040516020016126989291906132dd565b6040516020818303038152906040529392505050565b60006001600160e01b03198216637965db0b60e01b148061090257506301ffc9a760e01b6001600160e01b0319831614610902565b6001600160a01b03821661270d57604051633250574960e11b815260006004820152602401610e13565b600061271b83836000611f58565b90506001600160a01b03811615611010576040516339e3563760e11b815260006004820152602401610e13565b61275383838361283f565b611010576001600160a01b03831661278157604051637e27328960e01b815260048101829052602401610e13565b60405163177e802f60e01b81526001600160a01b038316600482015260248101829052604401610e13565b606060006127b9836128a2565b600101905060008167ffffffffffffffff8111156127d9576127d9612a8a565b6040519080825280601f01601f191660200182016040528015612803576020820181803683370190505b5090508181016020015b600019016f181899199a1a9b1b9c1cb0b131b232b360811b600a86061a8153600a850494508461280d57509392505050565b60006001600160a01b03831615801590611fd55750826001600160a01b0316846001600160a01b0316148061287957506128798484611daf565b80611fd55750506000908152600660205260409020546001600160a01b03908116911614919050565b60008072184f03e93ff9f4daa797ed6e38ed64bf6a1f0160401b83106128e15772184f03e93ff9f4daa797ed6e38ed64bf6a1f0160401b830492506040015b6d04ee2d6d415b85acef8100000000831061290d576d04ee2d6d415b85acef8100000000830492506020015b662386f26fc10000831061292b57662386f26fc10000830492506010015b6305f5e1008310612943576305f5e100830492506008015b612710831061295757612710830492506004015b60648310612969576064830492506002015b600a83106109025760010192915050565b6001600160e01b031981168114610efc57600080fd5b6000602082840312156129a257600080fd5b8135610fb18161297a565b80356001600160a01b03811681146129c457600080fd5b919050565b6000602082840312156129db57600080fd5b610fb1826129ad565b60005b838110156129ff5781810151838201526020016129e7565b50506000910152565b60008151808452612a208160208601602086016129e4565b601f01601f19169290920160200192915050565b602081526000610fb16020830184612a08565b600060208284031215612a5957600080fd5b5035919050565b60008060408385031215612a7357600080fd5b612a7c836129ad565b946020939093013593505050565b634e487b7160e01b600052604160045260246000fd5b600067ffffffffffffffff80841115612abb57612abb612a8a565b604051601f8501601f19908116603f01168101908282118183101715612ae357612ae3612a8a565b81604052809350858152868686011115612afc57600080fd5b858560208301376000602087830101525050509392505050565b600082601f830112612b2757600080fd5b610fb183833560208501612aa0565b60008060008060808587031215612b4c57600080fd5b612b55856129ad565b9350602085013567ffffffffffffffff80821115612b7257600080fd5b612b7e88838901612b16565b94506040870135915080821115612b9457600080fd5b50612ba187828801612b16565b949793965093946060013593505050565b60c081526000612bc560c0830189612a08565b8281036020840152612bd78189612a08565b604084019790975250506060810193909352901515608083015260a09091015292915050565b600080600060608486031215612c1257600080fd5b612c1b846129ad565b9250612c29602085016129ad565b9150604084013590509250925092565b60008060408385031215612c4c57600080fd5b82359150612c5c602084016129ad565b90509250929050565b600080600060608486031215612c7a57600080fd5b83359250612c8a602085016129ad565b9150612c98604085016129ad565b90509250925092565b60008083601f840112612cb357600080fd5b50813567ffffffffffffffff811115612ccb57600080fd5b6020830191508360208260051b8501011115612ce657600080fd5b9250929050565b60008060008060408587031215612d0357600080fd5b843567ffffffffffffffff80821115612d1b57600080fd5b612d2788838901612ca1565b90965094506020870135915080821115612d4057600080fd5b50612d4d87828801612ca1565b95989497509550505050565b600080600060408486031215612d6e57600080fd5b612d77846129ad565b9250602084013567ffffffffffffffff80821115612d9457600080fd5b818601915086601f830112612da857600080fd5b813581811115612db757600080fd5b876020828501011115612dc957600080fd5b6020830194508093505050509250925092565b60008060408385031215612def57600080fd5b612df8836129ad565b915060208301358015158114612e0d57600080fd5b809150509250929050565b60008060008060808587031215612e2e57600080fd5b612e37856129ad565b9350612e45602086016129ad565b925060408501359150606085013567ffffffffffffffff811115612e6857600080fd5b8501601f81018713612e7957600080fd5b612e8887823560208401612aa0565b91505092959194509250565b602081526000825160c06020840152612eb060e0840182612a08565b90506020840151601f19848303016040850152612ecd8282612a08565b91505060408401516060840152606084015160808401526080840151151560a084015260a084015160c08401528091505092915050565b60008060408385031215612f1757600080fd5b612f20836129ad565b9150612c5c602084016129ad565b600181811c90821680612f4257607f821691505b602082108103612f6257634e487b7160e01b600052602260045260246000fd5b50919050565b634e487b7160e01b600052601160045260246000fd5b600060018201612f9057612f90612f68565b5060010190565b8082018082111561090257610902612f68565b601f82111561101057600081815260208120601f850160051c81016020861015612fd15750805b601f850160051c820191505b81811015612ff057828155600101612fdd565b505050505050565b815167ffffffffffffffff81111561301257613012612a8a565b613026816130208454612f2e565b84612faa565b602080601f83116001811461305b57600084156130435750858301515b600019600386901b1c1916600185901b178555612ff0565b600085815260208120601f198616915b8281101561308a5788860151825594840194600190910190840161306b565b50858210156130a85787850151600019600388901b60f8161c191681555b5050505050600190811b01905550565b6060815260006130cb6060830186612a08565b82810360208401526130dd8186612a08565b915050826040830152949350505050565b634e487b7160e01b600052603260045260246000fd5b60008184825b85811015613139576001600160a01b03613123836129ad565b168352602092830192919091019060010161310a565b509095945050505050565b6020808252810182905260006001600160fb1b0383111561316457600080fd5b8260051b80856040850137919091016040019392505050565b808202811582820484141761090257610902612f68565b67ffffffffffffffff8311156131ac576131ac612a8a565b6131c0836131ba8354612f2e565b83612faa565b6000601f8411600181146131f457600085156131dc5750838201355b600019600387901b1c1916600186901b17835561229b565b600083815260209020601f19861690835b828110156132255786850135825560209485019460019092019101613205565b50868210156132425760001960f88860031b161c19848701351681555b505060018560011b0183555050505050565b60208152816020820152818360408301376000818301604090810191909152601f909201601f19160101919050565b6001600160a01b03858116825284166020820152604081018390526080606082018190526000906132b690830184612a08565b9695505050505050565b6000602082840312156132d257600080fd5b8151610fb18161297a565b600083516132ef8184602088016129e4565b8351908301906133038183602088016129e4565b0194935050505056fe920994fc3bfe282f3f20cdccf1b7c5e46c63d963e822d98efff90abd41c12e212ae6a113c0ed5b78a53413ffbb7679881f11145ccfba4fb92e863dfcd5a1d2f3ee244ef9da0b2f89a74b208ea9fe1a639ebdf634027d9e1f092b58c39954fa37c41a06b26ced3a23b7bf835a0918ade784f4055ded86d18305f528f47a726052aa0ec51d0bf03ce5511c9ffc9de2b423d73d1faacd808abf2ac89ccea8a3ecf259a1c48e5837ad7a7f3dcedcbe129bf3249ec4fbf651fd4f5e2600ead39fe2f506fa31d7a92d9fa9a8898ac41d86ee9b13863605a361c85ae5d6010d5de4f280155aaafb6329a2098580462df33ec4b7441b19729b9601c5fc17ae1cf99a8a52a264697066735822122097d7ef5d72c0ad224c0683370583f917230ee4be4cc5a2de14b952f966790e0d64736f6c63430008140033c41a06b26ced3a23b7bf835a0918ade784f4055ded86d18305f528f47a726052",
  "devdoc": {
    "errors": {
      "AccessControlBadConfirmation()": [
        {
          "details": "The caller of a function is not the expected one. NOTE: Don't confuse with {AccessControlUnauthorizedAccount}."
        }
      ],
      "AccessControlUnauthorizedAccount(address,bytes32)": [
        {
          "details": "The `account` is missing a role."
        }
      ],
      "ERC721IncorrectOwner(address,uint256,address)": [
        {
          "details": "Indicates an error related to the ownership over a particular token. Used in transfers.",
          "params": {
            "owner": "Address of the current owner of a token.",
            "sender": "Address whose tokens are being transferred.",
            "tokenId": "Identifier number of a token."
          }
        }
      ],
      "ERC721InsufficientApproval(address,uint256)": [
        {
          "details": "Indicates a failure with the `operator`s approval. Used in transfers.",
          "params": {
            "operator": "Address that may be allowed to operate on tokens without being their owner.",
            "tokenId": "Identifier number of a token."
          }
        }
      ],
      "ERC721InvalidApprover(address)": [
        {
          "details": "Indicates a failure with the `approver` of a token to be approved. Used in approvals.",
          "params": {
            "approver": "Address initiating an approval operation."
          }
        }
      ],
      "ERC721InvalidOperator(address)": [
        {
          "details": "Indicates a failure with the `operator` to be approved. Used in approvals.",
          "params": {
            "operator": "Address that may be allowed to operate on tokens without being their owner."
          }
        }
      ],
      "ERC721InvalidOwner(address)": [
        {
          "details": "Indicates that an address can't be an owner. For example, `address(0)` is a forbidden owner in EIP-20. Used in balance queries.",
          "params": {
            "owner": "Address of the current owner of a token."
          }
        }
      ],
      "ERC721InvalidReceiver(address)": [
        {
          "details": "Indicates a failure with the token `receiver`. Used in transfers.",
          "params": {
            "receiver": "Address to which tokens are being transferred."
          }
        }
      ],
      "ERC721InvalidSender(address)": [
        {
          "details": "Indicates a failure with the token `sender`. Used in transfers.",
          "params": {
            "sender": "Address whose tokens are being transferred."
          }
        }
      ],
      "ERC721NonexistentToken(uint256)": [
        {
          "details": "Indicates a `tokenId` whose `owner` is the zero address.",
          "params": {
            "tokenId": "Identifier number of a token."
          }
        }
      ]
    },
    "events": {
      "Approval(address,address,uint256)": {
        "details": "Emitted when `owner` enables `approved` to manage the `tokenId` token."
      },
      "ApprovalForAll(address,address,bool)": {
        "details": "Emitted when `owner` enables or disables (`approved`) `operator` to manage all of its assets."
      },
      "BatchMetadataUpdate(uint256,uint256)": {
        "details": "This event emits when the metadata of a range of tokens is changed. So that the third-party platforms such as NFT market could timely update the images and related attributes of the NFTs."
      },
      "MetadataUpdate(uint256)": {
        "details": "This event emits when the metadata of a token is changed. So that the third-party platforms such as NFT market could timely update the images and related attributes of the NFT."
      },
      "RoleAdminChanged(bytes32,bytes32,bytes32)": {
        "details": "Emitted when `newAdminRole` is set as ``role``'s admin role, replacing `previousAdminRole` `DEFAULT_ADMIN_ROLE` is the starting admin for all roles, despite {RoleAdminChanged} not being emitted signaling this."
      },
      "RoleGranted(bytes32,address,address)": {
        "details": "Emitted when `account` is granted `role`. `sender` is the account that originated the contract call, an admin role bearer except when using {AccessControl-_setupRole}."
      },
      "RoleRevoked(bytes32,address,address)": {
        "details": "Emitted when `account` is revoked `role`. `sender` is the account that originated the contract call:   - if using `revokeRole`, it is the admin role bearer   - if using `renounceRole`, it is the role bearer (i.e. `account`)"
      },
      "Transfer(address,address,uint256)": {
        "details": "Emitted when `tokenId` token is transferred from `from` to `to`."
      }
    },
    "kind": "dev",
    "methods": {
      "approve(address,uint256)": {
        "details": "See {IERC721-approve}."
      },
      "balanceOf(address)": {
        "details": "See {IERC721-balanceOf}."
      },
      "bulkGrantRoles(bytes32[],address[])": {
        "details": "Bulk grant roles to accounts",
        "params": {
          "accounts": "The array of accounts to grant roles emits BulkRolesGranted event on successful grant",
          "roles": "The array of roles to grant"
        }
      },
      "burn(uint256)": {
        "details": "Burns `tokenId`. See {ERC721-_burn}. Requirements: - The caller must own `tokenId` or be an approved operator."
      },
      "certifyEnterprise(address,string,string,uint256)": {
        "details": "This function is used to certify enterprisesOnly the Certifier can certify enterprisesmints and assigns NFT certificate to an enterprisesets token URI to metadata URI of a certificate",
        "params": {
          "_industry": "The industry of the enterprise to be certified",
          "_metadataURI": "The metadata URI of the certificate (IPFS hash)",
          "enterpriseAddress": "The address of the enterprise to be certified",
          "validityDurationSeconds": "The validity duration of the certificate in seconds"
        }
      },
      "checkExpiryRoles(address)": {
        "details": "helper to check expiry of `PUBLIC` role",
        "params": {
          "account": "The account to check for role expiry"
        }
      },
      "claimTemporaryPublicRole(uint256)": {
        "details": "allows users to claim temporary `PUBLIC` role for `durationInHours` hours on their visit to platform",
        "params": {
          "durationInHours": "The duration in hours the user will have the `PUBLIC` role"
        }
      },
      "getApproved(uint256)": {
        "details": "See {IERC721-getApproved}."
      },
      "getRoleAdmin(bytes32)": {
        "details": "Returns the admin role that controls `role`. See {grantRole} and {revokeRole}. To change a role's admin, use {_setRoleAdmin}."
      },
      "grantCertifier(address)": {
        "details": "Functions to grant roles to!",
        "params": {
          "account": "The account to grant the role to"
        }
      },
      "grantRole(bytes32,address)": {
        "details": "Grants `role` to `account`. If `account` had not been already granted `role`, emits a {RoleGranted} event. Requirements: - the caller must have ``role``'s admin role. May emit a {RoleGranted} event."
      },
      "hasAdminRole(address)": {
        "details": "Functions to check if a certain account has the specified role",
        "params": {
          "account": "The account to check "
        }
      },
      "hasRole(bytes32,address)": {
        "details": "Returns `true` if `account` has been granted `role`."
      },
      "isApprovedForAll(address,address)": {
        "details": "See {IERC721-isApprovedForAll}."
      },
      "name()": {
        "details": "See {IERC721Metadata-name}."
      },
      "ownerOf(uint256)": {
        "details": "See {IERC721-ownerOf}."
      },
      "renounceRole(bytes32,address)": {
        "details": "Revokes `role` from the calling account. Roles are often managed via {grantRole} and {revokeRole}: this function's purpose is to provide a mechanism for accounts to lose their privileges if they are compromised (such as when a trusted device is misplaced). If the calling account had been revoked `role`, emits a {RoleRevoked} event. Requirements: - the caller must be `callerConfirmation`. May emit a {RoleRevoked} event."
      },
      "revokeCertification(address)": {
        "details": "allows the revocation of certifications from enterprisesOnly the `Certifier` or `Super Admin` can revoke certificationsallows automatic destruction of NFT certificates via oppenzeppelin's`burn` function",
        "params": {
          "enterpriseAddress": "The address of the enterprise to be revoked"
        }
      },
      "revokeCertifierRole(address)": {
        "details": "Functions to revoke roles",
        "params": {
          "account": "The account to revoke the role from"
        }
      },
      "revokeIfExpired(address)": {
        "details": "alloes automatic revokation of NFT certificates after expiry duration callable by anyone as long as expiry date kicks in"
      },
      "revokeRole(bytes32,address)": {
        "details": "Revokes `role` from `account`. If `account` had been granted `role`, emits a {RoleRevoked} event. Requirements: - the caller must have ``role``'s admin role. May emit a {RoleRevoked} event."
      },
      "safeTransferFrom(address,address,uint256)": {
        "details": "See {IERC721-safeTransferFrom}."
      },
      "safeTransferFrom(address,address,uint256,bytes)": {
        "details": "See {IERC721-safeTransferFrom}."
      },
      "setApprovalForAll(address,bool)": {
        "details": "See {IERC721-setApprovalForAll}."
      },
      "symbol()": {
        "details": "See {IERC721Metadata-symbol}."
      },
      "transferFrom(address,address,uint256)": {
        "details": "See {IERC721-transferFrom}."
      },
      "transferRole(bytes32,address,address)": {
        "details": "Transfers a role from one account to another",
        "params": {
          "from": "The account to transfer the role from",
          "role": "The role to transfer",
          "to": "The account to transfer the role to"
        }
      },
      "updateCertificationMetadata(address,string)": {
        "details": "updates the metadata URI of the NFT certificateOnly the `Certifier` can update certification metadata URI",
        "params": {
          "enterpriseAddress": "The address of the enterprise to be updated",
          "newMetadataURI": "The new metadata URI of the certificate"
        }
      }
    },
    "version": 1
  },
  "userdoc": {
    "kind": "user",
    "methods": {
      "bulkGrantRoles(bytes32[],address[])": {
        "notice": "---------- # Bulk Role Grant(Auto) ------- //"
      },
      "certifyEnterprise(address,string,string,uint256)": {
        "notice": "Emits CertificationGranted event on successful enterprise certification"
      },
      "checkExpiryRoles(address)": {
        "notice": "--------- #  Auto-expiry check (Call periodically) ------- //Emits PublicRoleExpired event on expiry"
      },
      "claimTemporaryPublicRole(uint256)": {
        "notice": "----------- #claim temporary public role -------------- //`durationInHours` must be less than 24 hoursEmits PublicRoleGranted event on successful claim "
      },
      "grantCertifier(address)": {
        "notice": "---------# GRANTING ROLES ---------//Emits RoleGranted event on successful grant"
      },
      "hasAdminRole(address)": {
        "notice": "--------- # CHECKING ROLES --------- //"
      },
      "revokeCertification(address)": {
        "notice": "Emits CertificationRevoked event on successful enterprise revocation"
      },
      "revokeCertifierRole(address)": {
        "notice": "------------- # REVOKING ROLES ------------- //Emits RoleRevoked event on successful revoke"
      },
      "revokeIfExpired(address)": {
        "notice": "Emits CertificationRevoked event on successful enterprise revocation"
      },
      "transferRole(bytes32,address,address)": {
        "notice": "-------- # Safe Role Transfer ------- //Emits RoleTransferred event on successful transfer"
      },
      "updateCertificationMetadata(address,string)": {
        "notice": "Emits CertificationUpdated event on successful metadata update"
      }
    },
    "version": 1
  },
  "storageLayout": {
    "storage": [
      {
        "astId": 26,
        "contract": "contracts/core/CertificationAuthority.sol:CertificationAuthority",
        "label": "_roles",
        "offset": 0,
        "slot": "0",
        "type": "t_mapping(t_bytes32,t_struct(RoleData)21_storage)"
      },
      {
        "astId": 4015,
        "contract": "contracts/core/CertificationAuthority.sol:CertificationAuthority",
        "label": "publicRoleExpiry",
        "offset": 0,
        "slot": "1",
        "type": "t_mapping(t_address,t_uint256)"
      },
      {
        "astId": 728,
        "contract": "contracts/core/CertificationAuthority.sol:CertificationAuthority",
        "label": "_name",
        "offset": 0,
        "slot": "2",
        "type": "t_string_storage"
      },
      {
        "astId": 730,
        "contract": "contracts/core/CertificationAuthority.sol:CertificationAuthority",
        "label": "_symbol",
        "offset": 0,
        "slot": "3",
        "type": "t_string_storage"
      },
      {
        "astId": 734,
        "contract": "contracts/core/CertificationAuthority.sol:CertificationAuthority",
        "label": "_owners",
        "offset": 0,
        "slot": "4",
        "type": "t_mapping(t_uint256,t_address)"
      },
      {
        "astId": 738,
        "contract": "contracts/core/CertificationAuthority.sol:CertificationAuthority",
        "label": "_balances",
        "offset": 0,
        "slot": "5",
        "type": "t_mapping(t_address,t_uint256)"
      },
      {
        "astId": 742,
        "contract": "contracts/core/CertificationAuthority.sol:CertificationAuthority",
        "label": "_tokenApprovals",
        "offset": 0,
        "slot": "6",
        "type": "t_mapping(t_uint256,t_address)"
      },
      {
        "astId": 748,
        "contract": "contracts/core/CertificationAuthority.sol:CertificationAuthority",
        "label": "_operatorApprovals",
        "offset": 0,
        "slot": "7",
        "type": "t_mapping(t_address,t_mapping(t_address,t_bool))"
      },
      {
        "astId": 1896,
        "contract": "contracts/core/CertificationAuthority.sol:CertificationAuthority",
        "label": "_tokenURIs",
        "offset": 0,
        "slot": "8",
        "type": "t_mapping(t_uint256,t_string_storage)"
      },
      {
        "astId": 3538,
        "contract": "contracts/core/CertificationAuthority.sol:CertificationAuthority",
        "label": "certifications",
        "offset": 0,
        "slot": "9",
        "type": "t_mapping(t_address,t_struct(Certification)5935_storage)"
      },
      {
        "astId": 3542,
        "contract": "contracts/core/CertificationAuthority.sol:CertificationAuthority",
        "label": "_tokenToEnterprise",
        "offset": 0,
        "slot": "10",
        "type": "t_mapping(t_uint256,t_address)"
      },
      {
        "astId": 3544,
        "contract": "contracts/core/CertificationAuthority.sol:CertificationAuthority",
        "label": "_tokenIdCounter",
        "offset": 0,
        "slot": "11",
        "type": "t_uint256"
      }
    ],
    "types": {
      "t_address": {
        "encoding": "inplace",
        "label": "address",
        "numberOfBytes": "20"
      },
      "t_bool": {
        "encoding": "inplace",
        "label": "bool",
        "numberOfBytes": "1"
      },
      "t_bytes32": {
        "encoding": "inplace",
        "label": "bytes32",
        "numberOfBytes": "32"
      },
      "t_mapping(t_address,t_bool)": {
        "encoding": "mapping",
        "key": "t_address",
        "label": "mapping(address => bool)",
        "numberOfBytes": "32",
        "value": "t_bool"
      },
      "t_mapping(t_address,t_mapping(t_address,t_bool))": {
        "encoding": "mapping",
        "key": "t_address",
        "label": "mapping(address => mapping(address => bool))",
        "numberOfBytes": "32",
        "value": "t_mapping(t_address,t_bool)"
      },
      "t_mapping(t_address,t_struct(Certification)5935_storage)": {
        "encoding": "mapping",
        "key": "t_address",
        "label": "mapping(address => struct DataTypes.Certification)",
        "numberOfBytes": "32",
        "value": "t_struct(Certification)5935_storage"
      },
      "t_mapping(t_address,t_uint256)": {
        "encoding": "mapping",
        "key": "t_address",
        "label": "mapping(address => uint256)",
        "numberOfBytes": "32",
        "value": "t_uint256"
      },
      "t_mapping(t_bytes32,t_struct(RoleData)21_storage)": {
        "encoding": "mapping",
        "key": "t_bytes32",
        "label": "mapping(bytes32 => struct AccessControl.RoleData)",
        "numberOfBytes": "32",
        "value": "t_struct(RoleData)21_storage"
      },
      "t_mapping(t_uint256,t_address)": {
        "encoding": "mapping",
        "key": "t_uint256",
        "label": "mapping(uint256 => address)",
        "numberOfBytes": "32",
        "value": "t_address"
      },
      "t_mapping(t_uint256,t_string_storage)": {
        "encoding": "mapping",
        "key": "t_uint256",
        "label": "mapping(uint256 => string)",
        "numberOfBytes": "32",
        "value": "t_string_storage"
      },
      "t_string_storage": {
        "encoding": "bytes",
        "label": "string",
        "numberOfBytes": "32"
      },
      "t_struct(Certification)5935_storage": {
        "encoding": "inplace",
        "label": "struct DataTypes.Certification",
        "members": [
          {
            "astId": 5924,
            "contract": "contracts/core/CertificationAuthority.sol:CertificationAuthority",
            "label": "industry",
            "offset": 0,
            "slot": "0",
            "type": "t_string_storage"
          },
          {
            "astId": 5926,
            "contract": "contracts/core/CertificationAuthority.sol:CertificationAuthority",
            "label": "metadataURI",
            "offset": 0,
            "slot": "1",
            "type": "t_string_storage"
          },
          {
            "astId": 5928,
            "contract": "contracts/core/CertificationAuthority.sol:CertificationAuthority",
            "label": "certifiedAt",
            "offset": 0,
            "slot": "2",
            "type": "t_uint256"
          },
          {
            "astId": 5930,
            "contract": "contracts/core/CertificationAuthority.sol:CertificationAuthority",
            "label": "expiryDate",
            "offset": 0,
            "slot": "3",
            "type": "t_uint256"
          },
          {
            "astId": 5932,
            "contract": "contracts/core/CertificationAuthority.sol:CertificationAuthority",
            "label": "isCertified",
            "offset": 0,
            "slot": "4",
            "type": "t_bool"
          },
          {
            "astId": 5934,
            "contract": "contracts/core/CertificationAuthority.sol:CertificationAuthority",
            "label": "tokenId",
            "offset": 0,
            "slot": "5",
            "type": "t_uint256"
          }
        ],
        "numberOfBytes": "192"
      },
      "t_struct(RoleData)21_storage": {
        "encoding": "inplace",
        "label": "struct AccessControl.RoleData",
        "members": [
          {
            "astId": 18,
            "contract": "contracts/core/CertificationAuthority.sol:CertificationAuthority",
            "label": "hasRole",
            "offset": 0,
            "slot": "0",
            "type": "t_mapping(t_address,t_bool)"
          },
          {
            "astId": 20,
            "contract": "contracts/core/CertificationAuthority.sol:CertificationAuthority",
            "label": "adminRole",
            "offset": 0,
            "slot": "1",
            "type": "t_bytes32"
          }
        ],
        "numberOfBytes": "64"
      },
      "t_uint256": {
        "encoding": "inplace",
        "label": "uint256",
        "numberOfBytes": "32"
      }
    }
  }
}