{
  "address": "0xC9d8bC4075677f7CBd7b700F0147900abFae1Ad9",
  "abi": [
    {
      "inputs": [
        {
          "internalType": "address",
          "name": "_rolesManager",
          "type": "address"
        },
        {
          "internalType": "address",
          "name": "_certNFT",
          "type": "address"
        },
        {
          "internalType": "address",
          "name": "_certAuthority",
          "type": "address"
        }
      ],
      "stateMutability": "nonpayable",
      "type": "constructor"
    },
    {
      "inputs": [],
      "name": "AccessControlBadConfirmation",
      "type": "error"
    },
    {
      "inputs": [
        {
          "internalType": "address",
          "name": "account",
          "type": "address"
        },
        {
          "internalType": "bytes32",
          "name": "neededRole",
          "type": "bytes32"
        }
      ],
      "name": "AccessControlUnauthorizedAccount",
      "type": "error"
    },
    {
      "inputs": [],
      "name": "CertificateNFT__CertificateDoesNotExist",
      "type": "error"
    },
    {
      "inputs": [],
      "name": "CertificateNFT__EnterpriseAlreadyCertified",
      "type": "error"
    },
    {
      "inputs": [],
      "name": "CertificationAuthority__CertificationNotExpiredYet",
      "type": "error"
    },
    {
      "inputs": [],
      "name": "CertificationAuthority__EnterpriseAlreadyCertified",
      "type": "error"
    },
    {
      "inputs": [],
      "name": "CertificationAuthority__EnterpriseNotCertifiedYet",
      "type": "error"
    },
    {
      "inputs": [],
      "name": "EnterpriseRegistry__EnterpriseAlreadyExists",
      "type": "error"
    },
    {
      "inputs": [],
      "name": "EnterpriseRegistry__EnterpriseDoesNotExist",
      "type": "error"
    },
    {
      "inputs": [],
      "name": "EnterpriseRegistry__InvalidStart",
      "type": "error"
    },
    {
      "inputs": [],
      "name": "InspectionManager__InspectionPeriodExpired",
      "type": "error"
    },
    {
      "inputs": [],
      "name": "InspectionManager__InspectorAlreadyAssigned",
      "type": "error"
    },
    {
      "inputs": [],
      "name": "InspectionManager__NoReportsAssociatedWithEnterprise",
      "type": "error"
    },
    {
      "inputs": [],
      "name": "InspectionManager__NotAssignedToEnterprise",
      "type": "error"
    },
    {
      "inputs": [],
      "name": "InvalidAddress",
      "type": "error"
    },
    {
      "inputs": [],
      "name": "RolesManager__AlreadyHasRole",
      "type": "error"
    },
    {
      "inputs": [],
      "name": "RolesManager__ArrayLengthMismatch",
      "type": "error"
    },
    {
      "inputs": [],
      "name": "RolesManager__EmptyArray",
      "type": "error"
    },
    {
      "inputs": [],
      "name": "RolesManager__InvalidDuration",
      "type": "error"
    },
    {
      "inputs": [],
      "name": "RolesManager__NotAuthorizedAuditor",
      "type": "error"
    },
    {
      "inputs": [],
      "name": "RolesManager__NotAuthorizedCertificateFactory",
      "type": "error"
    },
    {
      "inputs": [],
      "name": "RolesManager__NotAuthorizedCertifier",
      "type": "error"
    },
    {
      "inputs": [],
      "name": "RolesManager__NotAuthorizedEnterprise",
      "type": "error"
    },
    {
      "inputs": [],
      "name": "RolesManager__NotAuthorizedInspector",
      "type": "error"
    },
    {
      "inputs": [],
      "name": "RolesManager__NotAuthorizedPublicUser",
      "type": "error"
    },
    {
      "inputs": [],
      "name": "RolesManager__RoleDoesNotExist",
      "type": "error"
    },
    {
      "inputs": [],
      "name": "RolesManager__UnauthorizedToPerformAction",
      "type": "error"
    },
    {
      "anonymous": false,
      "inputs": [
        {
          "indexed": false,
          "internalType": "bytes32[]",
          "name": "roles",
          "type": "bytes32[]"
        },
        {
          "indexed": true,
          "internalType": "address[]",
          "name": "accounts",
          "type": "address[]"
        }
      ],
      "name": "BulkRolesGranted",
      "type": "event"
    },
    {
      "anonymous": false,
      "inputs": [
        {
          "indexed": true,
          "internalType": "address",
          "name": "enterprise",
          "type": "address"
        },
        {
          "indexed": false,
          "internalType": "uint256",
          "name": "deregisteredAt",
          "type": "uint256"
        }
      ],
      "name": "EnterpriseDeregistered",
      "type": "event"
    },
    {
      "anonymous": false,
      "inputs": [
        {
          "indexed": true,
          "internalType": "address",
          "name": "enterprise",
          "type": "address"
        },
        {
          "indexed": false,
          "internalType": "string",
          "name": "name",
          "type": "string"
        },
        {
          "indexed": false,
          "internalType": "string",
          "name": "industry",
          "type": "string"
        },
        {
          "indexed": false,
          "internalType": "string",
          "name": "metadataURI",
          "type": "string"
        },
        {
          "indexed": false,
          "internalType": "uint256",
          "name": "certificateId",
          "type": "uint256"
        }
      ],
      "name": "EnterpriseRegistered",
      "type": "event"
    },
    {
      "anonymous": false,
      "inputs": [
        {
          "indexed": true,
          "internalType": "address",
          "name": "enterprise",
          "type": "address"
        },
        {
          "indexed": false,
          "internalType": "string",
          "name": "newMetadataURI",
          "type": "string"
        }
      ],
      "name": "EnterpriseUpdated",
      "type": "event"
    },
    {
      "anonymous": false,
      "inputs": [
        {
          "indexed": true,
          "internalType": "address",
          "name": "user",
          "type": "address"
        }
      ],
      "name": "PublicRoleExpired",
      "type": "event"
    },
    {
      "anonymous": false,
      "inputs": [
        {
          "indexed": true,
          "internalType": "address",
          "name": "user",
          "type": "address"
        },
        {
          "indexed": false,
          "internalType": "uint256",
          "name": "duration",
          "type": "uint256"
        }
      ],
      "name": "PublicRoleGranted",
      "type": "event"
    },
    {
      "anonymous": false,
      "inputs": [
        {
          "indexed": true,
          "internalType": "bytes32",
          "name": "role",
          "type": "bytes32"
        },
        {
          "indexed": true,
          "internalType": "bytes32",
          "name": "previousAdminRole",
          "type": "bytes32"
        },
        {
          "indexed": true,
          "internalType": "bytes32",
          "name": "newAdminRole",
          "type": "bytes32"
        }
      ],
      "name": "RoleAdminChanged",
      "type": "event"
    },
    {
      "anonymous": false,
      "inputs": [
        {
          "indexed": true,
          "internalType": "bytes32",
          "name": "role",
          "type": "bytes32"
        },
        {
          "indexed": true,
          "internalType": "address",
          "name": "account",
          "type": "address"
        },
        {
          "indexed": true,
          "internalType": "address",
          "name": "sender",
          "type": "address"
        }
      ],
      "name": "RoleGranted",
      "type": "event"
    },
    {
      "anonymous": false,
      "inputs": [
        {
          "indexed": true,
          "internalType": "bytes32",
          "name": "role",
          "type": "bytes32"
        },
        {
          "indexed": true,
          "internalType": "address",
          "name": "account",
          "type": "address"
        }
      ],
      "name": "RoleGranted",
      "type": "event"
    },
    {
      "anonymous": false,
      "inputs": [
        {
          "indexed": true,
          "internalType": "bytes32",
          "name": "role",
          "type": "bytes32"
        },
        {
          "indexed": true,
          "internalType": "address",
          "name": "account",
          "type": "address"
        },
        {
          "indexed": true,
          "internalType": "address",
          "name": "sender",
          "type": "address"
        }
      ],
      "name": "RoleRevoked",
      "type": "event"
    },
    {
      "anonymous": false,
      "inputs": [
        {
          "indexed": true,
          "internalType": "bytes32",
          "name": "role",
          "type": "bytes32"
        },
        {
          "indexed": true,
          "internalType": "address",
          "name": "account",
          "type": "address"
        }
      ],
      "name": "RoleRevoked",
      "type": "event"
    },
    {
      "anonymous": false,
      "inputs": [
        {
          "indexed": true,
          "internalType": "bytes32",
          "name": "role",
          "type": "bytes32"
        },
        {
          "indexed": false,
          "internalType": "address",
          "name": "from",
          "type": "address"
        },
        {
          "indexed": false,
          "internalType": "address",
          "name": "to",
          "type": "address"
        }
      ],
      "name": "RoleTransferred",
      "type": "event"
    },
    {
      "inputs": [],
      "name": "AUDITOR_ROLE",
      "outputs": [
        {
          "internalType": "bytes32",
          "name": "",
          "type": "bytes32"
        }
      ],
      "stateMutability": "view",
      "type": "function"
    },
    {
      "inputs": [],
      "name": "CERTIFICATE_FACTORY_ROLE",
      "outputs": [
        {
          "internalType": "bytes32",
          "name": "",
          "type": "bytes32"
        }
      ],
      "stateMutability": "view",
      "type": "function"
    },
    {
      "inputs": [],
      "name": "CERTIFIER_ROLE",
      "outputs": [
        {
          "internalType": "bytes32",
          "name": "",
          "type": "bytes32"
        }
      ],
      "stateMutability": "view",
      "type": "function"
    },
    {
      "inputs": [],
      "name": "DEFAULT_ADMIN_ROLE",
      "outputs": [
        {
          "internalType": "bytes32",
          "name": "",
          "type": "bytes32"
        }
      ],
      "stateMutability": "view",
      "type": "function"
    },
    {
      "inputs": [],
      "name": "ENTERPRISE_ROLE",
      "outputs": [
        {
          "internalType": "bytes32",
          "name": "",
          "type": "bytes32"
        }
      ],
      "stateMutability": "view",
      "type": "function"
    },
    {
      "inputs": [],
      "name": "INSPECTOR_ROLE",
      "outputs": [
        {
          "internalType": "bytes32",
          "name": "",
          "type": "bytes32"
        }
      ],
      "stateMutability": "view",
      "type": "function"
    },
    {
      "inputs": [],
      "name": "PUBLIC_ROLE",
      "outputs": [
        {
          "internalType": "bytes32",
          "name": "",
          "type": "bytes32"
        }
      ],
      "stateMutability": "view",
      "type": "function"
    },
    {
      "inputs": [
        {
          "internalType": "uint256",
          "name": "",
          "type": "uint256"
        }
      ],
      "name": "allEnterprises",
      "outputs": [
        {
          "internalType": "address",
          "name": "",
          "type": "address"
        }
      ],
      "stateMutability": "view",
      "type": "function"
    },
    {
      "inputs": [
        {
          "internalType": "bytes32[]",
          "name": "roles",
          "type": "bytes32[]"
        },
        {
          "internalType": "address[]",
          "name": "accounts",
          "type": "address[]"
        }
      ],
      "name": "bulkGrantRoles",
      "outputs": [],
      "stateMutability": "nonpayable",
      "type": "function"
    },
    {
      "inputs": [],
      "name": "certAuthority",
      "outputs": [
        {
          "internalType": "contract CertificationAuthority",
          "name": "",
          "type": "address"
        }
      ],
      "stateMutability": "view",
      "type": "function"
    },
    {
      "inputs": [],
      "name": "certificateNFT",
      "outputs": [
        {
          "internalType": "contract CertificateNFT",
          "name": "",
          "type": "address"
        }
      ],
      "stateMutability": "view",
      "type": "function"
    },
    {
      "inputs": [
        {
          "internalType": "address",
          "name": "account",
          "type": "address"
        }
      ],
      "name": "checkExpiryRoles",
      "outputs": [],
      "stateMutability": "nonpayable",
      "type": "function"
    },
    {
      "inputs": [
        {
          "internalType": "uint256",
          "name": "durationInHours",
          "type": "uint256"
        }
      ],
      "name": "claimTemporaryPublicRole",
      "outputs": [],
      "stateMutability": "nonpayable",
      "type": "function"
    },
    {
      "inputs": [
        {
          "internalType": "address",
          "name": "_enterprise",
          "type": "address"
        }
      ],
      "name": "deRegisterEnterprise",
      "outputs": [],
      "stateMutability": "nonpayable",
      "type": "function"
    },
    {
      "inputs": [
        {
          "internalType": "address",
          "name": "account",
          "type": "address"
        }
      ],
      "name": "getActiveRoles",
      "outputs": [
        {
          "internalType": "bool",
          "name": "isAdmin",
          "type": "bool"
        },
        {
          "internalType": "bool",
          "name": "isCertifier",
          "type": "bool"
        },
        {
          "internalType": "bool",
          "name": "isInspector",
          "type": "bool"
        },
        {
          "internalType": "bool",
          "name": "isAuditor",
          "type": "bool"
        },
        {
          "internalType": "bool",
          "name": "isEnterprise",
          "type": "bool"
        },
        {
          "internalType": "bool",
          "name": "isCertificateFactory",
          "type": "bool"
        },
        {
          "internalType": "bool",
          "name": "isPublic",
          "type": "bool"
        }
      ],
      "stateMutability": "view",
      "type": "function"
    },
    {
      "inputs": [
        {
          "internalType": "address",
          "name": "enterpriseAddress",
          "type": "address"
        }
      ],
      "name": "getEnterprise",
      "outputs": [
        {
          "components": [
            {
              "internalType": "address",
              "name": "enterpriseAddress",
              "type": "address"
            },
            {
              "internalType": "string",
              "name": "name",
              "type": "string"
            },
            {
              "internalType": "string",
              "name": "industry",
              "type": "string"
            },
            {
              "internalType": "string",
              "name": "metadataURI",
              "type": "string"
            },
            {
              "internalType": "bool",
              "name": "isRegistered",
              "type": "bool"
            },
            {
              "internalType": "uint256",
              "name": "registrationDate",
              "type": "uint256"
            },
            {
              "internalType": "uint256",
              "name": "lastUpdated",
              "type": "uint256"
            },
            {
              "internalType": "uint256",
              "name": "certificateId",
              "type": "uint256"
            }
          ],
          "internalType": "struct DataTypes.Enterprise",
          "name": "",
          "type": "tuple"
        }
      ],
      "stateMutability": "view",
      "type": "function"
    },
    {
      "inputs": [
        {
          "internalType": "address",
          "name": "_enterprise",
          "type": "address"
        }
      ],
      "name": "getEnterpriseWithStatus",
      "outputs": [
        {
          "components": [
            {
              "internalType": "address",
              "name": "enterpriseAddress",
              "type": "address"
            },
            {
              "internalType": "string",
              "name": "name",
              "type": "string"
            },
            {
              "internalType": "string",
              "name": "industry",
              "type": "string"
            },
            {
              "internalType": "string",
              "name": "metadataURI",
              "type": "string"
            },
            {
              "internalType": "bool",
              "name": "isRegistered",
              "type": "bool"
            },
            {
              "internalType": "uint256",
              "name": "registrationDate",
              "type": "uint256"
            },
            {
              "internalType": "uint256",
              "name": "lastUpdated",
              "type": "uint256"
            },
            {
              "internalType": "uint256",
              "name": "certificateId",
              "type": "uint256"
            }
          ],
          "internalType": "struct DataTypes.Enterprise",
          "name": "",
          "type": "tuple"
        },
        {
          "internalType": "bool",
          "name": "isActive",
          "type": "bool"
        }
      ],
      "stateMutability": "view",
      "type": "function"
    },
    {
      "inputs": [],
      "name": "getMaxPublicRoleDuration",
      "outputs": [
        {
          "internalType": "uint256",
          "name": "",
          "type": "uint256"
        }
      ],
      "stateMutability": "pure",
      "type": "function"
    },
    {
      "inputs": [
        {
          "internalType": "bytes32",
          "name": "role",
          "type": "bytes32"
        }
      ],
      "name": "getRoleAdmin",
      "outputs": [
        {
          "internalType": "bytes32",
          "name": "",
          "type": "bytes32"
        }
      ],
      "stateMutability": "view",
      "type": "function"
    },
    {
      "inputs": [
        {
          "internalType": "address",
          "name": "account",
          "type": "address"
        }
      ],
      "name": "grantAuditor",
      "outputs": [],
      "stateMutability": "nonpayable",
      "type": "function"
    },
    {
      "inputs": [
        {
          "internalType": "address",
          "name": "account",
          "type": "address"
        }
      ],
      "name": "grantCertificateFactory",
      "outputs": [],
      "stateMutability": "nonpayable",
      "type": "function"
    },
    {
      "inputs": [
        {
          "internalType": "address",
          "name": "account",
          "type": "address"
        }
      ],
      "name": "grantCertifier",
      "outputs": [],
      "stateMutability": "nonpayable",
      "type": "function"
    },
    {
      "inputs": [
        {
          "internalType": "address",
          "name": "account",
          "type": "address"
        }
      ],
      "name": "grantEnterprise",
      "outputs": [],
      "stateMutability": "nonpayable",
      "type": "function"
    },
    {
      "inputs": [
        {
          "internalType": "address",
          "name": "account",
          "type": "address"
        }
      ],
      "name": "grantInspector",
      "outputs": [],
      "stateMutability": "nonpayable",
      "type": "function"
    },
    {
      "inputs": [
        {
          "internalType": "address",
          "name": "account",
          "type": "address"
        }
      ],
      "name": "grantPublicRole",
      "outputs": [],
      "stateMutability": "nonpayable",
      "type": "function"
    },
    {
      "inputs": [
        {
          "internalType": "bytes32",
          "name": "role",
          "type": "bytes32"
        },
        {
          "internalType": "address",
          "name": "account",
          "type": "address"
        }
      ],
      "name": "grantRole",
      "outputs": [],
      "stateMutability": "nonpayable",
      "type": "function"
    },
    {
      "inputs": [
        {
          "internalType": "address",
          "name": "account",
          "type": "address"
        }
      ],
      "name": "hasAdminRole",
      "outputs": [
        {
          "internalType": "bool",
          "name": "",
          "type": "bool"
        }
      ],
      "stateMutability": "view",
      "type": "function"
    },
    {
      "inputs": [
        {
          "internalType": "address",
          "name": "account",
          "type": "address"
        }
      ],
      "name": "hasAuditorRole",
      "outputs": [
        {
          "internalType": "bool",
          "name": "",
          "type": "bool"
        }
      ],
      "stateMutability": "view",
      "type": "function"
    },
    {
      "inputs": [
        {
          "internalType": "address",
          "name": "account",
          "type": "address"
        }
      ],
      "name": "hasCertificateFactoryRole",
      "outputs": [
        {
          "internalType": "bool",
          "name": "",
          "type": "bool"
        }
      ],
      "stateMutability": "view",
      "type": "function"
    },
    {
      "inputs": [
        {
          "internalType": "address",
          "name": "account",
          "type": "address"
        }
      ],
      "name": "hasCertifierRole",
      "outputs": [
        {
          "internalType": "bool",
          "name": "",
          "type": "bool"
        }
      ],
      "stateMutability": "view",
      "type": "function"
    },
    {
      "inputs": [
        {
          "internalType": "address",
          "name": "account",
          "type": "address"
        }
      ],
      "name": "hasEnterpriseRole",
      "outputs": [
        {
          "internalType": "bool",
          "name": "",
          "type": "bool"
        }
      ],
      "stateMutability": "view",
      "type": "function"
    },
    {
      "inputs": [
        {
          "internalType": "address",
          "name": "account",
          "type": "address"
        }
      ],
      "name": "hasInspectorRole",
      "outputs": [
        {
          "internalType": "bool",
          "name": "",
          "type": "bool"
        }
      ],
      "stateMutability": "view",
      "type": "function"
    },
    {
      "inputs": [
        {
          "internalType": "address",
          "name": "account",
          "type": "address"
        }
      ],
      "name": "hasPublicRole",
      "outputs": [
        {
          "internalType": "bool",
          "name": "",
          "type": "bool"
        }
      ],
      "stateMutability": "view",
      "type": "function"
    },
    {
      "inputs": [
        {
          "internalType": "bytes32",
          "name": "role",
          "type": "bytes32"
        },
        {
          "internalType": "address",
          "name": "account",
          "type": "address"
        }
      ],
      "name": "hasRole",
      "outputs": [
        {
          "internalType": "bool",
          "name": "",
          "type": "bool"
        }
      ],
      "stateMutability": "view",
      "type": "function"
    },
    {
      "inputs": [
        {
          "internalType": "address",
          "name": "_enterprise",
          "type": "address"
        }
      ],
      "name": "isEnterpriseActive",
      "outputs": [
        {
          "internalType": "bool",
          "name": "",
          "type": "bool"
        }
      ],
      "stateMutability": "view",
      "type": "function"
    },
    {
      "inputs": [
        {
          "internalType": "uint256",
          "name": "start",
          "type": "uint256"
        },
        {
          "internalType": "uint256",
          "name": "limit",
          "type": "uint256"
        }
      ],
      "name": "lisEnterprisesPaginated",
      "outputs": [
        {
          "internalType": "address[]",
          "name": "",
          "type": "address[]"
        }
      ],
      "stateMutability": "view",
      "type": "function"
    },
    {
      "inputs": [],
      "name": "listEnterprises",
      "outputs": [
        {
          "internalType": "address[]",
          "name": "",
          "type": "address[]"
        }
      ],
      "stateMutability": "view",
      "type": "function"
    },
    {
      "inputs": [
        {
          "internalType": "address",
          "name": "",
          "type": "address"
        }
      ],
      "name": "publicRoleExpiry",
      "outputs": [
        {
          "internalType": "uint256",
          "name": "",
          "type": "uint256"
        }
      ],
      "stateMutability": "view",
      "type": "function"
    },
    {
      "inputs": [
        {
          "internalType": "address",
          "name": "_enterpriseAddress",
          "type": "address"
        },
        {
          "internalType": "string",
          "name": "_name",
          "type": "string"
        },
        {
          "internalType": "string",
          "name": "_industry",
          "type": "string"
        },
        {
          "internalType": "string",
          "name": "_metadataURI",
          "type": "string"
        },
        {
          "internalType": "uint256",
          "name": "_initialCertDuration",
          "type": "uint256"
        }
      ],
      "name": "registerEnterprise",
      "outputs": [],
      "stateMutability": "nonpayable",
      "type": "function"
    },
    {
      "inputs": [
        {
          "internalType": "bytes32",
          "name": "role",
          "type": "bytes32"
        },
        {
          "internalType": "address",
          "name": "callerConfirmation",
          "type": "address"
        }
      ],
      "name": "renounceRole",
      "outputs": [],
      "stateMutability": "nonpayable",
      "type": "function"
    },
    {
      "inputs": [
        {
          "internalType": "address",
          "name": "account",
          "type": "address"
        }
      ],
      "name": "revokeAuditorRole",
      "outputs": [],
      "stateMutability": "nonpayable",
      "type": "function"
    },
    {
      "inputs": [
        {
          "internalType": "address",
          "name": "account",
          "type": "address"
        }
      ],
      "name": "revokeCertificateFactoryRole",
      "outputs": [],
      "stateMutability": "nonpayable",
      "type": "function"
    },
    {
      "inputs": [
        {
          "internalType": "address",
          "name": "account",
          "type": "address"
        }
      ],
      "name": "revokeCertifierRole",
      "outputs": [],
      "stateMutability": "nonpayable",
      "type": "function"
    },
    {
      "inputs": [
        {
          "internalType": "address",
          "name": "account",
          "type": "address"
        }
      ],
      "name": "revokeEnterpriseRole",
      "outputs": [],
      "stateMutability": "nonpayable",
      "type": "function"
    },
    {
      "inputs": [
        {
          "internalType": "address",
          "name": "account",
          "type": "address"
        }
      ],
      "name": "revokeInspectorRole",
      "outputs": [],
      "stateMutability": "nonpayable",
      "type": "function"
    },
    {
      "inputs": [
        {
          "internalType": "address",
          "name": "account",
          "type": "address"
        }
      ],
      "name": "revokePublicRole",
      "outputs": [],
      "stateMutability": "nonpayable",
      "type": "function"
    },
    {
      "inputs": [
        {
          "internalType": "bytes32",
          "name": "role",
          "type": "bytes32"
        },
        {
          "internalType": "address",
          "name": "account",
          "type": "address"
        }
      ],
      "name": "revokeRole",
      "outputs": [],
      "stateMutability": "nonpayable",
      "type": "function"
    },
    {
      "inputs": [],
      "name": "rolesManager",
      "outputs": [
        {
          "internalType": "contract RolesManager",
          "name": "",
          "type": "address"
        }
      ],
      "stateMutability": "view",
      "type": "function"
    },
    {
      "inputs": [
        {
          "internalType": "bytes4",
          "name": "interfaceId",
          "type": "bytes4"
        }
      ],
      "name": "supportsInterface",
      "outputs": [
        {
          "internalType": "bool",
          "name": "",
          "type": "bool"
        }
      ],
      "stateMutability": "view",
      "type": "function"
    },
    {
      "inputs": [
        {
          "internalType": "bytes32",
          "name": "role",
          "type": "bytes32"
        },
        {
          "internalType": "address",
          "name": "from",
          "type": "address"
        },
        {
          "internalType": "address",
          "name": "to",
          "type": "address"
        }
      ],
      "name": "transferRole",
      "outputs": [],
      "stateMutability": "nonpayable",
      "type": "function"
    },
    {
      "inputs": [
        {
          "internalType": "string",
          "name": "newMetadataURI",
          "type": "string"
        }
      ],
      "name": "updateEnterpriseMetadata",
      "outputs": [],
      "stateMutability": "nonpayable",
      "type": "function"
    }
  ],
  "transactionHash": "0x24764463d5e77bebf80c46436be01c9f3dc4991bb8c73eaabbc79355a4c50a8a",
  "args": [
    "0x55482cFfBA4AC511245Dd4C7bE1AA4f9c6b91782",
    "0x34ac9Df22279cf18F3f9d7606878D283A0B75e8B",
    "0x117Defebd04d121E1A1Bf1Bc02f429e870C4D911"
  ],
  "numDeployments": 1,
  "solcInputHash": "654b6f1015d7db0de73c4aea9a0f35b2",
  "bytecode": "0x60806040523480156200001157600080fd5b5060405162002ce138038062002ce183398101604081905262000034916200018d565b62000041600033620000b0565b6200006d7fc41a06b26ced3a23b7bf835a0918ade784f4055ded86d18305f528f47a72605233620000b0565b600280546001600160a01b039485166001600160a01b031991821617909155600380549385169382169390931790925560048054919093169116179055620001d7565b620000bc8282620000c1565b505050565b6000828152602081815260408083206001600160a01b038516845290915281205460ff1662000166576000838152602081815260408083206001600160a01b03861684529091529020805460ff191660011790556200011d3390565b6001600160a01b0316826001600160a01b0316847f2f8788117e7eff1d82e926ec794901d17c78024a50270940304540a733656f0d60405160405180910390a45060016200016a565b5060005b92915050565b80516001600160a01b03811681146200018857600080fd5b919050565b600080600060608486031215620001a357600080fd5b620001ae8462000170565b9250620001be6020850162000170565b9150620001ce6040850162000170565b90509250925092565b612afa80620001e76000396000f3fe608060405234801561001057600080fd5b50600436106102f15760003560e01c80637780e9c11161019d578063a3574c5b116100e9578063bd7ca7ba116100a2578063e3a3c5221161007c578063e3a3c5221461071e578063e55b4f9314610733578063f53f5e1e14610746578063fc8102861461075957600080fd5b8063bd7ca7ba146106e5578063c395fcb3146106f8578063d547741f1461070b57600080fd5b8063a3574c5b14610631578063aa52617c14610644578063abaa536f14610657578063b0614db31461066a578063b5617ef7146106be578063b8ad415e146106de57600080fd5b80638d8a6ac81161015657806399eb08d61161013057806399eb08d6146105f05780639fcf431114610603578063a1f3416314610616578063a217fddf1461062957600080fd5b80638d8a6ac8146105b757806391aec72a146105ca57806391d14854146105dd57600080fd5b80637780e9c114610536578063784fee0e146105495780637bff09751461055e5780637e5effa4146105715780638850845f14610584578063889cd2531461059757600080fd5b80633e2515181161025c578063603765281161021557806369d0b517116101ef57806369d0b517146104e65780636bad671a146104fb5780636e1d616e1461050e578063728d4e2f1461052357600080fd5b806360376528146104ab57806361462f0e146104be57806368dd17a5146104d157600080fd5b80633e25151814610437578063456f19fc1461044a57806352ed0cff1461045d57806352f84b721461047257806357c03371146104855780635cb87d261461049857600080fd5b806325d5e87e116102ae57806325d5e87e146103b5578063261191b7146103c85780632d0a9fd3146103db5780632f2ff15d146103fc57806336568abe1461040f5780633ca7c02a1461042257600080fd5b806301ffc9a7146102f65780630244677b1461031e578063035a7122146103335780630443cd2a1461035e5780631e223b2a14610371578063248a9ca314610384575b600080fd5b610309610304366004612162565b61076c565b60405190151581526020015b60405180910390f35b61033161032c3660046121af565b6107a3565b005b6103466103413660046121ca565b61091b565b6040516001600160a01b039091168152602001610315565b61033161036c3660046121af565b610945565b61033161037f3660046121af565b6109c7565b6103a76103923660046121ca565b60009081526020819052604090206001015490565b604051908152602001610315565b6103316103c33660046121af565b610a49565b6103316103d63660046121af565b610acb565b6103ee6103e93660046121af565b610b4d565b6040516103159291906122c4565b61033161040a3660046122e8565b610d88565b61033161041d3660046122e8565b610db3565b6103a7600080516020612a0583398151915281565b6103316104453660046121af565b610deb565b6103316104583660046121af565b610e6d565b610465610eef565b6040516103159190612314565b6103096104803660046121af565b610f51565b6103316104933660046121af565b610f6b565b6103316104a6366004612361565b610fed565b6103316104b93660046121af565b611080565b6103316104cc3660046123e9565b611102565b6103a76000805160206129c583398151915281565b6103a7600080516020612a2583398151915281565b610331610509366004612497565b611215565b6103a7600080516020612a6583398151915281565b610465610531366004612549565b6115b2565b6103316105443660046121ca565b6116d2565b6103a7600080516020612a4583398151915281565b61030961056c3660046121af565b6117b3565b61033161057f3660046121af565b6117cd565b6103096105923660046121af565b61184f565b6105aa6105a53660046121af565b611869565b604051610315919061256b565b6103096105c53660046121af565b611aba565b600354610346906001600160a01b031681565b6103096105eb3660046122e8565b611bda565b600454610346906001600160a01b031681565b610331610611366004612594565b611c03565b6103096106243660046121af565b611cc1565b6103a7600081565b600254610346906001600160a01b031681565b6103316106523660046121af565b611cdb565b6103096106653660046121af565b611d5d565b61067d6106783660046121af565b611d77565b60408051971515885295151560208801529315159486019490945290151560608501521515608084015290151560a0830152151560c082015260e001610315565b6103a76106cc3660046121af565b60016020526000908152604090205481565b60186103a7565b6103316106f33660046121af565b611e30565b6103096107063660046121af565b611e7b565b6103316107193660046122e8565b611e87565b6103a7600080516020612a8583398151915281565b6103316107413660046121af565b611eac565b6103096107543660046121af565b611f2e565b6103316107673660046121af565b611f48565b60006001600160e01b03198216637965db0b60e01b148061079d57506301ffc9a760e01b6001600160e01b03198316145b92915050565b60006107ae81611fca565b6001600160a01b03821660009081526005602052604090206004015460ff166107ea576040516302bdbd0960e01b815260040160405180910390fd5b6004805460405163b83cc3b360e01b81526001600160a01b038581169382019390935291169063b83cc3b390602401600060405180830381600087803b15801561083357600080fd5b505af1158015610847573d6000803e3d6000fd5b50506003546001600160a01b038581166000908152600560205260409081902060070154905163037aa4bf60e11b81526004810191909152911692506306f5497e9150602401600060405180830381600087803b1580156108a757600080fd5b505af11580156108bb573d6000803e3d6000fd5b505050506001600160a01b038216600081815260056020908152604091829020600401805460ff1916905590514281527faa4851f4db5fea12fcb0c52afc6bc6387f0aa8f3545624fdbd04c9ba85fb651e91015b60405180910390a25050565b6006818154811061092b57600080fd5b6000918252602090912001546001600160a01b0316905081565b806001600160a01b03811661096d5760405163e6c4247b60e01b815260040160405180910390fd5b600061097881611fca565b610990600080516020612a0583398151915284611e87565b6040516001600160a01b03841690600080516020612a0583398151915290600080516020612aa583398151915290600090a3505050565b806001600160a01b0381166109ef5760405163e6c4247b60e01b815260040160405180910390fd5b60006109fa81611fca565b610a126000805160206129c583398151915284610d88565b6040516001600160a01b038416906000805160206129c5833981519152906000805160206129e583398151915290600090a3505050565b610a5281611f2e565b8015610a7557506001600160a01b03811660009081526001602052604090205442115b15610ac857610a92600080516020612a0583398151915282611fd4565b506040516001600160a01b038216907fa6f32bcbc7de829d50e1c9cbc1c5b4dafb4c7a0b8329757aee62a9b394d71c3b90600090a25b50565b806001600160a01b038116610af35760405163e6c4247b60e01b815260040160405180910390fd5b6000610afe81611fca565b610b16600080516020612a4583398151915284611e87565b6040516001600160a01b03841690600080516020612a4583398151915290600080516020612aa583398151915290600090a3505050565b610b55612112565b6001600160a01b038083166000908152600560209081526040808320815161010081019092528054909416815260018401805493948594929390929084019190610b9e90612645565b80601f0160208091040260200160405190810160405280929190818152602001828054610bca90612645565b8015610c175780601f10610bec57610100808354040283529160200191610c17565b820191906000526020600020905b815481529060010190602001808311610bfa57829003601f168201915b50505050508152602001600282018054610c3090612645565b80601f0160208091040260200160405190810160405280929190818152602001828054610c5c90612645565b8015610ca95780601f10610c7e57610100808354040283529160200191610ca9565b820191906000526020600020905b815481529060010190602001808311610c8c57829003601f168201915b50505050508152602001600382018054610cc290612645565b80601f0160208091040260200160405190810160405280929190818152602001828054610cee90612645565b8015610d3b5780601f10610d1057610100808354040283529160200191610d3b565b820191906000526020600020905b815481529060010190602001808311610d1e57829003601f168201915b5050509183525050600482015460ff16151560208201526005820154604082015260068201546060820152600790910154608090910152905080610d7e85611aba565b9250925050915091565b600082815260208190526040902060010154610da381611fca565b610dad8383612047565b50505050565b6001600160a01b0381163314610ddc5760405163334bd91960e11b815260040160405180910390fd5b610de68282611fd4565b505050565b806001600160a01b038116610e135760405163e6c4247b60e01b815260040160405180910390fd5b6000610e1e81611fca565b610e36600080516020612a6583398151915284611e87565b6040516001600160a01b03841690600080516020612a6583398151915290600080516020612aa583398151915290600090a3505050565b806001600160a01b038116610e955760405163e6c4247b60e01b815260040160405180910390fd5b6000610ea081611fca565b610eb8600080516020612a8583398151915284610d88565b6040516001600160a01b03841690600080516020612a85833981519152906000805160206129e583398151915290600090a3505050565b60606006805480602002602001604051908101604052809291908181526020018280548015610f4757602002820191906000526020600020905b81546001600160a01b03168152600190910190602001808311610f29575b5050505050905090565b600061079d600080516020612a4583398151915283611bda565b806001600160a01b038116610f935760405163e6c4247b60e01b815260040160405180910390fd5b6000610f9e81611fca565b610fb6600080516020612a0583398151915284610d88565b6040516001600160a01b03841690600080516020612a05833981519152906000805160206129e583398151915290600090a3505050565b6000610ff881611fca565b6110028484611bda565b61101f576040516366783c9d60e11b815260040160405180910390fd5b6110298484611fd4565b506110348483612047565b50604080516001600160a01b0380861682528416602082015285917f274dd4127a55dcb6f6c12ed38fec5007d965d2afffa8b0bc75c3dc8f3f6b2224910160405180910390a250505050565b806001600160a01b0381166110a85760405163e6c4247b60e01b815260040160405180910390fd5b60006110b381611fca565b6110cb600080516020612a2583398151915284610d88565b6040516001600160a01b03841690600080516020612a25833981519152906000805160206129e583398151915290600090a3505050565b600061110d81611fca565b831580611118575081155b1561113657604051637d6eaf9360e01b815260040160405180910390fd5b838214611156576040516390a2f79360e01b815260040160405180910390fd5b60005b848110156111bc576111a986868381811061117657611176612679565b9050602002013585858481811061118f5761118f612679565b90506020020160208101906111a491906121af565b612047565b50806111b4816126a5565b915050611159565b5082826040516111cd9291906126be565b60405180910390207ff4d52c90739c68c4e82d39cfbeee6b6613784bf9b28d2cdb3a02203799cf060686866040516112069291906126fe565b60405180910390a25050505050565b600061122081611fca565b6001600160a01b03891660009081526005602052604090206004015460ff161561125d5760405163994ced1560e01b815260040160405180910390fd5b6040518061010001604052808a6001600160a01b0316815260200189898080601f016020809104026020016040519081016040528093929190818152602001838380828437600092019190915250505090825250604080516020601f8a0181900481028201810190925288815291810191908990899081908401838280828437600092019190915250505090825250604080516020601f880181900481028201810190925286815291810191908790879081908401838280828437600081840152601f19601f8201169050808301925050505050505081526020016001151581526020014281526020014281526020016000815250600560008b6001600160a01b03166001600160a01b0316815260200190815260200160002060008201518160000160006101000a8154816001600160a01b0302191690836001600160a01b0316021790555060208201518160010190816113b99190612785565b50604082015160028201906113ce9082612785565b50606082015160038201906113e39082612785565b5060808201516004828101805460ff19169215159290921790915560a0830151600583015560c0830151600683015560e0909201516007909101558054604051630bcce45b60e01b81526001600160a01b0390911691630bcce45b91611455918d918b918b918b918b918b910161286e565b600060405180830381600087803b15801561146f57600080fd5b505af1158015611483573d6000803e3d6000fd5b5050600354604051630712249f60e01b8152600093506001600160a01b039091169150630712249f906114be908d90899089906004016128ba565b6020604051808303816000875af11580156114dd573d6000803e3d6000fd5b505050506040513d601f19601f8201168201806040525081019061150191906128e8565b6001600160a01b038b166000818152600560205260408082206007018490556006805460018101825592527ff652222313e28459528d920b65115c16c04f3efc82aaedc97be59f3f377c0d3f90910180546001600160a01b0319168317905551919250907fb50e304bc7ed3e883d934fa4433b1f296fa9a8d5631659d4f61cb6581335ee039061159e908c908c908c908c908c908c908a90612901565b60405180910390a250505050505050505050565b6006546060908311156115d857604051634c512b8360e01b815260040160405180910390fd5b6006546000906115e88486612952565b116115fc576115f78385612952565b611600565b6006545b9050600061160e8583612965565b67ffffffffffffffff8111156116265761162661257e565b60405190808252806020026020018201604052801561164f578160200160208202803683370190505b509050845b828110156116c9576006818154811061166f5761166f612679565b6000918252602090912001546001600160a01b03168261168f8884612965565b8151811061169f5761169f612679565b6001600160a01b0390921660209283029190910190910152806116c1816126a5565b915050611654565b50949350505050565b6116db33611f2e565b156116f95760405163510a583360e01b815260040160405180910390fd5b801561171857604051630729422160e41b815260040160405180910390fd5b601881111561173a57604051630729422160e41b815260040160405180910390fd5b600061174882610e10612978565b9050611762600080516020612a0583398151915233612047565b5061176d8142612952565b33600081815260016020526040908190209290925590517fc526cdae63c288ea4504281fe29b0ae3352c8a9ccae61eba8c21cd25a949e0f19061090f9085815260200190565b600061079d600080516020612a2583398151915283611bda565b806001600160a01b0381166117f55760405163e6c4247b60e01b815260040160405180910390fd5b600061180081611fca565b6118186000805160206129c583398151915284611e87565b6040516001600160a01b038416906000805160206129c583398151915290600080516020612aa583398151915290600090a3505050565b600061079d600080516020612a8583398151915283611bda565b611871612112565b816001600160a01b0381166118995760405163e6c4247b60e01b815260040160405180910390fd5b6001600160a01b038084166000908152600560209081526040918290208251610100810190935280549093168252600183018054929392918401916118dd90612645565b80601f016020809104026020016040519081016040528092919081815260200182805461190990612645565b80156119565780601f1061192b57610100808354040283529160200191611956565b820191906000526020600020905b81548152906001019060200180831161193957829003601f168201915b5050505050815260200160028201805461196f90612645565b80601f016020809104026020016040519081016040528092919081815260200182805461199b90612645565b80156119e85780601f106119bd576101008083540402835291602001916119e8565b820191906000526020600020905b8154815290600101906020018083116119cb57829003601f168201915b50505050508152602001600382018054611a0190612645565b80601f0160208091040260200160405190810160405280929190818152602001828054611a2d90612645565b8015611a7a5780601f10611a4f57610100808354040283529160200191611a7a565b820191906000526020600020905b815481529060010190602001808311611a5d57829003601f168201915b5050509183525050600482015460ff1615156020820152600582015460408201526006820154606082015260079091015460809091015291505b50919050565b6001600160a01b03811660009081526005602052604081206004015460ff168015611b5057506004805460405163261e85cd60e01b81526001600160a01b038581169382019390935291169063261e85cd90602401602060405180830381865afa158015611b2c573d6000803e3d6000fd5b505050506040513d601f19601f82011682018060405250810190611b50919061298f565b801561079d57506003546001600160a01b03838116600090815260056020526040908190206007015490516352e7209d60e11b8152600481019190915291169063a5ce413a90602401602060405180830381865afa158015611bb6573d6000803e3d6000fd5b505050506040513d601f19601f8201168201806040525081019061079d919061298f565b6000918252602082815260408084206001600160a01b0393909316845291905290205460ff1690565b611c0c33611cc1565b611c29576040516363eea8f360e11b815260040160405180910390fd5b3360009081526005602052604081206004015460ff1615159003611c60576040516302bdbd0960e01b815260040160405180910390fd5b336000908152600560205260409020600301611c7c8282612785565b50336001600160a01b03167f5ac4129413bed9cf9afb0946b31ca2bc15f2e714a7cf6ec2ef4aa6ebdbbc59f982604051611cb691906129b1565b60405180910390a250565b600061079d6000805160206129c583398151915283611bda565b806001600160a01b038116611d035760405163e6c4247b60e01b815260040160405180910390fd5b6000611d0e81611fca565b611d26600080516020612a4583398151915284610d88565b6040516001600160a01b03841690600080516020612a45833981519152906000805160206129e583398151915290600090a3505050565b600061079d600080516020612a6583398151915283611bda565b6000808080808080611d898189611bda565b611da1600080516020612a258339815191528a611bda565b611db9600080516020612a858339815191528b611bda565b611dd1600080516020612a658339815191528c611bda565b611de96000805160206129c58339815191528d611bda565b611e01600080516020612a458339815191528e611bda565b611e19600080516020612a058339815191528f611bda565b959e949d50929b5090995097509550909350915050565b806001600160a01b038116611e585760405163e6c4247b60e01b815260040160405180910390fd5b6000611e6381611fca565b610de6600080516020612a8583398151915284611e87565b600061079d8183611bda565b600082815260208190526040902060010154611ea281611fca565b610dad8383611fd4565b806001600160a01b038116611ed45760405163e6c4247b60e01b815260040160405180910390fd5b6000611edf81611fca565b611ef7600080516020612a6583398151915284610d88565b6040516001600160a01b03841690600080516020612a65833981519152906000805160206129e583398151915290600090a3505050565b600061079d600080516020612a0583398151915283611bda565b806001600160a01b038116611f705760405163e6c4247b60e01b815260040160405180910390fd5b6000611f7b81611fca565b611f93600080516020612a2583398151915284611e87565b6040516001600160a01b03841690600080516020612a2583398151915290600080516020612aa583398151915290600090a3505050565b610ac881336120d1565b6000611fe08383611bda565b1561203f576000838152602081815260408083206001600160a01b0386168085529252808320805460ff1916905551339286917ff6391f5c32d9c69d2a47ea670b442974b53935d1edc7fd64eb21e047a839171b9190a450600161079d565b50600061079d565b60006120538383611bda565b61203f576000838152602081815260408083206001600160a01b03861684529091529020805460ff191660011790556120893390565b6001600160a01b0316826001600160a01b0316847f2f8788117e7eff1d82e926ec794901d17c78024a50270940304540a733656f0d60405160405180910390a450600161079d565b6120db8282611bda565b61210e5760405163e2517d3f60e01b81526001600160a01b03821660048201526024810183905260440160405180910390fd5b5050565b60405180610100016040528060006001600160a01b031681526020016060815260200160608152602001606081526020016000151581526020016000815260200160008152602001600081525090565b60006020828403121561217457600080fd5b81356001600160e01b03198116811461218c57600080fd5b9392505050565b80356001600160a01b03811681146121aa57600080fd5b919050565b6000602082840312156121c157600080fd5b61218c82612193565b6000602082840312156121dc57600080fd5b5035919050565b6000815180845260005b81811015612209576020818501810151868301820152016121ed565b506000602082860101526020601f19601f83011685010191505092915050565b600061010060018060a01b0383511684526020830151816020860152612251828601826121e3565b9150506040830151848203604086015261226b82826121e3565b9150506060830151848203606086015261228582826121e3565b915050608083015161229b608086018215159052565b5060a083015160a085015260c083015160c085015260e083015160e08501528091505092915050565b6040815260006122d76040830185612229565b905082151560208301529392505050565b600080604083850312156122fb57600080fd5b8235915061230b60208401612193565b90509250929050565b6020808252825182820181905260009190848201906040850190845b818110156123555783516001600160a01b031683529284019291840191600101612330565b50909695505050505050565b60008060006060848603121561237657600080fd5b8335925061238660208501612193565b915061239460408501612193565b90509250925092565b60008083601f8401126123af57600080fd5b50813567ffffffffffffffff8111156123c757600080fd5b6020830191508360208260051b85010111156123e257600080fd5b9250929050565b600080600080604085870312156123ff57600080fd5b843567ffffffffffffffff8082111561241757600080fd5b6124238883890161239d565b9096509450602087013591508082111561243c57600080fd5b506124498782880161239d565b95989497509550505050565b60008083601f84011261246757600080fd5b50813567ffffffffffffffff81111561247f57600080fd5b6020830191508360208285010111156123e257600080fd5b60008060008060008060008060a0898b0312156124b357600080fd5b6124bc89612193565b9750602089013567ffffffffffffffff808211156124d957600080fd5b6124e58c838d01612455565b909950975060408b01359150808211156124fe57600080fd5b61250a8c838d01612455565b909750955060608b013591508082111561252357600080fd5b506125308b828c01612455565b999c989b50969995989497949560800135949350505050565b6000806040838503121561255c57600080fd5b50508035926020909101359150565b60208152600061218c6020830184612229565b634e487b7160e01b600052604160045260246000fd5b6000602082840312156125a657600080fd5b813567ffffffffffffffff808211156125be57600080fd5b818401915084601f8301126125d257600080fd5b8135818111156125e4576125e461257e565b604051601f8201601f19908116603f0116810190838211818310171561260c5761260c61257e565b8160405282815287602084870101111561262557600080fd5b826020860160208301376000928101602001929092525095945050505050565b600181811c9082168061265957607f821691505b602082108103611ab457634e487b7160e01b600052602260045260246000fd5b634e487b7160e01b600052603260045260246000fd5b634e487b7160e01b600052601160045260246000fd5b6000600182016126b7576126b761268f565b5060010190565b60008184825b858110156126f3576001600160a01b036126dd83612193565b16835260209283019291909101906001016126c4565b509095945050505050565b6020808252810182905260006001600160fb1b0383111561271e57600080fd5b8260051b80856040850137919091016040019392505050565b601f821115610de657600081815260208120601f850160051c8101602086101561275e5750805b601f850160051c820191505b8181101561277d5782815560010161276a565b505050505050565b815167ffffffffffffffff81111561279f5761279f61257e565b6127b3816127ad8454612645565b84612737565b602080601f8311600181146127e857600084156127d05750858301515b600019600386901b1c1916600185901b17855561277d565b600085815260208120601f198616915b82811015612817578886015182559484019460019091019084016127f8565b50858210156128355787850151600019600388901b60f8161c191681555b5050505050600190811b01905550565b81835281816020850137506000828201602090810191909152601f909101601f19169091010190565b6001600160a01b03871681526080602082018190526000906128939083018789612845565b82810360408401526128a6818688612845565b915050826060830152979650505050505050565b6001600160a01b03841681526040602082018190526000906128df9083018486612845565b95945050505050565b6000602082840312156128fa57600080fd5b5051919050565b60808152600061291560808301898b612845565b828103602084015261292881888a612845565b9050828103604084015261293d818688612845565b91505082606083015298975050505050505050565b8082018082111561079d5761079d61268f565b8181038181111561079d5761079d61268f565b808202811582820484141761079d5761079d61268f565b6000602082840312156129a157600080fd5b8151801515811461218c57600080fd5b60208152600061218c60208301846121e356fe920994fc3bfe282f3f20cdccf1b7c5e46c63d963e822d98efff90abd41c12e212ae6a113c0ed5b78a53413ffbb7679881f11145ccfba4fb92e863dfcd5a1d2f3ee244ef9da0b2f89a74b208ea9fe1a639ebdf634027d9e1f092b58c39954fa37c41a06b26ced3a23b7bf835a0918ade784f4055ded86d18305f528f47a726052aa0ec51d0bf03ce5511c9ffc9de2b423d73d1faacd808abf2ac89ccea8a3ecf259a1c48e5837ad7a7f3dcedcbe129bf3249ec4fbf651fd4f5e2600ead39fe2f506fa31d7a92d9fa9a8898ac41d86ee9b13863605a361c85ae5d6010d5de4f280155aaafb6329a2098580462df33ec4b7441b19729b9601c5fc17ae1cf99a8a52a2646970667358221220473eb558ea054b763bd15ae365ba95eb2f9888987943e0bd7773dbe840a1912c64736f6c63430008140033",
  "devdoc": {
    "errors": {
      "AccessControlBadConfirmation()": [
        {
          "details": "The caller of a function is not the expected one. NOTE: Don't confuse with {AccessControlUnauthorizedAccount}."
        }
      ],
      "AccessControlUnauthorizedAccount(address,bytes32)": [
        {
          "details": "The `account` is missing a role."
        }
      ]
    },
    "events": {
      "RoleAdminChanged(bytes32,bytes32,bytes32)": {
        "details": "Emitted when `newAdminRole` is set as ``role``'s admin role, replacing `previousAdminRole` `DEFAULT_ADMIN_ROLE` is the starting admin for all roles, despite {RoleAdminChanged} not being emitted signaling this."
      },
      "RoleGranted(bytes32,address,address)": {
        "details": "Emitted when `account` is granted `role`. `sender` is the account that originated the contract call, an admin role bearer except when using {AccessControl-_setupRole}."
      },
      "RoleRevoked(bytes32,address,address)": {
        "details": "Emitted when `account` is revoked `role`. `sender` is the account that originated the contract call:   - if using `revokeRole`, it is the admin role bearer   - if using `renounceRole`, it is the role bearer (i.e. `account`)"
      }
    },
    "kind": "dev",
    "methods": {
      "bulkGrantRoles(bytes32[],address[])": {
        "details": "Bulk grant roles to accounts",
        "params": {
          "accounts": "The array of accounts to grant roles emits BulkRolesGranted event on successful grant",
          "roles": "The array of roles to grant"
        }
      },
      "checkExpiryRoles(address)": {
        "details": "helper to check expiry of `PUBLIC` role",
        "params": {
          "account": "The account to check for role expiry"
        }
      },
      "claimTemporaryPublicRole(uint256)": {
        "details": "allows users to claim temporary `PUBLIC` role for `durationInHours` hours on their visit to platform",
        "params": {
          "durationInHours": "The duration in hours the user will have the `PUBLIC` role"
        }
      },
      "deRegisterEnterprise(address)": {
        "details": "Deregisters an enterprise from the platformOnly the Super Admin can deregister an enterpriseRevokes the certification and NFT certificate of the enterprise"
      },
      "getRoleAdmin(bytes32)": {
        "details": "Returns the admin role that controls `role`. See {grantRole} and {revokeRole}. To change a role's admin, use {_setRoleAdmin}."
      },
      "grantCertifier(address)": {
        "details": "Functions to grant roles to!",
        "params": {
          "account": "The account to grant the role to"
        }
      },
      "grantRole(bytes32,address)": {
        "details": "Grants `role` to `account`. If `account` had not been already granted `role`, emits a {RoleGranted} event. Requirements: - the caller must have ``role``'s admin role. May emit a {RoleGranted} event."
      },
      "hasAdminRole(address)": {
        "details": "Functions to check if a certain account has the specified role",
        "params": {
          "account": "The account to check "
        }
      },
      "hasRole(bytes32,address)": {
        "details": "Returns `true` if `account` has been granted `role`."
      },
      "isEnterpriseActive(address)": {
        "details": "Checks if an enterprise is active An enterprise is active if it is registered, has a valid certification and has a valid NFT certificateReturns true if the enterprise is active",
        "params": {
          "_enterprise": "The address of the enterprise"
        },
        "returns": {
          "_0": "bool true if the enterprise is active"
        }
      },
      "lisEnterprisesPaginated(uint256,uint256)": {
        "details": "Returns a paginated list of enterprisesThe list is paginated by start and limit",
        "params": {
          "limit": "The number of enterprises to return",
          "start": "The start index of the list"
        },
        "returns": {
          "_0": "address[] The list of enterprises"
        }
      },
      "registerEnterprise(address,string,string,string,uint256)": {
        "details": "Registers a new enterprise to the platformAutomatically creates a certification for the enterpriseAutomatically mints a NFT certificate for the enterprise",
        "params": {
          "_enterpriseAddress": "The address of the enterprise",
          "_industry": "The industry of the enterprise",
          "_initialCertDuration": "The duration of the initial certification",
          "_metadataURI": "The metadata URI(IPFS hash) of the enterprise",
          "_name": "The name of the enterprise"
        }
      },
      "renounceRole(bytes32,address)": {
        "details": "Revokes `role` from the calling account. Roles are often managed via {grantRole} and {revokeRole}: this function's purpose is to provide a mechanism for accounts to lose their privileges if they are compromised (such as when a trusted device is misplaced). If the calling account had been revoked `role`, emits a {RoleRevoked} event. Requirements: - the caller must be `callerConfirmation`. May emit a {RoleRevoked} event."
      },
      "revokeCertifierRole(address)": {
        "details": "Functions to revoke roles",
        "params": {
          "account": "The account to revoke the role from"
        }
      },
      "revokeRole(bytes32,address)": {
        "details": "Revokes `role` from `account`. If `account` had been granted `role`, emits a {RoleRevoked} event. Requirements: - the caller must have ``role``'s admin role. May emit a {RoleRevoked} event."
      },
      "supportsInterface(bytes4)": {
        "details": "See {IERC165-supportsInterface}."
      },
      "transferRole(bytes32,address,address)": {
        "details": "Transfers a role from one account to another",
        "params": {
          "from": "The account to transfer the role from",
          "role": "The role to transfer",
          "to": "The account to transfer the role to"
        }
      },
      "updateEnterpriseMetadata(string)": {
        "details": "Updates the metadata URI of an enterpriseOnly the owner of the enterprise can update the metadata URI",
        "params": {
          "newMetadataURI": "The new metadata URI(IPFS hash) of the enterprise"
        }
      }
    },
    "version": 1
  },
  "userdoc": {
    "kind": "user",
    "methods": {
      "bulkGrantRoles(bytes32[],address[])": {
        "notice": "---------- # Bulk Role Grant(Auto) ------- //"
      },
      "checkExpiryRoles(address)": {
        "notice": "--------- #  Auto-expiry check (Call periodically) ------- //Emits PublicRoleExpired event on expiry"
      },
      "claimTemporaryPublicRole(uint256)": {
        "notice": "----------- #claim temporary public role -------------- //`durationInHours` must be less than 24 hoursEmits PublicRoleGranted event on successful claim "
      },
      "deRegisterEnterprise(address)": {
        "notice": "Emits EnterpriseDeregistered event when an enterprise is deregistered"
      },
      "getEnterprise(address)": {
        "notice": "------ Simple getters approach ---- //"
      },
      "grantCertifier(address)": {
        "notice": "---------# GRANTING ROLES ---------//Emits RoleGranted event on successful grant"
      },
      "hasAdminRole(address)": {
        "notice": "--------- # CHECKING ROLES --------- //"
      },
      "registerEnterprise(address,string,string,string,uint256)": {
        "notice": "Emits EnterpriseRegistered event when a new enterprise is registered"
      },
      "revokeCertifierRole(address)": {
        "notice": "------------- # REVOKING ROLES ------------- //Emits RoleRevoked event on successful revoke"
      },
      "transferRole(bytes32,address,address)": {
        "notice": "-------- # Safe Role Transfer ------- //Emits RoleTransferred event on successful transfer"
      },
      "updateEnterpriseMetadata(string)": {
        "notice": "Emits EnterpriseUpdated event when the metadata URI is updated"
      }
    },
    "version": 1
  },
  "storageLayout": {
    "storage": [
      {
        "astId": 26,
        "contract": "contracts/modules/EnterpriseRegistry.sol:EnterpriseRegistry",
        "label": "_roles",
        "offset": 0,
        "slot": "0",
        "type": "t_mapping(t_bytes32,t_struct(RoleData)21_storage)"
      },
      {
        "astId": 4015,
        "contract": "contracts/modules/EnterpriseRegistry.sol:EnterpriseRegistry",
        "label": "publicRoleExpiry",
        "offset": 0,
        "slot": "1",
        "type": "t_mapping(t_address,t_uint256)"
      },
      {
        "astId": 5039,
        "contract": "contracts/modules/EnterpriseRegistry.sol:EnterpriseRegistry",
        "label": "rolesManager",
        "offset": 0,
        "slot": "2",
        "type": "t_contract(RolesManager)4696"
      },
      {
        "astId": 5042,
        "contract": "contracts/modules/EnterpriseRegistry.sol:EnterpriseRegistry",
        "label": "certificateNFT",
        "offset": 0,
        "slot": "3",
        "type": "t_contract(CertificateNFT)5022"
      },
      {
        "astId": 5045,
        "contract": "contracts/modules/EnterpriseRegistry.sol:EnterpriseRegistry",
        "label": "certAuthority",
        "offset": 0,
        "slot": "4",
        "type": "t_contract(CertificationAuthority)3967"
      },
      {
        "astId": 5050,
        "contract": "contracts/modules/EnterpriseRegistry.sol:EnterpriseRegistry",
        "label": "enterprises",
        "offset": 0,
        "slot": "5",
        "type": "t_mapping(t_address,t_struct(Enterprise)5952_storage)"
      },
      {
        "astId": 5053,
        "contract": "contracts/modules/EnterpriseRegistry.sol:EnterpriseRegistry",
        "label": "allEnterprises",
        "offset": 0,
        "slot": "6",
        "type": "t_array(t_address)dyn_storage"
      }
    ],
    "types": {
      "t_address": {
        "encoding": "inplace",
        "label": "address",
        "numberOfBytes": "20"
      },
      "t_array(t_address)dyn_storage": {
        "base": "t_address",
        "encoding": "dynamic_array",
        "label": "address[]",
        "numberOfBytes": "32"
      },
      "t_bool": {
        "encoding": "inplace",
        "label": "bool",
        "numberOfBytes": "1"
      },
      "t_bytes32": {
        "encoding": "inplace",
        "label": "bytes32",
        "numberOfBytes": "32"
      },
      "t_contract(CertificateNFT)5022": {
        "encoding": "inplace",
        "label": "contract CertificateNFT",
        "numberOfBytes": "20"
      },
      "t_contract(CertificationAuthority)3967": {
        "encoding": "inplace",
        "label": "contract CertificationAuthority",
        "numberOfBytes": "20"
      },
      "t_contract(RolesManager)4696": {
        "encoding": "inplace",
        "label": "contract RolesManager",
        "numberOfBytes": "20"
      },
      "t_mapping(t_address,t_bool)": {
        "encoding": "mapping",
        "key": "t_address",
        "label": "mapping(address => bool)",
        "numberOfBytes": "32",
        "value": "t_bool"
      },
      "t_mapping(t_address,t_struct(Enterprise)5952_storage)": {
        "encoding": "mapping",
        "key": "t_address",
        "label": "mapping(address => struct DataTypes.Enterprise)",
        "numberOfBytes": "32",
        "value": "t_struct(Enterprise)5952_storage"
      },
      "t_mapping(t_address,t_uint256)": {
        "encoding": "mapping",
        "key": "t_address",
        "label": "mapping(address => uint256)",
        "numberOfBytes": "32",
        "value": "t_uint256"
      },
      "t_mapping(t_bytes32,t_struct(RoleData)21_storage)": {
        "encoding": "mapping",
        "key": "t_bytes32",
        "label": "mapping(bytes32 => struct AccessControl.RoleData)",
        "numberOfBytes": "32",
        "value": "t_struct(RoleData)21_storage"
      },
      "t_string_storage": {
        "encoding": "bytes",
        "label": "string",
        "numberOfBytes": "32"
      },
      "t_struct(Enterprise)5952_storage": {
        "encoding": "inplace",
        "label": "struct DataTypes.Enterprise",
        "members": [
          {
            "astId": 5937,
            "contract": "contracts/modules/EnterpriseRegistry.sol:EnterpriseRegistry",
            "label": "enterpriseAddress",
            "offset": 0,
            "slot": "0",
            "type": "t_address"
          },
          {
            "astId": 5939,
            "contract": "contracts/modules/EnterpriseRegistry.sol:EnterpriseRegistry",
            "label": "name",
            "offset": 0,
            "slot": "1",
            "type": "t_string_storage"
          },
          {
            "astId": 5941,
            "contract": "contracts/modules/EnterpriseRegistry.sol:EnterpriseRegistry",
            "label": "industry",
            "offset": 0,
            "slot": "2",
            "type": "t_string_storage"
          },
          {
            "astId": 5943,
            "contract": "contracts/modules/EnterpriseRegistry.sol:EnterpriseRegistry",
            "label": "metadataURI",
            "offset": 0,
            "slot": "3",
            "type": "t_string_storage"
          },
          {
            "astId": 5945,
            "contract": "contracts/modules/EnterpriseRegistry.sol:EnterpriseRegistry",
            "label": "isRegistered",
            "offset": 0,
            "slot": "4",
            "type": "t_bool"
          },
          {
            "astId": 5947,
            "contract": "contracts/modules/EnterpriseRegistry.sol:EnterpriseRegistry",
            "label": "registrationDate",
            "offset": 0,
            "slot": "5",
            "type": "t_uint256"
          },
          {
            "astId": 5949,
            "contract": "contracts/modules/EnterpriseRegistry.sol:EnterpriseRegistry",
            "label": "lastUpdated",
            "offset": 0,
            "slot": "6",
            "type": "t_uint256"
          },
          {
            "astId": 5951,
            "contract": "contracts/modules/EnterpriseRegistry.sol:EnterpriseRegistry",
            "label": "certificateId",
            "offset": 0,
            "slot": "7",
            "type": "t_uint256"
          }
        ],
        "numberOfBytes": "256"
      },
      "t_struct(RoleData)21_storage": {
        "encoding": "inplace",
        "label": "struct AccessControl.RoleData",
        "members": [
          {
            "astId": 18,
            "contract": "contracts/modules/EnterpriseRegistry.sol:EnterpriseRegistry",
            "label": "hasRole",
            "offset": 0,
            "slot": "0",
            "type": "t_mapping(t_address,t_bool)"
          },
          {
            "astId": 20,
            "contract": "contracts/modules/EnterpriseRegistry.sol:EnterpriseRegistry",
            "label": "adminRole",
            "offset": 0,
            "slot": "1",
            "type": "t_bytes32"
          }
        ],
        "numberOfBytes": "64"
      },
      "t_uint256": {
        "encoding": "inplace",
        "label": "uint256",
        "numberOfBytes": "32"
      }
    }
  }
}