{
  "_format": "hh-sol-artifact-1",
  "contractName": "FinesEngine",
  "sourceName": "contracts/core/FinesEngine.sol",
  "abi": [
    {
      "inputs": [
        {
          "internalType": "address",
          "name": "_treasury",
          "type": "address"
        }
      ],
      "stateMutability": "nonpayable",
      "type": "constructor"
    },
    {
      "anonymous": false,
      "inputs": [
        {
          "indexed": true,
          "internalType": "address",
          "name": "enterprise",
          "type": "address"
        },
        {
          "indexed": false,
          "internalType": "address",
          "name": "token",
          "type": "address"
        },
        {
          "indexed": false,
          "internalType": "uint256",
          "name": "amount",
          "type": "uint256"
        }
      ],
      "name": "FineImposedERC20",
      "type": "event"
    },
    {
      "anonymous": false,
      "inputs": [
        {
          "indexed": true,
          "internalType": "address",
          "name": "enterprise",
          "type": "address"
        },
        {
          "indexed": false,
          "internalType": "uint256",
          "name": "amount",
          "type": "uint256"
        }
      ],
      "name": "FineImposedETH",
      "type": "event"
    },
    {
      "anonymous": false,
      "inputs": [
        {
          "indexed": true,
          "internalType": "address",
          "name": "enterprise",
          "type": "address"
        },
        {
          "indexed": false,
          "internalType": "address",
          "name": "token",
          "type": "address"
        },
        {
          "indexed": false,
          "internalType": "uint256",
          "name": "amount",
          "type": "uint256"
        }
      ],
      "name": "FinePaidERC20",
      "type": "event"
    },
    {
      "anonymous": false,
      "inputs": [
        {
          "indexed": true,
          "internalType": "address",
          "name": "enterprise",
          "type": "address"
        },
        {
          "indexed": false,
          "internalType": "uint256",
          "name": "amount",
          "type": "uint256"
        }
      ],
      "name": "FinePaidETH",
      "type": "event"
    },
    {
      "inputs": [],
      "name": "admin",
      "outputs": [
        {
          "internalType": "address",
          "name": "",
          "type": "address"
        }
      ],
      "stateMutability": "view",
      "type": "function"
    },
    {
      "inputs": [
        {
          "internalType": "address",
          "name": "",
          "type": "address"
        },
        {
          "internalType": "address",
          "name": "",
          "type": "address"
        }
      ],
      "name": "finesERC20",
      "outputs": [
        {
          "internalType": "uint256",
          "name": "",
          "type": "uint256"
        }
      ],
      "stateMutability": "view",
      "type": "function"
    },
    {
      "inputs": [
        {
          "internalType": "address",
          "name": "",
          "type": "address"
        }
      ],
      "name": "finesETH",
      "outputs": [
        {
          "internalType": "uint256",
          "name": "",
          "type": "uint256"
        }
      ],
      "stateMutability": "view",
      "type": "function"
    },
    {
      "inputs": [
        {
          "internalType": "address",
          "name": "_enterprise",
          "type": "address"
        },
        {
          "internalType": "string",
          "name": "_tier",
          "type": "string"
        }
      ],
      "name": "imposeFineETH",
      "outputs": [],
      "stateMutability": "nonpayable",
      "type": "function"
    },
    {
      "inputs": [
        {
          "internalType": "address",
          "name": "_token",
          "type": "address"
        }
      ],
      "name": "payFineERC20",
      "outputs": [],
      "stateMutability": "nonpayable",
      "type": "function"
    },
    {
      "inputs": [],
      "name": "payFineETH",
      "outputs": [],
      "stateMutability": "payable",
      "type": "function"
    },
    {
      "inputs": [
        {
          "internalType": "string",
          "name": "",
          "type": "string"
        }
      ],
      "name": "penaltyTiers",
      "outputs": [
        {
          "internalType": "uint256",
          "name": "",
          "type": "uint256"
        }
      ],
      "stateMutability": "view",
      "type": "function"
    },
    {
      "inputs": [],
      "name": "treasury",
      "outputs": [
        {
          "internalType": "address",
          "name": "",
          "type": "address"
        }
      ],
      "stateMutability": "view",
      "type": "function"
    },
    {
      "inputs": [
        {
          "internalType": "address",
          "name": "_token",
          "type": "address"
        }
      ],
      "name": "withdrawERC20",
      "outputs": [],
      "stateMutability": "nonpayable",
      "type": "function"
    },
    {
      "inputs": [],
      "name": "withdrawETH",
      "outputs": [],
      "stateMutability": "nonpayable",
      "type": "function"
    }
  ],
  "bytecode": "0x608060405234801561001057600080fd5b50604051610a29380380610a2983398101604081905261002f916100bc565b60008054336001600160a01b031991821617909155600180549091166001600160a01b0383161790556040516436b4b737b960d91b815268056bc75e2d6310000090600490600501908152604051908190036020018120919091556436b0b537b960d91b8152683635c9adc5dea000009060049060050190815260405190819003602001902055506100ec565b6000602082840312156100ce57600080fd5b81516001600160a01b03811681146100e557600080fd5b9392505050565b61092e806100fb6000396000f3fe6080604052600436106100915760003560e01c8063e086e5ec11610059578063e086e5ec14610158578063e30ab01a1461016d578063e4a36636146101a5578063f4f3b200146101dd578063f851a440146101fd57600080fd5b8063413edd461461009657806350977b09146100a057806361d027b3146100c0578063b10b4b8e146100fd578063dd43bf681461011d575b600080fd5b61009e61021d565b005b3480156100ac57600080fd5b5061009e6100bb36600461075e565b610316565b3480156100cc57600080fd5b506001546100e0906001600160a01b031681565b6040516001600160a01b0390911681526020015b60405180910390f35b34801561010957600080fd5b5061009e6101183660046107ac565b6103e0565b34801561012957600080fd5b5061014a6101383660046107ac565b60026020526000908152604090205481565b6040519081526020016100f4565b34801561016457600080fd5b5061009e610520565b34801561017957600080fd5b5061014a6101883660046107ce565b805160208183018101805160048252928201919093012091525481565b3480156101b157600080fd5b5061014a6101c036600461080b565b600360209081526000928352604080842090915290825290205481565b3480156101e957600080fd5b5061009e6101f83660046107ac565b610586565b34801561020957600080fd5b506000546100e0906001600160a01b031681565b336000908152600260205260409020546102715760405162461bcd60e51b815260206004820152601060248201526f4e6f2066696e65732070656e64696e6760801b60448201526064015b60405180910390fd5b336000908152600260205260409020543410156102c85760405162461bcd60e51b8152602060048201526015602482015274125b9cdd59999a58da595b9d081c185e5b595b5b9d605a1b6044820152606401610268565b3360008181526002602052604080822091909155517f703baed5ddd4ed2ed37c2b28b09cfed39063f27d9818b086145125a838ce50f69061030c9034815260200190565b60405180910390a2565b6000546001600160a01b031633146103405760405162461bcd60e51b81526004016102689061083e565b60006004826040516103529190610867565b90815260200160405180910390205490508060026000856001600160a01b03166001600160a01b0316815260200190815260200160002060008282546103989190610896565b90915550506040518181526001600160a01b038416907f723e5b24ab75bab64a13461868442b72c63590bd2e1c99e8b34c2fe3d741d61f9060200160405180910390a2505050565b3360009081526003602090815260408083206001600160a01b0385168452909152902054806104455760405162461bcd60e51b81526020600482015260116024820152704e6f2066696e65732070656e64696e672160781b6044820152606401610268565b6040516323b872dd60e01b8152336004820152306024820152604481018290526001600160a01b038316906323b872dd906064016020604051808303816000875af1158015610498573d6000803e3d6000fd5b505050506040513d601f19601f820116820180604052508101906104bc91906108bd565b503360008181526003602090815260408083206001600160a01b0387168085529083528184209390935580519283529082018490527f657870f986f5e229eee6db93ebd6023c86924b022fbe241343c82c62ea4afd1c910160405180910390a25050565b6000546001600160a01b0316331461054a5760405162461bcd60e51b81526004016102689061083e565b6001546040516001600160a01b03909116904780156108fc02916000818181858888f19350505050158015610583573d6000803e3d6000fd5b50565b6000546001600160a01b031633146105b05760405162461bcd60e51b81526004016102689061083e565b6001546040516370a0823160e01b815230600482015282916001600160a01b038084169263a9059cbb92919091169083906370a0823190602401602060405180830381865afa158015610607573d6000803e3d6000fd5b505050506040513d601f19601f8201168201806040525081019061062b91906108df565b6040516001600160e01b031960e085901b1681526001600160a01b03909216600483015260248201526044016020604051808303816000875af1158015610676573d6000803e3d6000fd5b505050506040513d601f19601f8201168201806040525081019061069a91906108bd565b505050565b80356001600160a01b03811681146106b657600080fd5b919050565b634e487b7160e01b600052604160045260246000fd5b600082601f8301126106e257600080fd5b813567ffffffffffffffff808211156106fd576106fd6106bb565b604051601f8301601f19908116603f01168101908282118183101715610725576107256106bb565b8160405283815286602085880101111561073e57600080fd5b836020870160208301376000602085830101528094505050505092915050565b6000806040838503121561077157600080fd5b61077a8361069f565b9150602083013567ffffffffffffffff81111561079657600080fd5b6107a2858286016106d1565b9150509250929050565b6000602082840312156107be57600080fd5b6107c78261069f565b9392505050565b6000602082840312156107e057600080fd5b813567ffffffffffffffff8111156107f757600080fd5b610803848285016106d1565b949350505050565b6000806040838503121561081e57600080fd5b6108278361069f565b91506108356020840161069f565b90509250929050565b6020808252600f908201526e4e6f7420417574686f72697a65642160881b604082015260600190565b6000825160005b81811015610888576020818601810151858301520161086e565b506000920191825250919050565b808201808211156108b757634e487b7160e01b600052601160045260246000fd5b92915050565b6000602082840312156108cf57600080fd5b815180151581146107c757600080fd5b6000602082840312156108f157600080fd5b505191905056fea264697066735822122040bdba7fd60c4d0c6551186e2653ac33888f880be266eaadd9f890023ae0817564736f6c63430008140033",
  "linkReferences": {},
  "deployedLinkReferences": {}
}