{
  "_format": "hh-sol-artifact-1",
  "contractName": "RolesManager",
  "sourceName": "contracts/core/RolesManager.sol",
  "abi": [
    {
      "inputs": [],
      "stateMutability": "nonpayable",
      "type": "constructor"
    },
    {
      "inputs": [],
      "name": "AccessControlBadConfirmation",
      "type": "error"
    },
    {
      "inputs": [
        {
          "internalType": "address",
          "name": "account",
          "type": "address"
        },
        {
          "internalType": "bytes32",
          "name": "neededRole",
          "type": "bytes32"
        }
      ],
      "name": "AccessControlUnauthorizedAccount",
      "type": "error"
    },
    {
      "inputs": [],
      "name": "AuditorOversight__AppealWindowClosed",
      "type": "error"
    },
    {
      "inputs": [],
      "name": "AuditorOversight__CaseNotPending",
      "type": "error"
    },
    {
      "inputs": [],
      "name": "AuditorOversight__NotAuthorizedEnterpriseOwner",
      "type": "error"
    },
    {
      "inputs": [],
      "name": "CertificateNFT__CertificateDoesNotExist",
      "type": "error"
    },
    {
      "inputs": [],
      "name": "CertificateNFT__EnterpriseAlreadyCertified",
      "type": "error"
    },
    {
      "inputs": [],
      "name": "CertificationAuthority__CertificationNotExpiredYet",
      "type": "error"
    },
    {
      "inputs": [],
      "name": "CertificationAuthority__EnterpriseAlreadyCertified",
      "type": "error"
    },
    {
      "inputs": [],
      "name": "CertificationAuthority__EnterpriseNotCertifiedYet",
      "type": "error"
    },
    {
      "inputs": [],
      "name": "EnterpriseRegistry__EnterpriseAlreadyExists",
      "type": "error"
    },
    {
      "inputs": [],
      "name": "EnterpriseRegistry__EnterpriseDoesNotExist",
      "type": "error"
    },
    {
      "inputs": [],
      "name": "EnterpriseRegistry__InvalidStart",
      "type": "error"
    },
    {
      "inputs": [],
      "name": "InspectionManager__InspectionPeriodExpired",
      "type": "error"
    },
    {
      "inputs": [],
      "name": "InspectionManager__InspectorAlreadyAssigned",
      "type": "error"
    },
    {
      "inputs": [],
      "name": "InspectionManager__InvalidReportIndex",
      "type": "error"
    },
    {
      "inputs": [],
      "name": "InspectionManager__NoReportsAssociatedWithEnterprise",
      "type": "error"
    },
    {
      "inputs": [],
      "name": "InspectionManager__NotAssignedToEnterprise",
      "type": "error"
    },
    {
      "inputs": [],
      "name": "InspectionManager__ReportAlreadyFlagged",
      "type": "error"
    },
    {
      "inputs": [],
      "name": "InvalidAddress",
      "type": "error"
    },
    {
      "inputs": [],
      "name": "RolesManager__AlreadyHasRole",
      "type": "error"
    },
    {
      "inputs": [],
      "name": "RolesManager__ArrayLengthMismatch",
      "type": "error"
    },
    {
      "inputs": [],
      "name": "RolesManager__EmptyArray",
      "type": "error"
    },
    {
      "inputs": [],
      "name": "RolesManager__InvalidDuration",
      "type": "error"
    },
    {
      "inputs": [],
      "name": "RolesManager__NotAuthorizedAuditor",
      "type": "error"
    },
    {
      "inputs": [],
      "name": "RolesManager__NotAuthorizedCertificateFactory",
      "type": "error"
    },
    {
      "inputs": [],
      "name": "RolesManager__NotAuthorizedCertifier",
      "type": "error"
    },
    {
      "inputs": [],
      "name": "RolesManager__NotAuthorizedEnterprise",
      "type": "error"
    },
    {
      "inputs": [],
      "name": "RolesManager__NotAuthorizedInspector",
      "type": "error"
    },
    {
      "inputs": [],
      "name": "RolesManager__NotAuthorizedPublicUser",
      "type": "error"
    },
    {
      "inputs": [],
      "name": "RolesManager__RoleDoesNotExist",
      "type": "error"
    },
    {
      "inputs": [],
      "name": "RolesManager__UnauthorizedToPerformAction",
      "type": "error"
    },
    {
      "anonymous": false,
      "inputs": [
        {
          "indexed": false,
          "internalType": "bytes32[]",
          "name": "roles",
          "type": "bytes32[]"
        },
        {
          "indexed": true,
          "internalType": "address[]",
          "name": "accounts",
          "type": "address[]"
        }
      ],
      "name": "BulkRolesGranted",
      "type": "event"
    },
    {
      "anonymous": false,
      "inputs": [
        {
          "indexed": true,
          "internalType": "address",
          "name": "user",
          "type": "address"
        }
      ],
      "name": "PublicRoleExpired",
      "type": "event"
    },
    {
      "anonymous": false,
      "inputs": [
        {
          "indexed": true,
          "internalType": "address",
          "name": "user",
          "type": "address"
        },
        {
          "indexed": false,
          "internalType": "uint256",
          "name": "duration",
          "type": "uint256"
        }
      ],
      "name": "PublicRoleGranted",
      "type": "event"
    },
    {
      "anonymous": false,
      "inputs": [
        {
          "indexed": true,
          "internalType": "bytes32",
          "name": "role",
          "type": "bytes32"
        },
        {
          "indexed": true,
          "internalType": "bytes32",
          "name": "previousAdminRole",
          "type": "bytes32"
        },
        {
          "indexed": true,
          "internalType": "bytes32",
          "name": "newAdminRole",
          "type": "bytes32"
        }
      ],
      "name": "RoleAdminChanged",
      "type": "event"
    },
    {
      "anonymous": false,
      "inputs": [
        {
          "indexed": true,
          "internalType": "bytes32",
          "name": "role",
          "type": "bytes32"
        },
        {
          "indexed": true,
          "internalType": "address",
          "name": "account",
          "type": "address"
        },
        {
          "indexed": true,
          "internalType": "address",
          "name": "sender",
          "type": "address"
        }
      ],
      "name": "RoleGranted",
      "type": "event"
    },
    {
      "anonymous": false,
      "inputs": [
        {
          "indexed": true,
          "internalType": "bytes32",
          "name": "role",
          "type": "bytes32"
        },
        {
          "indexed": true,
          "internalType": "address",
          "name": "account",
          "type": "address"
        }
      ],
      "name": "RoleGranted",
      "type": "event"
    },
    {
      "anonymous": false,
      "inputs": [
        {
          "indexed": true,
          "internalType": "bytes32",
          "name": "role",
          "type": "bytes32"
        },
        {
          "indexed": true,
          "internalType": "address",
          "name": "account",
          "type": "address"
        },
        {
          "indexed": true,
          "internalType": "address",
          "name": "sender",
          "type": "address"
        }
      ],
      "name": "RoleRevoked",
      "type": "event"
    },
    {
      "anonymous": false,
      "inputs": [
        {
          "indexed": true,
          "internalType": "bytes32",
          "name": "role",
          "type": "bytes32"
        },
        {
          "indexed": true,
          "internalType": "address",
          "name": "account",
          "type": "address"
        }
      ],
      "name": "RoleRevoked",
      "type": "event"
    },
    {
      "anonymous": false,
      "inputs": [
        {
          "indexed": true,
          "internalType": "bytes32",
          "name": "role",
          "type": "bytes32"
        },
        {
          "indexed": false,
          "internalType": "address",
          "name": "from",
          "type": "address"
        },
        {
          "indexed": false,
          "internalType": "address",
          "name": "to",
          "type": "address"
        }
      ],
      "name": "RoleTransferred",
      "type": "event"
    },
    {
      "inputs": [],
      "name": "AUDITOR_ROLE",
      "outputs": [
        {
          "internalType": "bytes32",
          "name": "",
          "type": "bytes32"
        }
      ],
      "stateMutability": "view",
      "type": "function"
    },
    {
      "inputs": [],
      "name": "CERTIFICATE_FACTORY_ROLE",
      "outputs": [
        {
          "internalType": "bytes32",
          "name": "",
          "type": "bytes32"
        }
      ],
      "stateMutability": "view",
      "type": "function"
    },
    {
      "inputs": [],
      "name": "CERTIFIER_ROLE",
      "outputs": [
        {
          "internalType": "bytes32",
          "name": "",
          "type": "bytes32"
        }
      ],
      "stateMutability": "view",
      "type": "function"
    },
    {
      "inputs": [],
      "name": "DEFAULT_ADMIN_ROLE",
      "outputs": [
        {
          "internalType": "bytes32",
          "name": "",
          "type": "bytes32"
        }
      ],
      "stateMutability": "view",
      "type": "function"
    },
    {
      "inputs": [],
      "name": "ENTERPRISE_ROLE",
      "outputs": [
        {
          "internalType": "bytes32",
          "name": "",
          "type": "bytes32"
        }
      ],
      "stateMutability": "view",
      "type": "function"
    },
    {
      "inputs": [],
      "name": "INSPECTOR_ROLE",
      "outputs": [
        {
          "internalType": "bytes32",
          "name": "",
          "type": "bytes32"
        }
      ],
      "stateMutability": "view",
      "type": "function"
    },
    {
      "inputs": [],
      "name": "PUBLIC_ROLE",
      "outputs": [
        {
          "internalType": "bytes32",
          "name": "",
          "type": "bytes32"
        }
      ],
      "stateMutability": "view",
      "type": "function"
    },
    {
      "inputs": [
        {
          "internalType": "bytes32[]",
          "name": "roles",
          "type": "bytes32[]"
        },
        {
          "internalType": "address[]",
          "name": "accounts",
          "type": "address[]"
        }
      ],
      "name": "bulkGrantRoles",
      "outputs": [],
      "stateMutability": "nonpayable",
      "type": "function"
    },
    {
      "inputs": [
        {
          "internalType": "address",
          "name": "account",
          "type": "address"
        }
      ],
      "name": "checkExpiryRoles",
      "outputs": [],
      "stateMutability": "nonpayable",
      "type": "function"
    },
    {
      "inputs": [
        {
          "internalType": "uint256",
          "name": "durationInHours",
          "type": "uint256"
        }
      ],
      "name": "claimTemporaryPublicRole",
      "outputs": [],
      "stateMutability": "nonpayable",
      "type": "function"
    },
    {
      "inputs": [
        {
          "internalType": "address",
          "name": "account",
          "type": "address"
        }
      ],
      "name": "getActiveRoles",
      "outputs": [
        {
          "internalType": "bool",
          "name": "isAdmin",
          "type": "bool"
        },
        {
          "internalType": "bool",
          "name": "isCertifier",
          "type": "bool"
        },
        {
          "internalType": "bool",
          "name": "isInspector",
          "type": "bool"
        },
        {
          "internalType": "bool",
          "name": "isAuditor",
          "type": "bool"
        },
        {
          "internalType": "bool",
          "name": "isEnterprise",
          "type": "bool"
        },
        {
          "internalType": "bool",
          "name": "isCertificateFactory",
          "type": "bool"
        },
        {
          "internalType": "bool",
          "name": "isPublic",
          "type": "bool"
        }
      ],
      "stateMutability": "view",
      "type": "function"
    },
    {
      "inputs": [],
      "name": "getMaxPublicRoleDuration",
      "outputs": [
        {
          "internalType": "uint256",
          "name": "",
          "type": "uint256"
        }
      ],
      "stateMutability": "pure",
      "type": "function"
    },
    {
      "inputs": [
        {
          "internalType": "bytes32",
          "name": "role",
          "type": "bytes32"
        }
      ],
      "name": "getRoleAdmin",
      "outputs": [
        {
          "internalType": "bytes32",
          "name": "",
          "type": "bytes32"
        }
      ],
      "stateMutability": "view",
      "type": "function"
    },
    {
      "inputs": [
        {
          "internalType": "address",
          "name": "account",
          "type": "address"
        }
      ],
      "name": "grantAuditor",
      "outputs": [],
      "stateMutability": "nonpayable",
      "type": "function"
    },
    {
      "inputs": [
        {
          "internalType": "address",
          "name": "account",
          "type": "address"
        }
      ],
      "name": "grantCertificateFactory",
      "outputs": [],
      "stateMutability": "nonpayable",
      "type": "function"
    },
    {
      "inputs": [
        {
          "internalType": "address",
          "name": "account",
          "type": "address"
        }
      ],
      "name": "grantCertifier",
      "outputs": [],
      "stateMutability": "nonpayable",
      "type": "function"
    },
    {
      "inputs": [
        {
          "internalType": "address",
          "name": "account",
          "type": "address"
        }
      ],
      "name": "grantEnterprise",
      "outputs": [],
      "stateMutability": "nonpayable",
      "type": "function"
    },
    {
      "inputs": [
        {
          "internalType": "address",
          "name": "account",
          "type": "address"
        }
      ],
      "name": "grantInspector",
      "outputs": [],
      "stateMutability": "nonpayable",
      "type": "function"
    },
    {
      "inputs": [
        {
          "internalType": "address",
          "name": "account",
          "type": "address"
        }
      ],
      "name": "grantPublicRole",
      "outputs": [],
      "stateMutability": "nonpayable",
      "type": "function"
    },
    {
      "inputs": [
        {
          "internalType": "bytes32",
          "name": "role",
          "type": "bytes32"
        },
        {
          "internalType": "address",
          "name": "account",
          "type": "address"
        }
      ],
      "name": "grantRole",
      "outputs": [],
      "stateMutability": "nonpayable",
      "type": "function"
    },
    {
      "inputs": [
        {
          "internalType": "address",
          "name": "account",
          "type": "address"
        }
      ],
      "name": "hasAdminRole",
      "outputs": [
        {
          "internalType": "bool",
          "name": "",
          "type": "bool"
        }
      ],
      "stateMutability": "view",
      "type": "function"
    },
    {
      "inputs": [
        {
          "internalType": "address",
          "name": "account",
          "type": "address"
        }
      ],
      "name": "hasAuditorRole",
      "outputs": [
        {
          "internalType": "bool",
          "name": "",
          "type": "bool"
        }
      ],
      "stateMutability": "view",
      "type": "function"
    },
    {
      "inputs": [
        {
          "internalType": "address",
          "name": "account",
          "type": "address"
        }
      ],
      "name": "hasCertificateFactoryRole",
      "outputs": [
        {
          "internalType": "bool",
          "name": "",
          "type": "bool"
        }
      ],
      "stateMutability": "view",
      "type": "function"
    },
    {
      "inputs": [
        {
          "internalType": "address",
          "name": "account",
          "type": "address"
        }
      ],
      "name": "hasCertifierRole",
      "outputs": [
        {
          "internalType": "bool",
          "name": "",
          "type": "bool"
        }
      ],
      "stateMutability": "view",
      "type": "function"
    },
    {
      "inputs": [
        {
          "internalType": "address",
          "name": "account",
          "type": "address"
        }
      ],
      "name": "hasEnterpriseRole",
      "outputs": [
        {
          "internalType": "bool",
          "name": "",
          "type": "bool"
        }
      ],
      "stateMutability": "view",
      "type": "function"
    },
    {
      "inputs": [
        {
          "internalType": "address",
          "name": "account",
          "type": "address"
        }
      ],
      "name": "hasInspectorRole",
      "outputs": [
        {
          "internalType": "bool",
          "name": "",
          "type": "bool"
        }
      ],
      "stateMutability": "view",
      "type": "function"
    },
    {
      "inputs": [
        {
          "internalType": "address",
          "name": "account",
          "type": "address"
        }
      ],
      "name": "hasPublicRole",
      "outputs": [
        {
          "internalType": "bool",
          "name": "",
          "type": "bool"
        }
      ],
      "stateMutability": "view",
      "type": "function"
    },
    {
      "inputs": [
        {
          "internalType": "bytes32",
          "name": "role",
          "type": "bytes32"
        },
        {
          "internalType": "address",
          "name": "account",
          "type": "address"
        }
      ],
      "name": "hasRole",
      "outputs": [
        {
          "internalType": "bool",
          "name": "",
          "type": "bool"
        }
      ],
      "stateMutability": "view",
      "type": "function"
    },
    {
      "inputs": [
        {
          "internalType": "address",
          "name": "",
          "type": "address"
        }
      ],
      "name": "publicRoleExpiry",
      "outputs": [
        {
          "internalType": "uint256",
          "name": "",
          "type": "uint256"
        }
      ],
      "stateMutability": "view",
      "type": "function"
    },
    {
      "inputs": [
        {
          "internalType": "bytes32",
          "name": "role",
          "type": "bytes32"
        },
        {
          "internalType": "address",
          "name": "callerConfirmation",
          "type": "address"
        }
      ],
      "name": "renounceRole",
      "outputs": [],
      "stateMutability": "nonpayable",
      "type": "function"
    },
    {
      "inputs": [
        {
          "internalType": "address",
          "name": "account",
          "type": "address"
        }
      ],
      "name": "revokeAuditorRole",
      "outputs": [],
      "stateMutability": "nonpayable",
      "type": "function"
    },
    {
      "inputs": [
        {
          "internalType": "address",
          "name": "account",
          "type": "address"
        }
      ],
      "name": "revokeCertificateFactoryRole",
      "outputs": [],
      "stateMutability": "nonpayable",
      "type": "function"
    },
    {
      "inputs": [
        {
          "internalType": "address",
          "name": "account",
          "type": "address"
        }
      ],
      "name": "revokeCertifierRole",
      "outputs": [],
      "stateMutability": "nonpayable",
      "type": "function"
    },
    {
      "inputs": [
        {
          "internalType": "address",
          "name": "account",
          "type": "address"
        }
      ],
      "name": "revokeEnterpriseRole",
      "outputs": [],
      "stateMutability": "nonpayable",
      "type": "function"
    },
    {
      "inputs": [
        {
          "internalType": "address",
          "name": "account",
          "type": "address"
        }
      ],
      "name": "revokeInspectorRole",
      "outputs": [],
      "stateMutability": "nonpayable",
      "type": "function"
    },
    {
      "inputs": [
        {
          "internalType": "address",
          "name": "account",
          "type": "address"
        }
      ],
      "name": "revokePublicRole",
      "outputs": [],
      "stateMutability": "nonpayable",
      "type": "function"
    },
    {
      "inputs": [
        {
          "internalType": "bytes32",
          "name": "role",
          "type": "bytes32"
        },
        {
          "internalType": "address",
          "name": "account",
          "type": "address"
        }
      ],
      "name": "revokeRole",
      "outputs": [],
      "stateMutability": "nonpayable",
      "type": "function"
    },
    {
      "inputs": [
        {
          "internalType": "bytes4",
          "name": "interfaceId",
          "type": "bytes4"
        }
      ],
      "name": "supportsInterface",
      "outputs": [
        {
          "internalType": "bool",
          "name": "",
          "type": "bool"
        }
      ],
      "stateMutability": "view",
      "type": "function"
    },
    {
      "inputs": [
        {
          "internalType": "bytes32",
          "name": "role",
          "type": "bytes32"
        },
        {
          "internalType": "address",
          "name": "from",
          "type": "address"
        },
        {
          "internalType": "address",
          "name": "to",
          "type": "address"
        }
      ],
      "name": "transferRole",
      "outputs": [],
      "stateMutability": "nonpayable",
      "type": "function"
    }
  ],
  "bytecode": "0x608060405234801561001057600080fd5b5061001c60003361004b565b6100467fc41a06b26ced3a23b7bf835a0918ade784f4055ded86d18305f528f47a7260523361004b565b610106565b610055828261005a565b505050565b6000828152602081815260408083206001600160a01b038516845290915281205460ff166100fc576000838152602081815260408083206001600160a01b03861684529091529020805460ff191660011790556100b43390565b6001600160a01b0316826001600160a01b0316847f2f8788117e7eff1d82e926ec794901d17c78024a50270940304540a733656f0d60405160405180910390a4506001610100565b5060005b92915050565b6115e180620001166000396000f3fe608060405234801561001057600080fd5b506004361061023d5760003560e01c80637780e9c11161013b578063b0614db3116100b8578063d547741f1161007c578063d547741f1461053e578063e3a3c52214610551578063e55b4f9314610566578063f53f5e1e14610579578063fc8102861461058c57600080fd5b8063b0614db31461049d578063b5617ef7146104f1578063b8ad415e14610511578063bd7ca7ba14610518578063c395fcb31461052b57600080fd5b806391d14854116100ff57806391d1485414610449578063a1f341631461045c578063a217fddf1461046f578063aa52617c14610477578063abaa536f1461048a57600080fd5b80637780e9c1146103e8578063784fee0e146103fb5780637bff0975146104105780637e5effa4146104235780638850845f1461043657600080fd5b80633e251518116101c9578063603765281161018d578063603765281461038357806361462f0e1461039657806368dd17a5146103a957806369d0b517146103be5780636e1d616e146103d357600080fd5b80633e25151814610324578063456f19fc1461033757806352f84b721461034a57806357c033711461035d5780635cb87d261461037057600080fd5b806325d5e87e1161021057806325d5e87e146102c3578063261191b7146102d65780632f2ff15d146102e957806336568abe146102fc5780633ca7c02a1461030f57600080fd5b806301ffc9a7146102425780630443cd2a1461026a5780631e223b2a1461027f578063248a9ca314610292575b600080fd5b610255610250366004611222565b61059f565b60405190151581526020015b60405180910390f35b61027d61027836600461126f565b6105d6565b005b61027d61028d36600461126f565b610658565b6102b56102a036600461128a565b60009081526020819052604090206001015490565b604051908152602001610261565b61027d6102d136600461126f565b6106da565b61027d6102e436600461126f565b61075c565b61027d6102f73660046112a3565b6107de565b61027d61030a3660046112a3565b610809565b6102b56000805160206114ec83398151915281565b61027d61033236600461126f565b610841565b61027d61034536600461126f565b6108c3565b61025561035836600461126f565b610945565b61027d61036b36600461126f565b61095f565b61027d61037e3660046112cf565b6109e1565b61027d61039136600461126f565b610a74565b61027d6103a4366004611357565b610af6565b6102b56000805160206114ac83398151915281565b6102b560008051602061150c83398151915281565b6102b560008051602061154c83398151915281565b61027d6103f636600461128a565b610c09565b6102b560008051602061152c83398151915281565b61025561041e36600461126f565b610cf6565b61027d61043136600461126f565b610d10565b61025561044436600461126f565b610d92565b6102556104573660046112a3565b610da8565b61025561046a36600461126f565b610dd1565b6102b5600081565b61027d61048536600461126f565b610deb565b61025561049836600461126f565b610e6d565b6104b06104ab36600461126f565b610e87565b60408051971515885295151560208801529315159486019490945290151560608501521515608084015290151560a0830152151560c082015260e001610261565b6102b56104ff36600461126f565b60016020526000908152604090205481565b60186102b5565b61027d61052636600461126f565b610f40565b61025561053936600461126f565b610f8b565b61027d61054c3660046112a3565b610f97565b6102b560008051602061156c83398151915281565b61027d61057436600461126f565b610fbc565b61025561058736600461126f565b61103e565b61027d61059a36600461126f565b611058565b60006001600160e01b03198216637965db0b60e01b14806105d057506301ffc9a760e01b6001600160e01b03198316145b92915050565b806001600160a01b0381166105fe5760405163e6c4247b60e01b815260040160405180910390fd5b6000610609816110da565b6106216000805160206114ec83398151915284610f97565b6040516001600160a01b038416906000805160206114ec8339815191529060008051602061158c83398151915290600090a3505050565b806001600160a01b0381166106805760405163e6c4247b60e01b815260040160405180910390fd5b600061068b816110da565b6106a36000805160206114ac833981519152846107de565b6040516001600160a01b038416906000805160206114ac833981519152906000805160206114cc83398151915290600090a3505050565b6106e38161103e565b801561070657506001600160a01b03811660009081526001602052604090205442115b15610759576107236000805160206114ec833981519152826110e4565b506040516001600160a01b038216907fa6f32bcbc7de829d50e1c9cbc1c5b4dafb4c7a0b8329757aee62a9b394d71c3b90600090a25b50565b806001600160a01b0381166107845760405163e6c4247b60e01b815260040160405180910390fd5b600061078f816110da565b6107a760008051602061152c83398151915284610f97565b6040516001600160a01b0384169060008051602061152c8339815191529060008051602061158c83398151915290600090a3505050565b6000828152602081905260409020600101546107f9816110da565b6108038383611157565b50505050565b6001600160a01b03811633146108325760405163334bd91960e11b815260040160405180910390fd5b61083c82826110e4565b505050565b806001600160a01b0381166108695760405163e6c4247b60e01b815260040160405180910390fd5b6000610874816110da565b61088c60008051602061154c83398151915284610f97565b6040516001600160a01b0384169060008051602061154c8339815191529060008051602061158c83398151915290600090a3505050565b806001600160a01b0381166108eb5760405163e6c4247b60e01b815260040160405180910390fd5b60006108f6816110da565b61090e60008051602061156c833981519152846107de565b6040516001600160a01b0384169060008051602061156c833981519152906000805160206114cc83398151915290600090a3505050565b60006105d060008051602061152c83398151915283610da8565b806001600160a01b0381166109875760405163e6c4247b60e01b815260040160405180910390fd5b6000610992816110da565b6109aa6000805160206114ec833981519152846107de565b6040516001600160a01b038416906000805160206114ec833981519152906000805160206114cc83398151915290600090a3505050565b60006109ec816110da565b6109f68484610da8565b610a13576040516366783c9d60e11b815260040160405180910390fd5b610a1d84846110e4565b50610a288483611157565b50604080516001600160a01b0380861682528416602082015285917f274dd4127a55dcb6f6c12ed38fec5007d965d2afffa8b0bc75c3dc8f3f6b2224910160405180910390a250505050565b806001600160a01b038116610a9c5760405163e6c4247b60e01b815260040160405180910390fd5b6000610aa7816110da565b610abf60008051602061150c833981519152846107de565b6040516001600160a01b0384169060008051602061150c833981519152906000805160206114cc83398151915290600090a3505050565b6000610b01816110da565b831580610b0c575081155b15610b2a57604051637d6eaf9360e01b815260040160405180910390fd5b838214610b4a576040516390a2f79360e01b815260040160405180910390fd5b60005b84811015610bb057610b9d868683818110610b6a57610b6a6113c3565b90506020020135858584818110610b8357610b836113c3565b9050602002016020810190610b98919061126f565b611157565b5080610ba8816113ef565b915050610b4d565b508282604051610bc1929190611408565b60405180910390207ff4d52c90739c68c4e82d39cfbeee6b6613784bf9b28d2cdb3a02203799cf06068686604051610bfa929190611448565b60405180910390a25050505050565b610c123361103e565b15610c305760405163510a583360e01b815260040160405180910390fd5b8015610c4f57604051630729422160e41b815260040160405180910390fd5b6018811115610c7157604051630729422160e41b815260040160405180910390fd5b6000610c7f82610e10611481565b9050610c996000805160206114ec83398151915233611157565b50610ca48142611498565b33600081815260016020526040908190209290925590517fc526cdae63c288ea4504281fe29b0ae3352c8a9ccae61eba8c21cd25a949e0f190610cea9085815260200190565b60405180910390a25050565b60006105d060008051602061150c83398151915283610da8565b806001600160a01b038116610d385760405163e6c4247b60e01b815260040160405180910390fd5b6000610d43816110da565b610d5b6000805160206114ac83398151915284610f97565b6040516001600160a01b038416906000805160206114ac8339815191529060008051602061158c83398151915290600090a3505050565b60006105d060008051602061156c833981519152835b6000918252602082815260408084206001600160a01b0393909316845291905290205460ff1690565b60006105d06000805160206114ac83398151915283610da8565b806001600160a01b038116610e135760405163e6c4247b60e01b815260040160405180910390fd5b6000610e1e816110da565b610e3660008051602061152c833981519152846107de565b6040516001600160a01b0384169060008051602061152c833981519152906000805160206114cc83398151915290600090a3505050565b60006105d060008051602061154c83398151915283610da8565b6000808080808080610e998189610da8565b610eb160008051602061150c8339815191528a610da8565b610ec960008051602061156c8339815191528b610da8565b610ee160008051602061154c8339815191528c610da8565b610ef96000805160206114ac8339815191528d610da8565b610f1160008051602061152c8339815191528e610da8565b610f296000805160206114ec8339815191528f610da8565b959e949d50929b5090995097509550909350915050565b806001600160a01b038116610f685760405163e6c4247b60e01b815260040160405180910390fd5b6000610f73816110da565b61083c60008051602061156c83398151915284610f97565b60006105d08183610da8565b600082815260208190526040902060010154610fb2816110da565b61080383836110e4565b806001600160a01b038116610fe45760405163e6c4247b60e01b815260040160405180910390fd5b6000610fef816110da565b61100760008051602061154c833981519152846107de565b6040516001600160a01b0384169060008051602061154c833981519152906000805160206114cc83398151915290600090a3505050565b60006105d06000805160206114ec83398151915283610da8565b806001600160a01b0381166110805760405163e6c4247b60e01b815260040160405180910390fd5b600061108b816110da565b6110a360008051602061150c83398151915284610f97565b6040516001600160a01b0384169060008051602061150c8339815191529060008051602061158c83398151915290600090a3505050565b61075981336111e1565b60006110f08383610da8565b1561114f576000838152602081815260408083206001600160a01b0386168085529252808320805460ff1916905551339286917ff6391f5c32d9c69d2a47ea670b442974b53935d1edc7fd64eb21e047a839171b9190a45060016105d0565b5060006105d0565b60006111638383610da8565b61114f576000838152602081815260408083206001600160a01b03861684529091529020805460ff191660011790556111993390565b6001600160a01b0316826001600160a01b0316847f2f8788117e7eff1d82e926ec794901d17c78024a50270940304540a733656f0d60405160405180910390a45060016105d0565b6111eb8282610da8565b61121e5760405163e2517d3f60e01b81526001600160a01b03821660048201526024810183905260440160405180910390fd5b5050565b60006020828403121561123457600080fd5b81356001600160e01b03198116811461124c57600080fd5b9392505050565b80356001600160a01b038116811461126a57600080fd5b919050565b60006020828403121561128157600080fd5b61124c82611253565b60006020828403121561129c57600080fd5b5035919050565b600080604083850312156112b657600080fd5b823591506112c660208401611253565b90509250929050565b6000806000606084860312156112e457600080fd5b833592506112f460208501611253565b915061130260408501611253565b90509250925092565b60008083601f84011261131d57600080fd5b50813567ffffffffffffffff81111561133557600080fd5b6020830191508360208260051b850101111561135057600080fd5b9250929050565b6000806000806040858703121561136d57600080fd5b843567ffffffffffffffff8082111561138557600080fd5b6113918883890161130b565b909650945060208701359150808211156113aa57600080fd5b506113b78782880161130b565b95989497509550505050565b634e487b7160e01b600052603260045260246000fd5b634e487b7160e01b600052601160045260246000fd5b600060018201611401576114016113d9565b5060010190565b60008184825b8581101561143d576001600160a01b0361142783611253565b168352602092830192919091019060010161140e565b509095945050505050565b6020808252810182905260006001600160fb1b0383111561146857600080fd5b8260051b80856040850137919091016040019392505050565b80820281158282048414176105d0576105d06113d9565b808201808211156105d0576105d06113d956fe920994fc3bfe282f3f20cdccf1b7c5e46c63d963e822d98efff90abd41c12e212ae6a113c0ed5b78a53413ffbb7679881f11145ccfba4fb92e863dfcd5a1d2f3ee244ef9da0b2f89a74b208ea9fe1a639ebdf634027d9e1f092b58c39954fa37c41a06b26ced3a23b7bf835a0918ade784f4055ded86d18305f528f47a726052aa0ec51d0bf03ce5511c9ffc9de2b423d73d1faacd808abf2ac89ccea8a3ecf259a1c48e5837ad7a7f3dcedcbe129bf3249ec4fbf651fd4f5e2600ead39fe2f506fa31d7a92d9fa9a8898ac41d86ee9b13863605a361c85ae5d6010d5de4f280155aaafb6329a2098580462df33ec4b7441b19729b9601c5fc17ae1cf99a8a52a2646970667358221220f6384e41a3e4b43eb290995fe5cbc1bd2ace2731622079e4ffc1fddf5856ce9d64736f6c63430008140033",
  "linkReferences": {},
  "deployedLinkReferences": {}
}