{"contracts/modules/InspectionManager.sol":{"InspectionManager":{"abi":[{"inputs":[{"internalType":"address","name":"_rolesManager","type":"address"},{"internalType":"address","name":"_certAuthority","type":"address"}],"stateMutability":"nonpayable","type":"constructor"},{"inputs":[],"name":"AccessControlBadConfirmation","type":"error"},{"inputs":[{"internalType":"address","name":"account","type":"address"},{"internalType":"bytes32","name":"neededRole","type":"bytes32"}],"name":"AccessControlUnauthorizedAccount","type":"error"},{"inputs":[],"name":"AuditorOversight__AppealWindowClosed","type":"error"},{"inputs":[],"name":"AuditorOversight__CaseNotPending","type":"error"},{"inputs":[],"name":"AuditorOversight__NotAuthorizedEnterpriseOwner","type":"error"},{"inputs":[],"name":"CertificateNFT__CertificateDoesNotExist","type":"error"},{"inputs":[],"name":"CertificateNFT__EnterpriseAlreadyCertified","type":"error"},{"inputs":[],"name":"CertificationAuthority__CertificationNotExpiredYet","type":"error"},{"inputs":[],"name":"CertificationAuthority__EnterpriseAlreadyCertified","type":"error"},{"inputs":[],"name":"CertificationAuthority__EnterpriseNotCertifiedYet","type":"error"},{"inputs":[],"name":"EnterpriseRegistry__EnterpriseAlreadyExists","type":"error"},{"inputs":[],"name":"EnterpriseRegistry__EnterpriseDoesNotExist","type":"error"},{"inputs":[],"name":"EnterpriseRegistry__InvalidStart","type":"error"},{"inputs":[],"name":"InspectionManager__InspectionPeriodExpired","type":"error"},{"inputs":[],"name":"InspectionManager__InspectorAlreadyAssigned","type":"error"},{"inputs":[],"name":"InspectionManager__InvalidReportIndex","type":"error"},{"inputs":[],"name":"InspectionManager__NoReportsAssociatedWithEnterprise","type":"error"},{"inputs":[],"name":"InspectionManager__NotAssignedToEnterprise","type":"error"},{"inputs":[],"name":"InspectionManager__ReportAlreadyFlagged","type":"error"},{"inputs":[],"name":"InvalidAddress","type":"error"},{"inputs":[],"name":"RolesManager__AlreadyHasRole","type":"error"},{"inputs":[],"name":"RolesManager__ArrayLengthMismatch","type":"error"},{"inputs":[],"name":"RolesManager__EmptyArray","type":"error"},{"inputs":[],"name":"RolesManager__InvalidDuration","type":"error"},{"inputs":[],"name":"RolesManager__NotAuthorizedAuditor","type":"error"},{"inputs":[],"name":"RolesManager__NotAuthorizedCertificateFactory","type":"error"},{"inputs":[],"name":"RolesManager__NotAuthorizedCertifier","type":"error"},{"inputs":[],"name":"RolesManager__NotAuthorizedEnterprise","type":"error"},{"inputs":[],"name":"RolesManager__NotAuthorizedInspector","type":"error"},{"inputs":[],"name":"RolesManager__NotAuthorizedPublicUser","type":"error"},{"inputs":[],"name":"RolesManager__RoleDoesNotExist","type":"error"},{"inputs":[],"name":"RolesManager__UnauthorizedToPerformAction","type":"error"},{"anonymous":false,"inputs":[{"indexed":false,"internalType":"bytes32[]","name":"roles","type":"bytes32[]"},{"indexed":true,"internalType":"address[]","name":"accounts","type":"address[]"}],"name":"BulkRolesGranted","type":"event"},{"anonymous":false,"inputs":[{"indexed":true,"internalType":"address","name":"enterprise","type":"address"},{"indexed":true,"internalType":"uint256","name":"reportIndex","type":"uint256"},{"indexed":false,"internalType":"address","name":"flaggedBy","type":"address"},{"indexed":false,"internalType":"string","name":"reason","type":"string"},{"indexed":false,"internalType":"uint256","name":"timestamp","type":"uint256"}],"name":"InspectionReportFlagged","type":"event"},{"anonymous":false,"inputs":[{"indexed":true,"internalType":"address","name":"inspector","type":"address"},{"indexed":true,"internalType":"address","name":"enterprise","type":"address"},{"indexed":false,"internalType":"bool","name":"passed","type":"bool"},{"indexed":false,"internalType":"string","name":"remarks","type":"string"},{"indexed":false,"internalType":"string","name":"evidenceURI","type":"string"},{"indexed":false,"internalType":"uint256","name":"ReportedAt","type":"uint256"}],"name":"InspectionReportSubmitted","type":"event"},{"anonymous":false,"inputs":[{"indexed":true,"internalType":"address","name":"enterprise","type":"address"},{"indexed":true,"internalType":"address","name":"inspector","type":"address"},{"indexed":false,"internalType":"uint256","name":"validityPeriod","type":"uint256"}],"name":"InspectorAssigned","type":"event"},{"anonymous":false,"inputs":[{"indexed":true,"internalType":"address","name":"user","type":"address"}],"name":"PublicRoleExpired","type":"event"},{"anonymous":false,"inputs":[{"indexed":true,"internalType":"address","name":"user","type":"address"},{"indexed":false,"internalType":"uint256","name":"duration","type":"uint256"}],"name":"PublicRoleGranted","type":"event"},{"anonymous":false,"inputs":[{"indexed":true,"internalType":"bytes32","name":"role","type":"bytes32"},{"indexed":true,"internalType":"bytes32","name":"previousAdminRole","type":"bytes32"},{"indexed":true,"internalType":"bytes32","name":"newAdminRole","type":"bytes32"}],"name":"RoleAdminChanged","type":"event"},{"anonymous":false,"inputs":[{"indexed":true,"internalType":"bytes32","name":"role","type":"bytes32"},{"indexed":true,"internalType":"address","name":"account","type":"address"},{"indexed":true,"internalType":"address","name":"sender","type":"address"}],"name":"RoleGranted","type":"event"},{"anonymous":false,"inputs":[{"indexed":true,"internalType":"bytes32","name":"role","type":"bytes32"},{"indexed":true,"internalType":"address","name":"account","type":"address"}],"name":"RoleGranted","type":"event"},{"anonymous":false,"inputs":[{"indexed":true,"internalType":"bytes32","name":"role","type":"bytes32"},{"indexed":true,"internalType":"address","name":"account","type":"address"},{"indexed":true,"internalType":"address","name":"sender","type":"address"}],"name":"RoleRevoked","type":"event"},{"anonymous":false,"inputs":[{"indexed":true,"internalType":"bytes32","name":"role","type":"bytes32"},{"indexed":true,"internalType":"address","name":"account","type":"address"}],"name":"RoleRevoked","type":"event"},{"anonymous":false,"inputs":[{"indexed":true,"internalType":"bytes32","name":"role","type":"bytes32"},{"indexed":false,"internalType":"address","name":"from","type":"address"},{"indexed":false,"internalType":"address","name":"to","type":"address"}],"name":"RoleTransferred","type":"event"},{"inputs":[],"name":"AUDITOR_ROLE","outputs":[{"internalType":"bytes32","name":"","type":"bytes32"}],"stateMutability":"view","type":"function"},{"inputs":[],"name":"CERTIFICATE_FACTORY_ROLE","outputs":[{"internalType":"bytes32","name":"","type":"bytes32"}],"stateMutability":"view","type":"function"},{"inputs":[],"name":"CERTIFIER_ROLE","outputs":[{"internalType":"bytes32","name":"","type":"bytes32"}],"stateMutability":"view","type":"function"},{"inputs":[],"name":"DEFAULT_ADMIN_ROLE","outputs":[{"internalType":"bytes32","name":"","type":"bytes32"}],"stateMutability":"view","type":"function"},{"inputs":[],"name":"ENTERPRISE_ROLE","outputs":[{"internalType":"bytes32","name":"","type":"bytes32"}],"stateMutability":"view","type":"function"},{"inputs":[],"name":"INSPECTOR_ROLE","outputs":[{"internalType":"bytes32","name":"","type":"bytes32"}],"stateMutability":"view","type":"function"},{"inputs":[],"name":"PUBLIC_ROLE","outputs":[{"internalType":"bytes32","name":"","type":"bytes32"}],"stateMutability":"view","type":"function"},{"inputs":[{"internalType":"address","name":"enterprise","type":"address"},{"internalType":"address","name":"inspector","type":"address"},{"internalType":"uint256","name":"validityPeriod","type":"uint256"}],"name":"assignInspector","outputs":[],"stateMutability":"nonpayable","type":"function"},{"inputs":[{"internalType":"bytes32[]","name":"roles","type":"bytes32[]"},{"internalType":"address[]","name":"accounts","type":"address[]"}],"name":"bulkGrantRoles","outputs":[],"stateMutability":"nonpayable","type":"function"},{"inputs":[],"name":"certAuthority","outputs":[{"internalType":"contract CertificationAuthority","name":"","type":"address"}],"stateMutability":"view","type":"function"},{"inputs":[{"internalType":"address","name":"account","type":"address"}],"name":"checkExpiryRoles","outputs":[],"stateMutability":"nonpayable","type":"function"},{"inputs":[{"internalType":"uint256","name":"durationInHours","type":"uint256"}],"name":"claimTemporaryPublicRole","outputs":[],"stateMutability":"nonpayable","type":"function"},{"inputs":[{"internalType":"address","name":"enterprise","type":"address"},{"internalType":"uint256","name":"reportIndex","type":"uint256"},{"internalType":"string","name":"reason","type":"string"}],"name":"flagInspection","outputs":[],"stateMutability":"nonpayable","type":"function"},{"inputs":[{"internalType":"address","name":"account","type":"address"}],"name":"getActiveRoles","outputs":[{"internalType":"bool","name":"isAdmin","type":"bool"},{"internalType":"bool","name":"isCertifier","type":"bool"},{"internalType":"bool","name":"isInspector","type":"bool"},{"internalType":"bool","name":"isAuditor","type":"bool"},{"internalType":"bool","name":"isEnterprise","type":"bool"},{"internalType":"bool","name":"isCertificateFactory","type":"bool"},{"internalType":"bool","name":"isPublic","type":"bool"}],"stateMutability":"view","type":"function"},{"inputs":[{"internalType":"address","name":"enterprise","type":"address"}],"name":"getEnterpriseFlaggedReports","outputs":[{"components":[{"internalType":"address","name":"enterprise","type":"address"},{"internalType":"uint256","name":"reportIndex","type":"uint256"},{"components":[{"internalType":"address","name":"inspector","type":"address"},{"internalType":"address","name":"enterprise","type":"address"},{"internalType":"string","name":"remarks","type":"string"},{"internalType":"string","name":"evidenceURI","type":"string"},{"internalType":"uint256","name":"inspectedAt","type":"uint256"},{"internalType":"bool","name":"passed","type":"bool"},{"internalType":"bool","name":"flagged","type":"bool"}],"internalType":"struct DataTypes.InspectionReport","name":"report","type":"tuple"},{"internalType":"address","name":"flaggedBy","type":"address"},{"internalType":"string","name":"reason","type":"string"},{"internalType":"uint256","name":"flaggedAt","type":"uint256"}],"internalType":"struct DataTypes.FlaggedInspection[]","name":"","type":"tuple[]"}],"stateMutability":"view","type":"function"},{"inputs":[{"internalType":"address","name":"enterprise","type":"address"}],"name":"getEnterpriseInspectionReports","outputs":[{"components":[{"internalType":"address","name":"inspector","type":"address"},{"internalType":"address","name":"enterprise","type":"address"},{"internalType":"string","name":"remarks","type":"string"},{"internalType":"string","name":"evidenceURI","type":"string"},{"internalType":"uint256","name":"inspectedAt","type":"uint256"},{"internalType":"bool","name":"passed","type":"bool"},{"internalType":"bool","name":"flagged","type":"bool"}],"internalType":"struct DataTypes.InspectionReport[]","name":"","type":"tuple[]"}],"stateMutability":"view","type":"function"},{"inputs":[{"internalType":"address","name":"enterprise","type":"address"}],"name":"getEnterpriseInspectors","outputs":[{"internalType":"address[]","name":"","type":"address[]"},{"internalType":"uint256[]","name":"validityPeriods","type":"uint256[]"}],"stateMutability":"view","type":"function"},{"inputs":[{"internalType":"uint256","name":"limit","type":"uint256"},{"internalType":"uint256","name":"offset","type":"uint256"}],"name":"getFlaggedInspections","outputs":[{"components":[{"internalType":"address","name":"enterprise","type":"address"},{"internalType":"uint256","name":"reportIndex","type":"uint256"},{"components":[{"internalType":"address","name":"inspector","type":"address"},{"internalType":"address","name":"enterprise","type":"address"},{"internalType":"string","name":"remarks","type":"string"},{"internalType":"string","name":"evidenceURI","type":"string"},{"internalType":"uint256","name":"inspectedAt","type":"uint256"},{"internalType":"bool","name":"passed","type":"bool"},{"internalType":"bool","name":"flagged","type":"bool"}],"internalType":"struct DataTypes.InspectionReport","name":"report","type":"tuple"},{"internalType":"address","name":"flaggedBy","type":"address"},{"internalType":"string","name":"reason","type":"string"},{"internalType":"uint256","name":"flaggedAt","type":"uint256"}],"internalType":"struct DataTypes.FlaggedInspection[]","name":"","type":"tuple[]"}],"stateMutability":"view","type":"function"},{"inputs":[{"internalType":"address","name":"inspector","type":"address"}],"name":"getInspectorReports","outputs":[{"components":[{"internalType":"address","name":"inspector","type":"address"},{"internalType":"address","name":"enterprise","type":"address"},{"internalType":"string","name":"remarks","type":"string"},{"internalType":"string","name":"evidenceURI","type":"string"},{"internalType":"uint256","name":"inspectedAt","type":"uint256"},{"internalType":"bool","name":"passed","type":"bool"},{"internalType":"bool","name":"flagged","type":"bool"}],"internalType":"struct DataTypes.InspectionReport[]","name":"","type":"tuple[]"}],"stateMutability":"view","type":"function"},{"inputs":[],"name":"getMaxPublicRoleDuration","outputs":[{"internalType":"uint256","name":"","type":"uint256"}],"stateMutability":"pure","type":"function"},{"inputs":[{"internalType":"bytes32","name":"role","type":"bytes32"}],"name":"getRoleAdmin","outputs":[{"internalType":"bytes32","name":"","type":"bytes32"}],"stateMutability":"view","type":"function"},{"inputs":[{"internalType":"address","name":"account","type":"address"}],"name":"grantAuditor","outputs":[],"stateMutability":"nonpayable","type":"function"},{"inputs":[{"internalType":"address","name":"account","type":"address"}],"name":"grantCertificateFactory","outputs":[],"stateMutability":"nonpayable","type":"function"},{"inputs":[{"internalType":"address","name":"account","type":"address"}],"name":"grantCertifier","outputs":[],"stateMutability":"nonpayable","type":"function"},{"inputs":[{"internalType":"address","name":"account","type":"address"}],"name":"grantEnterprise","outputs":[],"stateMutability":"nonpayable","type":"function"},{"inputs":[{"internalType":"address","name":"account","type":"address"}],"name":"grantInspector","outputs":[],"stateMutability":"nonpayable","type":"function"},{"inputs":[{"internalType":"address","name":"account","type":"address"}],"name":"grantPublicRole","outputs":[],"stateMutability":"nonpayable","type":"function"},{"inputs":[{"internalType":"bytes32","name":"role","type":"bytes32"},{"internalType":"address","name":"account","type":"address"}],"name":"grantRole","outputs":[],"stateMutability":"nonpayable","type":"function"},{"inputs":[{"internalType":"address","name":"account","type":"address"}],"name":"hasAdminRole","outputs":[{"internalType":"bool","name":"","type":"bool"}],"stateMutability":"view","type":"function"},{"inputs":[{"internalType":"address","name":"account","type":"address"}],"name":"hasAuditorRole","outputs":[{"internalType":"bool","name":"","type":"bool"}],"stateMutability":"view","type":"function"},{"inputs":[{"internalType":"address","name":"account","type":"address"}],"name":"hasCertificateFactoryRole","outputs":[{"internalType":"bool","name":"","type":"bool"}],"stateMutability":"view","type":"function"},{"inputs":[{"internalType":"address","name":"account","type":"address"}],"name":"hasCertifierRole","outputs":[{"internalType":"bool","name":"","type":"bool"}],"stateMutability":"view","type":"function"},{"inputs":[{"internalType":"address","name":"account","type":"address"}],"name":"hasEnterpriseRole","outputs":[{"internalType":"bool","name":"","type":"bool"}],"stateMutability":"view","type":"function"},{"inputs":[{"internalType":"address","name":"account","type":"address"}],"name":"hasInspectorRole","outputs":[{"internalType":"bool","name":"","type":"bool"}],"stateMutability":"view","type":"function"},{"inputs":[{"internalType":"address","name":"account","type":"address"}],"name":"hasPublicRole","outputs":[{"internalType":"bool","name":"","type":"bool"}],"stateMutability":"view","type":"function"},{"inputs":[{"internalType":"bytes32","name":"role","type":"bytes32"},{"internalType":"address","name":"account","type":"address"}],"name":"hasRole","outputs":[{"internalType":"bool","name":"","type":"bool"}],"stateMutability":"view","type":"function"},{"inputs":[{"internalType":"address","name":"","type":"address"}],"name":"publicRoleExpiry","outputs":[{"internalType":"uint256","name":"","type":"uint256"}],"stateMutability":"view","type":"function"},{"inputs":[{"internalType":"bytes32","name":"role","type":"bytes32"},{"internalType":"address","name":"callerConfirmation","type":"address"}],"name":"renounceRole","outputs":[],"stateMutability":"nonpayable","type":"function"},{"inputs":[{"internalType":"address","name":"account","type":"address"}],"name":"revokeAuditorRole","outputs":[],"stateMutability":"nonpayable","type":"function"},{"inputs":[{"internalType":"address","name":"account","type":"address"}],"name":"revokeCertificateFactoryRole","outputs":[],"stateMutability":"nonpayable","type":"function"},{"inputs":[{"internalType":"address","name":"account","type":"address"}],"name":"revokeCertifierRole","outputs":[],"stateMutability":"nonpayable","type":"function"},{"inputs":[{"internalType":"address","name":"account","type":"address"}],"name":"revokeEnterpriseRole","outputs":[],"stateMutability":"nonpayable","type":"function"},{"inputs":[{"internalType":"address","name":"account","type":"address"}],"name":"revokeInspectorRole","outputs":[],"stateMutability":"nonpayable","type":"function"},{"inputs":[{"internalType":"address","name":"account","type":"address"}],"name":"revokePublicRole","outputs":[],"stateMutability":"nonpayable","type":"function"},{"inputs":[{"internalType":"bytes32","name":"role","type":"bytes32"},{"internalType":"address","name":"account","type":"address"}],"name":"revokeRole","outputs":[],"stateMutability":"nonpayable","type":"function"},{"inputs":[],"name":"rolesManager","outputs":[{"internalType":"contract RolesManager","name":"","type":"address"}],"stateMutability":"view","type":"function"},{"inputs":[{"internalType":"address","name":"_enterprise","type":"address"},{"internalType":"bool","name":"_passed","type":"bool"},{"internalType":"string","name":"_remarks","type":"string"},{"internalType":"string","name":"_evidenceURI","type":"string"}],"name":"submitInspectionReport","outputs":[],"stateMutability":"nonpayable","type":"function"},{"inputs":[{"internalType":"bytes4","name":"interfaceId","type":"bytes4"}],"name":"supportsInterface","outputs":[{"internalType":"bool","name":"","type":"bool"}],"stateMutability":"view","type":"function"},{"inputs":[{"internalType":"bytes32","name":"role","type":"bytes32"},{"internalType":"address","name":"from","type":"address"},{"internalType":"address","name":"to","type":"address"}],"name":"transferRole","outputs":[],"stateMutability":"nonpayable","type":"function"}],"devdoc":{"errors":{"AccessControlBadConfirmation()":[{"details":"The caller of a function is not the expected one. NOTE: Don't confuse with {AccessControlUnauthorizedAccount}."}],"AccessControlUnauthorizedAccount(address,bytes32)":[{"details":"The `account` is missing a role."}]},"events":{"RoleAdminChanged(bytes32,bytes32,bytes32)":{"details":"Emitted when `newAdminRole` is set as ``role``'s admin role, replacing `previousAdminRole` `DEFAULT_ADMIN_ROLE` is the starting admin for all roles, despite {RoleAdminChanged} not being emitted signaling this."},"RoleGranted(bytes32,address,address)":{"details":"Emitted when `account` is granted `role`. `sender` is the account that originated the contract call, an admin role bearer except when using {AccessControl-_setupRole}."},"RoleRevoked(bytes32,address,address)":{"details":"Emitted when `account` is revoked `role`. `sender` is the account that originated the contract call:   - if using `revokeRole`, it is the admin role bearer   - if using `renounceRole`, it is the role bearer (i.e. `account`)"}},"kind":"dev","methods":{"bulkGrantRoles(bytes32[],address[])":{"details":"Bulk grant roles to accounts","params":{"accounts":"The array of accounts to grant roles emits BulkRolesGranted event on successful grant","roles":"The array of roles to grant"}},"checkExpiryRoles(address)":{"details":"helper to check expiry of `PUBLIC` role","params":{"account":"The account to check for role expiry"}},"claimTemporaryPublicRole(uint256)":{"details":"allows users to claim temporary `PUBLIC` role for `durationInHours` hours on their visit to platform","params":{"durationInHours":"The duration in hours the user will have the `PUBLIC` role"}},"getRoleAdmin(bytes32)":{"details":"Returns the admin role that controls `role`. See {grantRole} and {revokeRole}. To change a role's admin, use {_setRoleAdmin}."},"grantCertifier(address)":{"details":"Functions to grant roles to!","params":{"account":"The account to grant the role to"}},"grantRole(bytes32,address)":{"details":"Grants `role` to `account`. If `account` had not been already granted `role`, emits a {RoleGranted} event. Requirements: - the caller must have ``role``'s admin role. May emit a {RoleGranted} event."},"hasAdminRole(address)":{"details":"Functions to check if a certain account has the specified role","params":{"account":"The account to check "}},"hasRole(bytes32,address)":{"details":"Returns `true` if `account` has been granted `role`."},"renounceRole(bytes32,address)":{"details":"Revokes `role` from the calling account. Roles are often managed via {grantRole} and {revokeRole}: this function's purpose is to provide a mechanism for accounts to lose their privileges if they are compromised (such as when a trusted device is misplaced). If the calling account had been revoked `role`, emits a {RoleRevoked} event. Requirements: - the caller must be `callerConfirmation`. May emit a {RoleRevoked} event."},"revokeCertifierRole(address)":{"details":"Functions to revoke roles","params":{"account":"The account to revoke the role from"}},"revokeRole(bytes32,address)":{"details":"Revokes `role` from `account`. If `account` had been granted `role`, emits a {RoleRevoked} event. Requirements: - the caller must have ``role``'s admin role. May emit a {RoleRevoked} event."},"supportsInterface(bytes4)":{"details":"See {IERC165-supportsInterface}."},"transferRole(bytes32,address,address)":{"details":"Transfers a role from one account to another","params":{"from":"The account to transfer the role from","role":"The role to transfer","to":"The account to transfer the role to"}}},"version":1},"evm":{"bytecode":{"linkReferences":{},"object":"60c06040523480156200001157600080fd5b506040516200391038038062003910833981016040819052620000349162000162565b6200004160003362000085565b6200006d7fc41a06b26ced3a23b7bf835a0918ade784f4055ded86d18305f528f47a7260523362000085565b6001600160a01b039182166080521660a0526200019a565b62000091828262000096565b505050565b6000828152602081815260408083206001600160a01b038516845290915281205460ff166200013b576000838152602081815260408083206001600160a01b03861684529091529020805460ff19166001179055620000f23390565b6001600160a01b0316826001600160a01b0316847f2f8788117e7eff1d82e926ec794901d17c78024a50270940304540a733656f0d60405160405180910390a45060016200013f565b5060005b92915050565b80516001600160a01b03811681146200015d57600080fd5b919050565b600080604083850312156200017657600080fd5b620001818362000145565b9150620001916020840162000145565b90509250929050565b60805160a051613742620001ce600039600081816105460152818161229b015261239c015260006105c001526137426000f3fe608060405234801561001057600080fd5b50600436106102bb5760003560e01c8063784fee0e11610182578063b0614db3116100e9578063c395fcb3116100a2578063e3a3c5221161007c578063e3a3c522146106f5578063e55b4f931461070a578063f53f5e1e1461071d578063fc8102861461073057600080fd5b8063c395fcb3146106bc578063cc5ed5ea146106cf578063d547741f146106e257600080fd5b8063b0614db314610608578063b1ba38831461065c578063b1ea540e1461066f578063b5617ef714610682578063b8ad415e146106a2578063bd7ca7ba146106a957600080fd5b80639a98163b1161013b5780639a98163b14610580578063a1f34163146105a0578063a217fddf146105b3578063a3574c5b146105bb578063aa52617c146105e2578063abaa536f146105f557600080fd5b8063784fee0e146104e05780637bff0975146104f55780637e5effa4146105085780638850845f1461051b57806391d148541461052e57806399eb08d61461054157600080fd5b8063456f19fc1161022657806361462f0e116101df57806361462f0e1461046857806368b688c11461047b57806368dd17a51461048e57806369d0b517146104a35780636e1d616e146104b85780637780e9c1146104cd57600080fd5b8063456f19fc146103e95780634e4ddb92146103fc57806352f84b721461041c57806357c033711461042f5780635cb87d2614610442578063603765281461045557600080fd5b8063261191b711610278578063261191b7146103755780632f2ff15d1461038857806336568abe1461039b5780633ca7c02a146103ae5780633e251518146103c35780634308ac98146103d657600080fd5b806301ffc9a7146102c05780630443cd2a146102e857806308d0aef7146102fd5780631e223b2a1461031e578063248a9ca31461033157806325d5e87e14610362575b600080fd5b6102d36102ce366004612d63565b610743565b60405190151581526020015b60405180910390f35b6102fb6102f6366004612db0565b61077a565b005b61031061030b366004612db0565b6107fc565b6040516102df929190612dcb565b6102fb61032c366004612db0565b610958565b61035461033f366004612e4f565b60009081526020819052604090206001015490565b6040519081526020016102df565b6102fb610370366004612db0565b6109da565b6102fb610383366004612db0565b610a5c565b6102fb610396366004612e68565b610ade565b6102fb6103a9366004612e68565b610b09565b61035460008051602061364d83398151915281565b6102fb6103d1366004612db0565b610b41565b6102fb6103e4366004612edd565b610bc3565b6102fb6103f7366004612db0565b6110b3565b61040f61040a366004612f37565b611135565b6040516102df919061301c565b6102d361042a366004612db0565b61147b565b6102fb61043d366004612db0565b611495565b6102fb6104503660046130df565b611517565b6102fb610463366004612db0565b6115aa565b6102fb610476366004613160565b61162c565b61040f610489366004612db0565b61173f565b61035460008051602061360d83398151915281565b61035460008051602061366d83398151915281565b6103546000805160206136ad83398151915281565b6102fb6104db366004612e4f565b611ad0565b61035460008051602061368d83398151915281565b6102d3610503366004612db0565b611bbd565b6102fb610516366004612db0565b611bd7565b6102d3610529366004612db0565b611c59565b6102d361053c366004612e68565b611c6f565b6105687f000000000000000000000000000000000000000000000000000000000000000081565b6040516001600160a01b0390911681526020016102df565b61059361058e366004612db0565b611c98565b6040516102df91906131c0565b6102d36105ae366004612db0565b611eb8565b610354600081565b6105687f000000000000000000000000000000000000000000000000000000000000000081565b6102fb6105f0366004612db0565b611ed2565b6102d3610603366004612db0565b611f54565b61061b610616366004612db0565b611f6e565b60408051971515885295151560208801529315159486019490945290151560608501521515608084015290151560a0830152151560c082015260e0016102df565b6102fb61066a366004613230565b612027565b6102fb61067d3660046132c3565b612357565b610354610690366004612db0565b60016020526000908152604090205481565b6018610354565b6102fb6106b7366004612db0565b612518565b6102d36106ca366004612db0565b612563565b6105936106dd366004612db0565b61256f565b6102fb6106f0366004612e68565b6129af565b6103546000805160206136cd83398151915281565b6102fb610718366004612db0565b6129d4565b6102d361072b366004612db0565b612a56565b6102fb61073e366004612db0565b612a70565b60006001600160e01b03198216637965db0b60e01b148061077457506301ffc9a760e01b6001600160e01b03198316145b92915050565b806001600160a01b0381166107a25760405163e6c4247b60e01b815260040160405180910390fd5b60006107ad81612af2565b6107c560008051602061364d833981519152846129af565b6040516001600160a01b0384169060008051602061364d833981519152906000805160206136ed83398151915290600090a3505050565b6001600160a01b038116600090815260026020908152604080832080548251818502810185019093528083526060948594909392919083018282801561086b57602002820191906000526020600020905b81546001600160a01b0316815260019091019060200180831161084d575b505050505090506000815167ffffffffffffffff81111561088e5761088e6132ff565b6040519080825280602002602001820160405280156108b7578160200160208202803683370190505b50905060005b825181101561094d576001600160a01b038616600090815260056020526040812084519091908590849081106108f5576108f5613315565b60200260200101516001600160a01b03166001600160a01b031681526020019081526020016000205482828151811061093057610930613315565b60209081029190910101528061094581613341565b9150506108bd565b509094909350915050565b806001600160a01b0381166109805760405163e6c4247b60e01b815260040160405180910390fd5b600061098b81612af2565b6109a360008051602061360d83398151915284610ade565b6040516001600160a01b0384169060008051602061360d8339815191529060008051602061362d83398151915290600090a3505050565b6109e381612a56565b8015610a0657506001600160a01b03811660009081526001602052604090205442115b15610a5957610a2360008051602061364d83398151915282612afc565b506040516001600160a01b038216907fa6f32bcbc7de829d50e1c9cbc1c5b4dafb4c7a0b8329757aee62a9b394d71c3b90600090a25b50565b806001600160a01b038116610a845760405163e6c4247b60e01b815260040160405180910390fd5b6000610a8f81612af2565b610aa760008051602061368d833981519152846129af565b6040516001600160a01b0384169060008051602061368d833981519152906000805160206136ed83398151915290600090a3505050565b600082815260208190526040902060010154610af981612af2565b610b038383612b6f565b50505050565b6001600160a01b0381163314610b325760405163334bd91960e11b815260040160405180910390fd5b610b3c8282612afc565b505050565b806001600160a01b038116610b695760405163e6c4247b60e01b815260040160405180910390fd5b6000610b7481612af2565b610b8c6000805160206136ad833981519152846129af565b6040516001600160a01b038416906000805160206136ad833981519152906000805160206136ed83398151915290600090a3505050565b6000805160206136ad833981519152610bdb81612af2565b6001600160a01b038516600090815260046020526040902054841115610c14576040516315c25ffd60e01b815260040160405180910390fd5b6001600160a01b0385166000908152600460205260409020805485908110610c3e57610c3e613315565b906000526020600020906006020160050160019054906101000a900460ff1615610c7b5760405163c2d1c49160e01b815260040160405180910390fd5b6001600160a01b038516600090815260046020526040902080546001919086908110610ca957610ca9613315565b906000526020600020906006020160050160016101000a81548160ff02191690831515021790555060006040518060c00160405280876001600160a01b0316815260200186815260200160046000896001600160a01b03166001600160a01b031681526020019081526020016000208781548110610d2957610d29613315565b60009182526020918290206040805160e081018252600690930290910180546001600160a01b0390811684526001820154169383019390935260028301805492939291840191610d789061335a565b80601f0160208091040260200160405190810160405280929190818152602001828054610da49061335a565b8015610df15780601f10610dc657610100808354040283529160200191610df1565b820191906000526020600020905b815481529060010190602001808311610dd457829003601f168201915b50505050508152602001600382018054610e0a9061335a565b80601f0160208091040260200160405190810160405280929190818152602001828054610e369061335a565b8015610e835780601f10610e5857610100808354040283529160200191610e83565b820191906000526020600020905b815481529060010190602001808311610e6657829003601f168201915b5050509183525050600482015460208083019190915260059092015460ff808216151560408085019190915261010090920416151560609092019190915291835233838201528151601f880182900482028101820183528781529290910191908790879081908401838280828437600092018290525093855250504260209384015250600854815260068252604090819020835181546001600160a01b03199081166001600160a01b0392831617835585850151600184015585840151805160028501805484169185169190911781559581015160038501805490931693169290921790559182015193945084939092906004840190610f8390826133e2565b5060608201516003820190610f9890826133e2565b50608082810151600483015560a08301516005909201805460c09094015161ffff1990941692151561ff001916929092176101009315159390930292909217905560608301516008830180546001600160a01b0319166001600160a01b03909216919091179055820151600982019061101190826133e2565b5060a09190910151600a909101556001600160a01b038616600090815260076020908152604082206008805482546001810184559285529284209091019190915580549161105e83613341565b919050555084866001600160a01b03167f7b1f7b3dacb5afdc95a1242e036c2e87a67f32d97cb111111215f3305223b666338787426040516110a394939291906134cb565b60405180910390a3505050505050565b806001600160a01b0381166110db5760405163e6c4247b60e01b815260040160405180910390fd5b60006110e681612af2565b6110fe6000805160206136cd83398151915284610ade565b6040516001600160a01b038416906000805160206136cd8339815191529060008051602061362d83398151915290600090a3505050565b60606000826008546111479190613501565b84116111535783611161565b826008546111619190613501565b905060008167ffffffffffffffff81111561117e5761117e6132ff565b6040519080825280602002602001820160405280156111b757816020015b6111a4612ccd565b81526020019060019003908161119c5790505b50905060005b8281101561147257600660006111d38388613514565b81526020808201929092526040908101600020815160c08101835281546001600160a01b039081168252600183015482860152835160e0810185526002840180548316825260038501549092169581019590955260048301805492959394868101949390840191906112449061335a565b80601f01602080910402602001604051908101604052809291908181526020018280546112709061335a565b80156112bd5780601f10611292576101008083540402835291602001916112bd565b820191906000526020600020905b8154815290600101906020018083116112a057829003601f168201915b505050505081526020016003820180546112d69061335a565b80601f01602080910402602001604051908101604052809291908181526020018280546113029061335a565b801561134f5780601f106113245761010080835404028352916020019161134f565b820191906000526020600020905b81548152906001019060200180831161133257829003601f168201915b5050509183525050600482015460208083019190915260059092015460ff808216151560408085019190915261010090920416151560609092019190915291835260088401546001600160a01b03169083015260098301805492909101916113b69061335a565b80601f01602080910402602001604051908101604052809291908181526020018280546113e29061335a565b801561142f5780601f106114045761010080835404028352916020019161142f565b820191906000526020600020905b81548152906001019060200180831161141257829003601f168201915b50505050508152602001600a8201548152505082828151811061145457611454613315565b6020026020010181905250808061146a90613341565b9150506111bd565b50949350505050565b600061077460008051602061368d83398151915283611c6f565b806001600160a01b0381166114bd5760405163e6c4247b60e01b815260040160405180910390fd5b60006114c881612af2565b6114e060008051602061364d83398151915284610ade565b6040516001600160a01b0384169060008051602061364d8339815191529060008051602061362d83398151915290600090a3505050565b600061152281612af2565b61152c8484611c6f565b611549576040516366783c9d60e11b815260040160405180910390fd5b6115538484612afc565b5061155e8483612b6f565b50604080516001600160a01b0380861682528416602082015285917f274dd4127a55dcb6f6c12ed38fec5007d965d2afffa8b0bc75c3dc8f3f6b2224910160405180910390a250505050565b806001600160a01b0381166115d25760405163e6c4247b60e01b815260040160405180910390fd5b60006115dd81612af2565b6115f560008051602061366d83398151915284610ade565b6040516001600160a01b0384169060008051602061366d8339815191529060008051602061362d83398151915290600090a3505050565b600061163781612af2565b831580611642575081155b1561166057604051637d6eaf9360e01b815260040160405180910390fd5b838214611680576040516390a2f79360e01b815260040160405180910390fd5b60005b848110156116e6576116d38686838181106116a0576116a0613315565b905060200201358585848181106116b9576116b9613315565b90506020020160208101906116ce9190612db0565b612b6f565b50806116de81613341565b915050611683565b5082826040516116f7929190613527565b60405180910390207ff4d52c90739c68c4e82d39cfbeee6b6613784bf9b28d2cdb3a02203799cf0606868660405161173092919061355c565b60405180910390a25050505050565b6001600160a01b038116600090815260076020908152604080832080548251818502810185019093528083526060949383018282801561179e57602002820191906000526020600020905b81548152602001906001019080831161178a575b505050505090506000815167ffffffffffffffff8111156117c1576117c16132ff565b6040519080825280602002602001820160405280156117fa57816020015b6117e7612ccd565b8152602001906001900390816117df5790505b50905060005b8251811015611ac8576006600084838151811061181f5761181f613315565b6020908102919091018101518252818101929092526040908101600020815160c08101835281546001600160a01b039081168252600183015482860152835160e08101855260028401805483168252600385015490921695810195909552600483018054929593948681019493908401919061189a9061335a565b80601f01602080910402602001604051908101604052809291908181526020018280546118c69061335a565b80156119135780601f106118e857610100808354040283529160200191611913565b820191906000526020600020905b8154815290600101906020018083116118f657829003601f168201915b5050505050815260200160038201805461192c9061335a565b80601f01602080910402602001604051908101604052809291908181526020018280546119589061335a565b80156119a55780601f1061197a576101008083540402835291602001916119a5565b820191906000526020600020905b81548152906001019060200180831161198857829003601f168201915b5050509183525050600482015460208083019190915260059092015460ff808216151560408085019190915261010090920416151560609092019190915291835260088401546001600160a01b0316908301526009830180549290910191611a0c9061335a565b80601f0160208091040260200160405190810160405280929190818152602001828054611a389061335a565b8015611a855780601f10611a5a57610100808354040283529160200191611a85565b820191906000526020600020905b815481529060010190602001808311611a6857829003601f168201915b50505050508152602001600a82015481525050828281518110611aaa57611aaa613315565b60200260200101819052508080611ac090613341565b915050611800565b509392505050565b611ad933612a56565b15611af75760405163510a583360e01b815260040160405180910390fd5b8015611b1657604051630729422160e41b815260040160405180910390fd5b6018811115611b3857604051630729422160e41b815260040160405180910390fd5b6000611b4682610e10613595565b9050611b6060008051602061364d83398151915233612b6f565b50611b6b8142613514565b33600081815260016020526040908190209290925590517fc526cdae63c288ea4504281fe29b0ae3352c8a9ccae61eba8c21cd25a949e0f190611bb19085815260200190565b60405180910390a25050565b600061077460008051602061366d83398151915283611c6f565b806001600160a01b038116611bff5760405163e6c4247b60e01b815260040160405180910390fd5b6000611c0a81612af2565b611c2260008051602061360d833981519152846129af565b6040516001600160a01b0384169060008051602061360d833981519152906000805160206136ed83398151915290600090a3505050565b60006107746000805160206136cd833981519152835b6000918252602082815260408084206001600160a01b0393909316845291905290205460ff1690565b6001600160a01b03811660009081526004602052604081205460609103611cd25760405163fc32598360e01b815260040160405180910390fd5b6001600160a01b038216600090815260046020908152604080832080548251818502810185019093528083529193909284015b82821015611ead5760008481526020908190206040805160e0810182526006860290920180546001600160a01b0390811684526001820154169383019390935260028301805492939291840191611d5b9061335a565b80601f0160208091040260200160405190810160405280929190818152602001828054611d879061335a565b8015611dd45780601f10611da957610100808354040283529160200191611dd4565b820191906000526020600020905b815481529060010190602001808311611db757829003601f168201915b50505050508152602001600382018054611ded9061335a565b80601f0160208091040260200160405190810160405280929190818152602001828054611e199061335a565b8015611e665780601f10611e3b57610100808354040283529160200191611e66565b820191906000526020600020905b815481529060010190602001808311611e4957829003601f168201915b5050509183525050600482015460208083019190915260059092015460ff808216151560408401526101009091041615156060909101529082526001929092019101611d05565b505050509050919050565b600061077460008051602061360d83398151915283611c6f565b806001600160a01b038116611efa5760405163e6c4247b60e01b815260040160405180910390fd5b6000611f0581612af2565b611f1d60008051602061368d83398151915284610ade565b6040516001600160a01b0384169060008051602061368d8339815191529060008051602061362d83398151915290600090a3505050565b60006107746000805160206136ad83398151915283611c6f565b6000808080808080611f808189611c6f565b611f9860008051602061366d8339815191528a611c6f565b611fb06000805160206136cd8339815191528b611c6f565b611fc86000805160206136ad8339815191528c611c6f565b611fe060008051602061360d8339815191528d611c6f565b611ff860008051602061368d8339815191528e611c6f565b61201060008051602061364d8339815191528f611c6f565b959e949d50929b5090995097509550909350915050565b8561203133611c59565b61204e5760405163e9aab75160e01b815260040160405180910390fd5b6120588133612bf9565b61207557604051633dec104f60e01b815260040160405180910390fd5b6001600160a01b03811660009081526005602090815260408083203384529091529020544211156120b9576040516317a7851f60e11b815260040160405180910390fd5b6001600160a01b03871660009081526005602090815260408083203384529091529020544211156120fd576040516317a7851f60e11b815260040160405180910390fd5b60006040518060e00160405280336001600160a01b03168152602001896001600160a01b0316815260200187878080601f016020809104026020016040519081016040528093929190818152602001838380828437600092019190915250505090825250604080516020601f88018190048102820181019092528681529181019190879087908190840183828082843760009201829052509385525050426020808501919091528b151560408086019190915260609094018390526001600160a01b038d811684526004825284842080546001808201835591865294839020875160069096020180546001600160a01b031990811696841696909617815592870151908301805490951691161790925550908201519192508291600282019061222690826133e2565b506060820151600382019061223b90826133e2565b506080820151600482015560a08201516005909101805460c09093015115156101000261ff00199215159290921661ffff1990931692909217179055866122f85760405163b83cc3b360e01b81526001600160a01b0389811660048301527f0000000000000000000000000000000000000000000000000000000000000000169063b83cc3b390602401600060405180830381600087803b1580156122df57600080fd5b505af11580156122f3573d6000803e3d6000fd5b505050505b876001600160a01b0316336001600160a01b03167fd1b5f5f27a6c067d892d5201d9160332ad987f12ed191d83be7d4fb4dc876716898989898942604051612345969594939291906135ac565b60405180910390a35050505050505050565b61236033611bbd565b61237d576040516336fe937160e11b815260040160405180910390fd5b60405163261e85cd60e01b81526001600160a01b0384811660048301527f0000000000000000000000000000000000000000000000000000000000000000169063261e85cd90602401602060405180830381865afa1580156123e3573d6000803e3d6000fd5b505050506040513d601f19601f8201168201806040525081019061240791906135ef565b612424576040516308a2227760e11b815260040160405180910390fd5b61242d82611c59565b61244a5760405163e9aab75160e01b815260040160405180910390fd5b6001600160a01b0380841660008181526002602090815260408083208054600181810183559185528385200180549689166001600160a01b0319978816811790915584526003835290832080549182018155835291200180549092161790556124b38142613514565b6001600160a01b038481166000818152600560209081526040808320948816808452948252918290209490945551848152919290917f0eb676771c16d4fb5bc9e83f804be8ad19cd67426581c189e482796624a1ac9f910160405180910390a3505050565b806001600160a01b0381166125405760405163e6c4247b60e01b815260040160405180910390fd5b600061254b81612af2565b610b3c6000805160206136cd833981519152846129af565b60006107748183611c6f565b6001600160a01b03811660009081526003602090815260408083208054825181850281018501909352808352606094938301828280156125d857602002820191906000526020600020905b81546001600160a01b031681526001909101906020018083116125ba575b50505050509050600080600090505b8251811015612651576004600084838151811061260657612606613315565b60200260200101516001600160a01b03166001600160a01b03168152602001908152602001600020805490508261263d9190613514565b91508061264981613341565b9150506125e7565b5060008167ffffffffffffffff81111561266d5761266d6132ff565b6040519080825280602002602001820160405280156126a657816020015b612693612d10565b81526020019060019003908161268b5790505b5090506000805b84518110156129a45760005b600460008784815181106126cf576126cf613315565b60200260200101516001600160a01b03166001600160a01b031681526020019081526020016000208054905081101561299157876001600160a01b03166004600088858151811061272257612722613315565b60200260200101516001600160a01b03166001600160a01b03168152602001908152602001600020828154811061275b5761275b613315565b60009182526020909120600690910201546001600160a01b03160361297f576004600087848151811061279057612790613315565b60200260200101516001600160a01b03166001600160a01b0316815260200190815260200160002081815481106127c9576127c9613315565b60009182526020918290206040805160e081018252600690930290910180546001600160a01b03908116845260018201541693830193909352600283018054929392918401916128189061335a565b80601f01602080910402602001604051908101604052809291908181526020018280546128449061335a565b80156128915780601f1061286657610100808354040283529160200191612891565b820191906000526020600020905b81548152906001019060200180831161287457829003601f168201915b505050505081526020016003820180546128aa9061335a565b80601f01602080910402602001604051908101604052809291908181526020018280546128d69061335a565b80156129235780601f106128f857610100808354040283529160200191612923565b820191906000526020600020905b81548152906001019060200180831161290657829003601f168201915b50505091835250506004820154602082015260059091015460ff80821615156040840152610100909104161515606090910152848461296181613341565b95508151811061297357612973613315565b60200260200101819052505b8061298981613341565b9150506126b9565b508061299c81613341565b9150506126ad565b509095945050505050565b6000828152602081905260409020600101546129ca81612af2565b610b038383612afc565b806001600160a01b0381166129fc5760405163e6c4247b60e01b815260040160405180910390fd5b6000612a0781612af2565b612a1f6000805160206136ad83398151915284610ade565b6040516001600160a01b038416906000805160206136ad8339815191529060008051602061362d83398151915290600090a3505050565b600061077460008051602061364d83398151915283611c6f565b806001600160a01b038116612a985760405163e6c4247b60e01b815260040160405180910390fd5b6000612aa381612af2565b612abb60008051602061366d833981519152846129af565b6040516001600160a01b0384169060008051602061366d833981519152906000805160206136ed83398151915290600090a3505050565b610a598133612c8c565b6000612b088383611c6f565b15612b67576000838152602081815260408083206001600160a01b0386168085529252808320805460ff1916905551339286917ff6391f5c32d9c69d2a47ea670b442974b53935d1edc7fd64eb21e047a839171b9190a4506001610774565b506000610774565b6000612b7b8383611c6f565b612b67576000838152602081815260408083206001600160a01b03861684529091529020805460ff19166001179055612bb13390565b6001600160a01b0316826001600160a01b0316847f2f8788117e7eff1d82e926ec794901d17c78024a50270940304540a733656f0d60405160405180910390a4506001610774565b6000805b6001600160a01b038416600090815260026020526040902054811015612c82576001600160a01b03848116600090815260026020526040902080549185169183908110612c4c57612c4c613315565b6000918252602090912001546001600160a01b031603612c70576001915050610774565b80612c7a81613341565b915050612bfd565b5060009392505050565b612c968282611c6f565b612cc95760405163e2517d3f60e01b81526001600160a01b03821660048201526024810183905260440160405180910390fd5b5050565b6040805160c08101825260008082526020820152908101612cec612d10565b815260200160006001600160a01b0316815260200160608152602001600081525090565b6040518060e0016040528060006001600160a01b0316815260200160006001600160a01b031681526020016060815260200160608152602001600081526020016000151581526020016000151581525090565b600060208284031215612d7557600080fd5b81356001600160e01b031981168114612d8d57600080fd5b9392505050565b80356001600160a01b0381168114612dab57600080fd5b919050565b600060208284031215612dc257600080fd5b612d8d82612d94565b604080825283519082018190526000906020906060840190828701845b82811015612e0d5781516001600160a01b031684529284019290840190600101612de8565b5050508381038285015284518082528583019183019060005b81811015612e4257835183529284019291840191600101612e26565b5090979650505050505050565b600060208284031215612e6157600080fd5b5035919050565b60008060408385031215612e7b57600080fd5b82359150612e8b60208401612d94565b90509250929050565b60008083601f840112612ea657600080fd5b50813567ffffffffffffffff811115612ebe57600080fd5b602083019150836020828501011115612ed657600080fd5b9250929050565b60008060008060608587031215612ef357600080fd5b612efc85612d94565b935060208501359250604085013567ffffffffffffffff811115612f1f57600080fd5b612f2b87828801612e94565b95989497509550505050565b60008060408385031215612f4a57600080fd5b50508035926020909101359150565b6000815180845260005b81811015612f7f57602081850181015186830182015201612f63565b506000602082860101526020601f19601f83011685010191505092915050565b600060018060a01b0380835116845280602084015116602085015250604082015160e06040850152612fd460e0850182612f59565b905060608301518482036060860152612fed8282612f59565b9150506080830151608085015260a0830151151560a085015260c0830151151560c08501528091505092915050565b60006020808301818452808551808352604092508286019150828160051b87010184880160005b838110156130d157888303603f19018552815180516001600160a01b03908116855288820151898601528782015160c0898701819052919061308783880182612f9f565b9250506060818185015116818801525050608080830151868303828801526130af8382612f59565b60a0948501519790940196909652505094870194925090860190600101613043565b509098975050505050505050565b6000806000606084860312156130f457600080fd5b8335925061310460208501612d94565b915061311260408501612d94565b90509250925092565b60008083601f84011261312d57600080fd5b50813567ffffffffffffffff81111561314557600080fd5b6020830191508360208260051b8501011115612ed657600080fd5b6000806000806040858703121561317657600080fd5b843567ffffffffffffffff8082111561318e57600080fd5b61319a8883890161311b565b909650945060208701359150808211156131b357600080fd5b50612f2b8782880161311b565b6000602080830181845280855180835260408601915060408160051b870101925083870160005b8281101561321557603f19888603018452613203858351612f9f565b945092850192908501906001016131e7565b5092979650505050505050565b8015158114610a5957600080fd5b6000806000806000806080878903121561324957600080fd5b61325287612d94565b9550602087013561326281613222565b9450604087013567ffffffffffffffff8082111561327f57600080fd5b61328b8a838b01612e94565b909650945060608901359150808211156132a457600080fd5b506132b189828a01612e94565b979a9699509497509295939492505050565b6000806000606084860312156132d857600080fd5b6132e184612d94565b92506132ef60208501612d94565b9150604084013590509250925092565b634e487b7160e01b600052604160045260246000fd5b634e487b7160e01b600052603260045260246000fd5b634e487b7160e01b600052601160045260246000fd5b6000600182016133535761335361332b565b5060010190565b600181811c9082168061336e57607f821691505b60208210810361338e57634e487b7160e01b600052602260045260246000fd5b50919050565b601f821115610b3c57600081815260208120601f850160051c810160208610156133bb5750805b601f850160051c820191505b818110156133da578281556001016133c7565b505050505050565b815167ffffffffffffffff8111156133fc576133fc6132ff565b6134108161340a845461335a565b84613394565b602080601f831160018114613445576000841561342d5750858301515b600019600386901b1c1916600185901b1785556133da565b600085815260208120601f198616915b8281101561347457888601518255948401946001909101908401613455565b50858210156134925787850151600019600388901b60f8161c191681555b5050505050600190811b01905550565b81835281816020850137506000828201602090810191909152601f909101601f19169091010190565b6001600160a01b03851681526060602082018190526000906134f090830185876134a2565b905082604083015295945050505050565b818103818111156107745761077461332b565b808201808211156107745761077461332b565b60008184825b858110156129a4576001600160a01b0361354683612d94565b168352602092830192919091019060010161352d565b6020808252810182905260006001600160fb1b0383111561357c57600080fd5b8260051b80856040850137919091016040019392505050565b80820281158282048414176107745761077461332b565b86151581526080602082015260006135c86080830187896134a2565b82810360408401526135db8186886134a2565b915050826060830152979650505050505050565b60006020828403121561360157600080fd5b8151612d8d8161322256fe920994fc3bfe282f3f20cdccf1b7c5e46c63d963e822d98efff90abd41c12e212ae6a113c0ed5b78a53413ffbb7679881f11145ccfba4fb92e863dfcd5a1d2f3ee244ef9da0b2f89a74b208ea9fe1a639ebdf634027d9e1f092b58c39954fa37c41a06b26ced3a23b7bf835a0918ade784f4055ded86d18305f528f47a726052aa0ec51d0bf03ce5511c9ffc9de2b423d73d1faacd808abf2ac89ccea8a3ecf259a1c48e5837ad7a7f3dcedcbe129bf3249ec4fbf651fd4f5e2600ead39fe2f506fa31d7a92d9fa9a8898ac41d86ee9b13863605a361c85ae5d6010d5de4f280155aaafb6329a2098580462df33ec4b7441b19729b9601c5fc17ae1cf99a8a52a26469706673582212208972c7be2714e1a898cb647e829081a86faf4a9f1ff40814962004d66a94ecea64736f6c63430008140033","opcodes":"PUSH1 0xC0 PUSH1 0x40 MSTORE CALLVALUE DUP1 ISZERO PUSH3 0x11 JUMPI PUSH1 0x0 DUP1 REVERT JUMPDEST POP PUSH1 0x40 MLOAD PUSH3 0x3910 CODESIZE SUB DUP1 PUSH3 0x3910 DUP4 CODECOPY DUP2 ADD PUSH1 0x40 DUP2 SWAP1 MSTORE PUSH3 0x34 SWAP2 PUSH3 0x162 JUMP JUMPDEST PUSH3 0x41 PUSH1 0x0 CALLER PUSH3 0x85 JUMP JUMPDEST PUSH3 0x6D PUSH32 0xC41A06B26CED3A23B7BF835A0918ADE784F4055DED86D18305F528F47A726052 CALLER PUSH3 0x85 JUMP JUMPDEST PUSH1 0x1 PUSH1 0x1 PUSH1 0xA0 SHL SUB SWAP2 DUP3 AND PUSH1 0x80 MSTORE AND PUSH1 0xA0 MSTORE PUSH3 0x19A JUMP JUMPDEST PUSH3 0x91 DUP3 DUP3 PUSH3 0x96 JUMP JUMPDEST POP POP POP JUMP JUMPDEST PUSH1 0x0 DUP3 DUP2 MSTORE PUSH1 0x20 DUP2 DUP2 MSTORE PUSH1 0x40 DUP1 DUP4 KECCAK256 PUSH1 0x1 PUSH1 0x1 PUSH1 0xA0 SHL SUB DUP6 AND DUP5 MSTORE SWAP1 SWAP2 MSTORE DUP2 KECCAK256 SLOAD PUSH1 0xFF AND PUSH3 0x13B JUMPI PUSH1 0x0 DUP4 DUP2 MSTORE PUSH1 0x20 DUP2 DUP2 MSTORE PUSH1 0x40 DUP1 DUP4 KECCAK256 PUSH1 0x1 PUSH1 0x1 PUSH1 0xA0 SHL SUB DUP7 AND DUP5 MSTORE SWAP1 SWAP2 MSTORE SWAP1 KECCAK256 DUP1 SLOAD PUSH1 0xFF NOT AND PUSH1 0x1 OR SWAP1 SSTORE PUSH3 0xF2 CALLER SWAP1 JUMP JUMPDEST PUSH1 0x1 PUSH1 0x1 PUSH1 0xA0 SHL SUB AND DUP3 PUSH1 0x1 PUSH1 0x1 PUSH1 0xA0 SHL SUB AND DUP5 PUSH32 0x2F8788117E7EFF1D82E926EC794901D17C78024A50270940304540A733656F0D PUSH1 0x40 MLOAD PUSH1 0x40 MLOAD DUP1 SWAP2 SUB SWAP1 LOG4 POP PUSH1 0x1 PUSH3 0x13F JUMP JUMPDEST POP PUSH1 0x0 JUMPDEST SWAP3 SWAP2 POP POP JUMP JUMPDEST DUP1 MLOAD PUSH1 0x1 PUSH1 0x1 PUSH1 0xA0 SHL SUB DUP2 AND DUP2 EQ PUSH3 0x15D JUMPI PUSH1 0x0 DUP1 REVERT JUMPDEST SWAP2 SWAP1 POP JUMP JUMPDEST PUSH1 0x0 DUP1 PUSH1 0x40 DUP4 DUP6 SUB SLT ISZERO PUSH3 0x176 JUMPI PUSH1 0x0 DUP1 REVERT JUMPDEST PUSH3 0x181 DUP4 PUSH3 0x145 JUMP JUMPDEST SWAP2 POP PUSH3 0x191 PUSH1 0x20 DUP5 ADD PUSH3 0x145 JUMP JUMPDEST SWAP1 POP SWAP3 POP SWAP3 SWAP1 POP JUMP JUMPDEST PUSH1 0x80 MLOAD PUSH1 0xA0 MLOAD PUSH2 0x3742 PUSH3 0x1CE PUSH1 0x0 CODECOPY PUSH1 0x0 DUP2 DUP2 PUSH2 0x546 ADD MSTORE DUP2 DUP2 PUSH2 0x229B ADD MSTORE PUSH2 0x239C ADD MSTORE PUSH1 0x0 PUSH2 0x5C0 ADD MSTORE PUSH2 0x3742 PUSH1 0x0 RETURN INVALID PUSH1 0x80 PUSH1 0x40 MSTORE CALLVALUE DUP1 ISZERO PUSH2 0x10 JUMPI PUSH1 0x0 DUP1 REVERT JUMPDEST POP PUSH1 0x4 CALLDATASIZE LT PUSH2 0x2BB JUMPI PUSH1 0x0 CALLDATALOAD PUSH1 0xE0 SHR DUP1 PUSH4 0x784FEE0E GT PUSH2 0x182 JUMPI DUP1 PUSH4 0xB0614DB3 GT PUSH2 0xE9 JUMPI DUP1 PUSH4 0xC395FCB3 GT PUSH2 0xA2 JUMPI DUP1 PUSH4 0xE3A3C522 GT PUSH2 0x7C JUMPI DUP1 PUSH4 0xE3A3C522 EQ PUSH2 0x6F5 JUMPI DUP1 PUSH4 0xE55B4F93 EQ PUSH2 0x70A JUMPI DUP1 PUSH4 0xF53F5E1E EQ PUSH2 0x71D JUMPI DUP1 PUSH4 0xFC810286 EQ PUSH2 0x730 JUMPI PUSH1 0x0 DUP1 REVERT JUMPDEST DUP1 PUSH4 0xC395FCB3 EQ PUSH2 0x6BC JUMPI DUP1 PUSH4 0xCC5ED5EA EQ PUSH2 0x6CF JUMPI DUP1 PUSH4 0xD547741F EQ PUSH2 0x6E2 JUMPI PUSH1 0x0 DUP1 REVERT JUMPDEST DUP1 PUSH4 0xB0614DB3 EQ PUSH2 0x608 JUMPI DUP1 PUSH4 0xB1BA3883 EQ PUSH2 0x65C JUMPI DUP1 PUSH4 0xB1EA540E EQ PUSH2 0x66F JUMPI DUP1 PUSH4 0xB5617EF7 EQ PUSH2 0x682 JUMPI DUP1 PUSH4 0xB8AD415E EQ PUSH2 0x6A2 JUMPI DUP1 PUSH4 0xBD7CA7BA EQ PUSH2 0x6A9 JUMPI PUSH1 0x0 DUP1 REVERT JUMPDEST DUP1 PUSH4 0x9A98163B GT PUSH2 0x13B JUMPI DUP1 PUSH4 0x9A98163B EQ PUSH2 0x580 JUMPI DUP1 PUSH4 0xA1F34163 EQ PUSH2 0x5A0 JUMPI DUP1 PUSH4 0xA217FDDF EQ PUSH2 0x5B3 JUMPI DUP1 PUSH4 0xA3574C5B EQ PUSH2 0x5BB JUMPI DUP1 PUSH4 0xAA52617C EQ PUSH2 0x5E2 JUMPI DUP1 PUSH4 0xABAA536F EQ PUSH2 0x5F5 JUMPI PUSH1 0x0 DUP1 REVERT JUMPDEST DUP1 PUSH4 0x784FEE0E EQ PUSH2 0x4E0 JUMPI DUP1 PUSH4 0x7BFF0975 EQ PUSH2 0x4F5 JUMPI DUP1 PUSH4 0x7E5EFFA4 EQ PUSH2 0x508 JUMPI DUP1 PUSH4 0x8850845F EQ PUSH2 0x51B JUMPI DUP1 PUSH4 0x91D14854 EQ PUSH2 0x52E JUMPI DUP1 PUSH4 0x99EB08D6 EQ PUSH2 0x541 JUMPI PUSH1 0x0 DUP1 REVERT JUMPDEST DUP1 PUSH4 0x456F19FC GT PUSH2 0x226 JUMPI DUP1 PUSH4 0x61462F0E GT PUSH2 0x1DF JUMPI DUP1 PUSH4 0x61462F0E EQ PUSH2 0x468 JUMPI DUP1 PUSH4 0x68B688C1 EQ PUSH2 0x47B JUMPI DUP1 PUSH4 0x68DD17A5 EQ PUSH2 0x48E JUMPI DUP1 PUSH4 0x69D0B517 EQ PUSH2 0x4A3 JUMPI DUP1 PUSH4 0x6E1D616E EQ PUSH2 0x4B8 JUMPI DUP1 PUSH4 0x7780E9C1 EQ PUSH2 0x4CD JUMPI PUSH1 0x0 DUP1 REVERT JUMPDEST DUP1 PUSH4 0x456F19FC EQ PUSH2 0x3E9 JUMPI DUP1 PUSH4 0x4E4DDB92 EQ PUSH2 0x3FC JUMPI DUP1 PUSH4 0x52F84B72 EQ PUSH2 0x41C JUMPI DUP1 PUSH4 0x57C03371 EQ PUSH2 0x42F JUMPI DUP1 PUSH4 0x5CB87D26 EQ PUSH2 0x442 JUMPI DUP1 PUSH4 0x60376528 EQ PUSH2 0x455 JUMPI PUSH1 0x0 DUP1 REVERT JUMPDEST DUP1 PUSH4 0x261191B7 GT PUSH2 0x278 JUMPI DUP1 PUSH4 0x261191B7 EQ PUSH2 0x375 JUMPI DUP1 PUSH4 0x2F2FF15D EQ PUSH2 0x388 JUMPI DUP1 PUSH4 0x36568ABE EQ PUSH2 0x39B JUMPI DUP1 PUSH4 0x3CA7C02A EQ PUSH2 0x3AE JUMPI DUP1 PUSH4 0x3E251518 EQ PUSH2 0x3C3 JUMPI DUP1 PUSH4 0x4308AC98 EQ PUSH2 0x3D6 JUMPI PUSH1 0x0 DUP1 REVERT JUMPDEST DUP1 PUSH4 0x1FFC9A7 EQ PUSH2 0x2C0 JUMPI DUP1 PUSH4 0x443CD2A EQ PUSH2 0x2E8 JUMPI DUP1 PUSH4 0x8D0AEF7 EQ PUSH2 0x2FD JUMPI DUP1 PUSH4 0x1E223B2A EQ PUSH2 0x31E JUMPI DUP1 PUSH4 0x248A9CA3 EQ PUSH2 0x331 JUMPI DUP1 PUSH4 0x25D5E87E EQ PUSH2 0x362 JUMPI JUMPDEST PUSH1 0x0 DUP1 REVERT JUMPDEST PUSH2 0x2D3 PUSH2 0x2CE CALLDATASIZE PUSH1 0x4 PUSH2 0x2D63 JUMP JUMPDEST PUSH2 0x743 JUMP JUMPDEST PUSH1 0x40 MLOAD SWAP1 ISZERO ISZERO DUP2 MSTORE PUSH1 0x20 ADD JUMPDEST PUSH1 0x40 MLOAD DUP1 SWAP2 SUB SWAP1 RETURN JUMPDEST PUSH2 0x2FB PUSH2 0x2F6 CALLDATASIZE PUSH1 0x4 PUSH2 0x2DB0 JUMP JUMPDEST PUSH2 0x77A JUMP JUMPDEST STOP JUMPDEST PUSH2 0x310 PUSH2 0x30B CALLDATASIZE PUSH1 0x4 PUSH2 0x2DB0 JUMP JUMPDEST PUSH2 0x7FC JUMP JUMPDEST PUSH1 0x40 MLOAD PUSH2 0x2DF SWAP3 SWAP2 SWAP1 PUSH2 0x2DCB JUMP JUMPDEST PUSH2 0x2FB PUSH2 0x32C CALLDATASIZE PUSH1 0x4 PUSH2 0x2DB0 JUMP JUMPDEST PUSH2 0x958 JUMP JUMPDEST PUSH2 0x354 PUSH2 0x33F CALLDATASIZE PUSH1 0x4 PUSH2 0x2E4F JUMP JUMPDEST PUSH1 0x0 SWAP1 DUP2 MSTORE PUSH1 0x20 DUP2 SWAP1 MSTORE PUSH1 0x40 SWAP1 KECCAK256 PUSH1 0x1 ADD SLOAD SWAP1 JUMP JUMPDEST PUSH1 0x40 MLOAD SWAP1 DUP2 MSTORE PUSH1 0x20 ADD PUSH2 0x2DF JUMP JUMPDEST PUSH2 0x2FB PUSH2 0x370 CALLDATASIZE PUSH1 0x4 PUSH2 0x2DB0 JUMP JUMPDEST PUSH2 0x9DA JUMP JUMPDEST PUSH2 0x2FB PUSH2 0x383 CALLDATASIZE PUSH1 0x4 PUSH2 0x2DB0 JUMP JUMPDEST PUSH2 0xA5C JUMP JUMPDEST PUSH2 0x2FB PUSH2 0x396 CALLDATASIZE PUSH1 0x4 PUSH2 0x2E68 JUMP JUMPDEST PUSH2 0xADE JUMP JUMPDEST PUSH2 0x2FB PUSH2 0x3A9 CALLDATASIZE PUSH1 0x4 PUSH2 0x2E68 JUMP JUMPDEST PUSH2 0xB09 JUMP JUMPDEST PUSH2 0x354 PUSH1 0x0 DUP1 MLOAD PUSH1 0x20 PUSH2 0x364D DUP4 CODECOPY DUP2 MLOAD SWAP2 MSTORE DUP2 JUMP JUMPDEST PUSH2 0x2FB PUSH2 0x3D1 CALLDATASIZE PUSH1 0x4 PUSH2 0x2DB0 JUMP JUMPDEST PUSH2 0xB41 JUMP JUMPDEST PUSH2 0x2FB PUSH2 0x3E4 CALLDATASIZE PUSH1 0x4 PUSH2 0x2EDD JUMP JUMPDEST PUSH2 0xBC3 JUMP JUMPDEST PUSH2 0x2FB PUSH2 0x3F7 CALLDATASIZE PUSH1 0x4 PUSH2 0x2DB0 JUMP JUMPDEST PUSH2 0x10B3 JUMP JUMPDEST PUSH2 0x40F PUSH2 0x40A CALLDATASIZE PUSH1 0x4 PUSH2 0x2F37 JUMP JUMPDEST PUSH2 0x1135 JUMP JUMPDEST PUSH1 0x40 MLOAD PUSH2 0x2DF SWAP2 SWAP1 PUSH2 0x301C JUMP JUMPDEST PUSH2 0x2D3 PUSH2 0x42A CALLDATASIZE PUSH1 0x4 PUSH2 0x2DB0 JUMP JUMPDEST PUSH2 0x147B JUMP JUMPDEST PUSH2 0x2FB PUSH2 0x43D CALLDATASIZE PUSH1 0x4 PUSH2 0x2DB0 JUMP JUMPDEST PUSH2 0x1495 JUMP JUMPDEST PUSH2 0x2FB PUSH2 0x450 CALLDATASIZE PUSH1 0x4 PUSH2 0x30DF JUMP JUMPDEST PUSH2 0x1517 JUMP JUMPDEST PUSH2 0x2FB PUSH2 0x463 CALLDATASIZE PUSH1 0x4 PUSH2 0x2DB0 JUMP JUMPDEST PUSH2 0x15AA JUMP JUMPDEST PUSH2 0x2FB PUSH2 0x476 CALLDATASIZE PUSH1 0x4 PUSH2 0x3160 JUMP JUMPDEST PUSH2 0x162C JUMP JUMPDEST PUSH2 0x40F PUSH2 0x489 CALLDATASIZE PUSH1 0x4 PUSH2 0x2DB0 JUMP JUMPDEST PUSH2 0x173F JUMP JUMPDEST PUSH2 0x354 PUSH1 0x0 DUP1 MLOAD PUSH1 0x20 PUSH2 0x360D DUP4 CODECOPY DUP2 MLOAD SWAP2 MSTORE DUP2 JUMP JUMPDEST PUSH2 0x354 PUSH1 0x0 DUP1 MLOAD PUSH1 0x20 PUSH2 0x366D DUP4 CODECOPY DUP2 MLOAD SWAP2 MSTORE DUP2 JUMP JUMPDEST PUSH2 0x354 PUSH1 0x0 DUP1 MLOAD PUSH1 0x20 PUSH2 0x36AD DUP4 CODECOPY DUP2 MLOAD SWAP2 MSTORE DUP2 JUMP JUMPDEST PUSH2 0x2FB PUSH2 0x4DB CALLDATASIZE PUSH1 0x4 PUSH2 0x2E4F JUMP JUMPDEST PUSH2 0x1AD0 JUMP JUMPDEST PUSH2 0x354 PUSH1 0x0 DUP1 MLOAD PUSH1 0x20 PUSH2 0x368D DUP4 CODECOPY DUP2 MLOAD SWAP2 MSTORE DUP2 JUMP JUMPDEST PUSH2 0x2D3 PUSH2 0x503 CALLDATASIZE PUSH1 0x4 PUSH2 0x2DB0 JUMP JUMPDEST PUSH2 0x1BBD JUMP JUMPDEST PUSH2 0x2FB PUSH2 0x516 CALLDATASIZE PUSH1 0x4 PUSH2 0x2DB0 JUMP JUMPDEST PUSH2 0x1BD7 JUMP JUMPDEST PUSH2 0x2D3 PUSH2 0x529 CALLDATASIZE PUSH1 0x4 PUSH2 0x2DB0 JUMP JUMPDEST PUSH2 0x1C59 JUMP JUMPDEST PUSH2 0x2D3 PUSH2 0x53C CALLDATASIZE PUSH1 0x4 PUSH2 0x2E68 JUMP JUMPDEST PUSH2 0x1C6F JUMP JUMPDEST PUSH2 0x568 PUSH32 0x0 DUP2 JUMP JUMPDEST PUSH1 0x40 MLOAD PUSH1 0x1 PUSH1 0x1 PUSH1 0xA0 SHL SUB SWAP1 SWAP2 AND DUP2 MSTORE PUSH1 0x20 ADD PUSH2 0x2DF JUMP JUMPDEST PUSH2 0x593 PUSH2 0x58E CALLDATASIZE PUSH1 0x4 PUSH2 0x2DB0 JUMP JUMPDEST PUSH2 0x1C98 JUMP JUMPDEST PUSH1 0x40 MLOAD PUSH2 0x2DF SWAP2 SWAP1 PUSH2 0x31C0 JUMP JUMPDEST PUSH2 0x2D3 PUSH2 0x5AE CALLDATASIZE PUSH1 0x4 PUSH2 0x2DB0 JUMP JUMPDEST PUSH2 0x1EB8 JUMP JUMPDEST PUSH2 0x354 PUSH1 0x0 DUP2 JUMP JUMPDEST PUSH2 0x568 PUSH32 0x0 DUP2 JUMP JUMPDEST PUSH2 0x2FB PUSH2 0x5F0 CALLDATASIZE PUSH1 0x4 PUSH2 0x2DB0 JUMP JUMPDEST PUSH2 0x1ED2 JUMP JUMPDEST PUSH2 0x2D3 PUSH2 0x603 CALLDATASIZE PUSH1 0x4 PUSH2 0x2DB0 JUMP JUMPDEST PUSH2 0x1F54 JUMP JUMPDEST PUSH2 0x61B PUSH2 0x616 CALLDATASIZE PUSH1 0x4 PUSH2 0x2DB0 JUMP JUMPDEST PUSH2 0x1F6E JUMP JUMPDEST PUSH1 0x40 DUP1 MLOAD SWAP8 ISZERO ISZERO DUP9 MSTORE SWAP6 ISZERO ISZERO PUSH1 0x20 DUP9 ADD MSTORE SWAP4 ISZERO ISZERO SWAP5 DUP7 ADD SWAP5 SWAP1 SWAP5 MSTORE SWAP1 ISZERO ISZERO PUSH1 0x60 DUP6 ADD MSTORE ISZERO ISZERO PUSH1 0x80 DUP5 ADD MSTORE SWAP1 ISZERO ISZERO PUSH1 0xA0 DUP4 ADD MSTORE ISZERO ISZERO PUSH1 0xC0 DUP3 ADD MSTORE PUSH1 0xE0 ADD PUSH2 0x2DF JUMP JUMPDEST PUSH2 0x2FB PUSH2 0x66A CALLDATASIZE PUSH1 0x4 PUSH2 0x3230 JUMP JUMPDEST PUSH2 0x2027 JUMP JUMPDEST PUSH2 0x2FB PUSH2 0x67D CALLDATASIZE PUSH1 0x4 PUSH2 0x32C3 JUMP JUMPDEST PUSH2 0x2357 JUMP JUMPDEST PUSH2 0x354 PUSH2 0x690 CALLDATASIZE PUSH1 0x4 PUSH2 0x2DB0 JUMP JUMPDEST PUSH1 0x1 PUSH1 0x20 MSTORE PUSH1 0x0 SWAP1 DUP2 MSTORE PUSH1 0x40 SWAP1 KECCAK256 SLOAD DUP2 JUMP JUMPDEST PUSH1 0x18 PUSH2 0x354 JUMP JUMPDEST PUSH2 0x2FB PUSH2 0x6B7 CALLDATASIZE PUSH1 0x4 PUSH2 0x2DB0 JUMP JUMPDEST PUSH2 0x2518 JUMP JUMPDEST PUSH2 0x2D3 PUSH2 0x6CA CALLDATASIZE PUSH1 0x4 PUSH2 0x2DB0 JUMP JUMPDEST PUSH2 0x2563 JUMP JUMPDEST PUSH2 0x593 PUSH2 0x6DD CALLDATASIZE PUSH1 0x4 PUSH2 0x2DB0 JUMP JUMPDEST PUSH2 0x256F JUMP JUMPDEST PUSH2 0x2FB PUSH2 0x6F0 CALLDATASIZE PUSH1 0x4 PUSH2 0x2E68 JUMP JUMPDEST PUSH2 0x29AF JUMP JUMPDEST PUSH2 0x354 PUSH1 0x0 DUP1 MLOAD PUSH1 0x20 PUSH2 0x36CD DUP4 CODECOPY DUP2 MLOAD SWAP2 MSTORE DUP2 JUMP JUMPDEST PUSH2 0x2FB PUSH2 0x718 CALLDATASIZE PUSH1 0x4 PUSH2 0x2DB0 JUMP JUMPDEST PUSH2 0x29D4 JUMP JUMPDEST PUSH2 0x2D3 PUSH2 0x72B CALLDATASIZE PUSH1 0x4 PUSH2 0x2DB0 JUMP JUMPDEST PUSH2 0x2A56 JUMP JUMPDEST PUSH2 0x2FB PUSH2 0x73E CALLDATASIZE PUSH1 0x4 PUSH2 0x2DB0 JUMP JUMPDEST PUSH2 0x2A70 JUMP JUMPDEST PUSH1 0x0 PUSH1 0x1 PUSH1 0x1 PUSH1 0xE0 SHL SUB NOT DUP3 AND PUSH4 0x7965DB0B PUSH1 0xE0 SHL EQ DUP1 PUSH2 0x774 JUMPI POP PUSH4 0x1FFC9A7 PUSH1 0xE0 SHL PUSH1 0x1 PUSH1 0x1 PUSH1 0xE0 SHL SUB NOT DUP4 AND EQ JUMPDEST SWAP3 SWAP2 POP POP JUMP JUMPDEST DUP1 PUSH1 0x1 PUSH1 0x1 PUSH1 0xA0 SHL SUB DUP2 AND PUSH2 0x7A2 JUMPI PUSH1 0x40 MLOAD PUSH4 0xE6C4247B PUSH1 0xE0 SHL DUP2 MSTORE PUSH1 0x4 ADD PUSH1 0x40 MLOAD DUP1 SWAP2 SUB SWAP1 REVERT JUMPDEST PUSH1 0x0 PUSH2 0x7AD DUP2 PUSH2 0x2AF2 JUMP JUMPDEST PUSH2 0x7C5 PUSH1 0x0 DUP1 MLOAD PUSH1 0x20 PUSH2 0x364D DUP4 CODECOPY DUP2 MLOAD SWAP2 MSTORE DUP5 PUSH2 0x29AF JUMP JUMPDEST PUSH1 0x40 MLOAD PUSH1 0x1 PUSH1 0x1 PUSH1 0xA0 SHL SUB DUP5 AND SWAP1 PUSH1 0x0 DUP1 MLOAD PUSH1 0x20 PUSH2 0x364D DUP4 CODECOPY DUP2 MLOAD SWAP2 MSTORE SWAP1 PUSH1 0x0 DUP1 MLOAD PUSH1 0x20 PUSH2 0x36ED DUP4 CODECOPY DUP2 MLOAD SWAP2 MSTORE SWAP1 PUSH1 0x0 SWAP1 LOG3 POP POP POP JUMP JUMPDEST PUSH1 0x1 PUSH1 0x1 PUSH1 0xA0 SHL SUB DUP2 AND PUSH1 0x0 SWAP1 DUP2 MSTORE PUSH1 0x2 PUSH1 0x20 SWAP1 DUP2 MSTORE PUSH1 0x40 DUP1 DUP4 KECCAK256 DUP1 SLOAD DUP3 MLOAD DUP2 DUP6 MUL DUP2 ADD DUP6 ADD SWAP1 SWAP4 MSTORE DUP1 DUP4 MSTORE PUSH1 0x60 SWAP5 DUP6 SWAP5 SWAP1 SWAP4 SWAP3 SWAP2 SWAP1 DUP4 ADD DUP3 DUP3 DUP1 ISZERO PUSH2 0x86B JUMPI PUSH1 0x20 MUL DUP3 ADD SWAP2 SWAP1 PUSH1 0x0 MSTORE PUSH1 0x20 PUSH1 0x0 KECCAK256 SWAP1 JUMPDEST DUP2 SLOAD PUSH1 0x1 PUSH1 0x1 PUSH1 0xA0 SHL SUB AND DUP2 MSTORE PUSH1 0x1 SWAP1 SWAP2 ADD SWAP1 PUSH1 0x20 ADD DUP1 DUP4 GT PUSH2 0x84D JUMPI JUMPDEST POP POP POP POP POP SWAP1 POP PUSH1 0x0 DUP2 MLOAD PUSH8 0xFFFFFFFFFFFFFFFF DUP2 GT ISZERO PUSH2 0x88E JUMPI PUSH2 0x88E PUSH2 0x32FF JUMP JUMPDEST PUSH1 0x40 MLOAD SWAP1 DUP1 DUP3 MSTORE DUP1 PUSH1 0x20 MUL PUSH1 0x20 ADD DUP3 ADD PUSH1 0x40 MSTORE DUP1 ISZERO PUSH2 0x8B7 JUMPI DUP2 PUSH1 0x20 ADD PUSH1 0x20 DUP3 MUL DUP1 CALLDATASIZE DUP4 CALLDATACOPY ADD SWAP1 POP JUMPDEST POP SWAP1 POP PUSH1 0x0 JUMPDEST DUP3 MLOAD DUP2 LT ISZERO PUSH2 0x94D JUMPI PUSH1 0x1 PUSH1 0x1 PUSH1 0xA0 SHL SUB DUP7 AND PUSH1 0x0 SWAP1 DUP2 MSTORE PUSH1 0x5 PUSH1 0x20 MSTORE PUSH1 0x40 DUP2 KECCAK256 DUP5 MLOAD SWAP1 SWAP2 SWAP1 DUP6 SWAP1 DUP5 SWAP1 DUP2 LT PUSH2 0x8F5 JUMPI PUSH2 0x8F5 PUSH2 0x3315 JUMP JUMPDEST PUSH1 0x20 MUL PUSH1 0x20 ADD ADD MLOAD PUSH1 0x1 PUSH1 0x1 PUSH1 0xA0 SHL SUB AND PUSH1 0x1 PUSH1 0x1 PUSH1 0xA0 SHL SUB AND DUP2 MSTORE PUSH1 0x20 ADD SWAP1 DUP2 MSTORE PUSH1 0x20 ADD PUSH1 0x0 KECCAK256 SLOAD DUP3 DUP3 DUP2 MLOAD DUP2 LT PUSH2 0x930 JUMPI PUSH2 0x930 PUSH2 0x3315 JUMP JUMPDEST PUSH1 0x20 SWAP1 DUP2 MUL SWAP2 SWAP1 SWAP2 ADD ADD MSTORE DUP1 PUSH2 0x945 DUP2 PUSH2 0x3341 JUMP JUMPDEST SWAP2 POP POP PUSH2 0x8BD JUMP JUMPDEST POP SWAP1 SWAP5 SWAP1 SWAP4 POP SWAP2 POP POP JUMP JUMPDEST DUP1 PUSH1 0x1 PUSH1 0x1 PUSH1 0xA0 SHL SUB DUP2 AND PUSH2 0x980 JUMPI PUSH1 0x40 MLOAD PUSH4 0xE6C4247B PUSH1 0xE0 SHL DUP2 MSTORE PUSH1 0x4 ADD PUSH1 0x40 MLOAD DUP1 SWAP2 SUB SWAP1 REVERT JUMPDEST PUSH1 0x0 PUSH2 0x98B DUP2 PUSH2 0x2AF2 JUMP JUMPDEST PUSH2 0x9A3 PUSH1 0x0 DUP1 MLOAD PUSH1 0x20 PUSH2 0x360D DUP4 CODECOPY DUP2 MLOAD SWAP2 MSTORE DUP5 PUSH2 0xADE JUMP JUMPDEST PUSH1 0x40 MLOAD PUSH1 0x1 PUSH1 0x1 PUSH1 0xA0 SHL SUB DUP5 AND SWAP1 PUSH1 0x0 DUP1 MLOAD PUSH1 0x20 PUSH2 0x360D DUP4 CODECOPY DUP2 MLOAD SWAP2 MSTORE SWAP1 PUSH1 0x0 DUP1 MLOAD PUSH1 0x20 PUSH2 0x362D DUP4 CODECOPY DUP2 MLOAD SWAP2 MSTORE SWAP1 PUSH1 0x0 SWAP1 LOG3 POP POP POP JUMP JUMPDEST PUSH2 0x9E3 DUP2 PUSH2 0x2A56 JUMP JUMPDEST DUP1 ISZERO PUSH2 0xA06 JUMPI POP PUSH1 0x1 PUSH1 0x1 PUSH1 0xA0 SHL SUB DUP2 AND PUSH1 0x0 SWAP1 DUP2 MSTORE PUSH1 0x1 PUSH1 0x20 MSTORE PUSH1 0x40 SWAP1 KECCAK256 SLOAD TIMESTAMP GT JUMPDEST ISZERO PUSH2 0xA59 JUMPI PUSH2 0xA23 PUSH1 0x0 DUP1 MLOAD PUSH1 0x20 PUSH2 0x364D DUP4 CODECOPY DUP2 MLOAD SWAP2 MSTORE DUP3 PUSH2 0x2AFC JUMP JUMPDEST POP PUSH1 0x40 MLOAD PUSH1 0x1 PUSH1 0x1 PUSH1 0xA0 SHL SUB DUP3 AND SWAP1 PUSH32 0xA6F32BCBC7DE829D50E1C9CBC1C5B4DAFB4C7A0B8329757AEE62A9B394D71C3B SWAP1 PUSH1 0x0 SWAP1 LOG2 JUMPDEST POP JUMP JUMPDEST DUP1 PUSH1 0x1 PUSH1 0x1 PUSH1 0xA0 SHL SUB DUP2 AND PUSH2 0xA84 JUMPI PUSH1 0x40 MLOAD PUSH4 0xE6C4247B PUSH1 0xE0 SHL DUP2 MSTORE PUSH1 0x4 ADD PUSH1 0x40 MLOAD DUP1 SWAP2 SUB SWAP1 REVERT JUMPDEST PUSH1 0x0 PUSH2 0xA8F DUP2 PUSH2 0x2AF2 JUMP JUMPDEST PUSH2 0xAA7 PUSH1 0x0 DUP1 MLOAD PUSH1 0x20 PUSH2 0x368D DUP4 CODECOPY DUP2 MLOAD SWAP2 MSTORE DUP5 PUSH2 0x29AF JUMP JUMPDEST PUSH1 0x40 MLOAD PUSH1 0x1 PUSH1 0x1 PUSH1 0xA0 SHL SUB DUP5 AND SWAP1 PUSH1 0x0 DUP1 MLOAD PUSH1 0x20 PUSH2 0x368D DUP4 CODECOPY DUP2 MLOAD SWAP2 MSTORE SWAP1 PUSH1 0x0 DUP1 MLOAD PUSH1 0x20 PUSH2 0x36ED DUP4 CODECOPY DUP2 MLOAD SWAP2 MSTORE SWAP1 PUSH1 0x0 SWAP1 LOG3 POP POP POP JUMP JUMPDEST PUSH1 0x0 DUP3 DUP2 MSTORE PUSH1 0x20 DUP2 SWAP1 MSTORE PUSH1 0x40 SWAP1 KECCAK256 PUSH1 0x1 ADD SLOAD PUSH2 0xAF9 DUP2 PUSH2 0x2AF2 JUMP JUMPDEST PUSH2 0xB03 DUP4 DUP4 PUSH2 0x2B6F JUMP JUMPDEST POP POP POP POP JUMP JUMPDEST PUSH1 0x1 PUSH1 0x1 PUSH1 0xA0 SHL SUB DUP2 AND CALLER EQ PUSH2 0xB32 JUMPI PUSH1 0x40 MLOAD PUSH4 0x334BD919 PUSH1 0xE1 SHL DUP2 MSTORE PUSH1 0x4 ADD PUSH1 0x40 MLOAD DUP1 SWAP2 SUB SWAP1 REVERT JUMPDEST PUSH2 0xB3C DUP3 DUP3 PUSH2 0x2AFC JUMP JUMPDEST POP POP POP JUMP JUMPDEST DUP1 PUSH1 0x1 PUSH1 0x1 PUSH1 0xA0 SHL SUB DUP2 AND PUSH2 0xB69 JUMPI PUSH1 0x40 MLOAD PUSH4 0xE6C4247B PUSH1 0xE0 SHL DUP2 MSTORE PUSH1 0x4 ADD PUSH1 0x40 MLOAD DUP1 SWAP2 SUB SWAP1 REVERT JUMPDEST PUSH1 0x0 PUSH2 0xB74 DUP2 PUSH2 0x2AF2 JUMP JUMPDEST PUSH2 0xB8C PUSH1 0x0 DUP1 MLOAD PUSH1 0x20 PUSH2 0x36AD DUP4 CODECOPY DUP2 MLOAD SWAP2 MSTORE DUP5 PUSH2 0x29AF JUMP JUMPDEST PUSH1 0x40 MLOAD PUSH1 0x1 PUSH1 0x1 PUSH1 0xA0 SHL SUB DUP5 AND SWAP1 PUSH1 0x0 DUP1 MLOAD PUSH1 0x20 PUSH2 0x36AD DUP4 CODECOPY DUP2 MLOAD SWAP2 MSTORE SWAP1 PUSH1 0x0 DUP1 MLOAD PUSH1 0x20 PUSH2 0x36ED DUP4 CODECOPY DUP2 MLOAD SWAP2 MSTORE SWAP1 PUSH1 0x0 SWAP1 LOG3 POP POP POP JUMP JUMPDEST PUSH1 0x0 DUP1 MLOAD PUSH1 0x20 PUSH2 0x36AD DUP4 CODECOPY DUP2 MLOAD SWAP2 MSTORE PUSH2 0xBDB DUP2 PUSH2 0x2AF2 JUMP JUMPDEST PUSH1 0x1 PUSH1 0x1 PUSH1 0xA0 SHL SUB DUP6 AND PUSH1 0x0 SWAP1 DUP2 MSTORE PUSH1 0x4 PUSH1 0x20 MSTORE PUSH1 0x40 SWAP1 KECCAK256 SLOAD DUP5 GT ISZERO PUSH2 0xC14 JUMPI PUSH1 0x40 MLOAD PUSH4 0x15C25FFD PUSH1 0xE0 SHL DUP2 MSTORE PUSH1 0x4 ADD PUSH1 0x40 MLOAD DUP1 SWAP2 SUB SWAP1 REVERT JUMPDEST PUSH1 0x1 PUSH1 0x1 PUSH1 0xA0 SHL SUB DUP6 AND PUSH1 0x0 SWAP1 DUP2 MSTORE PUSH1 0x4 PUSH1 0x20 MSTORE PUSH1 0x40 SWAP1 KECCAK256 DUP1 SLOAD DUP6 SWAP1 DUP2 LT PUSH2 0xC3E JUMPI PUSH2 0xC3E PUSH2 0x3315 JUMP JUMPDEST SWAP1 PUSH1 0x0 MSTORE PUSH1 0x20 PUSH1 0x0 KECCAK256 SWAP1 PUSH1 0x6 MUL ADD PUSH1 0x5 ADD PUSH1 0x1 SWAP1 SLOAD SWAP1 PUSH2 0x100 EXP SWAP1 DIV PUSH1 0xFF AND ISZERO PUSH2 0xC7B JUMPI PUSH1 0x40 MLOAD PUSH4 0xC2D1C491 PUSH1 0xE0 SHL DUP2 MSTORE PUSH1 0x4 ADD PUSH1 0x40 MLOAD DUP1 SWAP2 SUB SWAP1 REVERT JUMPDEST PUSH1 0x1 PUSH1 0x1 PUSH1 0xA0 SHL SUB DUP6 AND PUSH1 0x0 SWAP1 DUP2 MSTORE PUSH1 0x4 PUSH1 0x20 MSTORE PUSH1 0x40 SWAP1 KECCAK256 DUP1 SLOAD PUSH1 0x1 SWAP2 SWAP1 DUP7 SWAP1 DUP2 LT PUSH2 0xCA9 JUMPI PUSH2 0xCA9 PUSH2 0x3315 JUMP JUMPDEST SWAP1 PUSH1 0x0 MSTORE PUSH1 0x20 PUSH1 0x0 KECCAK256 SWAP1 PUSH1 0x6 MUL ADD PUSH1 0x5 ADD PUSH1 0x1 PUSH2 0x100 EXP DUP2 SLOAD DUP2 PUSH1 0xFF MUL NOT AND SWAP1 DUP4 ISZERO ISZERO MUL OR SWAP1 SSTORE POP PUSH1 0x0 PUSH1 0x40 MLOAD DUP1 PUSH1 0xC0 ADD PUSH1 0x40 MSTORE DUP1 DUP8 PUSH1 0x1 PUSH1 0x1 PUSH1 0xA0 SHL SUB AND DUP2 MSTORE PUSH1 0x20 ADD DUP7 DUP2 MSTORE PUSH1 0x20 ADD PUSH1 0x4 PUSH1 0x0 DUP10 PUSH1 0x1 PUSH1 0x1 PUSH1 0xA0 SHL SUB AND PUSH1 0x1 PUSH1 0x1 PUSH1 0xA0 SHL SUB AND DUP2 MSTORE PUSH1 0x20 ADD SWAP1 DUP2 MSTORE PUSH1 0x20 ADD PUSH1 0x0 KECCAK256 DUP8 DUP2 SLOAD DUP2 LT PUSH2 0xD29 JUMPI PUSH2 0xD29 PUSH2 0x3315 JUMP JUMPDEST PUSH1 0x0 SWAP2 DUP3 MSTORE PUSH1 0x20 SWAP2 DUP3 SWAP1 KECCAK256 PUSH1 0x40 DUP1 MLOAD PUSH1 0xE0 DUP2 ADD DUP3 MSTORE PUSH1 0x6 SWAP1 SWAP4 MUL SWAP1 SWAP2 ADD DUP1 SLOAD PUSH1 0x1 PUSH1 0x1 PUSH1 0xA0 SHL SUB SWAP1 DUP2 AND DUP5 MSTORE PUSH1 0x1 DUP3 ADD SLOAD AND SWAP4 DUP4 ADD SWAP4 SWAP1 SWAP4 MSTORE PUSH1 0x2 DUP4 ADD DUP1 SLOAD SWAP3 SWAP4 SWAP3 SWAP2 DUP5 ADD SWAP2 PUSH2 0xD78 SWAP1 PUSH2 0x335A JUMP JUMPDEST DUP1 PUSH1 0x1F ADD PUSH1 0x20 DUP1 SWAP2 DIV MUL PUSH1 0x20 ADD PUSH1 0x40 MLOAD SWAP1 DUP2 ADD PUSH1 0x40 MSTORE DUP1 SWAP3 SWAP2 SWAP1 DUP2 DUP2 MSTORE PUSH1 0x20 ADD DUP3 DUP1 SLOAD PUSH2 0xDA4 SWAP1 PUSH2 0x335A JUMP JUMPDEST DUP1 ISZERO PUSH2 0xDF1 JUMPI DUP1 PUSH1 0x1F LT PUSH2 0xDC6 JUMPI PUSH2 0x100 DUP1 DUP4 SLOAD DIV MUL DUP4 MSTORE SWAP2 PUSH1 0x20 ADD SWAP2 PUSH2 0xDF1 JUMP JUMPDEST DUP3 ADD SWAP2 SWAP1 PUSH1 0x0 MSTORE PUSH1 0x20 PUSH1 0x0 KECCAK256 SWAP1 JUMPDEST DUP2 SLOAD DUP2 MSTORE SWAP1 PUSH1 0x1 ADD SWAP1 PUSH1 0x20 ADD DUP1 DUP4 GT PUSH2 0xDD4 JUMPI DUP3 SWAP1 SUB PUSH1 0x1F AND DUP3 ADD SWAP2 JUMPDEST POP POP POP POP POP DUP2 MSTORE PUSH1 0x20 ADD PUSH1 0x3 DUP3 ADD DUP1 SLOAD PUSH2 0xE0A SWAP1 PUSH2 0x335A JUMP JUMPDEST DUP1 PUSH1 0x1F ADD PUSH1 0x20 DUP1 SWAP2 DIV MUL PUSH1 0x20 ADD PUSH1 0x40 MLOAD SWAP1 DUP2 ADD PUSH1 0x40 MSTORE DUP1 SWAP3 SWAP2 SWAP1 DUP2 DUP2 MSTORE PUSH1 0x20 ADD DUP3 DUP1 SLOAD PUSH2 0xE36 SWAP1 PUSH2 0x335A JUMP JUMPDEST DUP1 ISZERO PUSH2 0xE83 JUMPI DUP1 PUSH1 0x1F LT PUSH2 0xE58 JUMPI PUSH2 0x100 DUP1 DUP4 SLOAD DIV MUL DUP4 MSTORE SWAP2 PUSH1 0x20 ADD SWAP2 PUSH2 0xE83 JUMP JUMPDEST DUP3 ADD SWAP2 SWAP1 PUSH1 0x0 MSTORE PUSH1 0x20 PUSH1 0x0 KECCAK256 SWAP1 JUMPDEST DUP2 SLOAD DUP2 MSTORE SWAP1 PUSH1 0x1 ADD SWAP1 PUSH1 0x20 ADD DUP1 DUP4 GT PUSH2 0xE66 JUMPI DUP3 SWAP1 SUB PUSH1 0x1F AND DUP3 ADD SWAP2 JUMPDEST POP POP POP SWAP2 DUP4 MSTORE POP POP PUSH1 0x4 DUP3 ADD SLOAD PUSH1 0x20 DUP1 DUP4 ADD SWAP2 SWAP1 SWAP2 MSTORE PUSH1 0x5 SWAP1 SWAP3 ADD SLOAD PUSH1 0xFF DUP1 DUP3 AND ISZERO ISZERO PUSH1 0x40 DUP1 DUP6 ADD SWAP2 SWAP1 SWAP2 MSTORE PUSH2 0x100 SWAP1 SWAP3 DIV AND ISZERO ISZERO PUSH1 0x60 SWAP1 SWAP3 ADD SWAP2 SWAP1 SWAP2 MSTORE SWAP2 DUP4 MSTORE CALLER DUP4 DUP3 ADD MSTORE DUP2 MLOAD PUSH1 0x1F DUP9 ADD DUP3 SWAP1 DIV DUP3 MUL DUP2 ADD DUP3 ADD DUP4 MSTORE DUP8 DUP2 MSTORE SWAP3 SWAP1 SWAP2 ADD SWAP2 SWAP1 DUP8 SWAP1 DUP8 SWAP1 DUP2 SWAP1 DUP5 ADD DUP4 DUP3 DUP1 DUP3 DUP5 CALLDATACOPY PUSH1 0x0 SWAP3 ADD DUP3 SWAP1 MSTORE POP SWAP4 DUP6 MSTORE POP POP TIMESTAMP PUSH1 0x20 SWAP4 DUP5 ADD MSTORE POP PUSH1 0x8 SLOAD DUP2 MSTORE PUSH1 0x6 DUP3 MSTORE PUSH1 0x40 SWAP1 DUP2 SWAP1 KECCAK256 DUP4 MLOAD DUP2 SLOAD PUSH1 0x1 PUSH1 0x1 PUSH1 0xA0 SHL SUB NOT SWAP1 DUP2 AND PUSH1 0x1 PUSH1 0x1 PUSH1 0xA0 SHL SUB SWAP3 DUP4 AND OR DUP4 SSTORE DUP6 DUP6 ADD MLOAD PUSH1 0x1 DUP5 ADD SSTORE DUP6 DUP5 ADD MLOAD DUP1 MLOAD PUSH1 0x2 DUP6 ADD DUP1 SLOAD DUP5 AND SWAP2 DUP6 AND SWAP2 SWAP1 SWAP2 OR DUP2 SSTORE SWAP6 DUP2 ADD MLOAD PUSH1 0x3 DUP6 ADD DUP1 SLOAD SWAP1 SWAP4 AND SWAP4 AND SWAP3 SWAP1 SWAP3 OR SWAP1 SSTORE SWAP2 DUP3 ADD MLOAD SWAP4 SWAP5 POP DUP5 SWAP4 SWAP1 SWAP3 SWAP1 PUSH1 0x4 DUP5 ADD SWAP1 PUSH2 0xF83 SWAP1 DUP3 PUSH2 0x33E2 JUMP JUMPDEST POP PUSH1 0x60 DUP3 ADD MLOAD PUSH1 0x3 DUP3 ADD SWAP1 PUSH2 0xF98 SWAP1 DUP3 PUSH2 0x33E2 JUMP JUMPDEST POP PUSH1 0x80 DUP3 DUP2 ADD MLOAD PUSH1 0x4 DUP4 ADD SSTORE PUSH1 0xA0 DUP4 ADD MLOAD PUSH1 0x5 SWAP1 SWAP3 ADD DUP1 SLOAD PUSH1 0xC0 SWAP1 SWAP5 ADD MLOAD PUSH2 0xFFFF NOT SWAP1 SWAP5 AND SWAP3 ISZERO ISZERO PUSH2 0xFF00 NOT AND SWAP3 SWAP1 SWAP3 OR PUSH2 0x100 SWAP4 ISZERO ISZERO SWAP4 SWAP1 SWAP4 MUL SWAP3 SWAP1 SWAP3 OR SWAP1 SSTORE PUSH1 0x60 DUP4 ADD MLOAD PUSH1 0x8 DUP4 ADD DUP1 SLOAD PUSH1 0x1 PUSH1 0x1 PUSH1 0xA0 SHL SUB NOT AND PUSH1 0x1 PUSH1 0x1 PUSH1 0xA0 SHL SUB SWAP1 SWAP3 AND SWAP2 SWAP1 SWAP2 OR SWAP1 SSTORE DUP3 ADD MLOAD PUSH1 0x9 DUP3 ADD SWAP1 PUSH2 0x1011 SWAP1 DUP3 PUSH2 0x33E2 JUMP JUMPDEST POP PUSH1 0xA0 SWAP2 SWAP1 SWAP2 ADD MLOAD PUSH1 0xA SWAP1 SWAP2 ADD SSTORE PUSH1 0x1 PUSH1 0x1 PUSH1 0xA0 SHL SUB DUP7 AND PUSH1 0x0 SWAP1 DUP2 MSTORE PUSH1 0x7 PUSH1 0x20 SWAP1 DUP2 MSTORE PUSH1 0x40 DUP3 KECCAK256 PUSH1 0x8 DUP1 SLOAD DUP3 SLOAD PUSH1 0x1 DUP2 ADD DUP5 SSTORE SWAP3 DUP6 MSTORE SWAP3 DUP5 KECCAK256 SWAP1 SWAP2 ADD SWAP2 SWAP1 SWAP2 SSTORE DUP1 SLOAD SWAP2 PUSH2 0x105E DUP4 PUSH2 0x3341 JUMP JUMPDEST SWAP2 SWAP1 POP SSTORE POP DUP5 DUP7 PUSH1 0x1 PUSH1 0x1 PUSH1 0xA0 SHL SUB AND PUSH32 0x7B1F7B3DACB5AFDC95A1242E036C2E87A67F32D97CB111111215F3305223B666 CALLER DUP8 DUP8 TIMESTAMP PUSH1 0x40 MLOAD PUSH2 0x10A3 SWAP5 SWAP4 SWAP3 SWAP2 SWAP1 PUSH2 0x34CB JUMP JUMPDEST PUSH1 0x40 MLOAD DUP1 SWAP2 SUB SWAP1 LOG3 POP POP POP POP POP POP JUMP JUMPDEST DUP1 PUSH1 0x1 PUSH1 0x1 PUSH1 0xA0 SHL SUB DUP2 AND PUSH2 0x10DB JUMPI PUSH1 0x40 MLOAD PUSH4 0xE6C4247B PUSH1 0xE0 SHL DUP2 MSTORE PUSH1 0x4 ADD PUSH1 0x40 MLOAD DUP1 SWAP2 SUB SWAP1 REVERT JUMPDEST PUSH1 0x0 PUSH2 0x10E6 DUP2 PUSH2 0x2AF2 JUMP JUMPDEST PUSH2 0x10FE PUSH1 0x0 DUP1 MLOAD PUSH1 0x20 PUSH2 0x36CD DUP4 CODECOPY DUP2 MLOAD SWAP2 MSTORE DUP5 PUSH2 0xADE JUMP JUMPDEST PUSH1 0x40 MLOAD PUSH1 0x1 PUSH1 0x1 PUSH1 0xA0 SHL SUB DUP5 AND SWAP1 PUSH1 0x0 DUP1 MLOAD PUSH1 0x20 PUSH2 0x36CD DUP4 CODECOPY DUP2 MLOAD SWAP2 MSTORE SWAP1 PUSH1 0x0 DUP1 MLOAD PUSH1 0x20 PUSH2 0x362D DUP4 CODECOPY DUP2 MLOAD SWAP2 MSTORE SWAP1 PUSH1 0x0 SWAP1 LOG3 POP POP POP JUMP JUMPDEST PUSH1 0x60 PUSH1 0x0 DUP3 PUSH1 0x8 SLOAD PUSH2 0x1147 SWAP2 SWAP1 PUSH2 0x3501 JUMP JUMPDEST DUP5 GT PUSH2 0x1153 JUMPI DUP4 PUSH2 0x1161 JUMP JUMPDEST DUP3 PUSH1 0x8 SLOAD PUSH2 0x1161 SWAP2 SWAP1 PUSH2 0x3501 JUMP JUMPDEST SWAP1 POP PUSH1 0x0 DUP2 PUSH8 0xFFFFFFFFFFFFFFFF DUP2 GT ISZERO PUSH2 0x117E JUMPI PUSH2 0x117E PUSH2 0x32FF JUMP JUMPDEST PUSH1 0x40 MLOAD SWAP1 DUP1 DUP3 MSTORE DUP1 PUSH1 0x20 MUL PUSH1 0x20 ADD DUP3 ADD PUSH1 0x40 MSTORE DUP1 ISZERO PUSH2 0x11B7 JUMPI DUP2 PUSH1 0x20 ADD JUMPDEST PUSH2 0x11A4 PUSH2 0x2CCD JUMP JUMPDEST DUP2 MSTORE PUSH1 0x20 ADD SWAP1 PUSH1 0x1 SWAP1 SUB SWAP1 DUP2 PUSH2 0x119C JUMPI SWAP1 POP JUMPDEST POP SWAP1 POP PUSH1 0x0 JUMPDEST DUP3 DUP2 LT ISZERO PUSH2 0x1472 JUMPI PUSH1 0x6 PUSH1 0x0 PUSH2 0x11D3 DUP4 DUP9 PUSH2 0x3514 JUMP JUMPDEST DUP2 MSTORE PUSH1 0x20 DUP1 DUP3 ADD SWAP3 SWAP1 SWAP3 MSTORE PUSH1 0x40 SWAP1 DUP2 ADD PUSH1 0x0 KECCAK256 DUP2 MLOAD PUSH1 0xC0 DUP2 ADD DUP4 MSTORE DUP2 SLOAD PUSH1 0x1 PUSH1 0x1 PUSH1 0xA0 SHL SUB SWAP1 DUP2 AND DUP3 MSTORE PUSH1 0x1 DUP4 ADD SLOAD DUP3 DUP7 ADD MSTORE DUP4 MLOAD PUSH1 0xE0 DUP2 ADD DUP6 MSTORE PUSH1 0x2 DUP5 ADD DUP1 SLOAD DUP4 AND DUP3 MSTORE PUSH1 0x3 DUP6 ADD SLOAD SWAP1 SWAP3 AND SWAP6 DUP2 ADD SWAP6 SWAP1 SWAP6 MSTORE PUSH1 0x4 DUP4 ADD DUP1 SLOAD SWAP3 SWAP6 SWAP4 SWAP5 DUP7 DUP2 ADD SWAP5 SWAP4 SWAP1 DUP5 ADD SWAP2 SWAP1 PUSH2 0x1244 SWAP1 PUSH2 0x335A JUMP JUMPDEST DUP1 PUSH1 0x1F ADD PUSH1 0x20 DUP1 SWAP2 DIV MUL PUSH1 0x20 ADD PUSH1 0x40 MLOAD SWAP1 DUP2 ADD PUSH1 0x40 MSTORE DUP1 SWAP3 SWAP2 SWAP1 DUP2 DUP2 MSTORE PUSH1 0x20 ADD DUP3 DUP1 SLOAD PUSH2 0x1270 SWAP1 PUSH2 0x335A JUMP JUMPDEST DUP1 ISZERO PUSH2 0x12BD JUMPI DUP1 PUSH1 0x1F LT PUSH2 0x1292 JUMPI PUSH2 0x100 DUP1 DUP4 SLOAD DIV MUL DUP4 MSTORE SWAP2 PUSH1 0x20 ADD SWAP2 PUSH2 0x12BD JUMP JUMPDEST DUP3 ADD SWAP2 SWAP1 PUSH1 0x0 MSTORE PUSH1 0x20 PUSH1 0x0 KECCAK256 SWAP1 JUMPDEST DUP2 SLOAD DUP2 MSTORE SWAP1 PUSH1 0x1 ADD SWAP1 PUSH1 0x20 ADD DUP1 DUP4 GT PUSH2 0x12A0 JUMPI DUP3 SWAP1 SUB PUSH1 0x1F AND DUP3 ADD SWAP2 JUMPDEST POP POP POP POP POP DUP2 MSTORE PUSH1 0x20 ADD PUSH1 0x3 DUP3 ADD DUP1 SLOAD PUSH2 0x12D6 SWAP1 PUSH2 0x335A JUMP JUMPDEST DUP1 PUSH1 0x1F ADD PUSH1 0x20 DUP1 SWAP2 DIV MUL PUSH1 0x20 ADD PUSH1 0x40 MLOAD SWAP1 DUP2 ADD PUSH1 0x40 MSTORE DUP1 SWAP3 SWAP2 SWAP1 DUP2 DUP2 MSTORE PUSH1 0x20 ADD DUP3 DUP1 SLOAD PUSH2 0x1302 SWAP1 PUSH2 0x335A JUMP JUMPDEST DUP1 ISZERO PUSH2 0x134F JUMPI DUP1 PUSH1 0x1F LT PUSH2 0x1324 JUMPI PUSH2 0x100 DUP1 DUP4 SLOAD DIV MUL DUP4 MSTORE SWAP2 PUSH1 0x20 ADD SWAP2 PUSH2 0x134F JUMP JUMPDEST DUP3 ADD SWAP2 SWAP1 PUSH1 0x0 MSTORE PUSH1 0x20 PUSH1 0x0 KECCAK256 SWAP1 JUMPDEST DUP2 SLOAD DUP2 MSTORE SWAP1 PUSH1 0x1 ADD SWAP1 PUSH1 0x20 ADD DUP1 DUP4 GT PUSH2 0x1332 JUMPI DUP3 SWAP1 SUB PUSH1 0x1F AND DUP3 ADD SWAP2 JUMPDEST POP POP POP SWAP2 DUP4 MSTORE POP POP PUSH1 0x4 DUP3 ADD SLOAD PUSH1 0x20 DUP1 DUP4 ADD SWAP2 SWAP1 SWAP2 MSTORE PUSH1 0x5 SWAP1 SWAP3 ADD SLOAD PUSH1 0xFF DUP1 DUP3 AND ISZERO ISZERO PUSH1 0x40 DUP1 DUP6 ADD SWAP2 SWAP1 SWAP2 MSTORE PUSH2 0x100 SWAP1 SWAP3 DIV AND ISZERO ISZERO PUSH1 0x60 SWAP1 SWAP3 ADD SWAP2 SWAP1 SWAP2 MSTORE SWAP2 DUP4 MSTORE PUSH1 0x8 DUP5 ADD SLOAD PUSH1 0x1 PUSH1 0x1 PUSH1 0xA0 SHL SUB AND SWAP1 DUP4 ADD MSTORE PUSH1 0x9 DUP4 ADD DUP1 SLOAD SWAP3 SWAP1 SWAP2 ADD SWAP2 PUSH2 0x13B6 SWAP1 PUSH2 0x335A JUMP JUMPDEST DUP1 PUSH1 0x1F ADD PUSH1 0x20 DUP1 SWAP2 DIV MUL PUSH1 0x20 ADD PUSH1 0x40 MLOAD SWAP1 DUP2 ADD PUSH1 0x40 MSTORE DUP1 SWAP3 SWAP2 SWAP1 DUP2 DUP2 MSTORE PUSH1 0x20 ADD DUP3 DUP1 SLOAD PUSH2 0x13E2 SWAP1 PUSH2 0x335A JUMP JUMPDEST DUP1 ISZERO PUSH2 0x142F JUMPI DUP1 PUSH1 0x1F LT PUSH2 0x1404 JUMPI PUSH2 0x100 DUP1 DUP4 SLOAD DIV MUL DUP4 MSTORE SWAP2 PUSH1 0x20 ADD SWAP2 PUSH2 0x142F JUMP JUMPDEST DUP3 ADD SWAP2 SWAP1 PUSH1 0x0 MSTORE PUSH1 0x20 PUSH1 0x0 KECCAK256 SWAP1 JUMPDEST DUP2 SLOAD DUP2 MSTORE SWAP1 PUSH1 0x1 ADD SWAP1 PUSH1 0x20 ADD DUP1 DUP4 GT PUSH2 0x1412 JUMPI DUP3 SWAP1 SUB PUSH1 0x1F AND DUP3 ADD SWAP2 JUMPDEST POP POP POP POP POP DUP2 MSTORE PUSH1 0x20 ADD PUSH1 0xA DUP3 ADD SLOAD DUP2 MSTORE POP POP DUP3 DUP3 DUP2 MLOAD DUP2 LT PUSH2 0x1454 JUMPI PUSH2 0x1454 PUSH2 0x3315 JUMP JUMPDEST PUSH1 0x20 MUL PUSH1 0x20 ADD ADD DUP2 SWAP1 MSTORE POP DUP1 DUP1 PUSH2 0x146A SWAP1 PUSH2 0x3341 JUMP JUMPDEST SWAP2 POP POP PUSH2 0x11BD JUMP JUMPDEST POP SWAP5 SWAP4 POP POP POP POP JUMP JUMPDEST PUSH1 0x0 PUSH2 0x774 PUSH1 0x0 DUP1 MLOAD PUSH1 0x20 PUSH2 0x368D DUP4 CODECOPY DUP2 MLOAD SWAP2 MSTORE DUP4 PUSH2 0x1C6F JUMP JUMPDEST DUP1 PUSH1 0x1 PUSH1 0x1 PUSH1 0xA0 SHL SUB DUP2 AND PUSH2 0x14BD JUMPI PUSH1 0x40 MLOAD PUSH4 0xE6C4247B PUSH1 0xE0 SHL DUP2 MSTORE PUSH1 0x4 ADD PUSH1 0x40 MLOAD DUP1 SWAP2 SUB SWAP1 REVERT JUMPDEST PUSH1 0x0 PUSH2 0x14C8 DUP2 PUSH2 0x2AF2 JUMP JUMPDEST PUSH2 0x14E0 PUSH1 0x0 DUP1 MLOAD PUSH1 0x20 PUSH2 0x364D DUP4 CODECOPY DUP2 MLOAD SWAP2 MSTORE DUP5 PUSH2 0xADE JUMP JUMPDEST PUSH1 0x40 MLOAD PUSH1 0x1 PUSH1 0x1 PUSH1 0xA0 SHL SUB DUP5 AND SWAP1 PUSH1 0x0 DUP1 MLOAD PUSH1 0x20 PUSH2 0x364D DUP4 CODECOPY DUP2 MLOAD SWAP2 MSTORE SWAP1 PUSH1 0x0 DUP1 MLOAD PUSH1 0x20 PUSH2 0x362D DUP4 CODECOPY DUP2 MLOAD SWAP2 MSTORE SWAP1 PUSH1 0x0 SWAP1 LOG3 POP POP POP JUMP JUMPDEST PUSH1 0x0 PUSH2 0x1522 DUP2 PUSH2 0x2AF2 JUMP JUMPDEST PUSH2 0x152C DUP5 DUP5 PUSH2 0x1C6F JUMP JUMPDEST PUSH2 0x1549 JUMPI PUSH1 0x40 MLOAD PUSH4 0x66783C9D PUSH1 0xE1 SHL DUP2 MSTORE PUSH1 0x4 ADD PUSH1 0x40 MLOAD DUP1 SWAP2 SUB SWAP1 REVERT JUMPDEST PUSH2 0x1553 DUP5 DUP5 PUSH2 0x2AFC JUMP JUMPDEST POP PUSH2 0x155E DUP5 DUP4 PUSH2 0x2B6F JUMP JUMPDEST POP PUSH1 0x40 DUP1 MLOAD PUSH1 0x1 PUSH1 0x1 PUSH1 0xA0 SHL SUB DUP1 DUP7 AND DUP3 MSTORE DUP5 AND PUSH1 0x20 DUP3 ADD MSTORE DUP6 SWAP2 PUSH32 0x274DD4127A55DCB6F6C12ED38FEC5007D965D2AFFFA8B0BC75C3DC8F3F6B2224 SWAP2 ADD PUSH1 0x40 MLOAD DUP1 SWAP2 SUB SWAP1 LOG2 POP POP POP POP JUMP JUMPDEST DUP1 PUSH1 0x1 PUSH1 0x1 PUSH1 0xA0 SHL SUB DUP2 AND PUSH2 0x15D2 JUMPI PUSH1 0x40 MLOAD PUSH4 0xE6C4247B PUSH1 0xE0 SHL DUP2 MSTORE PUSH1 0x4 ADD PUSH1 0x40 MLOAD DUP1 SWAP2 SUB SWAP1 REVERT JUMPDEST PUSH1 0x0 PUSH2 0x15DD DUP2 PUSH2 0x2AF2 JUMP JUMPDEST PUSH2 0x15F5 PUSH1 0x0 DUP1 MLOAD PUSH1 0x20 PUSH2 0x366D DUP4 CODECOPY DUP2 MLOAD SWAP2 MSTORE DUP5 PUSH2 0xADE JUMP JUMPDEST PUSH1 0x40 MLOAD PUSH1 0x1 PUSH1 0x1 PUSH1 0xA0 SHL SUB DUP5 AND SWAP1 PUSH1 0x0 DUP1 MLOAD PUSH1 0x20 PUSH2 0x366D DUP4 CODECOPY DUP2 MLOAD SWAP2 MSTORE SWAP1 PUSH1 0x0 DUP1 MLOAD PUSH1 0x20 PUSH2 0x362D DUP4 CODECOPY DUP2 MLOAD SWAP2 MSTORE SWAP1 PUSH1 0x0 SWAP1 LOG3 POP POP POP JUMP JUMPDEST PUSH1 0x0 PUSH2 0x1637 DUP2 PUSH2 0x2AF2 JUMP JUMPDEST DUP4 ISZERO DUP1 PUSH2 0x1642 JUMPI POP DUP2 ISZERO JUMPDEST ISZERO PUSH2 0x1660 JUMPI PUSH1 0x40 MLOAD PUSH4 0x7D6EAF93 PUSH1 0xE0 SHL DUP2 MSTORE PUSH1 0x4 ADD PUSH1 0x40 MLOAD DUP1 SWAP2 SUB SWAP1 REVERT JUMPDEST DUP4 DUP3 EQ PUSH2 0x1680 JUMPI PUSH1 0x40 MLOAD PUSH4 0x90A2F793 PUSH1 0xE0 SHL DUP2 MSTORE PUSH1 0x4 ADD PUSH1 0x40 MLOAD DUP1 SWAP2 SUB SWAP1 REVERT JUMPDEST PUSH1 0x0 JUMPDEST DUP5 DUP2 LT ISZERO PUSH2 0x16E6 JUMPI PUSH2 0x16D3 DUP7 DUP7 DUP4 DUP2 DUP2 LT PUSH2 0x16A0 JUMPI PUSH2 0x16A0 PUSH2 0x3315 JUMP JUMPDEST SWAP1 POP PUSH1 0x20 MUL ADD CALLDATALOAD DUP6 DUP6 DUP5 DUP2 DUP2 LT PUSH2 0x16B9 JUMPI PUSH2 0x16B9 PUSH2 0x3315 JUMP JUMPDEST SWAP1 POP PUSH1 0x20 MUL ADD PUSH1 0x20 DUP2 ADD SWAP1 PUSH2 0x16CE SWAP2 SWAP1 PUSH2 0x2DB0 JUMP JUMPDEST PUSH2 0x2B6F JUMP JUMPDEST POP DUP1 PUSH2 0x16DE DUP2 PUSH2 0x3341 JUMP JUMPDEST SWAP2 POP POP PUSH2 0x1683 JUMP JUMPDEST POP DUP3 DUP3 PUSH1 0x40 MLOAD PUSH2 0x16F7 SWAP3 SWAP2 SWAP1 PUSH2 0x3527 JUMP JUMPDEST PUSH1 0x40 MLOAD DUP1 SWAP2 SUB SWAP1 KECCAK256 PUSH32 0xF4D52C90739C68C4E82D39CFBEEE6B6613784BF9B28D2CDB3A02203799CF0606 DUP7 DUP7 PUSH1 0x40 MLOAD PUSH2 0x1730 SWAP3 SWAP2 SWAP1 PUSH2 0x355C JUMP JUMPDEST PUSH1 0x40 MLOAD DUP1 SWAP2 SUB SWAP1 LOG2 POP POP POP POP POP JUMP JUMPDEST PUSH1 0x1 PUSH1 0x1 PUSH1 0xA0 SHL SUB DUP2 AND PUSH1 0x0 SWAP1 DUP2 MSTORE PUSH1 0x7 PUSH1 0x20 SWAP1 DUP2 MSTORE PUSH1 0x40 DUP1 DUP4 KECCAK256 DUP1 SLOAD DUP3 MLOAD DUP2 DUP6 MUL DUP2 ADD DUP6 ADD SWAP1 SWAP4 MSTORE DUP1 DUP4 MSTORE PUSH1 0x60 SWAP5 SWAP4 DUP4 ADD DUP3 DUP3 DUP1 ISZERO PUSH2 0x179E JUMPI PUSH1 0x20 MUL DUP3 ADD SWAP2 SWAP1 PUSH1 0x0 MSTORE PUSH1 0x20 PUSH1 0x0 KECCAK256 SWAP1 JUMPDEST DUP2 SLOAD DUP2 MSTORE PUSH1 0x20 ADD SWAP1 PUSH1 0x1 ADD SWAP1 DUP1 DUP4 GT PUSH2 0x178A JUMPI JUMPDEST POP POP POP POP POP SWAP1 POP PUSH1 0x0 DUP2 MLOAD PUSH8 0xFFFFFFFFFFFFFFFF DUP2 GT ISZERO PUSH2 0x17C1 JUMPI PUSH2 0x17C1 PUSH2 0x32FF JUMP JUMPDEST PUSH1 0x40 MLOAD SWAP1 DUP1 DUP3 MSTORE DUP1 PUSH1 0x20 MUL PUSH1 0x20 ADD DUP3 ADD PUSH1 0x40 MSTORE DUP1 ISZERO PUSH2 0x17FA JUMPI DUP2 PUSH1 0x20 ADD JUMPDEST PUSH2 0x17E7 PUSH2 0x2CCD JUMP JUMPDEST DUP2 MSTORE PUSH1 0x20 ADD SWAP1 PUSH1 0x1 SWAP1 SUB SWAP1 DUP2 PUSH2 0x17DF JUMPI SWAP1 POP JUMPDEST POP SWAP1 POP PUSH1 0x0 JUMPDEST DUP3 MLOAD DUP2 LT ISZERO PUSH2 0x1AC8 JUMPI PUSH1 0x6 PUSH1 0x0 DUP5 DUP4 DUP2 MLOAD DUP2 LT PUSH2 0x181F JUMPI PUSH2 0x181F PUSH2 0x3315 JUMP JUMPDEST PUSH1 0x20 SWAP1 DUP2 MUL SWAP2 SWAP1 SWAP2 ADD DUP2 ADD MLOAD DUP3 MSTORE DUP2 DUP2 ADD SWAP3 SWAP1 SWAP3 MSTORE PUSH1 0x40 SWAP1 DUP2 ADD PUSH1 0x0 KECCAK256 DUP2 MLOAD PUSH1 0xC0 DUP2 ADD DUP4 MSTORE DUP2 SLOAD PUSH1 0x1 PUSH1 0x1 PUSH1 0xA0 SHL SUB SWAP1 DUP2 AND DUP3 MSTORE PUSH1 0x1 DUP4 ADD SLOAD DUP3 DUP7 ADD MSTORE DUP4 MLOAD PUSH1 0xE0 DUP2 ADD DUP6 MSTORE PUSH1 0x2 DUP5 ADD DUP1 SLOAD DUP4 AND DUP3 MSTORE PUSH1 0x3 DUP6 ADD SLOAD SWAP1 SWAP3 AND SWAP6 DUP2 ADD SWAP6 SWAP1 SWAP6 MSTORE PUSH1 0x4 DUP4 ADD DUP1 SLOAD SWAP3 SWAP6 SWAP4 SWAP5 DUP7 DUP2 ADD SWAP5 SWAP4 SWAP1 DUP5 ADD SWAP2 SWAP1 PUSH2 0x189A SWAP1 PUSH2 0x335A JUMP JUMPDEST DUP1 PUSH1 0x1F ADD PUSH1 0x20 DUP1 SWAP2 DIV MUL PUSH1 0x20 ADD PUSH1 0x40 MLOAD SWAP1 DUP2 ADD PUSH1 0x40 MSTORE DUP1 SWAP3 SWAP2 SWAP1 DUP2 DUP2 MSTORE PUSH1 0x20 ADD DUP3 DUP1 SLOAD PUSH2 0x18C6 SWAP1 PUSH2 0x335A JUMP JUMPDEST DUP1 ISZERO PUSH2 0x1913 JUMPI DUP1 PUSH1 0x1F LT PUSH2 0x18E8 JUMPI PUSH2 0x100 DUP1 DUP4 SLOAD DIV MUL DUP4 MSTORE SWAP2 PUSH1 0x20 ADD SWAP2 PUSH2 0x1913 JUMP JUMPDEST DUP3 ADD SWAP2 SWAP1 PUSH1 0x0 MSTORE PUSH1 0x20 PUSH1 0x0 KECCAK256 SWAP1 JUMPDEST DUP2 SLOAD DUP2 MSTORE SWAP1 PUSH1 0x1 ADD SWAP1 PUSH1 0x20 ADD DUP1 DUP4 GT PUSH2 0x18F6 JUMPI DUP3 SWAP1 SUB PUSH1 0x1F AND DUP3 ADD SWAP2 JUMPDEST POP POP POP POP POP DUP2 MSTORE PUSH1 0x20 ADD PUSH1 0x3 DUP3 ADD DUP1 SLOAD PUSH2 0x192C SWAP1 PUSH2 0x335A JUMP JUMPDEST DUP1 PUSH1 0x1F ADD PUSH1 0x20 DUP1 SWAP2 DIV MUL PUSH1 0x20 ADD PUSH1 0x40 MLOAD SWAP1 DUP2 ADD PUSH1 0x40 MSTORE DUP1 SWAP3 SWAP2 SWAP1 DUP2 DUP2 MSTORE PUSH1 0x20 ADD DUP3 DUP1 SLOAD PUSH2 0x1958 SWAP1 PUSH2 0x335A JUMP JUMPDEST DUP1 ISZERO PUSH2 0x19A5 JUMPI DUP1 PUSH1 0x1F LT PUSH2 0x197A JUMPI PUSH2 0x100 DUP1 DUP4 SLOAD DIV MUL DUP4 MSTORE SWAP2 PUSH1 0x20 ADD SWAP2 PUSH2 0x19A5 JUMP JUMPDEST DUP3 ADD SWAP2 SWAP1 PUSH1 0x0 MSTORE PUSH1 0x20 PUSH1 0x0 KECCAK256 SWAP1 JUMPDEST DUP2 SLOAD DUP2 MSTORE SWAP1 PUSH1 0x1 ADD SWAP1 PUSH1 0x20 ADD DUP1 DUP4 GT PUSH2 0x1988 JUMPI DUP3 SWAP1 SUB PUSH1 0x1F AND DUP3 ADD SWAP2 JUMPDEST POP POP POP SWAP2 DUP4 MSTORE POP POP PUSH1 0x4 DUP3 ADD SLOAD PUSH1 0x20 DUP1 DUP4 ADD SWAP2 SWAP1 SWAP2 MSTORE PUSH1 0x5 SWAP1 SWAP3 ADD SLOAD PUSH1 0xFF DUP1 DUP3 AND ISZERO ISZERO PUSH1 0x40 DUP1 DUP6 ADD SWAP2 SWAP1 SWAP2 MSTORE PUSH2 0x100 SWAP1 SWAP3 DIV AND ISZERO ISZERO PUSH1 0x60 SWAP1 SWAP3 ADD SWAP2 SWAP1 SWAP2 MSTORE SWAP2 DUP4 MSTORE PUSH1 0x8 DUP5 ADD SLOAD PUSH1 0x1 PUSH1 0x1 PUSH1 0xA0 SHL SUB AND SWAP1 DUP4 ADD MSTORE PUSH1 0x9 DUP4 ADD DUP1 SLOAD SWAP3 SWAP1 SWAP2 ADD SWAP2 PUSH2 0x1A0C SWAP1 PUSH2 0x335A JUMP JUMPDEST DUP1 PUSH1 0x1F ADD PUSH1 0x20 DUP1 SWAP2 DIV MUL PUSH1 0x20 ADD PUSH1 0x40 MLOAD SWAP1 DUP2 ADD PUSH1 0x40 MSTORE DUP1 SWAP3 SWAP2 SWAP1 DUP2 DUP2 MSTORE PUSH1 0x20 ADD DUP3 DUP1 SLOAD PUSH2 0x1A38 SWAP1 PUSH2 0x335A JUMP JUMPDEST DUP1 ISZERO PUSH2 0x1A85 JUMPI DUP1 PUSH1 0x1F LT PUSH2 0x1A5A JUMPI PUSH2 0x100 DUP1 DUP4 SLOAD DIV MUL DUP4 MSTORE SWAP2 PUSH1 0x20 ADD SWAP2 PUSH2 0x1A85 JUMP JUMPDEST DUP3 ADD SWAP2 SWAP1 PUSH1 0x0 MSTORE PUSH1 0x20 PUSH1 0x0 KECCAK256 SWAP1 JUMPDEST DUP2 SLOAD DUP2 MSTORE SWAP1 PUSH1 0x1 ADD SWAP1 PUSH1 0x20 ADD DUP1 DUP4 GT PUSH2 0x1A68 JUMPI DUP3 SWAP1 SUB PUSH1 0x1F AND DUP3 ADD SWAP2 JUMPDEST POP POP POP POP POP DUP2 MSTORE PUSH1 0x20 ADD PUSH1 0xA DUP3 ADD SLOAD DUP2 MSTORE POP POP DUP3 DUP3 DUP2 MLOAD DUP2 LT PUSH2 0x1AAA JUMPI PUSH2 0x1AAA PUSH2 0x3315 JUMP JUMPDEST PUSH1 0x20 MUL PUSH1 0x20 ADD ADD DUP2 SWAP1 MSTORE POP DUP1 DUP1 PUSH2 0x1AC0 SWAP1 PUSH2 0x3341 JUMP JUMPDEST SWAP2 POP POP PUSH2 0x1800 JUMP JUMPDEST POP SWAP4 SWAP3 POP POP POP JUMP JUMPDEST PUSH2 0x1AD9 CALLER PUSH2 0x2A56 JUMP JUMPDEST ISZERO PUSH2 0x1AF7 JUMPI PUSH1 0x40 MLOAD PUSH4 0x510A5833 PUSH1 0xE0 SHL DUP2 MSTORE PUSH1 0x4 ADD PUSH1 0x40 MLOAD DUP1 SWAP2 SUB SWAP1 REVERT JUMPDEST DUP1 ISZERO PUSH2 0x1B16 JUMPI PUSH1 0x40 MLOAD PUSH4 0x7294221 PUSH1 0xE4 SHL DUP2 MSTORE PUSH1 0x4 ADD PUSH1 0x40 MLOAD DUP1 SWAP2 SUB SWAP1 REVERT JUMPDEST PUSH1 0x18 DUP2 GT ISZERO PUSH2 0x1B38 JUMPI PUSH1 0x40 MLOAD PUSH4 0x7294221 PUSH1 0xE4 SHL DUP2 MSTORE PUSH1 0x4 ADD PUSH1 0x40 MLOAD DUP1 SWAP2 SUB SWAP1 REVERT JUMPDEST PUSH1 0x0 PUSH2 0x1B46 DUP3 PUSH2 0xE10 PUSH2 0x3595 JUMP JUMPDEST SWAP1 POP PUSH2 0x1B60 PUSH1 0x0 DUP1 MLOAD PUSH1 0x20 PUSH2 0x364D DUP4 CODECOPY DUP2 MLOAD SWAP2 MSTORE CALLER PUSH2 0x2B6F JUMP JUMPDEST POP PUSH2 0x1B6B DUP2 TIMESTAMP PUSH2 0x3514 JUMP JUMPDEST CALLER PUSH1 0x0 DUP2 DUP2 MSTORE PUSH1 0x1 PUSH1 0x20 MSTORE PUSH1 0x40 SWAP1 DUP2 SWAP1 KECCAK256 SWAP3 SWAP1 SWAP3 SSTORE SWAP1 MLOAD PUSH32 0xC526CDAE63C288EA4504281FE29B0AE3352C8A9CCAE61EBA8C21CD25A949E0F1 SWAP1 PUSH2 0x1BB1 SWAP1 DUP6 DUP2 MSTORE PUSH1 0x20 ADD SWAP1 JUMP JUMPDEST PUSH1 0x40 MLOAD DUP1 SWAP2 SUB SWAP1 LOG2 POP POP JUMP JUMPDEST PUSH1 0x0 PUSH2 0x774 PUSH1 0x0 DUP1 MLOAD PUSH1 0x20 PUSH2 0x366D DUP4 CODECOPY DUP2 MLOAD SWAP2 MSTORE DUP4 PUSH2 0x1C6F JUMP JUMPDEST DUP1 PUSH1 0x1 PUSH1 0x1 PUSH1 0xA0 SHL SUB DUP2 AND PUSH2 0x1BFF JUMPI PUSH1 0x40 MLOAD PUSH4 0xE6C4247B PUSH1 0xE0 SHL DUP2 MSTORE PUSH1 0x4 ADD PUSH1 0x40 MLOAD DUP1 SWAP2 SUB SWAP1 REVERT JUMPDEST PUSH1 0x0 PUSH2 0x1C0A DUP2 PUSH2 0x2AF2 JUMP JUMPDEST PUSH2 0x1C22 PUSH1 0x0 DUP1 MLOAD PUSH1 0x20 PUSH2 0x360D DUP4 CODECOPY DUP2 MLOAD SWAP2 MSTORE DUP5 PUSH2 0x29AF JUMP JUMPDEST PUSH1 0x40 MLOAD PUSH1 0x1 PUSH1 0x1 PUSH1 0xA0 SHL SUB DUP5 AND SWAP1 PUSH1 0x0 DUP1 MLOAD PUSH1 0x20 PUSH2 0x360D DUP4 CODECOPY DUP2 MLOAD SWAP2 MSTORE SWAP1 PUSH1 0x0 DUP1 MLOAD PUSH1 0x20 PUSH2 0x36ED DUP4 CODECOPY DUP2 MLOAD SWAP2 MSTORE SWAP1 PUSH1 0x0 SWAP1 LOG3 POP POP POP JUMP JUMPDEST PUSH1 0x0 PUSH2 0x774 PUSH1 0x0 DUP1 MLOAD PUSH1 0x20 PUSH2 0x36CD DUP4 CODECOPY DUP2 MLOAD SWAP2 MSTORE DUP4 JUMPDEST PUSH1 0x0 SWAP2 DUP3 MSTORE PUSH1 0x20 DUP3 DUP2 MSTORE PUSH1 0x40 DUP1 DUP5 KECCAK256 PUSH1 0x1 PUSH1 0x1 PUSH1 0xA0 SHL SUB SWAP4 SWAP1 SWAP4 AND DUP5 MSTORE SWAP2 SWAP1 MSTORE SWAP1 KECCAK256 SLOAD PUSH1 0xFF AND SWAP1 JUMP JUMPDEST PUSH1 0x1 PUSH1 0x1 PUSH1 0xA0 SHL SUB DUP2 AND PUSH1 0x0 SWAP1 DUP2 MSTORE PUSH1 0x4 PUSH1 0x20 MSTORE PUSH1 0x40 DUP2 KECCAK256 SLOAD PUSH1 0x60 SWAP2 SUB PUSH2 0x1CD2 JUMPI PUSH1 0x40 MLOAD PUSH4 0xFC325983 PUSH1 0xE0 SHL DUP2 MSTORE PUSH1 0x4 ADD PUSH1 0x40 MLOAD DUP1 SWAP2 SUB SWAP1 REVERT JUMPDEST PUSH1 0x1 PUSH1 0x1 PUSH1 0xA0 SHL SUB DUP3 AND PUSH1 0x0 SWAP1 DUP2 MSTORE PUSH1 0x4 PUSH1 0x20 SWAP1 DUP2 MSTORE PUSH1 0x40 DUP1 DUP4 KECCAK256 DUP1 SLOAD DUP3 MLOAD DUP2 DUP6 MUL DUP2 ADD DUP6 ADD SWAP1 SWAP4 MSTORE DUP1 DUP4 MSTORE SWAP2 SWAP4 SWAP1 SWAP3 DUP5 ADD JUMPDEST DUP3 DUP3 LT ISZERO PUSH2 0x1EAD JUMPI PUSH1 0x0 DUP5 DUP2 MSTORE PUSH1 0x20 SWAP1 DUP2 SWAP1 KECCAK256 PUSH1 0x40 DUP1 MLOAD PUSH1 0xE0 DUP2 ADD DUP3 MSTORE PUSH1 0x6 DUP7 MUL SWAP1 SWAP3 ADD DUP1 SLOAD PUSH1 0x1 PUSH1 0x1 PUSH1 0xA0 SHL SUB SWAP1 DUP2 AND DUP5 MSTORE PUSH1 0x1 DUP3 ADD SLOAD AND SWAP4 DUP4 ADD SWAP4 SWAP1 SWAP4 MSTORE PUSH1 0x2 DUP4 ADD DUP1 SLOAD SWAP3 SWAP4 SWAP3 SWAP2 DUP5 ADD SWAP2 PUSH2 0x1D5B SWAP1 PUSH2 0x335A JUMP JUMPDEST DUP1 PUSH1 0x1F ADD PUSH1 0x20 DUP1 SWAP2 DIV MUL PUSH1 0x20 ADD PUSH1 0x40 MLOAD SWAP1 DUP2 ADD PUSH1 0x40 MSTORE DUP1 SWAP3 SWAP2 SWAP1 DUP2 DUP2 MSTORE PUSH1 0x20 ADD DUP3 DUP1 SLOAD PUSH2 0x1D87 SWAP1 PUSH2 0x335A JUMP JUMPDEST DUP1 ISZERO PUSH2 0x1DD4 JUMPI DUP1 PUSH1 0x1F LT PUSH2 0x1DA9 JUMPI PUSH2 0x100 DUP1 DUP4 SLOAD DIV MUL DUP4 MSTORE SWAP2 PUSH1 0x20 ADD SWAP2 PUSH2 0x1DD4 JUMP JUMPDEST DUP3 ADD SWAP2 SWAP1 PUSH1 0x0 MSTORE PUSH1 0x20 PUSH1 0x0 KECCAK256 SWAP1 JUMPDEST DUP2 SLOAD DUP2 MSTORE SWAP1 PUSH1 0x1 ADD SWAP1 PUSH1 0x20 ADD DUP1 DUP4 GT PUSH2 0x1DB7 JUMPI DUP3 SWAP1 SUB PUSH1 0x1F AND DUP3 ADD SWAP2 JUMPDEST POP POP POP POP POP DUP2 MSTORE PUSH1 0x20 ADD PUSH1 0x3 DUP3 ADD DUP1 SLOAD PUSH2 0x1DED SWAP1 PUSH2 0x335A JUMP JUMPDEST DUP1 PUSH1 0x1F ADD PUSH1 0x20 DUP1 SWAP2 DIV MUL PUSH1 0x20 ADD PUSH1 0x40 MLOAD SWAP1 DUP2 ADD PUSH1 0x40 MSTORE DUP1 SWAP3 SWAP2 SWAP1 DUP2 DUP2 MSTORE PUSH1 0x20 ADD DUP3 DUP1 SLOAD PUSH2 0x1E19 SWAP1 PUSH2 0x335A JUMP JUMPDEST DUP1 ISZERO PUSH2 0x1E66 JUMPI DUP1 PUSH1 0x1F LT PUSH2 0x1E3B JUMPI PUSH2 0x100 DUP1 DUP4 SLOAD DIV MUL DUP4 MSTORE SWAP2 PUSH1 0x20 ADD SWAP2 PUSH2 0x1E66 JUMP JUMPDEST DUP3 ADD SWAP2 SWAP1 PUSH1 0x0 MSTORE PUSH1 0x20 PUSH1 0x0 KECCAK256 SWAP1 JUMPDEST DUP2 SLOAD DUP2 MSTORE SWAP1 PUSH1 0x1 ADD SWAP1 PUSH1 0x20 ADD DUP1 DUP4 GT PUSH2 0x1E49 JUMPI DUP3 SWAP1 SUB PUSH1 0x1F AND DUP3 ADD SWAP2 JUMPDEST POP POP POP SWAP2 DUP4 MSTORE POP POP PUSH1 0x4 DUP3 ADD SLOAD PUSH1 0x20 DUP1 DUP4 ADD SWAP2 SWAP1 SWAP2 MSTORE PUSH1 0x5 SWAP1 SWAP3 ADD SLOAD PUSH1 0xFF DUP1 DUP3 AND ISZERO ISZERO PUSH1 0x40 DUP5 ADD MSTORE PUSH2 0x100 SWAP1 SWAP2 DIV AND ISZERO ISZERO PUSH1 0x60 SWAP1 SWAP2 ADD MSTORE SWAP1 DUP3 MSTORE PUSH1 0x1 SWAP3 SWAP1 SWAP3 ADD SWAP2 ADD PUSH2 0x1D05 JUMP JUMPDEST POP POP POP POP SWAP1 POP SWAP2 SWAP1 POP JUMP JUMPDEST PUSH1 0x0 PUSH2 0x774 PUSH1 0x0 DUP1 MLOAD PUSH1 0x20 PUSH2 0x360D DUP4 CODECOPY DUP2 MLOAD SWAP2 MSTORE DUP4 PUSH2 0x1C6F JUMP JUMPDEST DUP1 PUSH1 0x1 PUSH1 0x1 PUSH1 0xA0 SHL SUB DUP2 AND PUSH2 0x1EFA JUMPI PUSH1 0x40 MLOAD PUSH4 0xE6C4247B PUSH1 0xE0 SHL DUP2 MSTORE PUSH1 0x4 ADD PUSH1 0x40 MLOAD DUP1 SWAP2 SUB SWAP1 REVERT JUMPDEST PUSH1 0x0 PUSH2 0x1F05 DUP2 PUSH2 0x2AF2 JUMP JUMPDEST PUSH2 0x1F1D PUSH1 0x0 DUP1 MLOAD PUSH1 0x20 PUSH2 0x368D DUP4 CODECOPY DUP2 MLOAD SWAP2 MSTORE DUP5 PUSH2 0xADE JUMP JUMPDEST PUSH1 0x40 MLOAD PUSH1 0x1 PUSH1 0x1 PUSH1 0xA0 SHL SUB DUP5 AND SWAP1 PUSH1 0x0 DUP1 MLOAD PUSH1 0x20 PUSH2 0x368D DUP4 CODECOPY DUP2 MLOAD SWAP2 MSTORE SWAP1 PUSH1 0x0 DUP1 MLOAD PUSH1 0x20 PUSH2 0x362D DUP4 CODECOPY DUP2 MLOAD SWAP2 MSTORE SWAP1 PUSH1 0x0 SWAP1 LOG3 POP POP POP JUMP JUMPDEST PUSH1 0x0 PUSH2 0x774 PUSH1 0x0 DUP1 MLOAD PUSH1 0x20 PUSH2 0x36AD DUP4 CODECOPY DUP2 MLOAD SWAP2 MSTORE DUP4 PUSH2 0x1C6F JUMP JUMPDEST PUSH1 0x0 DUP1 DUP1 DUP1 DUP1 DUP1 DUP1 PUSH2 0x1F80 DUP2 DUP10 PUSH2 0x1C6F JUMP JUMPDEST PUSH2 0x1F98 PUSH1 0x0 DUP1 MLOAD PUSH1 0x20 PUSH2 0x366D DUP4 CODECOPY DUP2 MLOAD SWAP2 MSTORE DUP11 PUSH2 0x1C6F JUMP JUMPDEST PUSH2 0x1FB0 PUSH1 0x0 DUP1 MLOAD PUSH1 0x20 PUSH2 0x36CD DUP4 CODECOPY DUP2 MLOAD SWAP2 MSTORE DUP12 PUSH2 0x1C6F JUMP JUMPDEST PUSH2 0x1FC8 PUSH1 0x0 DUP1 MLOAD PUSH1 0x20 PUSH2 0x36AD DUP4 CODECOPY DUP2 MLOAD SWAP2 MSTORE DUP13 PUSH2 0x1C6F JUMP JUMPDEST PUSH2 0x1FE0 PUSH1 0x0 DUP1 MLOAD PUSH1 0x20 PUSH2 0x360D DUP4 CODECOPY DUP2 MLOAD SWAP2 MSTORE DUP14 PUSH2 0x1C6F JUMP JUMPDEST PUSH2 0x1FF8 PUSH1 0x0 DUP1 MLOAD PUSH1 0x20 PUSH2 0x368D DUP4 CODECOPY DUP2 MLOAD SWAP2 MSTORE DUP15 PUSH2 0x1C6F JUMP JUMPDEST PUSH2 0x2010 PUSH1 0x0 DUP1 MLOAD PUSH1 0x20 PUSH2 0x364D DUP4 CODECOPY DUP2 MLOAD SWAP2 MSTORE DUP16 PUSH2 0x1C6F JUMP JUMPDEST SWAP6 SWAP15 SWAP5 SWAP14 POP SWAP3 SWAP12 POP SWAP1 SWAP10 POP SWAP8 POP SWAP6 POP SWAP1 SWAP4 POP SWAP2 POP POP JUMP JUMPDEST DUP6 PUSH2 0x2031 CALLER PUSH2 0x1C59 JUMP JUMPDEST PUSH2 0x204E JUMPI PUSH1 0x40 MLOAD PUSH4 0xE9AAB751 PUSH1 0xE0 SHL DUP2 MSTORE PUSH1 0x4 ADD PUSH1 0x40 MLOAD DUP1 SWAP2 SUB SWAP1 REVERT JUMPDEST PUSH2 0x2058 DUP2 CALLER PUSH2 0x2BF9 JUMP JUMPDEST PUSH2 0x2075 JUMPI PUSH1 0x40 MLOAD PUSH4 0x3DEC104F PUSH1 0xE0 SHL DUP2 MSTORE PUSH1 0x4 ADD PUSH1 0x40 MLOAD DUP1 SWAP2 SUB SWAP1 REVERT JUMPDEST PUSH1 0x1 PUSH1 0x1 PUSH1 0xA0 SHL SUB DUP2 AND PUSH1 0x0 SWAP1 DUP2 MSTORE PUSH1 0x5 PUSH1 0x20 SWAP1 DUP2 MSTORE PUSH1 0x40 DUP1 DUP4 KECCAK256 CALLER DUP5 MSTORE SWAP1 SWAP2 MSTORE SWAP1 KECCAK256 SLOAD TIMESTAMP GT ISZERO PUSH2 0x20B9 JUMPI PUSH1 0x40 MLOAD PUSH4 0x17A7851F PUSH1 0xE1 SHL DUP2 MSTORE PUSH1 0x4 ADD PUSH1 0x40 MLOAD DUP1 SWAP2 SUB SWAP1 REVERT JUMPDEST PUSH1 0x1 PUSH1 0x1 PUSH1 0xA0 SHL SUB DUP8 AND PUSH1 0x0 SWAP1 DUP2 MSTORE PUSH1 0x5 PUSH1 0x20 SWAP1 DUP2 MSTORE PUSH1 0x40 DUP1 DUP4 KECCAK256 CALLER DUP5 MSTORE SWAP1 SWAP2 MSTORE SWAP1 KECCAK256 SLOAD TIMESTAMP GT ISZERO PUSH2 0x20FD JUMPI PUSH1 0x40 MLOAD PUSH4 0x17A7851F PUSH1 0xE1 SHL DUP2 MSTORE PUSH1 0x4 ADD PUSH1 0x40 MLOAD DUP1 SWAP2 SUB SWAP1 REVERT JUMPDEST PUSH1 0x0 PUSH1 0x40 MLOAD DUP1 PUSH1 0xE0 ADD PUSH1 0x40 MSTORE DUP1 CALLER PUSH1 0x1 PUSH1 0x1 PUSH1 0xA0 SHL SUB AND DUP2 MSTORE PUSH1 0x20 ADD DUP10 PUSH1 0x1 PUSH1 0x1 PUSH1 0xA0 SHL SUB AND DUP2 MSTORE PUSH1 0x20 ADD DUP8 DUP8 DUP1 DUP1 PUSH1 0x1F ADD PUSH1 0x20 DUP1 SWAP2 DIV MUL PUSH1 0x20 ADD PUSH1 0x40 MLOAD SWAP1 DUP2 ADD PUSH1 0x40 MSTORE DUP1 SWAP4 SWAP3 SWAP2 SWAP1 DUP2 DUP2 MSTORE PUSH1 0x20 ADD DUP4 DUP4 DUP1 DUP3 DUP5 CALLDATACOPY PUSH1 0x0 SWAP3 ADD SWAP2 SWAP1 SWAP2 MSTORE POP POP POP SWAP1 DUP3 MSTORE POP PUSH1 0x40 DUP1 MLOAD PUSH1 0x20 PUSH1 0x1F DUP9 ADD DUP2 SWAP1 DIV DUP2 MUL DUP3 ADD DUP2 ADD SWAP1 SWAP3 MSTORE DUP7 DUP2 MSTORE SWAP2 DUP2 ADD SWAP2 SWAP1 DUP8 SWAP1 DUP8 SWAP1 DUP2 SWAP1 DUP5 ADD DUP4 DUP3 DUP1 DUP3 DUP5 CALLDATACOPY PUSH1 0x0 SWAP3 ADD DUP3 SWAP1 MSTORE POP SWAP4 DUP6 MSTORE POP POP TIMESTAMP PUSH1 0x20 DUP1 DUP6 ADD SWAP2 SWAP1 SWAP2 MSTORE DUP12 ISZERO ISZERO PUSH1 0x40 DUP1 DUP7 ADD SWAP2 SWAP1 SWAP2 MSTORE PUSH1 0x60 SWAP1 SWAP5 ADD DUP4 SWAP1 MSTORE PUSH1 0x1 PUSH1 0x1 PUSH1 0xA0 SHL SUB DUP14 DUP2 AND DUP5 MSTORE PUSH1 0x4 DUP3 MSTORE DUP5 DUP5 KECCAK256 DUP1 SLOAD PUSH1 0x1 DUP1 DUP3 ADD DUP4 SSTORE SWAP2 DUP7 MSTORE SWAP5 DUP4 SWAP1 KECCAK256 DUP8 MLOAD PUSH1 0x6 SWAP1 SWAP7 MUL ADD DUP1 SLOAD PUSH1 0x1 PUSH1 0x1 PUSH1 0xA0 SHL SUB NOT SWAP1 DUP2 AND SWAP7 DUP5 AND SWAP7 SWAP1 SWAP7 OR DUP2 SSTORE SWAP3 DUP8 ADD MLOAD SWAP1 DUP4 ADD DUP1 SLOAD SWAP1 SWAP6 AND SWAP2 AND OR SWAP1 SWAP3 SSTORE POP SWAP1 DUP3 ADD MLOAD SWAP2 SWAP3 POP DUP3 SWAP2 PUSH1 0x2 DUP3 ADD SWAP1 PUSH2 0x2226 SWAP1 DUP3 PUSH2 0x33E2 JUMP JUMPDEST POP PUSH1 0x60 DUP3 ADD MLOAD PUSH1 0x3 DUP3 ADD SWAP1 PUSH2 0x223B SWAP1 DUP3 PUSH2 0x33E2 JUMP JUMPDEST POP PUSH1 0x80 DUP3 ADD MLOAD PUSH1 0x4 DUP3 ADD SSTORE PUSH1 0xA0 DUP3 ADD MLOAD PUSH1 0x5 SWAP1 SWAP2 ADD DUP1 SLOAD PUSH1 0xC0 SWAP1 SWAP4 ADD MLOAD ISZERO ISZERO PUSH2 0x100 MUL PUSH2 0xFF00 NOT SWAP3 ISZERO ISZERO SWAP3 SWAP1 SWAP3 AND PUSH2 0xFFFF NOT SWAP1 SWAP4 AND SWAP3 SWAP1 SWAP3 OR OR SWAP1 SSTORE DUP7 PUSH2 0x22F8 JUMPI PUSH1 0x40 MLOAD PUSH4 0xB83CC3B3 PUSH1 0xE0 SHL DUP2 MSTORE PUSH1 0x1 PUSH1 0x1 PUSH1 0xA0 SHL SUB DUP10 DUP2 AND PUSH1 0x4 DUP4 ADD MSTORE PUSH32 0x0 AND SWAP1 PUSH4 0xB83CC3B3 SWAP1 PUSH1 0x24 ADD PUSH1 0x0 PUSH1 0x40 MLOAD DUP1 DUP4 SUB DUP2 PUSH1 0x0 DUP8 DUP1 EXTCODESIZE ISZERO DUP1 ISZERO PUSH2 0x22DF JUMPI PUSH1 0x0 DUP1 REVERT JUMPDEST POP GAS CALL ISZERO DUP1 ISZERO PUSH2 0x22F3 JUMPI RETURNDATASIZE PUSH1 0x0 DUP1 RETURNDATACOPY RETURNDATASIZE PUSH1 0x0 REVERT JUMPDEST POP POP POP POP JUMPDEST DUP8 PUSH1 0x1 PUSH1 0x1 PUSH1 0xA0 SHL SUB AND CALLER PUSH1 0x1 PUSH1 0x1 PUSH1 0xA0 SHL SUB AND PUSH32 0xD1B5F5F27A6C067D892D5201D9160332AD987F12ED191D83BE7D4FB4DC876716 DUP10 DUP10 DUP10 DUP10 DUP10 TIMESTAMP PUSH1 0x40 MLOAD PUSH2 0x2345 SWAP7 SWAP6 SWAP5 SWAP4 SWAP3 SWAP2 SWAP1 PUSH2 0x35AC JUMP JUMPDEST PUSH1 0x40 MLOAD DUP1 SWAP2 SUB SWAP1 LOG3 POP POP POP POP POP POP POP POP JUMP JUMPDEST PUSH2 0x2360 CALLER PUSH2 0x1BBD JUMP JUMPDEST PUSH2 0x237D JUMPI PUSH1 0x40 MLOAD PUSH4 0x36FE9371 PUSH1 0xE1 SHL DUP2 MSTORE PUSH1 0x4 ADD PUSH1 0x40 MLOAD DUP1 SWAP2 SUB SWAP1 REVERT JUMPDEST PUSH1 0x40 MLOAD PUSH4 0x261E85CD PUSH1 0xE0 SHL DUP2 MSTORE PUSH1 0x1 PUSH1 0x1 PUSH1 0xA0 SHL SUB DUP5 DUP2 AND PUSH1 0x4 DUP4 ADD MSTORE PUSH32 0x0 AND SWAP1 PUSH4 0x261E85CD SWAP1 PUSH1 0x24 ADD PUSH1 0x20 PUSH1 0x40 MLOAD DUP1 DUP4 SUB DUP2 DUP7 GAS STATICCALL ISZERO DUP1 ISZERO PUSH2 0x23E3 JUMPI RETURNDATASIZE PUSH1 0x0 DUP1 RETURNDATACOPY RETURNDATASIZE PUSH1 0x0 REVERT JUMPDEST POP POP POP POP PUSH1 0x40 MLOAD RETURNDATASIZE PUSH1 0x1F NOT PUSH1 0x1F DUP3 ADD AND DUP3 ADD DUP1 PUSH1 0x40 MSTORE POP DUP2 ADD SWAP1 PUSH2 0x2407 SWAP2 SWAP1 PUSH2 0x35EF JUMP JUMPDEST PUSH2 0x2424 JUMPI PUSH1 0x40 MLOAD PUSH4 0x8A22277 PUSH1 0xE1 SHL DUP2 MSTORE PUSH1 0x4 ADD PUSH1 0x40 MLOAD DUP1 SWAP2 SUB SWAP1 REVERT JUMPDEST PUSH2 0x242D DUP3 PUSH2 0x1C59 JUMP JUMPDEST PUSH2 0x244A JUMPI PUSH1 0x40 MLOAD PUSH4 0xE9AAB751 PUSH1 0xE0 SHL DUP2 MSTORE PUSH1 0x4 ADD PUSH1 0x40 MLOAD DUP1 SWAP2 SUB SWAP1 REVERT JUMPDEST PUSH1 0x1 PUSH1 0x1 PUSH1 0xA0 SHL SUB DUP1 DUP5 AND PUSH1 0x0 DUP2 DUP2 MSTORE PUSH1 0x2 PUSH1 0x20 SWAP1 DUP2 MSTORE PUSH1 0x40 DUP1 DUP4 KECCAK256 DUP1 SLOAD PUSH1 0x1 DUP2 DUP2 ADD DUP4 SSTORE SWAP2 DUP6 MSTORE DUP4 DUP6 KECCAK256 ADD DUP1 SLOAD SWAP7 DUP10 AND PUSH1 0x1 PUSH1 0x1 PUSH1 0xA0 SHL SUB NOT SWAP8 DUP9 AND DUP2 OR SWAP1 SWAP2 SSTORE DUP5 MSTORE PUSH1 0x3 DUP4 MSTORE SWAP1 DUP4 KECCAK256 DUP1 SLOAD SWAP2 DUP3 ADD DUP2 SSTORE DUP4 MSTORE SWAP2 KECCAK256 ADD DUP1 SLOAD SWAP1 SWAP3 AND OR SWAP1 SSTORE PUSH2 0x24B3 DUP2 TIMESTAMP PUSH2 0x3514 JUMP JUMPDEST PUSH1 0x1 PUSH1 0x1 PUSH1 0xA0 SHL SUB DUP5 DUP2 AND PUSH1 0x0 DUP2 DUP2 MSTORE PUSH1 0x5 PUSH1 0x20 SWAP1 DUP2 MSTORE PUSH1 0x40 DUP1 DUP4 KECCAK256 SWAP5 DUP9 AND DUP1 DUP5 MSTORE SWAP5 DUP3 MSTORE SWAP2 DUP3 SWAP1 KECCAK256 SWAP5 SWAP1 SWAP5 SSTORE MLOAD DUP5 DUP2 MSTORE SWAP2 SWAP3 SWAP1 SWAP2 PUSH32 0xEB676771C16D4FB5BC9E83F804BE8AD19CD67426581C189E482796624A1AC9F SWAP2 ADD PUSH1 0x40 MLOAD DUP1 SWAP2 SUB SWAP1 LOG3 POP POP POP JUMP JUMPDEST DUP1 PUSH1 0x1 PUSH1 0x1 PUSH1 0xA0 SHL SUB DUP2 AND PUSH2 0x2540 JUMPI PUSH1 0x40 MLOAD PUSH4 0xE6C4247B PUSH1 0xE0 SHL DUP2 MSTORE PUSH1 0x4 ADD PUSH1 0x40 MLOAD DUP1 SWAP2 SUB SWAP1 REVERT JUMPDEST PUSH1 0x0 PUSH2 0x254B DUP2 PUSH2 0x2AF2 JUMP JUMPDEST PUSH2 0xB3C PUSH1 0x0 DUP1 MLOAD PUSH1 0x20 PUSH2 0x36CD DUP4 CODECOPY DUP2 MLOAD SWAP2 MSTORE DUP5 PUSH2 0x29AF JUMP JUMPDEST PUSH1 0x0 PUSH2 0x774 DUP2 DUP4 PUSH2 0x1C6F JUMP JUMPDEST PUSH1 0x1 PUSH1 0x1 PUSH1 0xA0 SHL SUB DUP2 AND PUSH1 0x0 SWAP1 DUP2 MSTORE PUSH1 0x3 PUSH1 0x20 SWAP1 DUP2 MSTORE PUSH1 0x40 DUP1 DUP4 KECCAK256 DUP1 SLOAD DUP3 MLOAD DUP2 DUP6 MUL DUP2 ADD DUP6 ADD SWAP1 SWAP4 MSTORE DUP1 DUP4 MSTORE PUSH1 0x60 SWAP5 SWAP4 DUP4 ADD DUP3 DUP3 DUP1 ISZERO PUSH2 0x25D8 JUMPI PUSH1 0x20 MUL DUP3 ADD SWAP2 SWAP1 PUSH1 0x0 MSTORE PUSH1 0x20 PUSH1 0x0 KECCAK256 SWAP1 JUMPDEST DUP2 SLOAD PUSH1 0x1 PUSH1 0x1 PUSH1 0xA0 SHL SUB AND DUP2 MSTORE PUSH1 0x1 SWAP1 SWAP2 ADD SWAP1 PUSH1 0x20 ADD DUP1 DUP4 GT PUSH2 0x25BA JUMPI JUMPDEST POP POP POP POP POP SWAP1 POP PUSH1 0x0 DUP1 PUSH1 0x0 SWAP1 POP JUMPDEST DUP3 MLOAD DUP2 LT ISZERO PUSH2 0x2651 JUMPI PUSH1 0x4 PUSH1 0x0 DUP5 DUP4 DUP2 MLOAD DUP2 LT PUSH2 0x2606 JUMPI PUSH2 0x2606 PUSH2 0x3315 JUMP JUMPDEST PUSH1 0x20 MUL PUSH1 0x20 ADD ADD MLOAD PUSH1 0x1 PUSH1 0x1 PUSH1 0xA0 SHL SUB AND PUSH1 0x1 PUSH1 0x1 PUSH1 0xA0 SHL SUB AND DUP2 MSTORE PUSH1 0x20 ADD SWAP1 DUP2 MSTORE PUSH1 0x20 ADD PUSH1 0x0 KECCAK256 DUP1 SLOAD SWAP1 POP DUP3 PUSH2 0x263D SWAP2 SWAP1 PUSH2 0x3514 JUMP JUMPDEST SWAP2 POP DUP1 PUSH2 0x2649 DUP2 PUSH2 0x3341 JUMP JUMPDEST SWAP2 POP POP PUSH2 0x25E7 JUMP JUMPDEST POP PUSH1 0x0 DUP2 PUSH8 0xFFFFFFFFFFFFFFFF DUP2 GT ISZERO PUSH2 0x266D JUMPI PUSH2 0x266D PUSH2 0x32FF JUMP JUMPDEST PUSH1 0x40 MLOAD SWAP1 DUP1 DUP3 MSTORE DUP1 PUSH1 0x20 MUL PUSH1 0x20 ADD DUP3 ADD PUSH1 0x40 MSTORE DUP1 ISZERO PUSH2 0x26A6 JUMPI DUP2 PUSH1 0x20 ADD JUMPDEST PUSH2 0x2693 PUSH2 0x2D10 JUMP JUMPDEST DUP2 MSTORE PUSH1 0x20 ADD SWAP1 PUSH1 0x1 SWAP1 SUB SWAP1 DUP2 PUSH2 0x268B JUMPI SWAP1 POP JUMPDEST POP SWAP1 POP PUSH1 0x0 DUP1 JUMPDEST DUP5 MLOAD DUP2 LT ISZERO PUSH2 0x29A4 JUMPI PUSH1 0x0 JUMPDEST PUSH1 0x4 PUSH1 0x0 DUP8 DUP5 DUP2 MLOAD DUP2 LT PUSH2 0x26CF JUMPI PUSH2 0x26CF PUSH2 0x3315 JUMP JUMPDEST PUSH1 0x20 MUL PUSH1 0x20 ADD ADD MLOAD PUSH1 0x1 PUSH1 0x1 PUSH1 0xA0 SHL SUB AND PUSH1 0x1 PUSH1 0x1 PUSH1 0xA0 SHL SUB AND DUP2 MSTORE PUSH1 0x20 ADD SWAP1 DUP2 MSTORE PUSH1 0x20 ADD PUSH1 0x0 KECCAK256 DUP1 SLOAD SWAP1 POP DUP2 LT ISZERO PUSH2 0x2991 JUMPI DUP8 PUSH1 0x1 PUSH1 0x1 PUSH1 0xA0 SHL SUB AND PUSH1 0x4 PUSH1 0x0 DUP9 DUP6 DUP2 MLOAD DUP2 LT PUSH2 0x2722 JUMPI PUSH2 0x2722 PUSH2 0x3315 JUMP JUMPDEST PUSH1 0x20 MUL PUSH1 0x20 ADD ADD MLOAD PUSH1 0x1 PUSH1 0x1 PUSH1 0xA0 SHL SUB AND PUSH1 0x1 PUSH1 0x1 PUSH1 0xA0 SHL SUB AND DUP2 MSTORE PUSH1 0x20 ADD SWAP1 DUP2 MSTORE PUSH1 0x20 ADD PUSH1 0x0 KECCAK256 DUP3 DUP2 SLOAD DUP2 LT PUSH2 0x275B JUMPI PUSH2 0x275B PUSH2 0x3315 JUMP JUMPDEST PUSH1 0x0 SWAP2 DUP3 MSTORE PUSH1 0x20 SWAP1 SWAP2 KECCAK256 PUSH1 0x6 SWAP1 SWAP2 MUL ADD SLOAD PUSH1 0x1 PUSH1 0x1 PUSH1 0xA0 SHL SUB AND SUB PUSH2 0x297F JUMPI PUSH1 0x4 PUSH1 0x0 DUP8 DUP5 DUP2 MLOAD DUP2 LT PUSH2 0x2790 JUMPI PUSH2 0x2790 PUSH2 0x3315 JUMP JUMPDEST PUSH1 0x20 MUL PUSH1 0x20 ADD ADD MLOAD PUSH1 0x1 PUSH1 0x1 PUSH1 0xA0 SHL SUB AND PUSH1 0x1 PUSH1 0x1 PUSH1 0xA0 SHL SUB AND DUP2 MSTORE PUSH1 0x20 ADD SWAP1 DUP2 MSTORE PUSH1 0x20 ADD PUSH1 0x0 KECCAK256 DUP2 DUP2 SLOAD DUP2 LT PUSH2 0x27C9 JUMPI PUSH2 0x27C9 PUSH2 0x3315 JUMP JUMPDEST PUSH1 0x0 SWAP2 DUP3 MSTORE PUSH1 0x20 SWAP2 DUP3 SWAP1 KECCAK256 PUSH1 0x40 DUP1 MLOAD PUSH1 0xE0 DUP2 ADD DUP3 MSTORE PUSH1 0x6 SWAP1 SWAP4 MUL SWAP1 SWAP2 ADD DUP1 SLOAD PUSH1 0x1 PUSH1 0x1 PUSH1 0xA0 SHL SUB SWAP1 DUP2 AND DUP5 MSTORE PUSH1 0x1 DUP3 ADD SLOAD AND SWAP4 DUP4 ADD SWAP4 SWAP1 SWAP4 MSTORE PUSH1 0x2 DUP4 ADD DUP1 SLOAD SWAP3 SWAP4 SWAP3 SWAP2 DUP5 ADD SWAP2 PUSH2 0x2818 SWAP1 PUSH2 0x335A JUMP JUMPDEST DUP1 PUSH1 0x1F ADD PUSH1 0x20 DUP1 SWAP2 DIV MUL PUSH1 0x20 ADD PUSH1 0x40 MLOAD SWAP1 DUP2 ADD PUSH1 0x40 MSTORE DUP1 SWAP3 SWAP2 SWAP1 DUP2 DUP2 MSTORE PUSH1 0x20 ADD DUP3 DUP1 SLOAD PUSH2 0x2844 SWAP1 PUSH2 0x335A JUMP JUMPDEST DUP1 ISZERO PUSH2 0x2891 JUMPI DUP1 PUSH1 0x1F LT PUSH2 0x2866 JUMPI PUSH2 0x100 DUP1 DUP4 SLOAD DIV MUL DUP4 MSTORE SWAP2 PUSH1 0x20 ADD SWAP2 PUSH2 0x2891 JUMP JUMPDEST DUP3 ADD SWAP2 SWAP1 PUSH1 0x0 MSTORE PUSH1 0x20 PUSH1 0x0 KECCAK256 SWAP1 JUMPDEST DUP2 SLOAD DUP2 MSTORE SWAP1 PUSH1 0x1 ADD SWAP1 PUSH1 0x20 ADD DUP1 DUP4 GT PUSH2 0x2874 JUMPI DUP3 SWAP1 SUB PUSH1 0x1F AND DUP3 ADD SWAP2 JUMPDEST POP POP POP POP POP DUP2 MSTORE PUSH1 0x20 ADD PUSH1 0x3 DUP3 ADD DUP1 SLOAD PUSH2 0x28AA SWAP1 PUSH2 0x335A JUMP JUMPDEST DUP1 PUSH1 0x1F ADD PUSH1 0x20 DUP1 SWAP2 DIV MUL PUSH1 0x20 ADD PUSH1 0x40 MLOAD SWAP1 DUP2 ADD PUSH1 0x40 MSTORE DUP1 SWAP3 SWAP2 SWAP1 DUP2 DUP2 MSTORE PUSH1 0x20 ADD DUP3 DUP1 SLOAD PUSH2 0x28D6 SWAP1 PUSH2 0x335A JUMP JUMPDEST DUP1 ISZERO PUSH2 0x2923 JUMPI DUP1 PUSH1 0x1F LT PUSH2 0x28F8 JUMPI PUSH2 0x100 DUP1 DUP4 SLOAD DIV MUL DUP4 MSTORE SWAP2 PUSH1 0x20 ADD SWAP2 PUSH2 0x2923 JUMP JUMPDEST DUP3 ADD SWAP2 SWAP1 PUSH1 0x0 MSTORE PUSH1 0x20 PUSH1 0x0 KECCAK256 SWAP1 JUMPDEST DUP2 SLOAD DUP2 MSTORE SWAP1 PUSH1 0x1 ADD SWAP1 PUSH1 0x20 ADD DUP1 DUP4 GT PUSH2 0x2906 JUMPI DUP3 SWAP1 SUB PUSH1 0x1F AND DUP3 ADD SWAP2 JUMPDEST POP POP POP SWAP2 DUP4 MSTORE POP POP PUSH1 0x4 DUP3 ADD SLOAD PUSH1 0x20 DUP3 ADD MSTORE PUSH1 0x5 SWAP1 SWAP2 ADD SLOAD PUSH1 0xFF DUP1 DUP3 AND ISZERO ISZERO PUSH1 0x40 DUP5 ADD MSTORE PUSH2 0x100 SWAP1 SWAP2 DIV AND ISZERO ISZERO PUSH1 0x60 SWAP1 SWAP2 ADD MSTORE DUP5 DUP5 PUSH2 0x2961 DUP2 PUSH2 0x3341 JUMP JUMPDEST SWAP6 POP DUP2 MLOAD DUP2 LT PUSH2 0x2973 JUMPI PUSH2 0x2973 PUSH2 0x3315 JUMP JUMPDEST PUSH1 0x20 MUL PUSH1 0x20 ADD ADD DUP2 SWAP1 MSTORE POP JUMPDEST DUP1 PUSH2 0x2989 DUP2 PUSH2 0x3341 JUMP JUMPDEST SWAP2 POP POP PUSH2 0x26B9 JUMP JUMPDEST POP DUP1 PUSH2 0x299C DUP2 PUSH2 0x3341 JUMP JUMPDEST SWAP2 POP POP PUSH2 0x26AD JUMP JUMPDEST POP SWAP1 SWAP6 SWAP5 POP POP POP POP POP JUMP JUMPDEST PUSH1 0x0 DUP3 DUP2 MSTORE PUSH1 0x20 DUP2 SWAP1 MSTORE PUSH1 0x40 SWAP1 KECCAK256 PUSH1 0x1 ADD SLOAD PUSH2 0x29CA DUP2 PUSH2 0x2AF2 JUMP JUMPDEST PUSH2 0xB03 DUP4 DUP4 PUSH2 0x2AFC JUMP JUMPDEST DUP1 PUSH1 0x1 PUSH1 0x1 PUSH1 0xA0 SHL SUB DUP2 AND PUSH2 0x29FC JUMPI PUSH1 0x40 MLOAD PUSH4 0xE6C4247B PUSH1 0xE0 SHL DUP2 MSTORE PUSH1 0x4 ADD PUSH1 0x40 MLOAD DUP1 SWAP2 SUB SWAP1 REVERT JUMPDEST PUSH1 0x0 PUSH2 0x2A07 DUP2 PUSH2 0x2AF2 JUMP JUMPDEST PUSH2 0x2A1F PUSH1 0x0 DUP1 MLOAD PUSH1 0x20 PUSH2 0x36AD DUP4 CODECOPY DUP2 MLOAD SWAP2 MSTORE DUP5 PUSH2 0xADE JUMP JUMPDEST PUSH1 0x40 MLOAD PUSH1 0x1 PUSH1 0x1 PUSH1 0xA0 SHL SUB DUP5 AND SWAP1 PUSH1 0x0 DUP1 MLOAD PUSH1 0x20 PUSH2 0x36AD DUP4 CODECOPY DUP2 MLOAD SWAP2 MSTORE SWAP1 PUSH1 0x0 DUP1 MLOAD PUSH1 0x20 PUSH2 0x362D DUP4 CODECOPY DUP2 MLOAD SWAP2 MSTORE SWAP1 PUSH1 0x0 SWAP1 LOG3 POP POP POP JUMP JUMPDEST PUSH1 0x0 PUSH2 0x774 PUSH1 0x0 DUP1 MLOAD PUSH1 0x20 PUSH2 0x364D DUP4 CODECOPY DUP2 MLOAD SWAP2 MSTORE DUP4 PUSH2 0x1C6F JUMP JUMPDEST DUP1 PUSH1 0x1 PUSH1 0x1 PUSH1 0xA0 SHL SUB DUP2 AND PUSH2 0x2A98 JUMPI PUSH1 0x40 MLOAD PUSH4 0xE6C4247B PUSH1 0xE0 SHL DUP2 MSTORE PUSH1 0x4 ADD PUSH1 0x40 MLOAD DUP1 SWAP2 SUB SWAP1 REVERT JUMPDEST PUSH1 0x0 PUSH2 0x2AA3 DUP2 PUSH2 0x2AF2 JUMP JUMPDEST PUSH2 0x2ABB PUSH1 0x0 DUP1 MLOAD PUSH1 0x20 PUSH2 0x366D DUP4 CODECOPY DUP2 MLOAD SWAP2 MSTORE DUP5 PUSH2 0x29AF JUMP JUMPDEST PUSH1 0x40 MLOAD PUSH1 0x1 PUSH1 0x1 PUSH1 0xA0 SHL SUB DUP5 AND SWAP1 PUSH1 0x0 DUP1 MLOAD PUSH1 0x20 PUSH2 0x366D DUP4 CODECOPY DUP2 MLOAD SWAP2 MSTORE SWAP1 PUSH1 0x0 DUP1 MLOAD PUSH1 0x20 PUSH2 0x36ED DUP4 CODECOPY DUP2 MLOAD SWAP2 MSTORE SWAP1 PUSH1 0x0 SWAP1 LOG3 POP POP POP JUMP JUMPDEST PUSH2 0xA59 DUP2 CALLER PUSH2 0x2C8C JUMP JUMPDEST PUSH1 0x0 PUSH2 0x2B08 DUP4 DUP4 PUSH2 0x1C6F JUMP JUMPDEST ISZERO PUSH2 0x2B67 JUMPI PUSH1 0x0 DUP4 DUP2 MSTORE PUSH1 0x20 DUP2 DUP2 MSTORE PUSH1 0x40 DUP1 DUP4 KECCAK256 PUSH1 0x1 PUSH1 0x1 PUSH1 0xA0 SHL SUB DUP7 AND DUP1 DUP6 MSTORE SWAP3 MSTORE DUP1 DUP4 KECCAK256 DUP1 SLOAD PUSH1 0xFF NOT AND SWAP1 SSTORE MLOAD CALLER SWAP3 DUP7 SWAP2 PUSH32 0xF6391F5C32D9C69D2A47EA670B442974B53935D1EDC7FD64EB21E047A839171B SWAP2 SWAP1 LOG4 POP PUSH1 0x1 PUSH2 0x774 JUMP JUMPDEST POP PUSH1 0x0 PUSH2 0x774 JUMP JUMPDEST PUSH1 0x0 PUSH2 0x2B7B DUP4 DUP4 PUSH2 0x1C6F JUMP JUMPDEST PUSH2 0x2B67 JUMPI PUSH1 0x0 DUP4 DUP2 MSTORE PUSH1 0x20 DUP2 DUP2 MSTORE PUSH1 0x40 DUP1 DUP4 KECCAK256 PUSH1 0x1 PUSH1 0x1 PUSH1 0xA0 SHL SUB DUP7 AND DUP5 MSTORE SWAP1 SWAP2 MSTORE SWAP1 KECCAK256 DUP1 SLOAD PUSH1 0xFF NOT AND PUSH1 0x1 OR SWAP1 SSTORE PUSH2 0x2BB1 CALLER SWAP1 JUMP JUMPDEST PUSH1 0x1 PUSH1 0x1 PUSH1 0xA0 SHL SUB AND DUP3 PUSH1 0x1 PUSH1 0x1 PUSH1 0xA0 SHL SUB AND DUP5 PUSH32 0x2F8788117E7EFF1D82E926EC794901D17C78024A50270940304540A733656F0D PUSH1 0x40 MLOAD PUSH1 0x40 MLOAD DUP1 SWAP2 SUB SWAP1 LOG4 POP PUSH1 0x1 PUSH2 0x774 JUMP JUMPDEST PUSH1 0x0 DUP1 JUMPDEST PUSH1 0x1 PUSH1 0x1 PUSH1 0xA0 SHL SUB DUP5 AND PUSH1 0x0 SWAP1 DUP2 MSTORE PUSH1 0x2 PUSH1 0x20 MSTORE PUSH1 0x40 SWAP1 KECCAK256 SLOAD DUP2 LT ISZERO PUSH2 0x2C82 JUMPI PUSH1 0x1 PUSH1 0x1 PUSH1 0xA0 SHL SUB DUP5 DUP2 AND PUSH1 0x0 SWAP1 DUP2 MSTORE PUSH1 0x2 PUSH1 0x20 MSTORE PUSH1 0x40 SWAP1 KECCAK256 DUP1 SLOAD SWAP2 DUP6 AND SWAP2 DUP4 SWAP1 DUP2 LT PUSH2 0x2C4C JUMPI PUSH2 0x2C4C PUSH2 0x3315 JUMP JUMPDEST PUSH1 0x0 SWAP2 DUP3 MSTORE PUSH1 0x20 SWAP1 SWAP2 KECCAK256 ADD SLOAD PUSH1 0x1 PUSH1 0x1 PUSH1 0xA0 SHL SUB AND SUB PUSH2 0x2C70 JUMPI PUSH1 0x1 SWAP2 POP POP PUSH2 0x774 JUMP JUMPDEST DUP1 PUSH2 0x2C7A DUP2 PUSH2 0x3341 JUMP JUMPDEST SWAP2 POP POP PUSH2 0x2BFD JUMP JUMPDEST POP PUSH1 0x0 SWAP4 SWAP3 POP POP POP JUMP JUMPDEST PUSH2 0x2C96 DUP3 DUP3 PUSH2 0x1C6F JUMP JUMPDEST PUSH2 0x2CC9 JUMPI PUSH1 0x40 MLOAD PUSH4 0xE2517D3F PUSH1 0xE0 SHL DUP2 MSTORE PUSH1 0x1 PUSH1 0x1 PUSH1 0xA0 SHL SUB DUP3 AND PUSH1 0x4 DUP3 ADD MSTORE PUSH1 0x24 DUP2 ADD DUP4 SWAP1 MSTORE PUSH1 0x44 ADD PUSH1 0x40 MLOAD DUP1 SWAP2 SUB SWAP1 REVERT JUMPDEST POP POP JUMP JUMPDEST PUSH1 0x40 DUP1 MLOAD PUSH1 0xC0 DUP2 ADD DUP3 MSTORE PUSH1 0x0 DUP1 DUP3 MSTORE PUSH1 0x20 DUP3 ADD MSTORE SWAP1 DUP2 ADD PUSH2 0x2CEC PUSH2 0x2D10 JUMP JUMPDEST DUP2 MSTORE PUSH1 0x20 ADD PUSH1 0x0 PUSH1 0x1 PUSH1 0x1 PUSH1 0xA0 SHL SUB AND DUP2 MSTORE PUSH1 0x20 ADD PUSH1 0x60 DUP2 MSTORE PUSH1 0x20 ADD PUSH1 0x0 DUP2 MSTORE POP SWAP1 JUMP JUMPDEST PUSH1 0x40 MLOAD DUP1 PUSH1 0xE0 ADD PUSH1 0x40 MSTORE DUP1 PUSH1 0x0 PUSH1 0x1 PUSH1 0x1 PUSH1 0xA0 SHL SUB AND DUP2 MSTORE PUSH1 0x20 ADD PUSH1 0x0 PUSH1 0x1 PUSH1 0x1 PUSH1 0xA0 SHL SUB AND DUP2 MSTORE PUSH1 0x20 ADD PUSH1 0x60 DUP2 MSTORE PUSH1 0x20 ADD PUSH1 0x60 DUP2 MSTORE PUSH1 0x20 ADD PUSH1 0x0 DUP2 MSTORE PUSH1 0x20 ADD PUSH1 0x0 ISZERO ISZERO DUP2 MSTORE PUSH1 0x20 ADD PUSH1 0x0 ISZERO ISZERO DUP2 MSTORE POP SWAP1 JUMP JUMPDEST PUSH1 0x0 PUSH1 0x20 DUP3 DUP5 SUB SLT ISZERO PUSH2 0x2D75 JUMPI PUSH1 0x0 DUP1 REVERT JUMPDEST DUP2 CALLDATALOAD PUSH1 0x1 PUSH1 0x1 PUSH1 0xE0 SHL SUB NOT DUP2 AND DUP2 EQ PUSH2 0x2D8D JUMPI PUSH1 0x0 DUP1 REVERT JUMPDEST SWAP4 SWAP3 POP POP POP JUMP JUMPDEST DUP1 CALLDATALOAD PUSH1 0x1 PUSH1 0x1 PUSH1 0xA0 SHL SUB DUP2 AND DUP2 EQ PUSH2 0x2DAB JUMPI PUSH1 0x0 DUP1 REVERT JUMPDEST SWAP2 SWAP1 POP JUMP JUMPDEST PUSH1 0x0 PUSH1 0x20 DUP3 DUP5 SUB SLT ISZERO PUSH2 0x2DC2 JUMPI PUSH1 0x0 DUP1 REVERT JUMPDEST PUSH2 0x2D8D DUP3 PUSH2 0x2D94 JUMP JUMPDEST PUSH1 0x40 DUP1 DUP3 MSTORE DUP4 MLOAD SWAP1 DUP3 ADD DUP2 SWAP1 MSTORE PUSH1 0x0 SWAP1 PUSH1 0x20 SWAP1 PUSH1 0x60 DUP5 ADD SWAP1 DUP3 DUP8 ADD DUP5 JUMPDEST DUP3 DUP2 LT ISZERO PUSH2 0x2E0D JUMPI DUP2 MLOAD PUSH1 0x1 PUSH1 0x1 PUSH1 0xA0 SHL SUB AND DUP5 MSTORE SWAP3 DUP5 ADD SWAP3 SWAP1 DUP5 ADD SWAP1 PUSH1 0x1 ADD PUSH2 0x2DE8 JUMP JUMPDEST POP POP POP DUP4 DUP2 SUB DUP3 DUP6 ADD MSTORE DUP5 MLOAD DUP1 DUP3 MSTORE DUP6 DUP4 ADD SWAP2 DUP4 ADD SWAP1 PUSH1 0x0 JUMPDEST DUP2 DUP2 LT ISZERO PUSH2 0x2E42 JUMPI DUP4 MLOAD DUP4 MSTORE SWAP3 DUP5 ADD SWAP3 SWAP2 DUP5 ADD SWAP2 PUSH1 0x1 ADD PUSH2 0x2E26 JUMP JUMPDEST POP SWAP1 SWAP8 SWAP7 POP POP POP POP POP POP POP JUMP JUMPDEST PUSH1 0x0 PUSH1 0x20 DUP3 DUP5 SUB SLT ISZERO PUSH2 0x2E61 JUMPI PUSH1 0x0 DUP1 REVERT JUMPDEST POP CALLDATALOAD SWAP2 SWAP1 POP JUMP JUMPDEST PUSH1 0x0 DUP1 PUSH1 0x40 DUP4 DUP6 SUB SLT ISZERO PUSH2 0x2E7B JUMPI PUSH1 0x0 DUP1 REVERT JUMPDEST DUP3 CALLDATALOAD SWAP2 POP PUSH2 0x2E8B PUSH1 0x20 DUP5 ADD PUSH2 0x2D94 JUMP JUMPDEST SWAP1 POP SWAP3 POP SWAP3 SWAP1 POP JUMP JUMPDEST PUSH1 0x0 DUP1 DUP4 PUSH1 0x1F DUP5 ADD SLT PUSH2 0x2EA6 JUMPI PUSH1 0x0 DUP1 REVERT JUMPDEST POP DUP2 CALLDATALOAD PUSH8 0xFFFFFFFFFFFFFFFF DUP2 GT ISZERO PUSH2 0x2EBE JUMPI PUSH1 0x0 DUP1 REVERT JUMPDEST PUSH1 0x20 DUP4 ADD SWAP2 POP DUP4 PUSH1 0x20 DUP3 DUP6 ADD ADD GT ISZERO PUSH2 0x2ED6 JUMPI PUSH1 0x0 DUP1 REVERT JUMPDEST SWAP3 POP SWAP3 SWAP1 POP JUMP JUMPDEST PUSH1 0x0 DUP1 PUSH1 0x0 DUP1 PUSH1 0x60 DUP6 DUP8 SUB SLT ISZERO PUSH2 0x2EF3 JUMPI PUSH1 0x0 DUP1 REVERT JUMPDEST PUSH2 0x2EFC DUP6 PUSH2 0x2D94 JUMP JUMPDEST SWAP4 POP PUSH1 0x20 DUP6 ADD CALLDATALOAD SWAP3 POP PUSH1 0x40 DUP6 ADD CALLDATALOAD PUSH8 0xFFFFFFFFFFFFFFFF DUP2 GT ISZERO PUSH2 0x2F1F JUMPI PUSH1 0x0 DUP1 REVERT JUMPDEST PUSH2 0x2F2B DUP8 DUP3 DUP9 ADD PUSH2 0x2E94 JUMP JUMPDEST SWAP6 SWAP9 SWAP5 SWAP8 POP SWAP6 POP POP POP POP JUMP JUMPDEST PUSH1 0x0 DUP1 PUSH1 0x40 DUP4 DUP6 SUB SLT ISZERO PUSH2 0x2F4A JUMPI PUSH1 0x0 DUP1 REVERT JUMPDEST POP POP DUP1 CALLDATALOAD SWAP3 PUSH1 0x20 SWAP1 SWAP2 ADD CALLDATALOAD SWAP2 POP JUMP JUMPDEST PUSH1 0x0 DUP2 MLOAD DUP1 DUP5 MSTORE PUSH1 0x0 JUMPDEST DUP2 DUP2 LT ISZERO PUSH2 0x2F7F JUMPI PUSH1 0x20 DUP2 DUP6 ADD DUP2 ADD MLOAD DUP7 DUP4 ADD DUP3 ADD MSTORE ADD PUSH2 0x2F63 JUMP JUMPDEST POP PUSH1 0x0 PUSH1 0x20 DUP3 DUP7 ADD ADD MSTORE PUSH1 0x20 PUSH1 0x1F NOT PUSH1 0x1F DUP4 ADD AND DUP6 ADD ADD SWAP2 POP POP SWAP3 SWAP2 POP POP JUMP JUMPDEST PUSH1 0x0 PUSH1 0x1 DUP1 PUSH1 0xA0 SHL SUB DUP1 DUP4 MLOAD AND DUP5 MSTORE DUP1 PUSH1 0x20 DUP5 ADD MLOAD AND PUSH1 0x20 DUP6 ADD MSTORE POP PUSH1 0x40 DUP3 ADD MLOAD PUSH1 0xE0 PUSH1 0x40 DUP6 ADD MSTORE PUSH2 0x2FD4 PUSH1 0xE0 DUP6 ADD DUP3 PUSH2 0x2F59 JUMP JUMPDEST SWAP1 POP PUSH1 0x60 DUP4 ADD MLOAD DUP5 DUP3 SUB PUSH1 0x60 DUP7 ADD MSTORE PUSH2 0x2FED DUP3 DUP3 PUSH2 0x2F59 JUMP JUMPDEST SWAP2 POP POP PUSH1 0x80 DUP4 ADD MLOAD PUSH1 0x80 DUP6 ADD MSTORE PUSH1 0xA0 DUP4 ADD MLOAD ISZERO ISZERO PUSH1 0xA0 DUP6 ADD MSTORE PUSH1 0xC0 DUP4 ADD MLOAD ISZERO ISZERO PUSH1 0xC0 DUP6 ADD MSTORE DUP1 SWAP2 POP POP SWAP3 SWAP2 POP POP JUMP JUMPDEST PUSH1 0x0 PUSH1 0x20 DUP1 DUP4 ADD DUP2 DUP5 MSTORE DUP1 DUP6 MLOAD DUP1 DUP4 MSTORE PUSH1 0x40 SWAP3 POP DUP3 DUP7 ADD SWAP2 POP DUP3 DUP2 PUSH1 0x5 SHL DUP8 ADD ADD DUP5 DUP9 ADD PUSH1 0x0 JUMPDEST DUP4 DUP2 LT ISZERO PUSH2 0x30D1 JUMPI DUP9 DUP4 SUB PUSH1 0x3F NOT ADD DUP6 MSTORE DUP2 MLOAD DUP1 MLOAD PUSH1 0x1 PUSH1 0x1 PUSH1 0xA0 SHL SUB SWAP1 DUP2 AND DUP6 MSTORE DUP9 DUP3 ADD MLOAD DUP10 DUP7 ADD MSTORE DUP8 DUP3 ADD MLOAD PUSH1 0xC0 DUP10 DUP8 ADD DUP2 SWAP1 MSTORE SWAP2 SWAP1 PUSH2 0x3087 DUP4 DUP9 ADD DUP3 PUSH2 0x2F9F JUMP JUMPDEST SWAP3 POP POP PUSH1 0x60 DUP2 DUP2 DUP6 ADD MLOAD AND DUP2 DUP9 ADD MSTORE POP POP PUSH1 0x80 DUP1 DUP4 ADD MLOAD DUP7 DUP4 SUB DUP3 DUP9 ADD MSTORE PUSH2 0x30AF DUP4 DUP3 PUSH2 0x2F59 JUMP JUMPDEST PUSH1 0xA0 SWAP5 DUP6 ADD MLOAD SWAP8 SWAP1 SWAP5 ADD SWAP7 SWAP1 SWAP7 MSTORE POP POP SWAP5 DUP8 ADD SWAP5 SWAP3 POP SWAP1 DUP7 ADD SWAP1 PUSH1 0x1 ADD PUSH2 0x3043 JUMP JUMPDEST POP SWAP1 SWAP9 SWAP8 POP POP POP POP POP POP POP POP JUMP JUMPDEST PUSH1 0x0 DUP1 PUSH1 0x0 PUSH1 0x60 DUP5 DUP7 SUB SLT ISZERO PUSH2 0x30F4 JUMPI PUSH1 0x0 DUP1 REVERT JUMPDEST DUP4 CALLDATALOAD SWAP3 POP PUSH2 0x3104 PUSH1 0x20 DUP6 ADD PUSH2 0x2D94 JUMP JUMPDEST SWAP2 POP PUSH2 0x3112 PUSH1 0x40 DUP6 ADD PUSH2 0x2D94 JUMP JUMPDEST SWAP1 POP SWAP3 POP SWAP3 POP SWAP3 JUMP JUMPDEST PUSH1 0x0 DUP1 DUP4 PUSH1 0x1F DUP5 ADD SLT PUSH2 0x312D JUMPI PUSH1 0x0 DUP1 REVERT JUMPDEST POP DUP2 CALLDATALOAD PUSH8 0xFFFFFFFFFFFFFFFF DUP2 GT ISZERO PUSH2 0x3145 JUMPI PUSH1 0x0 DUP1 REVERT JUMPDEST PUSH1 0x20 DUP4 ADD SWAP2 POP DUP4 PUSH1 0x20 DUP3 PUSH1 0x5 SHL DUP6 ADD ADD GT ISZERO PUSH2 0x2ED6 JUMPI PUSH1 0x0 DUP1 REVERT JUMPDEST PUSH1 0x0 DUP1 PUSH1 0x0 DUP1 PUSH1 0x40 DUP6 DUP8 SUB SLT ISZERO PUSH2 0x3176 JUMPI PUSH1 0x0 DUP1 REVERT JUMPDEST DUP5 CALLDATALOAD PUSH8 0xFFFFFFFFFFFFFFFF DUP1 DUP3 GT ISZERO PUSH2 0x318E JUMPI PUSH1 0x0 DUP1 REVERT JUMPDEST PUSH2 0x319A DUP9 DUP4 DUP10 ADD PUSH2 0x311B JUMP JUMPDEST SWAP1 SWAP7 POP SWAP5 POP PUSH1 0x20 DUP8 ADD CALLDATALOAD SWAP2 POP DUP1 DUP3 GT ISZERO PUSH2 0x31B3 JUMPI PUSH1 0x0 DUP1 REVERT JUMPDEST POP PUSH2 0x2F2B DUP8 DUP3 DUP9 ADD PUSH2 0x311B JUMP JUMPDEST PUSH1 0x0 PUSH1 0x20 DUP1 DUP4 ADD DUP2 DUP5 MSTORE DUP1 DUP6 MLOAD DUP1 DUP4 MSTORE PUSH1 0x40 DUP7 ADD SWAP2 POP PUSH1 0x40 DUP2 PUSH1 0x5 SHL DUP8 ADD ADD SWAP3 POP DUP4 DUP8 ADD PUSH1 0x0 JUMPDEST DUP3 DUP2 LT ISZERO PUSH2 0x3215 JUMPI PUSH1 0x3F NOT DUP9 DUP7 SUB ADD DUP5 MSTORE PUSH2 0x3203 DUP6 DUP4 MLOAD PUSH2 0x2F9F JUMP JUMPDEST SWAP5 POP SWAP3 DUP6 ADD SWAP3 SWAP1 DUP6 ADD SWAP1 PUSH1 0x1 ADD PUSH2 0x31E7 JUMP JUMPDEST POP SWAP3 SWAP8 SWAP7 POP POP POP POP POP POP POP JUMP JUMPDEST DUP1 ISZERO ISZERO DUP2 EQ PUSH2 0xA59 JUMPI PUSH1 0x0 DUP1 REVERT JUMPDEST PUSH1 0x0 DUP1 PUSH1 0x0 DUP1 PUSH1 0x0 DUP1 PUSH1 0x80 DUP8 DUP10 SUB SLT ISZERO PUSH2 0x3249 JUMPI PUSH1 0x0 DUP1 REVERT JUMPDEST PUSH2 0x3252 DUP8 PUSH2 0x2D94 JUMP JUMPDEST SWAP6 POP PUSH1 0x20 DUP8 ADD CALLDATALOAD PUSH2 0x3262 DUP2 PUSH2 0x3222 JUMP JUMPDEST SWAP5 POP PUSH1 0x40 DUP8 ADD CALLDATALOAD PUSH8 0xFFFFFFFFFFFFFFFF DUP1 DUP3 GT ISZERO PUSH2 0x327F JUMPI PUSH1 0x0 DUP1 REVERT JUMPDEST PUSH2 0x328B DUP11 DUP4 DUP12 ADD PUSH2 0x2E94 JUMP JUMPDEST SWAP1 SWAP7 POP SWAP5 POP PUSH1 0x60 DUP10 ADD CALLDATALOAD SWAP2 POP DUP1 DUP3 GT ISZERO PUSH2 0x32A4 JUMPI PUSH1 0x0 DUP1 REVERT JUMPDEST POP PUSH2 0x32B1 DUP10 DUP3 DUP11 ADD PUSH2 0x2E94 JUMP JUMPDEST SWAP8 SWAP11 SWAP7 SWAP10 POP SWAP5 SWAP8 POP SWAP3 SWAP6 SWAP4 SWAP5 SWAP3 POP POP POP JUMP JUMPDEST PUSH1 0x0 DUP1 PUSH1 0x0 PUSH1 0x60 DUP5 DUP7 SUB SLT ISZERO PUSH2 0x32D8 JUMPI PUSH1 0x0 DUP1 REVERT JUMPDEST PUSH2 0x32E1 DUP5 PUSH2 0x2D94 JUMP JUMPDEST SWAP3 POP PUSH2 0x32EF PUSH1 0x20 DUP6 ADD PUSH2 0x2D94 JUMP JUMPDEST SWAP2 POP PUSH1 0x40 DUP5 ADD CALLDATALOAD SWAP1 POP SWAP3 POP SWAP3 POP SWAP3 JUMP JUMPDEST PUSH4 0x4E487B71 PUSH1 0xE0 SHL PUSH1 0x0 MSTORE PUSH1 0x41 PUSH1 0x4 MSTORE PUSH1 0x24 PUSH1 0x0 REVERT JUMPDEST PUSH4 0x4E487B71 PUSH1 0xE0 SHL PUSH1 0x0 MSTORE PUSH1 0x32 PUSH1 0x4 MSTORE PUSH1 0x24 PUSH1 0x0 REVERT JUMPDEST PUSH4 0x4E487B71 PUSH1 0xE0 SHL PUSH1 0x0 MSTORE PUSH1 0x11 PUSH1 0x4 MSTORE PUSH1 0x24 PUSH1 0x0 REVERT JUMPDEST PUSH1 0x0 PUSH1 0x1 DUP3 ADD PUSH2 0x3353 JUMPI PUSH2 0x3353 PUSH2 0x332B JUMP JUMPDEST POP PUSH1 0x1 ADD SWAP1 JUMP JUMPDEST PUSH1 0x1 DUP2 DUP2 SHR SWAP1 DUP3 AND DUP1 PUSH2 0x336E JUMPI PUSH1 0x7F DUP3 AND SWAP2 POP JUMPDEST PUSH1 0x20 DUP3 LT DUP2 SUB PUSH2 0x338E JUMPI PUSH4 0x4E487B71 PUSH1 0xE0 SHL PUSH1 0x0 MSTORE PUSH1 0x22 PUSH1 0x4 MSTORE PUSH1 0x24 PUSH1 0x0 REVERT JUMPDEST POP SWAP2 SWAP1 POP JUMP JUMPDEST PUSH1 0x1F DUP3 GT ISZERO PUSH2 0xB3C JUMPI PUSH1 0x0 DUP2 DUP2 MSTORE PUSH1 0x20 DUP2 KECCAK256 PUSH1 0x1F DUP6 ADD PUSH1 0x5 SHR DUP2 ADD PUSH1 0x20 DUP7 LT ISZERO PUSH2 0x33BB JUMPI POP DUP1 JUMPDEST PUSH1 0x1F DUP6 ADD PUSH1 0x5 SHR DUP3 ADD SWAP2 POP JUMPDEST DUP2 DUP2 LT ISZERO PUSH2 0x33DA JUMPI DUP3 DUP2 SSTORE PUSH1 0x1 ADD PUSH2 0x33C7 JUMP JUMPDEST POP POP POP POP POP POP JUMP JUMPDEST DUP2 MLOAD PUSH8 0xFFFFFFFFFFFFFFFF DUP2 GT ISZERO PUSH2 0x33FC JUMPI PUSH2 0x33FC PUSH2 0x32FF JUMP JUMPDEST PUSH2 0x3410 DUP2 PUSH2 0x340A DUP5 SLOAD PUSH2 0x335A JUMP JUMPDEST DUP5 PUSH2 0x3394 JUMP JUMPDEST PUSH1 0x20 DUP1 PUSH1 0x1F DUP4 GT PUSH1 0x1 DUP2 EQ PUSH2 0x3445 JUMPI PUSH1 0x0 DUP5 ISZERO PUSH2 0x342D JUMPI POP DUP6 DUP4 ADD MLOAD JUMPDEST PUSH1 0x0 NOT PUSH1 0x3 DUP7 SWAP1 SHL SHR NOT AND PUSH1 0x1 DUP6 SWAP1 SHL OR DUP6 SSTORE PUSH2 0x33DA JUMP JUMPDEST PUSH1 0x0 DUP6 DUP2 MSTORE PUSH1 0x20 DUP2 KECCAK256 PUSH1 0x1F NOT DUP7 AND SWAP2 JUMPDEST DUP3 DUP2 LT ISZERO PUSH2 0x3474 JUMPI DUP9 DUP7 ADD MLOAD DUP3 SSTORE SWAP5 DUP5 ADD SWAP5 PUSH1 0x1 SWAP1 SWAP2 ADD SWAP1 DUP5 ADD PUSH2 0x3455 JUMP JUMPDEST POP DUP6 DUP3 LT ISZERO PUSH2 0x3492 JUMPI DUP8 DUP6 ADD MLOAD PUSH1 0x0 NOT PUSH1 0x3 DUP9 SWAP1 SHL PUSH1 0xF8 AND SHR NOT AND DUP2 SSTORE JUMPDEST POP POP POP POP POP PUSH1 0x1 SWAP1 DUP2 SHL ADD SWAP1 SSTORE POP JUMP JUMPDEST DUP2 DUP4 MSTORE DUP2 DUP2 PUSH1 0x20 DUP6 ADD CALLDATACOPY POP PUSH1 0x0 DUP3 DUP3 ADD PUSH1 0x20 SWAP1 DUP2 ADD SWAP2 SWAP1 SWAP2 MSTORE PUSH1 0x1F SWAP1 SWAP2 ADD PUSH1 0x1F NOT AND SWAP1 SWAP2 ADD ADD SWAP1 JUMP JUMPDEST PUSH1 0x1 PUSH1 0x1 PUSH1 0xA0 SHL SUB DUP6 AND DUP2 MSTORE PUSH1 0x60 PUSH1 0x20 DUP3 ADD DUP2 SWAP1 MSTORE PUSH1 0x0 SWAP1 PUSH2 0x34F0 SWAP1 DUP4 ADD DUP6 DUP8 PUSH2 0x34A2 JUMP JUMPDEST SWAP1 POP DUP3 PUSH1 0x40 DUP4 ADD MSTORE SWAP6 SWAP5 POP POP POP POP POP JUMP JUMPDEST DUP2 DUP2 SUB DUP2 DUP2 GT ISZERO PUSH2 0x774 JUMPI PUSH2 0x774 PUSH2 0x332B JUMP JUMPDEST DUP1 DUP3 ADD DUP1 DUP3 GT ISZERO PUSH2 0x774 JUMPI PUSH2 0x774 PUSH2 0x332B JUMP JUMPDEST PUSH1 0x0 DUP2 DUP5 DUP3 JUMPDEST DUP6 DUP2 LT ISZERO PUSH2 0x29A4 JUMPI PUSH1 0x1 PUSH1 0x1 PUSH1 0xA0 SHL SUB PUSH2 0x3546 DUP4 PUSH2 0x2D94 JUMP JUMPDEST AND DUP4 MSTORE PUSH1 0x20 SWAP3 DUP4 ADD SWAP3 SWAP2 SWAP1 SWAP2 ADD SWAP1 PUSH1 0x1 ADD PUSH2 0x352D JUMP JUMPDEST PUSH1 0x20 DUP1 DUP3 MSTORE DUP2 ADD DUP3 SWAP1 MSTORE PUSH1 0x0 PUSH1 0x1 PUSH1 0x1 PUSH1 0xFB SHL SUB DUP4 GT ISZERO PUSH2 0x357C JUMPI PUSH1 0x0 DUP1 REVERT JUMPDEST DUP3 PUSH1 0x5 SHL DUP1 DUP6 PUSH1 0x40 DUP6 ADD CALLDATACOPY SWAP2 SWAP1 SWAP2 ADD PUSH1 0x40 ADD SWAP4 SWAP3 POP POP POP JUMP JUMPDEST DUP1 DUP3 MUL DUP2 ISZERO DUP3 DUP3 DIV DUP5 EQ OR PUSH2 0x774 JUMPI PUSH2 0x774 PUSH2 0x332B JUMP JUMPDEST DUP7 ISZERO ISZERO DUP2 MSTORE PUSH1 0x80 PUSH1 0x20 DUP3 ADD MSTORE PUSH1 0x0 PUSH2 0x35C8 PUSH1 0x80 DUP4 ADD DUP8 DUP10 PUSH2 0x34A2 JUMP JUMPDEST DUP3 DUP2 SUB PUSH1 0x40 DUP5 ADD MSTORE PUSH2 0x35DB DUP2 DUP7 DUP9 PUSH2 0x34A2 JUMP JUMPDEST SWAP2 POP POP DUP3 PUSH1 0x60 DUP4 ADD MSTORE SWAP8 SWAP7 POP POP POP POP POP POP POP JUMP JUMPDEST PUSH1 0x0 PUSH1 0x20 DUP3 DUP5 SUB SLT ISZERO PUSH2 0x3601 JUMPI PUSH1 0x0 DUP1 REVERT JUMPDEST DUP2 MLOAD PUSH2 0x2D8D DUP2 PUSH2 0x3222 JUMP INVALID SWAP3 MULMOD SWAP5 0xFC EXTCODESIZE INVALID 0x28 0x2F EXTCODEHASH KECCAK256 0xCD 0xCC CALL 0xB7 0xC5 0xE4 PUSH13 0x63D963E822D98EFFF90ABD41C1 0x2E 0x21 0x2A 0xE6 LOG1 SGT 0xC0 0xED JUMPDEST PUSH25 0xA53413FFBB7679881F11145CCFBA4FB92E863DFCD5A1D2F3EE 0x24 0x4E 0xF9 0xDA SIGNEXTEND 0x2F DUP10 0xA7 0x4B KECCAK256 DUP15 0xA9 INVALID BYTE PUSH4 0x9EBDF634 MUL PUSH30 0x9E1F092B58C39954FA37C41A06B26CED3A23B7BF835A0918ADE784F4055D 0xED DUP7 0xD1 DUP4 SDIV CREATE2 0x28 DELEGATECALL PUSH27 0x726052AA0EC51D0BF03CE5511C9FFC9DE2B423D73D1FAACD808ABF 0x2A 0xC8 SWAP13 0xCE 0xA8 LOG3 0xEC CALLCODE MSIZE LOG1 0xC4 DUP15 PC CALLDATACOPY 0xAD PUSH27 0x7F3DCEDCBE129BF3249EC4FBF651FD4F5E2600EAD39FE2F506FA31 0xD7 0xA9 0x2D SWAP16 0xA9 0xA8 DUP10 DUP11 0xC4 SAR DUP7 0xEE SWAP12 SGT DUP7 CALLDATASIZE SDIV LOG3 PUSH2 0xC85A 0xE5 0xD6 ADD 0xD 0x5D 0xE4 CALLCODE DUP1 ISZERO GAS 0xAA 0xFB PUSH4 0x29A20985 DUP1 CHAINID 0x2D RETURN RETURNDATACOPY 0xC4 0xB7 PREVRANDAO SHL NOT PUSH19 0x9B9601C5FC17AE1CF99A8A52A2646970667358 0x22 SLT KECCAK256 DUP10 PUSH19 0xC7BE2714E1A898CB647E829081A86FAF4A9F1F DELEGATECALL ADDMOD EQ SWAP7 KECCAK256 DIV 0xD6 PUSH11 0x94ECEA64736F6C63430008 EQ STOP CALLER "},"gasEstimates":{"creation":{"codeDepositCost":"2829200","executionCost":"infinite","totalCost":"infinite"},"external":{"AUDITOR_ROLE()":"infinite","CERTIFICATE_FACTORY_ROLE()":"infinite","CERTIFIER_ROLE()":"infinite","DEFAULT_ADMIN_ROLE()":"284","ENTERPRISE_ROLE()":"infinite","INSPECTOR_ROLE()":"infinite","PUBLIC_ROLE()":"infinite","assignInspector(address,address,uint256)":"infinite","bulkGrantRoles(bytes32[],address[])":"infinite","certAuthority()":"infinite","checkExpiryRoles(address)":"infinite","claimTemporaryPublicRole(uint256)":"infinite","flagInspection(address,uint256,string)":"infinite","getActiveRoles(address)":"infinite","getEnterpriseFlaggedReports(address)":"infinite","getEnterpriseInspectionReports(address)":"infinite","getEnterpriseInspectors(address)":"infinite","getFlaggedInspections(uint256,uint256)":"infinite","getInspectorReports(address)":"infinite","getMaxPublicRoleDuration()":"325","getRoleAdmin(bytes32)":"2582","grantAuditor(address)":"infinite","grantCertificateFactory(address)":"infinite","grantCertifier(address)":"infinite","grantEnterprise(address)":"infinite","grantInspector(address)":"infinite","grantPublicRole(address)":"infinite","grantRole(bytes32,address)":"infinite","hasAdminRole(address)":"2735","hasAuditorRole(address)":"infinite","hasCertificateFactoryRole(address)":"infinite","hasCertifierRole(address)":"infinite","hasEnterpriseRole(address)":"infinite","hasInspectorRole(address)":"infinite","hasPublicRole(address)":"infinite","hasRole(bytes32,address)":"2785","publicRoleExpiry(address)":"2630","renounceRole(bytes32,address)":"29113","revokeAuditorRole(address)":"infinite","revokeCertificateFactoryRole(address)":"infinite","revokeCertifierRole(address)":"infinite","revokeEnterpriseRole(address)":"infinite","revokeInspectorRole(address)":"infinite","revokePublicRole(address)":"infinite","revokeRole(bytes32,address)":"infinite","rolesManager()":"infinite","submitInspectionReport(address,bool,string,string)":"infinite","supportsInterface(bytes4)":"473","transferRole(bytes32,address,address)":"infinite"},"internal":{"_isInspectorAssigned(address,address)":"infinite"}},"methodIdentifiers":{"AUDITOR_ROLE()":"6e1d616e","CERTIFICATE_FACTORY_ROLE()":"784fee0e","CERTIFIER_ROLE()":"69d0b517","DEFAULT_ADMIN_ROLE()":"a217fddf","ENTERPRISE_ROLE()":"68dd17a5","INSPECTOR_ROLE()":"e3a3c522","PUBLIC_ROLE()":"3ca7c02a","assignInspector(address,address,uint256)":"b1ea540e","bulkGrantRoles(bytes32[],address[])":"61462f0e","certAuthority()":"99eb08d6","checkExpiryRoles(address)":"25d5e87e","claimTemporaryPublicRole(uint256)":"7780e9c1","flagInspection(address,uint256,string)":"4308ac98","getActiveRoles(address)":"b0614db3","getEnterpriseFlaggedReports(address)":"68b688c1","getEnterpriseInspectionReports(address)":"9a98163b","getEnterpriseInspectors(address)":"08d0aef7","getFlaggedInspections(uint256,uint256)":"4e4ddb92","getInspectorReports(address)":"cc5ed5ea","getMaxPublicRoleDuration()":"b8ad415e","getRoleAdmin(bytes32)":"248a9ca3","grantAuditor(address)":"e55b4f93","grantCertificateFactory(address)":"aa52617c","grantCertifier(address)":"60376528","grantEnterprise(address)":"1e223b2a","grantInspector(address)":"456f19fc","grantPublicRole(address)":"57c03371","grantRole(bytes32,address)":"2f2ff15d","hasAdminRole(address)":"c395fcb3","hasAuditorRole(address)":"abaa536f","hasCertificateFactoryRole(address)":"52f84b72","hasCertifierRole(address)":"7bff0975","hasEnterpriseRole(address)":"a1f34163","hasInspectorRole(address)":"8850845f","hasPublicRole(address)":"f53f5e1e","hasRole(bytes32,address)":"91d14854","publicRoleExpiry(address)":"b5617ef7","renounceRole(bytes32,address)":"36568abe","revokeAuditorRole(address)":"3e251518","revokeCertificateFactoryRole(address)":"261191b7","revokeCertifierRole(address)":"fc810286","revokeEnterpriseRole(address)":"7e5effa4","revokeInspectorRole(address)":"bd7ca7ba","revokePublicRole(address)":"0443cd2a","revokeRole(bytes32,address)":"d547741f","rolesManager()":"a3574c5b","submitInspectionReport(address,bool,string,string)":"b1ba3883","supportsInterface(bytes4)":"01ffc9a7","transferRole(bytes32,address,address)":"5cb87d26"}},"storageLayout":{"storage":[{"astId":26,"contract":"contracts/modules/InspectionManager.sol:InspectionManager","label":"_roles","offset":0,"slot":"0","type":"t_mapping(t_bytes32,t_struct(RoleData)21_storage)"},{"astId":3880,"contract":"contracts/modules/InspectionManager.sol:InspectionManager","label":"publicRoleExpiry","offset":0,"slot":"1","type":"t_mapping(t_address,t_uint256)"},{"astId":4584,"contract":"contracts/modules/InspectionManager.sol:InspectionManager","label":"_enterpriseInspectors","offset":0,"slot":"2","type":"t_mapping(t_address,t_array(t_address)dyn_storage)"},{"astId":4589,"contract":"contracts/modules/InspectionManager.sol:InspectionManager","label":"_inspectorEnterprises","offset":0,"slot":"3","type":"t_mapping(t_address,t_array(t_address)dyn_storage)"},{"astId":4595,"contract":"contracts/modules/InspectionManager.sol:InspectionManager","label":"_enterpriseReports","offset":0,"slot":"4","type":"t_mapping(t_address,t_array(t_struct(InspectionReport)5334_storage)dyn_storage)"},{"astId":4601,"contract":"contracts/modules/InspectionManager.sol:InspectionManager","label":"_lastInspectionTimestamps","offset":0,"slot":"5","type":"t_mapping(t_address,t_mapping(t_address,t_uint256))"},{"astId":4606,"contract":"contracts/modules/InspectionManager.sol:InspectionManager","label":"_flaggedInspections","offset":0,"slot":"6","type":"t_mapping(t_uint256,t_struct(FlaggedInspection)5348_storage)"},{"astId":4611,"contract":"contracts/modules/InspectionManager.sol:InspectionManager","label":"_enterpriseFlaggedReports","offset":0,"slot":"7","type":"t_mapping(t_address,t_array(t_uint256)dyn_storage)"},{"astId":4613,"contract":"contracts/modules/InspectionManager.sol:InspectionManager","label":"_flagCounter","offset":0,"slot":"8","type":"t_uint256"}],"types":{"t_address":{"encoding":"inplace","label":"address","numberOfBytes":"20"},"t_array(t_address)dyn_storage":{"base":"t_address","encoding":"dynamic_array","label":"address[]","numberOfBytes":"32"},"t_array(t_struct(InspectionReport)5334_storage)dyn_storage":{"base":"t_struct(InspectionReport)5334_storage","encoding":"dynamic_array","label":"struct DataTypes.InspectionReport[]","numberOfBytes":"32"},"t_array(t_uint256)dyn_storage":{"base":"t_uint256","encoding":"dynamic_array","label":"uint256[]","numberOfBytes":"32"},"t_bool":{"encoding":"inplace","label":"bool","numberOfBytes":"1"},"t_bytes32":{"encoding":"inplace","label":"bytes32","numberOfBytes":"32"},"t_mapping(t_address,t_array(t_address)dyn_storage)":{"encoding":"mapping","key":"t_address","label":"mapping(address => address[])","numberOfBytes":"32","value":"t_array(t_address)dyn_storage"},"t_mapping(t_address,t_array(t_struct(InspectionReport)5334_storage)dyn_storage)":{"encoding":"mapping","key":"t_address","label":"mapping(address => struct DataTypes.InspectionReport[])","numberOfBytes":"32","value":"t_array(t_struct(InspectionReport)5334_storage)dyn_storage"},"t_mapping(t_address,t_array(t_uint256)dyn_storage)":{"encoding":"mapping","key":"t_address","label":"mapping(address => uint256[])","numberOfBytes":"32","value":"t_array(t_uint256)dyn_storage"},"t_mapping(t_address,t_bool)":{"encoding":"mapping","key":"t_address","label":"mapping(address => bool)","numberOfBytes":"32","value":"t_bool"},"t_mapping(t_address,t_mapping(t_address,t_uint256))":{"encoding":"mapping","key":"t_address","label":"mapping(address => mapping(address => uint256))","numberOfBytes":"32","value":"t_mapping(t_address,t_uint256)"},"t_mapping(t_address,t_uint256)":{"encoding":"mapping","key":"t_address","label":"mapping(address => uint256)","numberOfBytes":"32","value":"t_uint256"},"t_mapping(t_bytes32,t_struct(RoleData)21_storage)":{"encoding":"mapping","key":"t_bytes32","label":"mapping(bytes32 => struct AccessControl.RoleData)","numberOfBytes":"32","value":"t_struct(RoleData)21_storage"},"t_mapping(t_uint256,t_struct(FlaggedInspection)5348_storage)":{"encoding":"mapping","key":"t_uint256","label":"mapping(uint256 => struct DataTypes.FlaggedInspection)","numberOfBytes":"32","value":"t_struct(FlaggedInspection)5348_storage"},"t_string_storage":{"encoding":"bytes","label":"string","numberOfBytes":"32"},"t_struct(FlaggedInspection)5348_storage":{"encoding":"inplace","label":"struct DataTypes.FlaggedInspection","members":[{"astId":5336,"contract":"contracts/modules/InspectionManager.sol:InspectionManager","label":"enterprise","offset":0,"slot":"0","type":"t_address"},{"astId":5338,"contract":"contracts/modules/InspectionManager.sol:InspectionManager","label":"reportIndex","offset":0,"slot":"1","type":"t_uint256"},{"astId":5341,"contract":"contracts/modules/InspectionManager.sol:InspectionManager","label":"report","offset":0,"slot":"2","type":"t_struct(InspectionReport)5334_storage"},{"astId":5343,"contract":"contracts/modules/InspectionManager.sol:InspectionManager","label":"flaggedBy","offset":0,"slot":"8","type":"t_address"},{"astId":5345,"contract":"contracts/modules/InspectionManager.sol:InspectionManager","label":"reason","offset":0,"slot":"9","type":"t_string_storage"},{"astId":5347,"contract":"contracts/modules/InspectionManager.sol:InspectionManager","label":"flaggedAt","offset":0,"slot":"10","type":"t_uint256"}],"numberOfBytes":"352"},"t_struct(InspectionReport)5334_storage":{"encoding":"inplace","label":"struct DataTypes.InspectionReport","members":[{"astId":5321,"contract":"contracts/modules/InspectionManager.sol:InspectionManager","label":"inspector","offset":0,"slot":"0","type":"t_address"},{"astId":5323,"contract":"contracts/modules/InspectionManager.sol:InspectionManager","label":"enterprise","offset":0,"slot":"1","type":"t_address"},{"astId":5325,"contract":"contracts/modules/InspectionManager.sol:InspectionManager","label":"remarks","offset":0,"slot":"2","type":"t_string_storage"},{"astId":5327,"contract":"contracts/modules/InspectionManager.sol:InspectionManager","label":"evidenceURI","offset":0,"slot":"3","type":"t_string_storage"},{"astId":5329,"contract":"contracts/modules/InspectionManager.sol:InspectionManager","label":"inspectedAt","offset":0,"slot":"4","type":"t_uint256"},{"astId":5331,"contract":"contracts/modules/InspectionManager.sol:InspectionManager","label":"passed","offset":0,"slot":"5","type":"t_bool"},{"astId":5333,"contract":"contracts/modules/InspectionManager.sol:InspectionManager","label":"flagged","offset":1,"slot":"5","type":"t_bool"}],"numberOfBytes":"192"},"t_struct(RoleData)21_storage":{"encoding":"inplace","label":"struct AccessControl.RoleData","members":[{"astId":18,"contract":"contracts/modules/InspectionManager.sol:InspectionManager","label":"hasRole","offset":0,"slot":"0","type":"t_mapping(t_address,t_bool)"},{"astId":20,"contract":"contracts/modules/InspectionManager.sol:InspectionManager","label":"adminRole","offset":0,"slot":"1","type":"t_bytes32"}],"numberOfBytes":"64"},"t_uint256":{"encoding":"inplace","label":"uint256","numberOfBytes":"32"}}},"userdoc":{"kind":"user","methods":{"bulkGrantRoles(bytes32[],address[])":{"notice":"---------- # Bulk Role Grant(Auto) ------- //"},"checkExpiryRoles(address)":{"notice":"--------- #  Auto-expiry check (Call periodically) ------- //Emits PublicRoleExpired event on expiry"},"claimTemporaryPublicRole(uint256)":{"notice":"----------- #claim temporary public role -------------- //`durationInHours` must be less than 24 hoursEmits PublicRoleGranted event on successful claim "},"getEnterpriseInspectionReports(address)":{"notice":"Simple reports getter for testing////"},"grantCertifier(address)":{"notice":"---------# GRANTING ROLES ---------//Emits RoleGranted event on successful grant"},"hasAdminRole(address)":{"notice":"--------- # CHECKING ROLES --------- //"},"revokeCertifierRole(address)":{"notice":"------------- # REVOKING ROLES ------------- //Emits RoleRevoked event on successful revoke"},"transferRole(bytes32,address,address)":{"notice":"-------- # Safe Role Transfer ------- //Emits RoleTransferred event on successful transfer"}},"version":1}}}}